{
    "contractName": "InsurancePool",
    "abi": [
        {
            "inputs": [],
            "stateMutability": "nonpayable",
            "type": "constructor"
        },
        {
            "anonymous": false,
            "inputs": [
                {
                    "indexed": false,
                    "internalType": "address",
                    "name": "sender",
                    "type": "address"
                },
                {
                    "indexed": false,
                    "internalType": "string",
                    "name": "message",
                    "type": "string"
                }
            ],
            "name": "fallbackReceived",
            "type": "event"
        },
        {
            "anonymous": false,
            "inputs": [
                {
                    "indexed": true,
                    "internalType": "address",
                    "name": "_memberAddress",
                    "type": "address"
                },
                {
                    "indexed": false,
                    "internalType": "string",
                    "name": "_message",
                    "type": "string"
                }
            ],
            "name": "poolCanceled",
            "type": "event"
        },
        {
            "stateMutability": "nonpayable",
            "type": "fallback"
        },
        {
            "inputs": [
                {
                    "internalType": "address",
                    "name": "_memberAddress",
                    "type": "address"
                }
            ],
            "name": "cancelPool",
            "outputs": [],
            "stateMutability": "nonpayable",
            "type": "function"
        },
        {
            "inputs": [
                {
                    "internalType": "address",
                    "name": "_memberAddress",
                    "type": "address"
                }
            ],
            "name": "cancelSubscription",
            "outputs": [
                {
                    "internalType": "bool",
                    "name": "",
                    "type": "bool"
                }
            ],
            "stateMutability": "nonpayable",
            "type": "function"
        },
        {
            "inputs": [
                {
                    "internalType": "address",
                    "name": "_memberAddress",
                    "type": "address"
                },
                {
                    "internalType": "uint256",
                    "name": "_minNumberOfMembers",
                    "type": "uint256"
                },
                {
                    "internalType": "uint256",
                    "name": "_premium",
                    "type": "uint256"
                },
                {
                    "internalType": "uint256",
                    "name": "_maxCoveragePerMember",
                    "type": "uint256"
                }
            ],
            "name": "createPool",
            "outputs": [],
            "stateMutability": "payable",
            "type": "function"
        },
        {
            "inputs": [
                {
                    "internalType": "address",
                    "name": "_memberAddress",
                    "type": "address"
                }
            ],
            "name": "finishPool",
            "outputs": [
                {
                    "internalType": "bool",
                    "name": "",
                    "type": "bool"
                }
            ],
            "stateMutability": "nonpayable",
            "type": "function"
        },
        {
            "inputs": [
                {
                    "internalType": "address",
                    "name": "_memberAddress",
                    "type": "address"
                }
            ],
            "name": "getMemberBalance",
            "outputs": [
                {
                    "internalType": "uint256",
                    "name": "",
                    "type": "uint256"
                }
            ],
            "stateMutability": "view",
            "type": "function"
        },
        {
            "inputs": [
                {
                    "internalType": "address",
                    "name": "_memberAddress",
                    "type": "address"
                }
            ],
            "name": "getMemberRemainingCoverage",
            "outputs": [
                {
                    "internalType": "uint256",
                    "name": "",
                    "type": "uint256"
                }
            ],
            "stateMutability": "view",
            "type": "function"
        },
        {
            "inputs": [
                {
                    "internalType": "address",
                    "name": "_memberAddress",
                    "type": "address"
                }
            ],
            "name": "getMemberTotalClaims",
            "outputs": [
                {
                    "internalType": "uint256",
                    "name": "",
                    "type": "uint256"
                }
            ],
            "stateMutability": "view",
            "type": "function"
        },
        {
            "inputs": [],
            "name": "getPoolAvailableBalance",
            "outputs": [
                {
                    "internalType": "uint256",
                    "name": "",
                    "type": "uint256"
                }
            ],
            "stateMutability": "view",
            "type": "function"
        },
        {
            "inputs": [],
            "name": "getPoolTotalBalance",
            "outputs": [
                {
                    "internalType": "uint256",
                    "name": "",
                    "type": "uint256"
                }
            ],
            "stateMutability": "view",
            "type": "function"
        },
        {
            "inputs": [
                {
                    "internalType": "address",
                    "name": "_memberAddress",
                    "type": "address"
                }
            ],
            "name": "joinPool",
            "outputs": [],
            "stateMutability": "payable",
            "type": "function"
        },
        {
            "inputs": [],
            "name": "premium",
            "outputs": [
                {
                    "internalType": "uint256",
                    "name": "",
                    "type": "uint256"
                }
            ],
            "stateMutability": "view",
            "type": "function"
        },
        {
            "inputs": [
                {
                    "internalType": "address",
                    "name": "_memberAddress",
                    "type": "address"
                },
                {
                    "internalType": "uint256",
                    "name": "_claimAmount",
                    "type": "uint256"
                }
            ],
            "name": "requestClaim",
            "outputs": [
                {
                    "internalType": "bool",
                    "name": "",
                    "type": "bool"
                }
            ],
            "stateMutability": "nonpayable",
            "type": "function"
        },
        {
            "inputs": [],
            "name": "status",
            "outputs": [
                {
                    "internalType": "enum InsurancePool.PoolStatus",
                    "name": "",
                    "type": "uint8"
                }
            ],
            "stateMutability": "view",
            "type": "function"
        },
        {
            "inputs": [
                {
                    "internalType": "address",
                    "name": "_memberAddress",
                    "type": "address"
                }
            ],
            "name": "withdrawBalance",
            "outputs": [],
            "stateMutability": "nonpayable",
            "type": "function"
        }
    ],
    "bytecode": "608060405234801561001057600080fd5b50611403806100206000396000f3fe6080604052600436106100dd5760003560e01c8063756af45f1161007f578063922d3e4c11610059578063922d3e4c1461029f57806393d81d58146102b2578063ca55753a146102d2578063e0a73a93146102f2576100dd565b8063756af45f1461023f57806388ff87c91461025f5780638dd02fb01461027f576100dd565b80631ae0e73d116100bb5780631ae0e73d146101d0578063200d2ed2146101e357806328a2f8c61461020a57806347cc63131461022a576100dd565b806301e51e971461015c5780630b03bf2b146101915780630dc07a3e146101b3575b3480156100e957600080fd5b5060408051338152602081018290526021818301527f5032505f496e737572616e63652046616c6c6261636b207761732063616c6c656060820152601960fa1b608082015290517f2402f2b60dce6d6a9da700a348a123aac12db0c50649200b5970ead86df8805c9181900360a00190a1005b34801561016857600080fd5b5061017c6101773660046111b8565b610308565b60405190151581526020015b60405180910390f35b34801561019d57600080fd5b506101b16101ac3660046111e2565b610558565b005b3480156101bf57600080fd5b50475b604051908152602001610188565b6101b16101de3660046111e2565b6106ea565b3480156101ef57600080fd5b506005546101fd9060ff1681565b6040516101889190611213565b34801561021657600080fd5b506101c26102253660046111e2565b610857565b34801561023657600080fd5b506101c26108b3565b34801561024b57600080fd5b506101b161025a3660046111e2565b610917565b34801561026b57600080fd5b5061017c61027a3660046111e2565b610b0d565b34801561028b57600080fd5b506101c261029a3660046111e2565b610c8e565b6101b16102ad36600461123b565b610cf6565b3480156102be57600080fd5b5061017c6102cd3660046111e2565b610df4565b3480156102de57600080fd5b506101c26102ed3660046111e2565b611019565b3480156102fe57600080fd5b506101c260035481565b6000600160055460ff166003811115610323576103236111fd565b146103755760405162461bcd60e51b815260206004820152601d60248201527f54686520706f6f6c20737461747573206973206e6f742061637469766500000060448201526064015b60405180910390fd5b818061037f6108b3565b10156103cd5760405162461bcd60e51b815260206004820152601c60248201527f54686520706f6f6c20686173206e6f20656e6f7567682066756e642000000000604482015260640161036c565b60005460ff16156103f05760405162461bcd60e51b815260040161036c90611274565b6000805460ff1916600117815561040685611075565b905060008112156104295760405162461bcd60e51b815260040161036c9061129d565b60006001828154811061043e5761043e6112d4565b906000526020600020906003020190506004548582600201546104619190611300565b11156104ef5760405162461bcd60e51b815260206004820152605160248201527f54686520636c61696d2063616e27742062652070726f6365737365642062656360448201527f6175736520746865206d656d6265722068617320657863656564656420697473606482015270206d6178696d756d20636f76657261676560781b608482015260a40161036c565b848160020160008282546105039190611300565b909155505080546040516001600160a01b039091169086156108fc029087906000818181858888f19350505050158015610541573d6000803e3d6000fd5b50506000805460ff19169055506001949350505050565b80600160008154811061056d5761056d6112d4565b60009182526020909120600390910201546001600160a01b038281169116146105d85760405162461bcd60e51b815260206004820152601a60248201527f4974206973206e6f742074686520706f6f6c206d616e61676572000000000000604482015260640161036c565b600060055460ff1660038111156105f1576105f16111fd565b1461060e5760405162461bcd60e51b815260040161036c90611318565b6005805460ff1916600317905560005b600154811015610676576003546001828154811061063e5761063e6112d4565b9060005260206000209060030201600101600082825461065e9190611300565b9091555081905061066e8161134d565b91505061061e565b50816001600160a01b03167f3d8f0efe0ca5f23697984bd83ad21dfe056fe58d2a57df07deca3637272b50256040516106de906020808252818101527f54686520706f6f6c2069732073756365737366756c6c792063616e63656c6564604082015260600190565b60405180910390a25050565b6106f381611075565b600019146107435760405162461bcd60e51b815260206004820152601f60248201527f4d656d62657220616c7265616479206a6f696e6564207468697320706f6f6c00604482015260640161036c565b610770604051806060016040528060006001600160a01b0316815260200160008152602001600081525090565b6001600160a01b0382168152600060408201526003546107909034611368565b60208201908152600180548082018255600082905283517fb10e2d527612073b26eecdfd717e6a320cf44b4afac2b0732d9fcbe2b7fa0cf6600390920291820180546001600160a01b0319166001600160a01b0390921691909117905591517fb10e2d527612073b26eecdfd717e6a320cf44b4afac2b0732d9fcbe2b7fa0cf783015560408301517fb10e2d527612073b26eecdfd717e6a320cf44b4afac2b0732d9fcbe2b7fa0cf89092019190915560025490541415610853576108536110dc565b5050565b60008061086383611075565b905060008112156108865760405162461bcd60e51b815260040161036c9061129d565b60018181548110610899576108996112d4565b906000526020600020906003020160020154915050919050565b600080805b60015481101561090657600181815481106108d5576108d56112d4565b906000526020600020906003020160010154826108f29190611300565b9150806108fe8161134d565b9150506108b8565b506109118147611368565b91505090565b60005460ff161561093a5760405162461bcd60e51b815260040161036c90611274565b6000805460ff1916600117815561095082611075565b905060008112156109975760405162461bcd60e51b81526020600482015260116024820152702737ba1030903837b7b61036b2b6b132b960791b604482015260640161036c565b60008190506000600182815481106109b1576109b16112d4565b906000526020600020906003020160010154905060008111610a0c5760405162461bcd60e51b81526020600482015260146024820152734e6f20617661696c61626c652062616c616e636560601b604482015260640161036c565b600060018381548110610a2157610a216112d4565b9060005260206000209060030201600101819055506000846001600160a01b03168260405160006040518083038185875af1925050503d8060008114610a83576040519150601f19603f3d011682016040523d82523d6000602084013e610a88565b606091505b5050905080610acb5760405162461bcd60e51b815260206004820152600f60248201526e151c985b9cd9995c8819985a5b1959608a1b604482015260640161036c565b600360055460ff166003811115610ae457610ae46111fd565b148015610aef575047155b15610afc57610afc611125565b50506000805460ff19169055505050565b6000816001600081548110610b2457610b246112d4565b60009182526020909120600390910201546001600160a01b03828116911614610b8f5760405162461bcd60e51b815260206004820152601a60248201527f4974206973206e6f742074686520706f6f6c206d616e61676572000000000000604482015260640161036c565b600160055460ff166003811115610ba857610ba86111fd565b14610bf55760405162461bcd60e51b815260206004820152601d60248201527f54686520706f6f6c20737461747573206973206e6f7420616374697665000000604482015260640161036c565b6005805460ff191660021790556000610c0c6108b3565b90508015610c8257600154600090610c24908361137f565b905060005b600154811015610c7f578160018281548110610c4757610c476112d4565b90600052602060002090600302016001016000828254610c679190611300565b90915550819050610c778161134d565b915050610c29565b50505b60019250505b50919050565b600080610c9a83611075565b90506000811215610cbd5760405162461bcd60e51b815260040161036c9061129d565b60018181548110610cd057610cd06112d4565b906000526020600020906003020160020154600454610cef9190611368565b9392505050565b60028390556003829055600481905560408051606081018252600060208201819052918101919091526001600160a01b0385168152610d358334611368565b6020820190815260018054808201825560009190915282517fb10e2d527612073b26eecdfd717e6a320cf44b4afac2b0732d9fcbe2b7fa0cf6600390920291820180546001600160a01b0319166001600160a01b0390921691909117905590517fb10e2d527612073b26eecdfd717e6a320cf44b4afac2b0732d9fcbe2b7fa0cf78201556040909101517fb10e2d527612073b26eecdfd717e6a320cf44b4afac2b0732d9fcbe2b7fa0cf89091015550506005805460ff191690555050565b60008060055460ff166003811115610e0e57610e0e6111fd565b14610e2b5760405162461bcd60e51b815260040161036c90611318565b60005460ff1615610e4e5760405162461bcd60e51b815260040161036c90611274565b6000805460ff19166001178155610e6483611075565b905060008113610eca5760405162461bcd60e51b815260206004820152602b60248201527f4e6f74206120706f6f6c206d656d626572206f7220686520697320746865207060448201526a37b7b61036b0b730b3b2b960a91b606482015260840161036c565b6000819050600060018281548110610ee457610ee46112d4565b6000918252602090912060039091020154600180546001600160a01b03909216925090610f12908290611368565b81548110610f2257610f226112d4565b906000526020600020906003020160018381548110610f4357610f436112d4565b60009182526020909120825460039092020180546001600160a01b0319166001600160a01b03909216919091178155600180830154818301556002928301549290910191909155805480610f9957610f996113a1565b600082815260208120600360001990930183810290910180546001600160a01b031916815560018101839055600201829055909255546040516001600160a01b0384169282156108fc02929190818181858888f19350505050158015611003573d6000803e3d6000fd5b50506000805460ff191690555060019392505050565b60008061102583611075565b905060008112156110485760405162461bcd60e51b815260040161036c9061129d565b6001818154811061105b5761105b6112d4565b906000526020600020906003020160010154915050919050565b60001960005b600154811015610c8857826001600160a01b0316600182815481106110a2576110a26112d4565b60009182526020909120600390910201546001600160a01b031614156110ca57809150610c88565b806110d48161134d565b91505061107b565b600060055460ff1660038111156110f5576110f56111fd565b146111125760405162461bcd60e51b815260040161036c90611318565b6005805460ff1916600117905542600655565b600360055460ff16600381111561113e5761113e6111fd565b1461118b5760405162461bcd60e51b815260206004820152601f60248201527f54686520706f6f6c20737461747573206973206e6f742063616e63656c656400604482015260640161036c565b4715611199576111996113b7565b33ff5b80356001600160a01b03811681146111b357600080fd5b919050565b600080604083850312156111cb57600080fd5b6111d48361119c565b946020939093013593505050565b6000602082840312156111f457600080fd5b610cef8261119c565b634e487b7160e01b600052602160045260246000fd5b602081016004831061123557634e487b7160e01b600052602160045260246000fd5b91905290565b6000806000806080858703121561125157600080fd5b61125a8561119c565b966020860135965060408601359560600135945092505050565b6020808252600f908201526e2932b2b73a3930b73a1031b0b6361760891b604082015260600190565b60208082526017908201527f4974206973206e6f74206120706f6f6c206d656d626572000000000000000000604082015260600190565b634e487b7160e01b600052603260045260246000fd5b634e487b7160e01b600052601160045260246000fd5b60008219821115611313576113136112ea565b500190565b6020808252818101527f54686520706f6f6c20737461747573206973206e6f7420696e69746961746564604082015260600190565b6000600019821415611361576113616112ea565b5060010190565b60008282101561137a5761137a6112ea565b500390565b60008261139c57634e487b7160e01b600052601260045260246000fd5b500490565b634e487b7160e01b600052603160045260246000fd5b634e487b7160e01b600052600160045260246000fdfea2646970667358221220586d9465cc48ba443f5a31bc0e880bc8627b27bea863a5d89ce48d043ffa4cdf64736f6c634300080a0033",
    "sourcePath": "/mnt/c/Users/pc1/blockchain-developer-bootcamp-final-project/Contracts/InsurancePool.sol",
    "compiler": {
        "name": "solc",
        "version": "0.8.10+commit.fc410830"
    },
    "functionHashes": {
        "cancelPool(address)": "0b03bf2b",
        "cancelSubscription(address)": "93d81d58",
        "createPool(address,uint256,uint256,uint256)": "922d3e4c",
        "finishPool(address)": "88ff87c9",
        "getMemberBalance(address)": "ca55753a",
        "getMemberRemainingCoverage(address)": "8dd02fb0",
        "getMemberTotalClaims(address)": "28a2f8c6",
        "getPoolAvailableBalance()": "47cc6313",
        "getPoolTotalBalance()": "0dc07a3e",
        "joinPool(address)": "1ae0e73d",
        "premium()": "e0a73a93",
        "requestClaim(address,uint256)": "01e51e97",
        "status()": "200d2ed2",
        "withdrawBalance(address)": "756af45f"
    },
    "gasEstimates": {
        "creation": {
            "codeDepositCost": "1024600",
            "executionCost": "1067",
            "totalCost": "1025667"
        },
        "external": {
            "": "2352",
            "cancelPool(address)": "infinite",
            "cancelSubscription(address)": "infinite",
            "createPool(address,uint256,uint256,uint256)": "166767",
            "finishPool(address)": "infinite",
            "getMemberBalance(address)": "infinite",
            "getMemberRemainingCoverage(address)": "infinite",
            "getMemberTotalClaims(address)": "infinite",
            "getPoolAvailableBalance()": "infinite",
            "getPoolTotalBalance()": "251",
            "joinPool(address)": "infinite",
            "premium()": "2383",
            "requestClaim(address,uint256)": "infinite",
            "status()": "2396",
            "withdrawBalance(address)": "infinite"
        },
        "internal": {
            "activatePool()": "infinite",
            "getMemberIndex(address)": "infinite",
            "selfDestructPool()": "infinite"
        }
    }
}