{
  "contractName": "InsurancePool",
  "abi": [
    {
      "inputs": [],
      "stateMutability": "nonpayable",
      "type": "constructor"
    },
    {
      "anonymous": false,
      "inputs": [
        {
          "indexed": false,
          "internalType": "address",
          "name": "sender",
          "type": "address"
        },
        {
          "indexed": false,
          "internalType": "string",
          "name": "message",
          "type": "string"
        }
      ],
      "name": "fallbackReceived",
      "type": "event"
    },
    {
      "anonymous": false,
      "inputs": [
        {
          "indexed": true,
          "internalType": "address",
          "name": "_memberAddress",
          "type": "address"
        },
        {
          "indexed": false,
          "internalType": "string",
          "name": "_message",
          "type": "string"
        }
      ],
      "name": "poolCanceled",
      "type": "event"
    },
    {
      "stateMutability": "nonpayable",
      "type": "fallback"
    },
    {
      "inputs": [],
      "name": "premium",
      "outputs": [
        {
          "internalType": "uint256",
          "name": "",
          "type": "uint256"
        }
      ],
      "stateMutability": "view",
      "type": "function"
    },
    {
      "inputs": [],
      "name": "status",
      "outputs": [
        {
          "internalType": "enum InsurancePool.PoolStatus",
          "name": "",
          "type": "uint8"
        }
      ],
      "stateMutability": "view",
      "type": "function"
    },
    {
      "inputs": [],
      "name": "getPoolTotalBalance",
      "outputs": [
        {
          "internalType": "uint256",
          "name": "",
          "type": "uint256"
        }
      ],
      "stateMutability": "view",
      "type": "function"
    },
    {
      "inputs": [],
      "name": "getPoolAddress",
      "outputs": [
        {
          "internalType": "address",
          "name": "",
          "type": "address"
        }
      ],
      "stateMutability": "view",
      "type": "function"
    },
    {
      "inputs": [],
      "name": "getPoolAvailableBalance",
      "outputs": [
        {
          "internalType": "uint256",
          "name": "",
          "type": "uint256"
        }
      ],
      "stateMutability": "view",
      "type": "function"
    },
    {
      "inputs": [
        {
          "internalType": "address",
          "name": "_memberAddress",
          "type": "address"
        }
      ],
      "name": "getMemberBalance",
      "outputs": [
        {
          "internalType": "uint256",
          "name": "",
          "type": "uint256"
        }
      ],
      "stateMutability": "view",
      "type": "function"
    },
    {
      "inputs": [
        {
          "internalType": "address",
          "name": "_memberAddress",
          "type": "address"
        }
      ],
      "name": "getMemberTotalClaims",
      "outputs": [
        {
          "internalType": "uint256",
          "name": "",
          "type": "uint256"
        }
      ],
      "stateMutability": "view",
      "type": "function"
    },
    {
      "inputs": [
        {
          "internalType": "address",
          "name": "_memberAddress",
          "type": "address"
        }
      ],
      "name": "getMemberRemainingCoverage",
      "outputs": [
        {
          "internalType": "uint256",
          "name": "",
          "type": "uint256"
        }
      ],
      "stateMutability": "view",
      "type": "function"
    },
    {
      "inputs": [
        {
          "internalType": "address",
          "name": "_memberAddress",
          "type": "address"
        },
        {
          "internalType": "uint256",
          "name": "_minNumberOfMembers",
          "type": "uint256"
        },
        {
          "internalType": "uint256",
          "name": "_premium",
          "type": "uint256"
        },
        {
          "internalType": "uint256",
          "name": "_maxCoveragePerMember",
          "type": "uint256"
        }
      ],
      "name": "createPool",
      "outputs": [],
      "stateMutability": "payable",
      "type": "function"
    },
    {
      "inputs": [
        {
          "internalType": "address",
          "name": "_memberAddress",
          "type": "address"
        }
      ],
      "name": "joinPool",
      "outputs": [],
      "stateMutability": "payable",
      "type": "function"
    },
    {
      "inputs": [
        {
          "internalType": "address",
          "name": "_memberAddress",
          "type": "address"
        }
      ],
      "name": "cancelPool",
      "outputs": [],
      "stateMutability": "nonpayable",
      "type": "function"
    },
    {
      "inputs": [
        {
          "internalType": "address",
          "name": "_memberAddress",
          "type": "address"
        }
      ],
      "name": "cancelSubscription",
      "outputs": [
        {
          "internalType": "bool",
          "name": "",
          "type": "bool"
        }
      ],
      "stateMutability": "nonpayable",
      "type": "function"
    },
    {
      "inputs": [
        {
          "internalType": "address",
          "name": "_memberAddress",
          "type": "address"
        }
      ],
      "name": "finishPool",
      "outputs": [
        {
          "internalType": "bool",
          "name": "",
          "type": "bool"
        }
      ],
      "stateMutability": "nonpayable",
      "type": "function"
    },
    {
      "inputs": [
        {
          "internalType": "address",
          "name": "_memberAddress",
          "type": "address"
        },
        {
          "internalType": "uint256",
          "name": "_claimAmount",
          "type": "uint256"
        }
      ],
      "name": "requestClaim",
      "outputs": [
        {
          "internalType": "bool",
          "name": "",
          "type": "bool"
        }
      ],
      "stateMutability": "nonpayable",
      "type": "function"
    },
    {
      "inputs": [
        {
          "internalType": "address",
          "name": "_memberAddress",
          "type": "address"
        }
      ],
      "name": "withdrawBalance",
      "outputs": [],
      "stateMutability": "nonpayable",
      "type": "function"
    }
  ],
  "bytecode": "0x608060405234801561001057600080fd5b50612359806100206000396000f3fe6080604052600436106100ec5760003560e01c8063756af45f1161008a57806393d81d581161005957806393d81d5814610332578063ca55753a1461036f578063e0a73a93146103ac578063f586c6d9146103d7576100ed565b8063756af45f1461027357806388ff87c91461029c5780638dd02fb0146102d9578063922d3e4c14610316576100ed565b80631ae0e73d116100c65780631ae0e73d146101c4578063200d2ed2146101e057806328a2f8c61461020b57806347cc631314610248576100ed565b806301e51e97146101335780630b03bf2b146101705780630dc07a3e14610199576100ed565b5b3480156100f957600080fd5b507f2402f2b60dce6d6a9da700a348a123aac12db0c50649200b5970ead86df8805c33604051610129919061181e565b60405180910390a1005b34801561013f57600080fd5b5061015a600480360381019061015591906118b3565b610402565b604051610167919061190e565b60405180910390f35b34801561017c57600080fd5b5061019760048036038101906101929190611929565b6106a5565b005b3480156101a557600080fd5b506101ae6108ad565b6040516101bb9190611965565b60405180910390f35b6101de60048036038101906101d99190611929565b6108b5565b005b3480156101ec57600080fd5b506101f5610a26565b60405161020291906119f7565b60405180910390f35b34801561021757600080fd5b50610232600480360381019061022d9190611929565b610a39565b60405161023f9190611965565b60405180910390f35b34801561025457600080fd5b5061025d610ab9565b60405161026a9190611965565b60405180910390f35b34801561027f57600080fd5b5061029a60048036038101906102959190611929565b610b30565b005b3480156102a857600080fd5b506102c360048036038101906102be9190611929565b610daa565b6040516102d0919061190e565b60405180910390f35b3480156102e557600080fd5b5061030060048036038101906102fb9190611929565b610f99565b60405161030d9190611965565b60405180910390f35b610330600480360381019061032b9190611a12565b611026565b005b34801561033e57600080fd5b5061035960048036038101906103549190611929565b611156565b604051610366919061190e565b60405180910390f35b34801561037b57600080fd5b5061039660048036038101906103919190611929565b611476565b6040516103a39190611965565b60405180910390f35b3480156103b857600080fd5b506103c16114f6565b6040516103ce9190611965565b60405180910390f35b3480156103e357600080fd5b506103ec6114fc565b6040516103f99190611a79565b60405180910390f35b60006001600381111561041857610417611980565b5b600560009054906101000a900460ff16600381111561043a57610439611980565b5b1461047a576040517f08c379a000000000000000000000000000000000000000000000000000000000815260040161047190611ae0565b60405180910390fd5b8180610484610ab9565b10156104c5576040517f08c379a00000000000000000000000000000000000000000000000000000000081526004016104bc90611b4c565b60405180910390fd5b60008054906101000a900460ff1615610513576040517f08c379a000000000000000000000000000000000000000000000000000000000815260040161050a90611bb8565b60405180910390fd5b60016000806101000a81548160ff021916908315150217905550600061053885611504565b9050600081121561057e576040517f08c379a000000000000000000000000000000000000000000000000000000000815260040161057590611c24565b60405180910390fd5b60006001828154811061059457610593611c44565b5b906000526020600020906003020190506004548582600201546105b79190611ca2565b11156105f8576040517f08c379a00000000000000000000000000000000000000000000000000000000081526004016105ef90611d90565b60405180910390fd5b8481600201600082825461060c9190611ca2565b925050819055508060000160009054906101000a900473ffffffffffffffffffffffffffffffffffffffff1673ffffffffffffffffffffffffffffffffffffffff166108fc869081150290604051600060405180830381858888f1935050505015801561067d573d6000803e3d6000fd5b5060019350505060008060006101000a81548160ff0219169083151502179055505092915050565b8060016000815481106106bb576106ba611c44565b5b906000526020600020906003020160000160009054906101000a900473ffffffffffffffffffffffffffffffffffffffff1673ffffffffffffffffffffffffffffffffffffffff168173ffffffffffffffffffffffffffffffffffffffff161461075a576040517f08c379a000000000000000000000000000000000000000000000000000000000815260040161075190611dfc565b60405180910390fd5b6000600381111561076e5761076d611980565b5b600560009054906101000a900460ff1660038111156107905761078f611980565b5b146107d0576040517f08c379a00000000000000000000000000000000000000000000000000000000081526004016107c790611e68565b60405180910390fd5b6003600560006101000a81548160ff021916908360038111156107f6576107f5611980565b5b021790555060005b60018054905081101561085c576003546001828154811061082257610821611c44565b5b906000526020600020906003020160010160008282546108429190611ca2565b92505081905550808061085490611e88565b9150506107fe565b508173ffffffffffffffffffffffffffffffffffffffff167f3d8f0efe0ca5f23697984bd83ad21dfe056fe58d2a57df07deca3637272b50256040516108a190611f1d565b60405180910390a25050565b600047905090565b7fffffffffffffffffffffffffffffffffffffffffffffffffffffffffffffffff6108df82611504565b1461091f576040517f08c379a000000000000000000000000000000000000000000000000000000000815260040161091690611f89565b60405180910390fd5b610927611723565b81816000019073ffffffffffffffffffffffffffffffffffffffff16908173ffffffffffffffffffffffffffffffffffffffff16815250506000816040018181525050600354346109789190611fa9565b816020018181525050600181908060018154018082558091505060019003906000526020600020906003020160009091909190915060008201518160000160006101000a81548173ffffffffffffffffffffffffffffffffffffffff021916908373ffffffffffffffffffffffffffffffffffffffff160217905550602082015181600101556040820151816002015550506002546001805490501415610a2257610a216115d3565b5b5050565b600560009054906101000a900460ff1681565b600080610a4583611504565b90506000811215610a8b576040517f08c379a0000000000000000000000000000000000000000000000000000000008152600401610a8290611c24565b60405180910390fd5b60018181548110610a9f57610a9e611c44565b5b906000526020600020906003020160020154915050919050565b6000806000905060005b600180549050811015610b165760018181548110610ae457610ae3611c44565b5b90600052602060002090600302016001015482610b019190611ca2565b91508080610b0e90611e88565b915050610ac3565b5080610b206108ad565b610b2a9190611fa9565b91505090565b60008054906101000a900460ff1615610b7e576040517f08c379a0000000000000000000000000000000000000000000000000000000008152600401610b7590611bb8565b60405180910390fd5b60016000806101000a81548160ff0219169083151502179055506000610ba382611504565b90506000811215610be9576040517f08c379a0000000000000000000000000000000000000000000000000000000008152600401610be090612029565b60405180910390fd5b6000819050600060018281548110610c0457610c03611c44565b5b906000526020600020906003020160010154905060008111610c5b576040517f08c379a0000000000000000000000000000000000000000000000000000000008152600401610c5290612095565b60405180910390fd5b600060018381548110610c7157610c70611c44565b5b90600052602060002090600302016001018190555060008473ffffffffffffffffffffffffffffffffffffffff1682604051610cac906120e6565b60006040518083038185875af1925050503d8060008114610ce9576040519150601f19603f3d011682016040523d82523d6000602084013e610cee565b606091505b5050905080610d32576040517f08c379a0000000000000000000000000000000000000000000000000000000008152600401610d2990612147565b60405180910390fd5b600380811115610d4557610d44611980565b5b600560009054906101000a900460ff166003811115610d6757610d66611980565b5b148015610d7b57506000610d796108ad565b145b15610d8957610d8861167d565b5b5050505060008060006101000a81548160ff02191690831515021790555050565b6000816001600081548110610dc257610dc1611c44565b5b906000526020600020906003020160000160009054906101000a900473ffffffffffffffffffffffffffffffffffffffff1673ffffffffffffffffffffffffffffffffffffffff168173ffffffffffffffffffffffffffffffffffffffff1614610e61576040517f08c379a0000000000000000000000000000000000000000000000000000000008152600401610e5890611dfc565b60405180910390fd5b60016003811115610e7557610e74611980565b5b600560009054906101000a900460ff166003811115610e9757610e96611980565b5b14610ed7576040517f08c379a0000000000000000000000000000000000000000000000000000000008152600401610ece90611ae0565b60405180910390fd5b6002600560006101000a81548160ff02191690836003811115610efd57610efc611980565b5b02179055506000610f0c610ab9565b90506000811115610f8e57600060018054905082610f2a9190612196565b905060005b600180549050811015610f8b578160018281548110610f5157610f50611c44565b5b90600052602060002090600302016001016000828254610f719190611ca2565b925050819055508080610f8390611e88565b915050610f2f565b50505b600192505050919050565b600080610fa583611504565b90506000811215610feb576040517f08c379a0000000000000000000000000000000000000000000000000000000008152600401610fe290611c24565b60405180910390fd5b60018181548110610fff57610ffe611c44565b5b90600052602060002090600302016002015460045461101e9190611fa9565b915050919050565b826002819055508160038190555080600481905550611043611723565b84816000019073ffffffffffffffffffffffffffffffffffffffff16908173ffffffffffffffffffffffffffffffffffffffff1681525050600081604001818152505082346110929190611fa9565b816020018181525050600181908060018154018082558091505060019003906000526020600020906003020160009091909190915060008201518160000160006101000a81548173ffffffffffffffffffffffffffffffffffffffff021916908373ffffffffffffffffffffffffffffffffffffffff160217905550602082015181600101556040820151816002015550506000600560006101000a81548160ff0219169083600381111561114a57611149611980565b5b02179055505050505050565b600080600381111561116b5761116a611980565b5b600560009054906101000a900460ff16600381111561118d5761118c611980565b5b146111cd576040517f08c379a00000000000000000000000000000000000000000000000000000000081526004016111c490611e68565b60405180910390fd5b60008054906101000a900460ff161561121b576040517f08c379a000000000000000000000000000000000000000000000000000000000815260040161121290611bb8565b60405180910390fd5b60016000806101000a81548160ff021916908315150217905550600061124083611504565b905060008113611285576040517f08c379a000000000000000000000000000000000000000000000000000000000815260040161127c90612239565b60405180910390fd5b60008190506000600182815481106112a05761129f611c44565b5b906000526020600020906003020160000160009054906101000a900473ffffffffffffffffffffffffffffffffffffffff16905060018080805490506112e69190611fa9565b815481106112f7576112f6611c44565b5b90600052602060002090600302016001838154811061131957611318611c44565b5b90600052602060002090600302016000820160009054906101000a900473ffffffffffffffffffffffffffffffffffffffff168160000160006101000a81548173ffffffffffffffffffffffffffffffffffffffff021916908373ffffffffffffffffffffffffffffffffffffffff160217905550600182015481600101556002820154816002015590505060018054806113b7576113b6612259565b5b6001900381819060005260206000209060030201600080820160006101000a81549073ffffffffffffffffffffffffffffffffffffffff021916905560018201600090556002820160009055505090558073ffffffffffffffffffffffffffffffffffffffff166108fc6003549081150290604051600060405180830381858888f1935050505015801561144f573d6000803e3d6000fd5b506001935050505060008060006101000a81548160ff021916908315150217905550919050565b60008061148283611504565b905060008112156114c8576040517f08c379a00000000000000000000000000000000000000000000000000000000081526004016114bf90611c24565b60405180910390fd5b600181815481106114dc576114db611c44565b5b906000526020600020906003020160010154915050919050565b60035481565b600030905090565b60007fffffffffffffffffffffffffffffffffffffffffffffffffffffffffffffffff905060005b6001805490508110156115cd578273ffffffffffffffffffffffffffffffffffffffff166001828154811061156457611563611c44565b5b906000526020600020906003020160000160009054906101000a900473ffffffffffffffffffffffffffffffffffffffff1673ffffffffffffffffffffffffffffffffffffffff1614156115ba578091506115cd565b80806115c590611e88565b91505061152c565b50919050565b600060038111156115e7576115e6611980565b5b600560009054906101000a900460ff16600381111561160957611608611980565b5b14611649576040517f08c379a000000000000000000000000000000000000000000000000000000000815260040161164090611e68565b60405180910390fd5b6001600560006101000a81548160ff0219169083600381111561166f5761166e611980565b5b021790555042600681905550565b6003808111156116905761168f611980565b5b600560009054906101000a900460ff1660038111156116b2576116b1611980565b5b146116f2576040517f08c379a00000000000000000000000000000000000000000000000000000000081526004016116e9906122d4565b60405180910390fd5b60006116fc6108ad565b1461170a576117096122f4565b5b3373ffffffffffffffffffffffffffffffffffffffff16ff5b6040518060600160405280600073ffffffffffffffffffffffffffffffffffffffff16815260200160008152602001600081525090565b600073ffffffffffffffffffffffffffffffffffffffff82169050919050565b60006117858261175a565b9050919050565b6117958161177a565b82525050565b600082825260208201905092915050565b7f5032505f496e737572616e63652046616c6c6261636b207761732063616c6c6560008201527f6400000000000000000000000000000000000000000000000000000000000000602082015250565b600061180860218361179b565b9150611813826117ac565b604082019050919050565b6000604082019050611833600083018461178c565b8181036020830152611844816117fb565b905092915050565b600080fd5b61185a8161177a565b811461186557600080fd5b50565b60008135905061187781611851565b92915050565b6000819050919050565b6118908161187d565b811461189b57600080fd5b50565b6000813590506118ad81611887565b92915050565b600080604083850312156118ca576118c961184c565b5b60006118d885828601611868565b92505060206118e98582860161189e565b9150509250929050565b60008115159050919050565b611908816118f3565b82525050565b600060208201905061192360008301846118ff565b92915050565b60006020828403121561193f5761193e61184c565b5b600061194d84828501611868565b91505092915050565b61195f8161187d565b82525050565b600060208201905061197a6000830184611956565b92915050565b7f4e487b7100000000000000000000000000000000000000000000000000000000600052602160045260246000fd5b600481106119c0576119bf611980565b5b50565b60008190506119d1826119af565b919050565b60006119e1826119c3565b9050919050565b6119f1816119d6565b82525050565b6000602082019050611a0c60008301846119e8565b92915050565b60008060008060808587031215611a2c57611a2b61184c565b5b6000611a3a87828801611868565b9450506020611a4b8782880161189e565b9350506040611a5c8782880161189e565b9250506060611a6d8782880161189e565b91505092959194509250565b6000602082019050611a8e600083018461178c565b92915050565b7f54686520706f6f6c20737461747573206973206e6f7420616374697665000000600082015250565b6000611aca601d8361179b565b9150611ad582611a94565b602082019050919050565b60006020820190508181036000830152611af981611abd565b9050919050565b7f54686520706f6f6c20686173206e6f20656e6f7567682066756e642000000000600082015250565b6000611b36601c8361179b565b9150611b4182611b00565b602082019050919050565b60006020820190508181036000830152611b6581611b29565b9050919050565b7f5265656e7472616e742063616c6c2e0000000000000000000000000000000000600082015250565b6000611ba2600f8361179b565b9150611bad82611b6c565b602082019050919050565b60006020820190508181036000830152611bd181611b95565b9050919050565b7f4974206973206e6f74206120706f6f6c206d656d626572000000000000000000600082015250565b6000611c0e60178361179b565b9150611c1982611bd8565b602082019050919050565b60006020820190508181036000830152611c3d81611c01565b9050919050565b7f4e487b7100000000000000000000000000000000000000000000000000000000600052603260045260246000fd5b7f4e487b7100000000000000000000000000000000000000000000000000000000600052601160045260246000fd5b6000611cad8261187d565b9150611cb88361187d565b9250827fffffffffffffffffffffffffffffffffffffffffffffffffffffffffffffffff03821115611ced57611cec611c73565b5b828201905092915050565b7f54686520636c61696d2063616e27742062652070726f6365737365642062656360008201527f6175736520746865206d656d626572206861732065786365656465642069747360208201527f206d6178696d756d20636f766572616765000000000000000000000000000000604082015250565b6000611d7a60518361179b565b9150611d8582611cf8565b606082019050919050565b60006020820190508181036000830152611da981611d6d565b9050919050565b7f4974206973206e6f742074686520706f6f6c206d616e61676572000000000000600082015250565b6000611de6601a8361179b565b9150611df182611db0565b602082019050919050565b60006020820190508181036000830152611e1581611dd9565b9050919050565b7f54686520706f6f6c20737461747573206973206e6f7420696e69746961746564600082015250565b6000611e5260208361179b565b9150611e5d82611e1c565b602082019050919050565b60006020820190508181036000830152611e8181611e45565b9050919050565b6000611e938261187d565b91507fffffffffffffffffffffffffffffffffffffffffffffffffffffffffffffffff821415611ec657611ec5611c73565b5b600182019050919050565b7f54686520706f6f6c2069732073756365737366756c6c792063616e63656c6564600082015250565b6000611f0760208361179b565b9150611f1282611ed1565b602082019050919050565b60006020820190508181036000830152611f3681611efa565b9050919050565b7f4d656d62657220616c7265616479206a6f696e6564207468697320706f6f6c00600082015250565b6000611f73601f8361179b565b9150611f7e82611f3d565b602082019050919050565b60006020820190508181036000830152611fa281611f66565b9050919050565b6000611fb48261187d565b9150611fbf8361187d565b925082821015611fd257611fd1611c73565b5b828203905092915050565b7f4e6f74206120706f6f6c206d656d626572000000000000000000000000000000600082015250565b600061201360118361179b565b915061201e82611fdd565b602082019050919050565b6000602082019050818103600083015261204281612006565b9050919050565b7f4e6f20617661696c61626c652062616c616e6365000000000000000000000000600082015250565b600061207f60148361179b565b915061208a82612049565b602082019050919050565b600060208201905081810360008301526120ae81612072565b9050919050565b600081905092915050565b50565b60006120d06000836120b5565b91506120db826120c0565b600082019050919050565b60006120f1826120c3565b9150819050919050565b7f5472616e73666572206661696c65640000000000000000000000000000000000600082015250565b6000612131600f8361179b565b915061213c826120fb565b602082019050919050565b6000602082019050818103600083015261216081612124565b9050919050565b7f4e487b7100000000000000000000000000000000000000000000000000000000600052601260045260246000fd5b60006121a18261187d565b91506121ac8361187d565b9250826121bc576121bb612167565b5b828204905092915050565b7f4e6f74206120706f6f6c206d656d626572206f7220686520697320746865207060008201527f6f6f6c206d616e61676572000000000000000000000000000000000000000000602082015250565b6000612223602b8361179b565b915061222e826121c7565b604082019050919050565b6000602082019050818103600083015261225281612216565b9050919050565b7f4e487b7100000000000000000000000000000000000000000000000000000000600052603160045260246000fd5b7f54686520706f6f6c20737461747573206973206e6f742063616e63656c656400600082015250565b60006122be601f8361179b565b91506122c982612288565b602082019050919050565b600060208201905081810360008301526122ed816122b1565b9050919050565b7f4e487b7100000000000000000000000000000000000000000000000000000000600052600160045260246000fdfea2646970667358221220603737b7fb1451c7a86141ab64a62ae72c9c881748b22de93b8debbae586550d64736f6c634300080a0033",
  "immutableReferences": {},
  "source": "// SPDX-License-Identifier: MIT\npragma solidity 0.8.10;\n\nimport \"./PoolMember.sol\";\n\ncontract InsurancePool is PoolMember{\n\n    bool locked; // used for reentrancy checks\n    PoolMember.Member[] members; // Always members[0] is the pool manager\n    uint minNumberOfMembers; // the minimum number of members in a pool - Unit256 as there is no potential packing here\n    uint public premium; // the pool premium in Wei\n    uint maxCoveragePerMember; // the maximum coverage by a pool to a member - in Wei\n    PoolStatus public status; //the pool status\n    uint policyStartDate; // the policy start date since activation - policy validity is one year by defualt\n\n    /* there will be other attributes offchain/frontend such as pool terms and conditions, pool coverage, max number of members, etc.\n       max number of members - could be important for Block Gas Limit DoS - to limit members array size */\n\n    /* ReInsurer reInsurer; we can add the ReInsurer contract - in future - when we manage the re-insurance process:\n       the pool members get themselves covered with the help of reinsurance in case of exceeding pool coverage.\n       And of course, some part of premium/contribution is shared with reinsurers */\n\n    // Escrew account is the pool contract address: address (this);\n    //(address) this.balance has the pool avialable fund\n\n    enum PoolStatus {\n        Initiated,\n        Active,\n        Finished,\n        Canceled\n    }\n\n    modifier onlyInitiatedPool () {\n        require (status == PoolStatus.Initiated,\"The pool status is not initiated\");\n        _;\n    }\n\n    modifier onlyActivePool () {\n        require (status == PoolStatus.Active,\"The pool status is not active\");\n        _;\n    }\n\n    modifier onlyFinishedPool () {\n        require (status == PoolStatus.Finished,\"The pool status is not finished\");\n        _;\n    }\n\n    modifier onlycanceledPool () {\n        require (status == PoolStatus.Canceled,\"The pool status is not canceled\");\n        _;\n    }\n\n    // the pool manager is the first member and it is initiated with the create pool function\n    modifier onlyPoolManager (address _sender) {\n        require (_sender == members[0].memberAddress,\"It is not the pool manager\");\n        _;\n    }\n    \n    // not useful - because we always need to return the member id and modifier doesn't return values\n    /*modifier onlyPoolMember (address _sender)\n    {\n        int poolMemberId = getMemberId(_sender);\n        require (poolMemberId >= 0,\"It is not a pool member\");\n        _;\n    } */\n\n    // to check if there is available fund to process the member claim\n    modifier availableFundInPool (uint _value) {\n        require (getPoolAvailableBalance() >= _value,\"The pool has no enough fund \");\n        _;\n    }\n\n   // protect agianst reentrant calls \n   modifier noReentrancy() \n    { \n        require( !locked, \"Reentrant call.\" );\n        locked = true;\n        _;\n        locked = false;\n    }\n\n    //Register Events\n    event poolCanceled (address indexed _memberAddress, string _message);\n    event fallbackReceived(address sender, string message);\n\n\n    //return the current fund at the pool\n    function getPoolTotalBalance() public view returns (uint)\n    {\n        return address (this).balance; \n    }\n    \n    function getPoolAddress() public view returns (address)\n    {\n        return address (this); \n    }\n\n    //return the available balance in pool after deducting the members balances that are due and not withdrawed yet. \n    function getPoolAvailableBalance() public view returns (uint)\n    {\n        uint sumBalances = 0; // sum the balances of members that are due and not withdrawed yet. \n        for (uint i = 0; i < members.length; i++)\n            sumBalances += members[i].balance;    \n        return getPoolTotalBalance() - sumBalances;\n    }\n\n    function getMemberIndex(address _memberAddress) private view returns (int poolMemberId)  \n    {\n        poolMemberId = -1;\n        for (uint i = 0; i < members.length; i++){\n            if (members[i].memberAddress == _memberAddress) {\n                poolMemberId = int(i);\n                break;\n            } \n        }\n    }\n\n    // The pool will be activated automatically when reaches its minimum number of members\n    function activatePool () private onlyInitiatedPool()\n    {\n        status = PoolStatus.Active;\n        policyStartDate = block.timestamp;\n    }\n    \n    constructor () {}\n\n    /* implementing PoolMember Interface Functions: */\n\n    function getMemberBalance(address _memberAddress) public view override returns (uint)  //\n    {\n         int poolMemberId = getMemberIndex(_memberAddress);\n         require (poolMemberId >= 0,\"It is not a pool member\");\n         return members[uint(poolMemberId)].balance;\n    }\n\n    function getMemberTotalClaims(address _memberAddress) public view override returns (uint)  // \n    {\n        int poolMemberId = getMemberIndex(_memberAddress);\n        require (poolMemberId >= 0,\"It is not a pool member\");\n        return members[uint(poolMemberId)].totalClaims;\n    }\n\n    function getMemberRemainingCoverage(address _memberAddress) public view override returns (uint) //\n    {\n        int poolMemberId = getMemberIndex(_memberAddress);\n        require (poolMemberId >= 0,\"It is not a pool member\");\n        return maxCoveragePerMember - members[uint(poolMemberId)].totalClaims;\n    }\n\n    //already checked if enough premium paid before creating the InsurancePool instance\n    function createPool(address _memberAddress, uint _minNumberOfMembers, uint _premium, uint _maxCoveragePerMember) external payable override\n    {\n        minNumberOfMembers = _minNumberOfMembers;  // \n        premium = _premium; // _premium in Wei\n        maxCoveragePerMember = _maxCoveragePerMember; // in wei\n\n        //for Gaz Optimization - not using the struct construtor, instead assign variables to values\n        PoolMember.Member memory member;\n        member.memberAddress = payable(_memberAddress);\n        member.totalClaims = 0;\n        member.balance = msg.value - _premium; // to refund extra amount than the premium\n        members.push(member);\n        //members.push(Member(_memberAddress , msg.value - _premium, 0)); // Adding the pool manager\n\n        status = PoolStatus.Initiated;\n    }\n\n    //already checked if enough premium paid before calling the function\n    function joinPool(address _memberAddress) external payable override \n    {\n        require (getMemberIndex(_memberAddress) == -1,\"Member already joined this pool\");\n\n        //for Gaz Optimization - not using the struct construtor, instead assign variables to values\n        PoolMember.Member memory member;\n        member.memberAddress = payable(_memberAddress);\n        member.totalClaims = 0;\n        member.balance = msg.value - premium; // to refund extra amount than the premium\n        members.push(member);\n        //members.push(Member(_memberAddress , msg.value - premium, 0));\n\n        if (members.length == minNumberOfMembers) {\n            activatePool();\n        }\n    }\n\n    //The pool manager can cancel a pool if it is still in the initiated status - as example, long time the pool not reaches the minimum requirements to be activated\n    function cancelPool (address _memberAddress) external override onlyPoolManager(_memberAddress) onlyInitiatedPool\n    {\n        status = PoolStatus.Canceled;\n        //return already paid premiums to members\n        for (uint i = 0; i < members.length; i++){\n            members[i].balance += premium;\n            //members[i].memberAddress.transfer(premium);\n        }\n\n        emit poolCanceled (_memberAddress, \"The pool is sucessfully canceled\");\n    }\n\n    // cancel membership of a pool member befor the pool activation\n    function cancelSubscription (address _memberAddress) external override onlyInitiatedPool() noReentrancy returns (bool)\n    {\n        // Checks-effects-interactions pattern:\n\n        //checks if he is a pool member (checks)\n        int poolMemberId = getMemberIndex (_memberAddress);\n        require (poolMemberId > 0, \"Not a pool member or he is the pool manager\");\n        uint uintPoolMemberId = uint(poolMemberId);\n        address payable _address = members[uintPoolMemberId].memberAddress;\n\n        //Now he is no longer a pool member (effects)\n        members[uintPoolMemberId] = members[members.length - 1];\n        members.pop();\n\n        //we need to transfer back its premium (interactions) \n        _address.transfer(premium);\n        return true;\n    }\n\n    // the pool is finshed once the policy expired after one year since activation (UI/Frontend validation)\n    // Only the pool manager has the right to call this function    \n    function finishPool(address _memberAddress) external override onlyPoolManager(_memberAddress) onlyActivePool returns (bool) \n    {\n        status = PoolStatus.Finished;\n\n        uint poolSurplus = getPoolAvailableBalance();\n        if (poolSurplus > 0) {\n            uint memberShareInSurplus = poolSurplus / members.length; // not correct as balance changed this\n            for (uint i = 0; i < members.length; i++){\n                members[i].balance += memberShareInSurplus;\n                //members[i].memberAddress.transfer(memberShareInSurplus);\n            }\n        }\n        //emit events\n        return true;\n    }\n\n    //availableFundInPool(claimAmount) checks if the pool availabe fund covers the requested claim\n    function requestClaim(address _memberAddress, uint _claimAmount) external override onlyActivePool() availableFundInPool(_claimAmount) noReentrancy returns (bool)\n    {\n        //expected _claimAmount in Wei\n         int poolMemberId = getMemberIndex (_memberAddress);\n         require (poolMemberId >=0 ,\"It is not a pool member\");\n         PoolMember.Member storage member = members[uint(poolMemberId)];\n         //check entitlements \n        require (member.totalClaims + _claimAmount <= maxCoveragePerMember,\n        \"The claim can't be processed because the member has exceeded its maximum coverage\");\n\n        member.totalClaims += _claimAmount; // before the actual transfer (Checks-effects-interactions pattern)\n        member.memberAddress.transfer(_claimAmount);\n        return true;\n\n        /* Future use cases (not in this project scope):\n                1- partial reimbursement if the avialable fund is not enought for the requested claim\n                2- partial reimbursement if the claim has exceeded the maxCoveragePerMember\n                3- if pool ran out of fund, reimbursement through the re-insurer\n        */\n    } \n\n    // this function will refund the member any extra amount (when deposit the premium), cancelation cases or when distributing the surplus at policy expiry\n    function withdrawBalance(address _memberAddress) external override noReentrancy //\n    {\n        //Checks-effects-interactions pattern\n\n        //checks if send is a pool member\n        int poolMemberId = getMemberIndex (_memberAddress);\n        require (poolMemberId >= 0,\"Not a pool member\");\n        uint uintPoolMemberId = uint(poolMemberId);\n\n        //checks available balance\n        uint balance = members[uintPoolMemberId].balance;\n        require (balance > 0 , \"No available balance\");\n\n        //effects: set balance to 0\n        members[uintPoolMemberId].balance = 0;\n\n        //Then transfer\n        (bool success,) = _memberAddress.call{value:balance}(\"\");\n        require (success, \"Transfer failed\");\n\n        if (status == PoolStatus.Canceled && getPoolTotalBalance() == 0)\n            selfDestructPool();\n    } \n    \n    /* implementing PoolMember Interface Functions has been Completed */\n\n    \n    //clean up the canceled pool? I think Yes for (Gaz Optimization /return gaz),\n    //because the policy is not activated and no important transactions to keep stored on blockchain\n    //We can have the archive of canceled pools offchain if needed\n    function selfDestructPool() private onlycanceledPool \n    {\n        assert(getPoolTotalBalance() == 0); // the pool fund should be already empty\n        selfdestruct(payable(msg.sender)); // we are sure that there is no remaining Ether before the self destruction\n    }\n\n    //fall back function \n    //it is not payable - not accepting to receive plain ether and this will raise exception !\n    fallback() external  {\n        emit fallbackReceived(msg.sender,\"P2P_Insurance Fallback was called\");\n    }\n}\n\n//ordering the modifiers logically in functions\n//re-name modifier require message in more unstandable way\n//Listening for events and updating user interface\n// policy start end end date - finish pool?\n//try to create Library for Refund - independent deployment\n\n//proxy upgrade pattern?\n//Checks-effects-interactions pattern\n//withdrwal pattern\n//factory pattern\n//circuit breaker pttern\n\n//re-entrancy\n//Inter-Contract Execution (Calling functions in external contracts) Inter-Contract Execution, Part 1 and Part 2",
  "sourcePath": "/mnt/c/Users/pc1/projects/blockchain-developer-bootcamp-final-project/contracts/InsurancePool.sol",
  "compiler": {
    "name": "solc",
    "version": "0.8.10+commit.fc410830.Emscripten.clang"
  },
  "schemaVersion": "3.4.2",
  "updatedAt": "2021-12-05T19:24:35.516Z",
  "devdoc": {
    "kind": "dev",
    "methods": {},
    "version": 1
  },
  "userdoc": {
    "kind": "user",
    "methods": {},
    "version": 1
  }
}