{
  "contractName": "InsurancePool",
  "abi": [
    {
      "inputs": [],
      "stateMutability": "nonpayable",
      "type": "constructor"
    },
    {
      "anonymous": false,
      "inputs": [
        {
          "indexed": false,
          "internalType": "address",
          "name": "sender",
          "type": "address"
        },
        {
          "indexed": false,
          "internalType": "string",
          "name": "message",
          "type": "string"
        }
      ],
      "name": "fallbackReceived",
      "type": "event"
    },
    {
      "anonymous": false,
      "inputs": [
        {
          "indexed": true,
          "internalType": "address",
          "name": "_memberAddress",
          "type": "address"
        },
        {
          "indexed": false,
          "internalType": "string",
          "name": "_message",
          "type": "string"
        }
      ],
      "name": "poolCanceled",
      "type": "event"
    },
    {
      "stateMutability": "nonpayable",
      "type": "fallback"
    },
    {
      "inputs": [],
      "name": "premium",
      "outputs": [
        {
          "internalType": "uint256",
          "name": "",
          "type": "uint256"
        }
      ],
      "stateMutability": "view",
      "type": "function"
    },
    {
      "inputs": [],
      "name": "status",
      "outputs": [
        {
          "internalType": "enum InsurancePool.PoolStatus",
          "name": "",
          "type": "uint8"
        }
      ],
      "stateMutability": "view",
      "type": "function"
    },
    {
      "inputs": [],
      "name": "getPoolTotalBalance",
      "outputs": [
        {
          "internalType": "uint256",
          "name": "",
          "type": "uint256"
        }
      ],
      "stateMutability": "view",
      "type": "function"
    },
    {
      "inputs": [],
      "name": "getPoolAvailableBalance",
      "outputs": [
        {
          "internalType": "uint256",
          "name": "",
          "type": "uint256"
        }
      ],
      "stateMutability": "view",
      "type": "function"
    },
    {
      "inputs": [
        {
          "internalType": "address",
          "name": "_memberAddress",
          "type": "address"
        }
      ],
      "name": "getMemberBalance",
      "outputs": [
        {
          "internalType": "uint256",
          "name": "",
          "type": "uint256"
        }
      ],
      "stateMutability": "view",
      "type": "function"
    },
    {
      "inputs": [
        {
          "internalType": "address",
          "name": "_memberAddress",
          "type": "address"
        }
      ],
      "name": "getMemberTotalClaims",
      "outputs": [
        {
          "internalType": "uint256",
          "name": "",
          "type": "uint256"
        }
      ],
      "stateMutability": "view",
      "type": "function"
    },
    {
      "inputs": [
        {
          "internalType": "address",
          "name": "_memberAddress",
          "type": "address"
        }
      ],
      "name": "getMemberRemainingCoverage",
      "outputs": [
        {
          "internalType": "uint256",
          "name": "",
          "type": "uint256"
        }
      ],
      "stateMutability": "view",
      "type": "function"
    },
    {
      "inputs": [
        {
          "internalType": "address",
          "name": "_memberAddress",
          "type": "address"
        },
        {
          "internalType": "uint256",
          "name": "_minNumberOfMembers",
          "type": "uint256"
        },
        {
          "internalType": "uint256",
          "name": "_premium",
          "type": "uint256"
        },
        {
          "internalType": "uint256",
          "name": "_maxCoveragePerMember",
          "type": "uint256"
        }
      ],
      "name": "createPool",
      "outputs": [],
      "stateMutability": "payable",
      "type": "function"
    },
    {
      "inputs": [
        {
          "internalType": "address",
          "name": "_memberAddress",
          "type": "address"
        }
      ],
      "name": "joinPool",
      "outputs": [],
      "stateMutability": "payable",
      "type": "function"
    },
    {
      "inputs": [
        {
          "internalType": "address",
          "name": "_memberAddress",
          "type": "address"
        }
      ],
      "name": "cancelPool",
      "outputs": [],
      "stateMutability": "nonpayable",
      "type": "function"
    },
    {
      "inputs": [
        {
          "internalType": "address",
          "name": "_memberAddress",
          "type": "address"
        }
      ],
      "name": "cancelSubscription",
      "outputs": [
        {
          "internalType": "bool",
          "name": "",
          "type": "bool"
        }
      ],
      "stateMutability": "nonpayable",
      "type": "function"
    },
    {
      "inputs": [
        {
          "internalType": "address",
          "name": "_memberAddress",
          "type": "address"
        }
      ],
      "name": "finishPool",
      "outputs": [
        {
          "internalType": "bool",
          "name": "",
          "type": "bool"
        }
      ],
      "stateMutability": "nonpayable",
      "type": "function"
    },
    {
      "inputs": [
        {
          "internalType": "address",
          "name": "_memberAddress",
          "type": "address"
        },
        {
          "internalType": "uint256",
          "name": "_claimAmount",
          "type": "uint256"
        }
      ],
      "name": "requestClaim",
      "outputs": [
        {
          "internalType": "bool",
          "name": "",
          "type": "bool"
        }
      ],
      "stateMutability": "nonpayable",
      "type": "function"
    },
    {
      "inputs": [
        {
          "internalType": "address",
          "name": "_memberAddress",
          "type": "address"
        }
      ],
      "name": "withdrawBalance",
      "outputs": [],
      "stateMutability": "nonpayable",
      "type": "function"
    }
  ],
  "bytecode": "0x608060405234801561001057600080fd5b50612300806100206000396000f3fe6080604052600436106100e15760003560e01c8063756af45f1161007f578063922d3e4c11610059578063922d3e4c1461030b57806393d81d5814610327578063ca55753a14610364578063e0a73a93146103a1576100e2565b8063756af45f1461026857806388ff87c9146102915780638dd02fb0146102ce576100e2565b80631ae0e73d116100bb5780631ae0e73d146101b9578063200d2ed2146101d557806328a2f8c61461020057806347cc63131461023d576100e2565b806301e51e97146101285780630b03bf2b146101655780630dc07a3e1461018e576100e2565b5b3480156100ee57600080fd5b507f2402f2b60dce6d6a9da700a348a123aac12db0c50649200b5970ead86df8805c3360405161011e9190611a9b565b60405180910390a1005b34801561013457600080fd5b5061014f600480360381019061014a9190611773565b6103cc565b60405161015c9190611ac9565b60405180910390f35b34801561017157600080fd5b5061018c60048036038101906101879190611746565b61066f565b005b34801561019a57600080fd5b506101a3610877565b6040516101b09190611cbf565b60405180910390f35b6101d360048036038101906101ce9190611746565b61087f565b005b3480156101e157600080fd5b506101ea6109f0565b6040516101f79190611ae4565b60405180910390f35b34801561020c57600080fd5b5061022760048036038101906102229190611746565b610a03565b6040516102349190611cbf565b60405180910390f35b34801561024957600080fd5b50610252610a83565b60405161025f9190611cbf565b60405180910390f35b34801561027457600080fd5b5061028f600480360381019061028a9190611746565b610afa565b005b34801561029d57600080fd5b506102b860048036038101906102b39190611746565b610d74565b6040516102c59190611ac9565b60405180910390f35b3480156102da57600080fd5b506102f560048036038101906102f09190611746565b610f63565b6040516103029190611cbf565b60405180910390f35b610325600480360381019061032091906117b3565b610ff0565b005b34801561033357600080fd5b5061034e60048036038101906103499190611746565b611120565b60405161035b9190611ac9565b60405180910390f35b34801561037057600080fd5b5061038b60048036038101906103869190611746565b611440565b6040516103989190611cbf565b60405180910390f35b3480156103ad57600080fd5b506103b66114c0565b6040516103c39190611cbf565b60405180910390f35b6000600160038111156103e2576103e1611ef4565b5b600560009054906101000a900460ff16600381111561040457610403611ef4565b5b14610444576040517f08c379a000000000000000000000000000000000000000000000000000000000815260040161043b90611bff565b60405180910390fd5b818061044e610a83565b101561048f576040517f08c379a000000000000000000000000000000000000000000000000000000000815260040161048690611c1f565b60405180910390fd5b60008054906101000a900460ff16156104dd576040517f08c379a00000000000000000000000000000000000000000000000000000000081526004016104d490611b7f565b60405180910390fd5b60016000806101000a81548160ff0219169083151502179055506000610502856114c6565b90506000811215610548576040517f08c379a000000000000000000000000000000000000000000000000000000000815260040161053f90611c7f565b60405180910390fd5b60006001828154811061055e5761055d611f52565b5b906000526020600020906003020190506004548582600201546105819190611cf6565b11156105c2576040517f08c379a00000000000000000000000000000000000000000000000000000000081526004016105b990611b9f565b60405180910390fd5b848160020160008282546105d69190611cf6565b925050819055508060000160009054906101000a900473ffffffffffffffffffffffffffffffffffffffff1673ffffffffffffffffffffffffffffffffffffffff166108fc869081150290604051600060405180830381858888f19350505050158015610647573d6000803e3d6000fd5b5060019350505060008060006101000a81548160ff0219169083151502179055505092915050565b80600160008154811061068557610684611f52565b5b906000526020600020906003020160000160009054906101000a900473ffffffffffffffffffffffffffffffffffffffff1673ffffffffffffffffffffffffffffffffffffffff168173ffffffffffffffffffffffffffffffffffffffff1614610724576040517f08c379a000000000000000000000000000000000000000000000000000000000815260040161071b90611c5f565b60405180910390fd5b6000600381111561073857610737611ef4565b5b600560009054906101000a900460ff16600381111561075a57610759611ef4565b5b1461079a576040517f08c379a000000000000000000000000000000000000000000000000000000000815260040161079190611c9f565b60405180910390fd5b6003600560006101000a81548160ff021916908360038111156107c0576107bf611ef4565b5b021790555060005b60018054905081101561082657600354600182815481106107ec576107eb611f52565b5b9060005260206000209060030201600101600082825461080c9190611cf6565b92505081905550808061081e90611e1e565b9150506107c8565b508173ffffffffffffffffffffffffffffffffffffffff167f3d8f0efe0ca5f23697984bd83ad21dfe056fe58d2a57df07deca3637272b502560405161086b90611bdf565b60405180910390a25050565b600047905090565b7fffffffffffffffffffffffffffffffffffffffffffffffffffffffffffffffff6108a9826114c6565b146108e9576040517f08c379a00000000000000000000000000000000000000000000000000000000081526004016108e090611c3f565b60405180910390fd5b6108f16116e5565b81816000019073ffffffffffffffffffffffffffffffffffffffff16908173ffffffffffffffffffffffffffffffffffffffff16815250506000816040018181525050600354346109429190611d7d565b816020018181525050600181908060018154018082558091505060019003906000526020600020906003020160009091909190915060008201518160000160006101000a81548173ffffffffffffffffffffffffffffffffffffffff021916908373ffffffffffffffffffffffffffffffffffffffff1602179055506020820151816001015560408201518160020155505060025460018054905014156109ec576109eb611595565b5b5050565b600560009054906101000a900460ff1681565b600080610a0f836114c6565b90506000811215610a55576040517f08c379a0000000000000000000000000000000000000000000000000000000008152600401610a4c90611c7f565b60405180910390fd5b60018181548110610a6957610a68611f52565b5b906000526020600020906003020160020154915050919050565b6000806000905060005b600180549050811015610ae05760018181548110610aae57610aad611f52565b5b90600052602060002090600302016001015482610acb9190611cf6565b91508080610ad890611e1e565b915050610a8d565b5080610aea610877565b610af49190611d7d565b91505090565b60008054906101000a900460ff1615610b48576040517f08c379a0000000000000000000000000000000000000000000000000000000008152600401610b3f90611b7f565b60405180910390fd5b60016000806101000a81548160ff0219169083151502179055506000610b6d826114c6565b90506000811215610bb3576040517f08c379a0000000000000000000000000000000000000000000000000000000008152600401610baa90611b5f565b60405180910390fd5b6000819050600060018281548110610bce57610bcd611f52565b5b906000526020600020906003020160010154905060008111610c25576040517f08c379a0000000000000000000000000000000000000000000000000000000008152600401610c1c90611b3f565b60405180910390fd5b600060018381548110610c3b57610c3a611f52565b5b90600052602060002090600302016001018190555060008473ffffffffffffffffffffffffffffffffffffffff1682604051610c7690611a86565b60006040518083038185875af1925050503d8060008114610cb3576040519150601f19603f3d011682016040523d82523d6000602084013e610cb8565b606091505b5050905080610cfc576040517f08c379a0000000000000000000000000000000000000000000000000000000008152600401610cf390611b1f565b60405180910390fd5b600380811115610d0f57610d0e611ef4565b5b600560009054906101000a900460ff166003811115610d3157610d30611ef4565b5b148015610d4557506000610d43610877565b145b15610d5357610d5261163f565b5b5050505060008060006101000a81548160ff02191690831515021790555050565b6000816001600081548110610d8c57610d8b611f52565b5b906000526020600020906003020160000160009054906101000a900473ffffffffffffffffffffffffffffffffffffffff1673ffffffffffffffffffffffffffffffffffffffff168173ffffffffffffffffffffffffffffffffffffffff1614610e2b576040517f08c379a0000000000000000000000000000000000000000000000000000000008152600401610e2290611c5f565b60405180910390fd5b60016003811115610e3f57610e3e611ef4565b5b600560009054906101000a900460ff166003811115610e6157610e60611ef4565b5b14610ea1576040517f08c379a0000000000000000000000000000000000000000000000000000000008152600401610e9890611bff565b60405180910390fd5b6002600560006101000a81548160ff02191690836003811115610ec757610ec6611ef4565b5b02179055506000610ed6610a83565b90506000811115610f5857600060018054905082610ef49190611d4c565b905060005b600180549050811015610f55578160018281548110610f1b57610f1a611f52565b5b90600052602060002090600302016001016000828254610f3b9190611cf6565b925050819055508080610f4d90611e1e565b915050610ef9565b50505b600192505050919050565b600080610f6f836114c6565b90506000811215610fb5576040517f08c379a0000000000000000000000000000000000000000000000000000000008152600401610fac90611c7f565b60405180910390fd5b60018181548110610fc957610fc8611f52565b5b906000526020600020906003020160020154600454610fe89190611d7d565b915050919050565b82600281905550816003819055508060048190555061100d6116e5565b84816000019073ffffffffffffffffffffffffffffffffffffffff16908173ffffffffffffffffffffffffffffffffffffffff16815250506000816040018181525050823461105c9190611d7d565b816020018181525050600181908060018154018082558091505060019003906000526020600020906003020160009091909190915060008201518160000160006101000a81548173ffffffffffffffffffffffffffffffffffffffff021916908373ffffffffffffffffffffffffffffffffffffffff160217905550602082015181600101556040820151816002015550506000600560006101000a81548160ff0219169083600381111561111457611113611ef4565b5b02179055505050505050565b600080600381111561113557611134611ef4565b5b600560009054906101000a900460ff16600381111561115757611156611ef4565b5b14611197576040517f08c379a000000000000000000000000000000000000000000000000000000000815260040161118e90611c9f565b60405180910390fd5b60008054906101000a900460ff16156111e5576040517f08c379a00000000000000000000000000000000000000000000000000000000081526004016111dc90611b7f565b60405180910390fd5b60016000806101000a81548160ff021916908315150217905550600061120a836114c6565b90506000811361124f576040517f08c379a000000000000000000000000000000000000000000000000000000000815260040161124690611bbf565b60405180910390fd5b600081905060006001828154811061126a57611269611f52565b5b906000526020600020906003020160000160009054906101000a900473ffffffffffffffffffffffffffffffffffffffff16905060018080805490506112b09190611d7d565b815481106112c1576112c0611f52565b5b9060005260206000209060030201600183815481106112e3576112e2611f52565b5b90600052602060002090600302016000820160009054906101000a900473ffffffffffffffffffffffffffffffffffffffff168160000160006101000a81548173ffffffffffffffffffffffffffffffffffffffff021916908373ffffffffffffffffffffffffffffffffffffffff1602179055506001820154816001015560028201548160020155905050600180548061138157611380611f23565b5b6001900381819060005260206000209060030201600080820160006101000a81549073ffffffffffffffffffffffffffffffffffffffff021916905560018201600090556002820160009055505090558073ffffffffffffffffffffffffffffffffffffffff166108fc6003549081150290604051600060405180830381858888f19350505050158015611419573d6000803e3d6000fd5b506001935050505060008060006101000a81548160ff021916908315150217905550919050565b60008061144c836114c6565b90506000811215611492576040517f08c379a000000000000000000000000000000000000000000000000000000000815260040161148990611c7f565b60405180910390fd5b600181815481106114a6576114a5611f52565b5b906000526020600020906003020160010154915050919050565b60035481565b60007fffffffffffffffffffffffffffffffffffffffffffffffffffffffffffffffff905060005b60018054905081101561158f578273ffffffffffffffffffffffffffffffffffffffff166001828154811061152657611525611f52565b5b906000526020600020906003020160000160009054906101000a900473ffffffffffffffffffffffffffffffffffffffff1673ffffffffffffffffffffffffffffffffffffffff16141561157c5780915061158f565b808061158790611e1e565b9150506114ee565b50919050565b600060038111156115a9576115a8611ef4565b5b600560009054906101000a900460ff1660038111156115cb576115ca611ef4565b5b1461160b576040517f08c379a000000000000000000000000000000000000000000000000000000000815260040161160290611c9f565b60405180910390fd5b6001600560006101000a81548160ff0219169083600381111561163157611630611ef4565b5b021790555042600681905550565b60038081111561165257611651611ef4565b5b600560009054906101000a900460ff16600381111561167457611673611ef4565b5b146116b4576040517f08c379a00000000000000000000000000000000000000000000000000000000081526004016116ab90611aff565b60405180910390fd5b60006116be610877565b146116cc576116cb611e67565b5b3373ffffffffffffffffffffffffffffffffffffffff16ff5b6040518060600160405280600073ffffffffffffffffffffffffffffffffffffffff16815260200160008152602001600081525090565b60008135905061172b8161229c565b92915050565b600081359050611740816122b3565b92915050565b60006020828403121561175c5761175b611f81565b5b600061176a8482850161171c565b91505092915050565b6000806040838503121561178a57611789611f81565b5b60006117988582860161171c565b92505060206117a985828601611731565b9150509250929050565b600080600080608085870312156117cd576117cc611f81565b5b60006117db8782880161171c565b94505060206117ec87828801611731565b93505060406117fd87828801611731565b925050606061180e87828801611731565b91505092959194509250565b61182381611db1565b82525050565b61183281611dc3565b82525050565b61184181611e0c565b82525050565b6000611854601f83611ce5565b915061185f82611f86565b602082019050919050565b6000611877600f83611ce5565b915061188282611faf565b602082019050919050565b600061189a601483611ce5565b91506118a582611fd8565b602082019050919050565b60006118bd601183611ce5565b91506118c882612001565b602082019050919050565b60006118e0600f83611ce5565b91506118eb8261202a565b602082019050919050565b6000611903605183611ce5565b915061190e82612053565b606082019050919050565b6000611926602183611ce5565b9150611931826120c8565b604082019050919050565b6000611949602b83611ce5565b915061195482612117565b604082019050919050565b600061196c602083611ce5565b915061197782612166565b602082019050919050565b600061198f600083611cda565b915061199a8261218f565b600082019050919050565b60006119b2601d83611ce5565b91506119bd82612192565b602082019050919050565b60006119d5601c83611ce5565b91506119e0826121bb565b602082019050919050565b60006119f8601f83611ce5565b9150611a03826121e4565b602082019050919050565b6000611a1b601a83611ce5565b9150611a268261220d565b602082019050919050565b6000611a3e601783611ce5565b9150611a4982612236565b602082019050919050565b6000611a61602083611ce5565b9150611a6c8261225f565b602082019050919050565b611a8081611e02565b82525050565b6000611a9182611982565b9150819050919050565b6000604082019050611ab0600083018461181a565b8181036020830152611ac181611919565b905092915050565b6000602082019050611ade6000830184611829565b92915050565b6000602082019050611af96000830184611838565b92915050565b60006020820190508181036000830152611b1881611847565b9050919050565b60006020820190508181036000830152611b388161186a565b9050919050565b60006020820190508181036000830152611b588161188d565b9050919050565b60006020820190508181036000830152611b78816118b0565b9050919050565b60006020820190508181036000830152611b98816118d3565b9050919050565b60006020820190508181036000830152611bb8816118f6565b9050919050565b60006020820190508181036000830152611bd88161193c565b9050919050565b60006020820190508181036000830152611bf88161195f565b9050919050565b60006020820190508181036000830152611c18816119a5565b9050919050565b60006020820190508181036000830152611c38816119c8565b9050919050565b60006020820190508181036000830152611c58816119eb565b9050919050565b60006020820190508181036000830152611c7881611a0e565b9050919050565b60006020820190508181036000830152611c9881611a31565b9050919050565b60006020820190508181036000830152611cb881611a54565b9050919050565b6000602082019050611cd46000830184611a77565b92915050565b600081905092915050565b600082825260208201905092915050565b6000611d0182611e02565b9150611d0c83611e02565b9250827fffffffffffffffffffffffffffffffffffffffffffffffffffffffffffffffff03821115611d4157611d40611e96565b5b828201905092915050565b6000611d5782611e02565b9150611d6283611e02565b925082611d7257611d71611ec5565b5b828204905092915050565b6000611d8882611e02565b9150611d9383611e02565b925082821015611da657611da5611e96565b5b828203905092915050565b6000611dbc82611de2565b9050919050565b60008115159050919050565b6000819050611ddd82612288565b919050565b600073ffffffffffffffffffffffffffffffffffffffff82169050919050565b6000819050919050565b6000611e1782611dcf565b9050919050565b6000611e2982611e02565b91507fffffffffffffffffffffffffffffffffffffffffffffffffffffffffffffffff821415611e5c57611e5b611e96565b5b600182019050919050565b7f4e487b7100000000000000000000000000000000000000000000000000000000600052600160045260246000fd5b7f4e487b7100000000000000000000000000000000000000000000000000000000600052601160045260246000fd5b7f4e487b7100000000000000000000000000000000000000000000000000000000600052601260045260246000fd5b7f4e487b7100000000000000000000000000000000000000000000000000000000600052602160045260246000fd5b7f4e487b7100000000000000000000000000000000000000000000000000000000600052603160045260246000fd5b7f4e487b7100000000000000000000000000000000000000000000000000000000600052603260045260246000fd5b600080fd5b7f54686520706f6f6c20737461747573206973206e6f742063616e63656c656400600082015250565b7f5472616e73666572206661696c65640000000000000000000000000000000000600082015250565b7f4e6f20617661696c61626c652062616c616e6365000000000000000000000000600082015250565b7f4e6f74206120706f6f6c206d656d626572000000000000000000000000000000600082015250565b7f5265656e7472616e742063616c6c2e0000000000000000000000000000000000600082015250565b7f54686520636c61696d2063616e27742062652070726f6365737365642062656360008201527f6175736520746865206d656d626572206861732065786365656465642069747360208201527f206d6178696d756d20636f766572616765000000000000000000000000000000604082015250565b7f5032505f496e737572616e63652046616c6c6261636b207761732063616c6c6560008201527f6400000000000000000000000000000000000000000000000000000000000000602082015250565b7f4e6f74206120706f6f6c206d656d626572206f7220686520697320746865207060008201527f6f6f6c206d616e61676572000000000000000000000000000000000000000000602082015250565b7f54686520706f6f6c2069732073756365737366756c6c792063616e63656c6564600082015250565b50565b7f54686520706f6f6c20737461747573206973206e6f7420616374697665000000600082015250565b7f54686520706f6f6c20686173206e6f20656e6f7567682066756e642000000000600082015250565b7f4d656d62657220616c7265616479206a6f696e6564207468697320706f6f6c00600082015250565b7f4974206973206e6f742074686520706f6f6c206d616e61676572000000000000600082015250565b7f4974206973206e6f74206120706f6f6c206d656d626572000000000000000000600082015250565b7f54686520706f6f6c20737461747573206973206e6f7420696e69746961746564600082015250565b6004811061229957612298611ef4565b5b50565b6122a581611db1565b81146122b057600080fd5b50565b6122bc81611e02565b81146122c757600080fd5b5056fea2646970667358221220d15050d9f86dc387f8ec3935f5e3092e5cb1f743a7d60f4f5f51c4af209815d664736f6c63430008070033",
  "immutableReferences": {},
  "source": "// SPDX-License-Identifier: MIT\npragma solidity 0.8.7;\n\nimport \"./PoolMember.sol\";\n\ncontract InsurancePool is PoolMember{\n\n    bool locked; // used for reentrancy checks\n    PoolMember.Member[] members; // Always members[0] is the pool manager\n    uint minNumberOfMembers; // the minimum number of members in a pool - Unit256 as there is no potential packing here\n    uint public premium; // the pool premium in Wei\n    uint maxCoveragePerMember; // the maximum coverage by a pool to a member - in Wei\n    PoolStatus public status; //the pool status\n    uint policyStartDate; // the policy start date since activation - policy validity is one year by defualt\n\n    /* there will be other attributes offchain/frontend such as pool terms and conditions, pool coverage, max number of members, etc.\n       max number of members - could be important for Block Gas Limit DoS - to limit members array size */\n\n    /* ReInsurer reInsurer; we can add the ReInsurer contract - in future - when we manage the re-insurance process:\n       the pool members get themselves covered with the help of reinsurance in case of exceeding pool coverage.\n       And of course, some part of premium/contribution is shared with reinsurers */\n\n    // Escrew account is the pool contract address: address (this);\n    //(address) this.balance has the pool avialable fund\n\n    enum PoolStatus {\n        Initiated,\n        Active,\n        Finished,\n        Canceled\n    }\n\n    modifier onlyInitiatedPool () {\n        require (status == PoolStatus.Initiated,\"The pool status is not initiated\");\n        _;\n    }\n\n    modifier onlyActivePool () {\n        require (status == PoolStatus.Active,\"The pool status is not active\");\n        _;\n    }\n\n    modifier onlyFinishedPool () {\n        require (status == PoolStatus.Finished,\"The pool status is not finished\");\n        _;\n    }\n\n    modifier onlycanceledPool () {\n        require (status == PoolStatus.Canceled,\"The pool status is not canceled\");\n        _;\n    }\n\n    // the pool manager is the first member and it is initiated with the create pool function\n    modifier onlyPoolManager (address _sender) {\n        require (_sender == members[0].memberAddress,\"It is not the pool manager\");\n        _;\n    }\n    \n    // not useful - because we always need to return the member id and modifier doesn't return values\n    /*modifier onlyPoolMember (address _sender)\n    {\n        int poolMemberId = getMemberId(_sender);\n        require (poolMemberId >= 0,\"It is not a pool member\");\n        _;\n    } */\n\n    // to check if there is available fund to process the member claim\n    modifier availableFundInPool (uint _value) {\n        require (getPoolAvailableBalance() >= _value,\"The pool has no enough fund \");\n        _;\n    }\n\n   // protect agianst reentrant calls \n   modifier noReentrancy() \n    { \n        require( !locked, \"Reentrant call.\" );\n        locked = true;\n        _;\n        locked = false;\n    }\n\n    //Register Events\n    event poolCanceled (address indexed _memberAddress, string _message);\n    event fallbackReceived(address sender, string message);\n\n\n    //return the current fund at the pool\n    function getPoolTotalBalance() public view returns (uint)\n    {\n        return address (this).balance; \n    }\n\n    //return the available balance in pool after deducting the members balances that are due and not withdrawed yet. \n    function getPoolAvailableBalance() public view returns (uint)\n    {\n        uint sumBalances = 0; // sum the balances of members that are due and not withdrawed yet. \n        for (uint i = 0; i < members.length; i++)\n            sumBalances += members[i].balance;    \n        return getPoolTotalBalance() - sumBalances;\n    }\n\n    function getMemberIndex(address _memberAddress) private view returns (int poolMemberId)  \n    {\n        poolMemberId = -1;\n        for (uint i = 0; i < members.length; i++){\n            if (members[i].memberAddress == _memberAddress) {\n                poolMemberId = int(i);\n                break;\n            } \n        }\n    }\n\n    // The pool will be activated automatically when reaches its minimum number of members\n    function activatePool () private onlyInitiatedPool()\n    {\n        status = PoolStatus.Active;\n        policyStartDate = block.timestamp;\n    }\n    \n    constructor () {}\n\n    /* implementing PoolMember Interface Functions: */\n\n    function getMemberBalance(address _memberAddress) public view override returns (uint)  //\n    {\n         int poolMemberId = getMemberIndex(_memberAddress);\n         require (poolMemberId >= 0,\"It is not a pool member\");\n         return members[uint(poolMemberId)].balance;\n    }\n\n    function getMemberTotalClaims(address _memberAddress) public view override returns (uint)  // \n    {\n        int poolMemberId = getMemberIndex(_memberAddress);\n        require (poolMemberId >= 0,\"It is not a pool member\");\n        return members[uint(poolMemberId)].totalClaims;\n    }\n\n    function getMemberRemainingCoverage(address _memberAddress) public view override returns (uint) //\n    {\n        int poolMemberId = getMemberIndex(_memberAddress);\n        require (poolMemberId >= 0,\"It is not a pool member\");\n        return maxCoveragePerMember - members[uint(poolMemberId)].totalClaims;\n    }\n\n    //already checked if enough premium paid before creating the InsurancePool instance\n    function createPool(address _memberAddress, uint _minNumberOfMembers, uint _premium, uint _maxCoveragePerMember) external payable override\n    {\n        minNumberOfMembers = _minNumberOfMembers;  // \n        premium = _premium; // _premium in Wei\n        maxCoveragePerMember = _maxCoveragePerMember; // in wei\n\n        //for Gaz Optimization - not using the struct construtor, instead assign variables to values\n        PoolMember.Member memory member;\n        member.memberAddress = payable(_memberAddress);\n        member.totalClaims = 0;\n        member.balance = msg.value - _premium; // to refund extra amount than the premium\n        members.push(member);\n        //members.push(Member(_memberAddress , msg.value - _premium, 0)); // Adding the pool manager\n\n        status = PoolStatus.Initiated;\n    }\n\n    //already checked if enough premium paid before calling the function\n    function joinPool(address _memberAddress) external payable override \n    {\n        require (getMemberIndex(_memberAddress) == -1,\"Member already joined this pool\");\n\n        //for Gaz Optimization - not using the struct construtor, instead assign variables to values\n        PoolMember.Member memory member;\n        member.memberAddress = payable(_memberAddress);\n        member.totalClaims = 0;\n        member.balance = msg.value - premium; // to refund extra amount than the premium\n        members.push(member);\n        //members.push(Member(_memberAddress , msg.value - premium, 0));\n\n        if (members.length == minNumberOfMembers) {\n            activatePool();\n        }\n    }\n\n    //The pool manager can cancel a pool if it is still in the initiated status - as example, long time the pool not reaches the minimum requirements to be activated\n    function cancelPool (address _memberAddress) external override onlyPoolManager(_memberAddress) onlyInitiatedPool\n    {\n        status = PoolStatus.Canceled;\n        //return already paid premiums to members\n        for (uint i = 0; i < members.length; i++){\n            members[i].balance += premium;\n            //members[i].memberAddress.transfer(premium);\n        }\n\n        emit poolCanceled (_memberAddress, \"The pool is sucessfully canceled\");\n    }\n\n    // cancel membership of a pool member befor the pool activation\n    function cancelSubscription (address _memberAddress) external override onlyInitiatedPool() noReentrancy returns (bool)\n    {\n        // Checks-effects-interactions pattern:\n\n        //checks if he is a pool member (checks)\n        int poolMemberId = getMemberIndex (_memberAddress);\n        require (poolMemberId > 0, \"Not a pool member or he is the pool manager\");\n        uint uintPoolMemberId = uint(poolMemberId);\n        address payable _address = members[uintPoolMemberId].memberAddress;\n\n        //Now he is no longer a pool member (effects)\n        members[uintPoolMemberId] = members[members.length - 1];\n        members.pop();\n\n        //we need to transfer back its premium (interactions) \n        _address.transfer(premium);\n        return true;\n    }\n\n    // the pool is finshed once the policy expired after one year since activation (UI/Frontend validation)\n    // Only the pool manager has the right to call this function    \n    function finishPool(address _memberAddress) external override onlyPoolManager(_memberAddress) onlyActivePool returns (bool) \n    {\n        status = PoolStatus.Finished;\n\n        uint poolSurplus = getPoolAvailableBalance();\n        if (poolSurplus > 0) {\n            uint memberShareInSurplus = poolSurplus / members.length; // not correct as balance changed this\n            for (uint i = 0; i < members.length; i++){\n                members[i].balance += memberShareInSurplus;\n                //members[i].memberAddress.transfer(memberShareInSurplus);\n            }\n        }\n        //emit events\n        return true;\n    }\n\n    //availableFundInPool(claimAmount) checks if the pool availabe fund covers the requested claim\n    function requestClaim(address _memberAddress, uint _claimAmount) external override onlyActivePool() availableFundInPool(_claimAmount) noReentrancy returns (bool)\n    {\n        //expected _claimAmount in Wei\n         int poolMemberId = getMemberIndex (_memberAddress);\n         require (poolMemberId >=0 ,\"It is not a pool member\");\n         PoolMember.Member storage member = members[uint(poolMemberId)];\n         //check entitlements \n        require (member.totalClaims + _claimAmount <= maxCoveragePerMember,\n        \"The claim can't be processed because the member has exceeded its maximum coverage\");\n\n        member.totalClaims += _claimAmount; // before the actual transfer (Checks-effects-interactions pattern)\n        member.memberAddress.transfer(_claimAmount);\n        return true;\n\n        /* Future use cases (not in this project scope):\n                1- partial reimbursement if the avialable fund is not enought for the requested claim\n                2- partial reimbursement if the claim has exceeded the maxCoveragePerMember\n                3- if pool ran out of fund, reimbursement through the re-insurer\n        */\n    } \n\n    // this function will refund the member any extra amount (when deposit the premium), cancelation cases or when distributing the surplus at policy expiry\n    function withdrawBalance(address _memberAddress) external override noReentrancy //\n    {\n        //Checks-effects-interactions pattern\n\n        //checks if send is a pool member\n        int poolMemberId = getMemberIndex (_memberAddress);\n        require (poolMemberId >= 0,\"Not a pool member\");\n        uint uintPoolMemberId = uint(poolMemberId);\n\n        //checks available balance\n        uint balance = members[uintPoolMemberId].balance;\n        require (balance > 0 , \"No available balance\");\n\n        //effects: set balance to 0\n        members[uintPoolMemberId].balance = 0;\n\n        //Then transfer\n        (bool success,) = _memberAddress.call{value:balance}(\"\");\n        require (success, \"Transfer failed\");\n\n        if (status == PoolStatus.Canceled && getPoolTotalBalance() == 0)\n            selfDestructPool();\n    } \n    \n    /* implementing PoolMember Interface Functions has been Completed */\n\n    \n    //clean up the canceled pool? I think Yes for (Gaz Optimization /return gaz),\n    //because the policy is not activated and no important transactions to keep stored on blockchain\n    //We can have the archive of canceled pools offchain if needed\n    function selfDestructPool() private onlycanceledPool \n    {\n        assert(getPoolTotalBalance() == 0); // the pool fund should be already empty\n        selfdestruct(payable(msg.sender)); // we are sure that there is no remaining Ether before the self destruction\n    }\n\n    //fall back function \n    //it is not payable - not accepting to receive plain ether and this will raise exception !\n    fallback() external  {\n        emit fallbackReceived(msg.sender,\"P2P_Insurance Fallback was called\");\n    }\n}\n\n//ordering the modifiers logically in functions\n//re-name modifier require message in more unstandable way\n//Listening for events and updating user interface\n// policy start end end date - finish pool?\n//try to create Library for Refund - independent deployment\n\n//proxy upgrade pattern?\n//Checks-effects-interactions pattern\n//withdrwal pattern\n//factory pattern\n//circuit breaker pttern\n\n//re-entrancy\n//Inter-Contract Execution (Calling functions in external contracts) Inter-Contract Execution, Part 1 and Part 2",
  "sourcePath": "/mnt/c/Users/pc1/projects/blockchain-developer-bootcamp-final-project/contracts/InsurancePool.sol",
  "compiler": {
    "name": "solc",
    "version": "0.8.7+commit.e28d00a7.Emscripten.clang"
  },
  "schemaVersion": "3.4.2",
  "updatedAt": "2021-12-03T12:15:03.633Z",
  "devdoc": {
    "kind": "dev",
    "methods": {},
    "version": 1
  },
  "userdoc": {
    "kind": "user",
    "methods": {},
    "version": 1
  }
}