{
  "contractName": "InsurancePool",
  "abi": [
    {
      "inputs": [],
      "stateMutability": "nonpayable",
      "type": "constructor"
    },
    {
      "anonymous": false,
      "inputs": [
        {
          "indexed": false,
          "internalType": "address",
          "name": "sender",
          "type": "address"
        },
        {
          "indexed": false,
          "internalType": "string",
          "name": "message",
          "type": "string"
        }
      ],
      "name": "fallbackReceived",
      "type": "event"
    },
    {
      "stateMutability": "nonpayable",
      "type": "fallback"
    },
    {
      "inputs": [],
      "name": "premium",
      "outputs": [
        {
          "internalType": "uint256",
          "name": "",
          "type": "uint256"
        }
      ],
      "stateMutability": "view",
      "type": "function"
    },
    {
      "inputs": [],
      "name": "status",
      "outputs": [
        {
          "internalType": "enum InsurancePool.PoolStatus",
          "name": "",
          "type": "uint8"
        }
      ],
      "stateMutability": "view",
      "type": "function"
    },
    {
      "inputs": [],
      "name": "getPoolTotalBalance",
      "outputs": [
        {
          "internalType": "uint256",
          "name": "",
          "type": "uint256"
        }
      ],
      "stateMutability": "view",
      "type": "function"
    },
    {
      "inputs": [],
      "name": "getPoolAddress",
      "outputs": [
        {
          "internalType": "address",
          "name": "",
          "type": "address"
        }
      ],
      "stateMutability": "view",
      "type": "function"
    },
    {
      "inputs": [],
      "name": "getPoolAvailableBalance",
      "outputs": [
        {
          "internalType": "uint256",
          "name": "",
          "type": "uint256"
        }
      ],
      "stateMutability": "view",
      "type": "function"
    },
    {
      "inputs": [
        {
          "internalType": "address",
          "name": "_memberAddress",
          "type": "address"
        }
      ],
      "name": "getMemberBalance",
      "outputs": [
        {
          "internalType": "uint256",
          "name": "",
          "type": "uint256"
        }
      ],
      "stateMutability": "view",
      "type": "function"
    },
    {
      "inputs": [
        {
          "internalType": "address",
          "name": "_memberAddress",
          "type": "address"
        }
      ],
      "name": "getMemberTotalClaims",
      "outputs": [
        {
          "internalType": "uint256",
          "name": "",
          "type": "uint256"
        }
      ],
      "stateMutability": "view",
      "type": "function"
    },
    {
      "inputs": [
        {
          "internalType": "address",
          "name": "_memberAddress",
          "type": "address"
        }
      ],
      "name": "getMemberRemainingCoverage",
      "outputs": [
        {
          "internalType": "uint256",
          "name": "",
          "type": "uint256"
        }
      ],
      "stateMutability": "view",
      "type": "function"
    },
    {
      "inputs": [
        {
          "internalType": "address",
          "name": "_memberAddress",
          "type": "address"
        },
        {
          "internalType": "uint256",
          "name": "_minNumberOfMembers",
          "type": "uint256"
        },
        {
          "internalType": "uint256",
          "name": "_premium",
          "type": "uint256"
        },
        {
          "internalType": "uint256",
          "name": "_maxCoveragePerMember",
          "type": "uint256"
        }
      ],
      "name": "createPool",
      "outputs": [
        {
          "internalType": "bool",
          "name": "",
          "type": "bool"
        }
      ],
      "stateMutability": "payable",
      "type": "function"
    },
    {
      "inputs": [
        {
          "internalType": "address",
          "name": "_memberAddress",
          "type": "address"
        }
      ],
      "name": "joinPool",
      "outputs": [
        {
          "internalType": "bool",
          "name": "isJoined",
          "type": "bool"
        },
        {
          "internalType": "bool",
          "name": "isPoolActivated",
          "type": "bool"
        }
      ],
      "stateMutability": "payable",
      "type": "function"
    },
    {
      "inputs": [
        {
          "internalType": "address",
          "name": "_memberAddress",
          "type": "address"
        }
      ],
      "name": "cancelPool",
      "outputs": [
        {
          "internalType": "bool",
          "name": "",
          "type": "bool"
        }
      ],
      "stateMutability": "nonpayable",
      "type": "function"
    },
    {
      "inputs": [
        {
          "internalType": "address",
          "name": "_memberAddress",
          "type": "address"
        }
      ],
      "name": "cancelSubscription",
      "outputs": [
        {
          "internalType": "bool",
          "name": "",
          "type": "bool"
        }
      ],
      "stateMutability": "nonpayable",
      "type": "function"
    },
    {
      "inputs": [
        {
          "internalType": "address",
          "name": "_memberAddress",
          "type": "address"
        }
      ],
      "name": "finishPool",
      "outputs": [
        {
          "internalType": "bool",
          "name": "",
          "type": "bool"
        }
      ],
      "stateMutability": "nonpayable",
      "type": "function"
    },
    {
      "inputs": [
        {
          "internalType": "address",
          "name": "_memberAddress",
          "type": "address"
        },
        {
          "internalType": "uint256",
          "name": "_claimAmount",
          "type": "uint256"
        }
      ],
      "name": "requestClaim",
      "outputs": [
        {
          "internalType": "bool",
          "name": "",
          "type": "bool"
        }
      ],
      "stateMutability": "nonpayable",
      "type": "function"
    },
    {
      "inputs": [
        {
          "internalType": "address",
          "name": "_memberAddress",
          "type": "address"
        }
      ],
      "name": "withdrawBalance",
      "outputs": [
        {
          "internalType": "bool",
          "name": "",
          "type": "bool"
        }
      ],
      "stateMutability": "nonpayable",
      "type": "function"
    }
  ],
  "bytecode": "0x608060405234801561001057600080fd5b50612341806100206000396000f3fe6080604052600436106100ec5760003560e01c8063756af45f1161008a57806393d81d581161005957806393d81d5814610383578063ca55753a146103c0578063e0a73a93146103fd578063f586c6d914610428576100ed565b8063756af45f1461029c57806388ff87c9146102d95780638dd02fb014610316578063922d3e4c14610353576100ed565b80631ae0e73d116100c65780631ae0e73d146101d8578063200d2ed21461020957806328a2f8c61461023457806347cc631314610271576100ed565b806301e51e97146101335780630b03bf2b146101705780630dc07a3e146101ad576100ed565b5b3480156100f957600080fd5b507f2402f2b60dce6d6a9da700a348a123aac12db0c50649200b5970ead86df8805c336040516101299190611849565b60405180910390a1005b34801561013f57600080fd5b5061015a600480360381019061015591906118de565b610453565b6040516101679190611939565b60405180910390f35b34801561017c57600080fd5b5061019760048036038101906101929190611954565b6106f6565b6040516101a49190611939565b60405180910390f35b3480156101b957600080fd5b506101c26108ba565b6040516101cf9190611990565b60405180910390f35b6101f260048036038101906101ed9190611954565b6108c2565b6040516102009291906119ab565b60405180910390f35b34801561021557600080fd5b5061021e610a40565b60405161022b9190611a4b565b60405180910390f35b34801561024057600080fd5b5061025b60048036038101906102569190611954565b610a53565b6040516102689190611990565b60405180910390f35b34801561027d57600080fd5b50610286610ad3565b6040516102939190611990565b60405180910390f35b3480156102a857600080fd5b506102c360048036038101906102be9190611954565b610b4a565b6040516102d09190611939565b60405180910390f35b3480156102e557600080fd5b5061030060048036038101906102fb9190611954565b610dcd565b60405161030d9190611939565b60405180910390f35b34801561032257600080fd5b5061033d60048036038101906103389190611954565b610fbc565b60405161034a9190611990565b60405180910390f35b61036d60048036038101906103689190611a66565b611049565b60405161037a9190611939565b60405180910390f35b34801561038f57600080fd5b506103aa60048036038101906103a59190611954565b611181565b6040516103b79190611939565b60405180910390f35b3480156103cc57600080fd5b506103e760048036038101906103e29190611954565b6114a1565b6040516103f49190611990565b60405180910390f35b34801561040957600080fd5b50610412611521565b60405161041f9190611990565b60405180910390f35b34801561043457600080fd5b5061043d611527565b60405161044a9190611acd565b60405180910390f35b600060016003811115610469576104686119d4565b5b600560009054906101000a900460ff16600381111561048b5761048a6119d4565b5b146104cb576040517f08c379a00000000000000000000000000000000000000000000000000000000081526004016104c290611b34565b60405180910390fd5b81806104d5610ad3565b1015610516576040517f08c379a000000000000000000000000000000000000000000000000000000000815260040161050d90611ba0565b60405180910390fd5b60008054906101000a900460ff1615610564576040517f08c379a000000000000000000000000000000000000000000000000000000000815260040161055b90611c0c565b60405180910390fd5b60016000806101000a81548160ff02191690831515021790555060006105898561152f565b905060008112156105cf576040517f08c379a00000000000000000000000000000000000000000000000000000000081526004016105c690611c78565b60405180910390fd5b6000600182815481106105e5576105e4611c98565b5b906000526020600020906003020190506004548582600201546106089190611cf6565b1115610649576040517f08c379a000000000000000000000000000000000000000000000000000000000815260040161064090611de4565b60405180910390fd5b8481600201600082825461065d9190611cf6565b925050819055508060000160009054906101000a900473ffffffffffffffffffffffffffffffffffffffff1673ffffffffffffffffffffffffffffffffffffffff166108fc869081150290604051600060405180830381858888f193505050501580156106ce573d6000803e3d6000fd5b5060019350505060008060006101000a81548160ff0219169083151502179055505092915050565b600081600160008154811061070e5761070d611c98565b5b906000526020600020906003020160000160009054906101000a900473ffffffffffffffffffffffffffffffffffffffff1673ffffffffffffffffffffffffffffffffffffffff168173ffffffffffffffffffffffffffffffffffffffff16146107ad576040517f08c379a00000000000000000000000000000000000000000000000000000000081526004016107a490611e50565b60405180910390fd5b600060038111156107c1576107c06119d4565b5b600560009054906101000a900460ff1660038111156107e3576107e26119d4565b5b14610823576040517f08c379a000000000000000000000000000000000000000000000000000000000815260040161081a90611ebc565b60405180910390fd5b6003600560006101000a81548160ff02191690836003811115610849576108486119d4565b5b021790555060005b6001805490508110156108af576003546001828154811061087557610874611c98565b5b906000526020600020906003020160010160008282546108959190611cf6565b9250508190555080806108a790611edc565b915050610851565b506001915050919050565b600047905090565b6000807fffffffffffffffffffffffffffffffffffffffffffffffffffffffffffffffff6108ef8461152f565b1461092f576040517f08c379a000000000000000000000000000000000000000000000000000000000815260040161092690611f71565b60405180910390fd5b61093761174e565b83816000019073ffffffffffffffffffffffffffffffffffffffff16908173ffffffffffffffffffffffffffffffffffffffff16815250506000816040018181525050600354346109889190611f91565b816020018181525050600181908060018154018082558091505060019003906000526020600020906003020160009091909190915060008201518160000160006101000a81548173ffffffffffffffffffffffffffffffffffffffff021916908373ffffffffffffffffffffffffffffffffffffffff16021790555060208201518160010155604082015181600201555050600192506002546001805490501415610a3a57610a356115fe565b600191505b50915091565b600560009054906101000a900460ff1681565b600080610a5f8361152f565b90506000811215610aa5576040517f08c379a0000000000000000000000000000000000000000000000000000000008152600401610a9c90611c78565b60405180910390fd5b60018181548110610ab957610ab8611c98565b5b906000526020600020906003020160020154915050919050565b6000806000905060005b600180549050811015610b305760018181548110610afe57610afd611c98565b5b90600052602060002090600302016001015482610b1b9190611cf6565b91508080610b2890611edc565b915050610add565b5080610b3a6108ba565b610b449190611f91565b91505090565b60008060009054906101000a900460ff1615610b9b576040517f08c379a0000000000000000000000000000000000000000000000000000000008152600401610b9290611c0c565b60405180910390fd5b60016000806101000a81548160ff0219169083151502179055506000610bc08361152f565b90506000811215610c06576040517f08c379a0000000000000000000000000000000000000000000000000000000008152600401610bfd90612011565b60405180910390fd5b6000819050600060018281548110610c2157610c20611c98565b5b906000526020600020906003020160010154905060008111610c78576040517f08c379a0000000000000000000000000000000000000000000000000000000008152600401610c6f9061207d565b60405180910390fd5b600060018381548110610c8e57610c8d611c98565b5b90600052602060002090600302016001018190555060008573ffffffffffffffffffffffffffffffffffffffff1682604051610cc9906120ce565b60006040518083038185875af1925050503d8060008114610d06576040519150601f19603f3d011682016040523d82523d6000602084013e610d0b565b606091505b5050905080610d4f576040517f08c379a0000000000000000000000000000000000000000000000000000000008152600401610d469061212f565b60405180910390fd5b600380811115610d6257610d616119d4565b5b600560009054906101000a900460ff166003811115610d8457610d836119d4565b5b148015610d9857506000610d966108ba565b145b15610da657610da56116a8565b5b600194505050505060008060006101000a81548160ff021916908315150217905550919050565b6000816001600081548110610de557610de4611c98565b5b906000526020600020906003020160000160009054906101000a900473ffffffffffffffffffffffffffffffffffffffff1673ffffffffffffffffffffffffffffffffffffffff168173ffffffffffffffffffffffffffffffffffffffff1614610e84576040517f08c379a0000000000000000000000000000000000000000000000000000000008152600401610e7b90611e50565b60405180910390fd5b60016003811115610e9857610e976119d4565b5b600560009054906101000a900460ff166003811115610eba57610eb96119d4565b5b14610efa576040517f08c379a0000000000000000000000000000000000000000000000000000000008152600401610ef190611b34565b60405180910390fd5b6002600560006101000a81548160ff02191690836003811115610f2057610f1f6119d4565b5b02179055506000610f2f610ad3565b90506000811115610fb157600060018054905082610f4d919061217e565b905060005b600180549050811015610fae578160018281548110610f7457610f73611c98565b5b90600052602060002090600302016001016000828254610f949190611cf6565b925050819055508080610fa690611edc565b915050610f52565b50505b600192505050919050565b600080610fc88361152f565b9050600081121561100e576040517f08c379a000000000000000000000000000000000000000000000000000000000815260040161100590611c78565b60405180910390fd5b6001818154811061102257611021611c98565b5b9060005260206000209060030201600201546004546110419190611f91565b915050919050565b600083600281905550826003819055508160048190555061106861174e565b85816000019073ffffffffffffffffffffffffffffffffffffffff16908173ffffffffffffffffffffffffffffffffffffffff1681525050600081604001818152505083346110b79190611f91565b816020018181525050600181908060018154018082558091505060019003906000526020600020906003020160009091909190915060008201518160000160006101000a81548173ffffffffffffffffffffffffffffffffffffffff021916908373ffffffffffffffffffffffffffffffffffffffff160217905550602082015181600101556040820151816002015550506000600560006101000a81548160ff0219169083600381111561116f5761116e6119d4565b5b02179055506001915050949350505050565b6000806003811115611196576111956119d4565b5b600560009054906101000a900460ff1660038111156111b8576111b76119d4565b5b146111f8576040517f08c379a00000000000000000000000000000000000000000000000000000000081526004016111ef90611ebc565b60405180910390fd5b60008054906101000a900460ff1615611246576040517f08c379a000000000000000000000000000000000000000000000000000000000815260040161123d90611c0c565b60405180910390fd5b60016000806101000a81548160ff021916908315150217905550600061126b8361152f565b9050600081136112b0576040517f08c379a00000000000000000000000000000000000000000000000000000000081526004016112a790612221565b60405180910390fd5b60008190506000600182815481106112cb576112ca611c98565b5b906000526020600020906003020160000160009054906101000a900473ffffffffffffffffffffffffffffffffffffffff16905060018080805490506113119190611f91565b8154811061132257611321611c98565b5b90600052602060002090600302016001838154811061134457611343611c98565b5b90600052602060002090600302016000820160009054906101000a900473ffffffffffffffffffffffffffffffffffffffff168160000160006101000a81548173ffffffffffffffffffffffffffffffffffffffff021916908373ffffffffffffffffffffffffffffffffffffffff160217905550600182015481600101556002820154816002015590505060018054806113e2576113e1612241565b5b6001900381819060005260206000209060030201600080820160006101000a81549073ffffffffffffffffffffffffffffffffffffffff021916905560018201600090556002820160009055505090558073ffffffffffffffffffffffffffffffffffffffff166108fc6003549081150290604051600060405180830381858888f1935050505015801561147a573d6000803e3d6000fd5b506001935050505060008060006101000a81548160ff021916908315150217905550919050565b6000806114ad8361152f565b905060008112156114f3576040517f08c379a00000000000000000000000000000000000000000000000000000000081526004016114ea90611c78565b60405180910390fd5b6001818154811061150757611506611c98565b5b906000526020600020906003020160010154915050919050565b60035481565b600030905090565b60007fffffffffffffffffffffffffffffffffffffffffffffffffffffffffffffffff905060005b6001805490508110156115f8578273ffffffffffffffffffffffffffffffffffffffff166001828154811061158f5761158e611c98565b5b906000526020600020906003020160000160009054906101000a900473ffffffffffffffffffffffffffffffffffffffff1673ffffffffffffffffffffffffffffffffffffffff1614156115e5578091506115f8565b80806115f090611edc565b915050611557565b50919050565b60006003811115611612576116116119d4565b5b600560009054906101000a900460ff166003811115611634576116336119d4565b5b14611674576040517f08c379a000000000000000000000000000000000000000000000000000000000815260040161166b90611ebc565b60405180910390fd5b6001600560006101000a81548160ff0219169083600381111561169a576116996119d4565b5b021790555042600681905550565b6003808111156116bb576116ba6119d4565b5b600560009054906101000a900460ff1660038111156116dd576116dc6119d4565b5b1461171d576040517f08c379a0000000000000000000000000000000000000000000000000000000008152600401611714906122bc565b60405180910390fd5b60006117276108ba565b14611735576117346122dc565b5b3373ffffffffffffffffffffffffffffffffffffffff16ff5b6040518060600160405280600073ffffffffffffffffffffffffffffffffffffffff16815260200160008152602001600081525090565b600073ffffffffffffffffffffffffffffffffffffffff82169050919050565b60006117b082611785565b9050919050565b6117c0816117a5565b82525050565b600082825260208201905092915050565b7f5032505f496e737572616e63652046616c6c6261636b207761732063616c6c6560008201527f6400000000000000000000000000000000000000000000000000000000000000602082015250565b60006118336021836117c6565b915061183e826117d7565b604082019050919050565b600060408201905061185e60008301846117b7565b818103602083015261186f81611826565b905092915050565b600080fd5b611885816117a5565b811461189057600080fd5b50565b6000813590506118a28161187c565b92915050565b6000819050919050565b6118bb816118a8565b81146118c657600080fd5b50565b6000813590506118d8816118b2565b92915050565b600080604083850312156118f5576118f4611877565b5b600061190385828601611893565b9250506020611914858286016118c9565b9150509250929050565b60008115159050919050565b6119338161191e565b82525050565b600060208201905061194e600083018461192a565b92915050565b60006020828403121561196a57611969611877565b5b600061197884828501611893565b91505092915050565b61198a816118a8565b82525050565b60006020820190506119a56000830184611981565b92915050565b60006040820190506119c0600083018561192a565b6119cd602083018461192a565b9392505050565b7f4e487b7100000000000000000000000000000000000000000000000000000000600052602160045260246000fd5b60048110611a1457611a136119d4565b5b50565b6000819050611a2582611a03565b919050565b6000611a3582611a17565b9050919050565b611a4581611a2a565b82525050565b6000602082019050611a606000830184611a3c565b92915050565b60008060008060808587031215611a8057611a7f611877565b5b6000611a8e87828801611893565b9450506020611a9f878288016118c9565b9350506040611ab0878288016118c9565b9250506060611ac1878288016118c9565b91505092959194509250565b6000602082019050611ae260008301846117b7565b92915050565b7f54686520706f6f6c20737461747573206973206e6f7420616374697665000000600082015250565b6000611b1e601d836117c6565b9150611b2982611ae8565b602082019050919050565b60006020820190508181036000830152611b4d81611b11565b9050919050565b7f54686520706f6f6c20686173206e6f20656e6f7567682066756e642000000000600082015250565b6000611b8a601c836117c6565b9150611b9582611b54565b602082019050919050565b60006020820190508181036000830152611bb981611b7d565b9050919050565b7f5265656e7472616e742063616c6c2e0000000000000000000000000000000000600082015250565b6000611bf6600f836117c6565b9150611c0182611bc0565b602082019050919050565b60006020820190508181036000830152611c2581611be9565b9050919050565b7f4974206973206e6f74206120706f6f6c206d656d626572000000000000000000600082015250565b6000611c626017836117c6565b9150611c6d82611c2c565b602082019050919050565b60006020820190508181036000830152611c9181611c55565b9050919050565b7f4e487b7100000000000000000000000000000000000000000000000000000000600052603260045260246000fd5b7f4e487b7100000000000000000000000000000000000000000000000000000000600052601160045260246000fd5b6000611d01826118a8565b9150611d0c836118a8565b9250827fffffffffffffffffffffffffffffffffffffffffffffffffffffffffffffffff03821115611d4157611d40611cc7565b5b828201905092915050565b7f54686520636c61696d2063616e27742062652070726f6365737365642062656360008201527f6175736520746865206d656d626572206861732065786365656465642069747360208201527f206d6178696d756d20636f766572616765000000000000000000000000000000604082015250565b6000611dce6051836117c6565b9150611dd982611d4c565b606082019050919050565b60006020820190508181036000830152611dfd81611dc1565b9050919050565b7f4974206973206e6f742074686520706f6f6c206d616e61676572000000000000600082015250565b6000611e3a601a836117c6565b9150611e4582611e04565b602082019050919050565b60006020820190508181036000830152611e6981611e2d565b9050919050565b7f54686520706f6f6c20737461747573206973206e6f7420696e69746961746564600082015250565b6000611ea66020836117c6565b9150611eb182611e70565b602082019050919050565b60006020820190508181036000830152611ed581611e99565b9050919050565b6000611ee7826118a8565b91507fffffffffffffffffffffffffffffffffffffffffffffffffffffffffffffffff821415611f1a57611f19611cc7565b5b600182019050919050565b7f4d656d62657220616c7265616479206a6f696e6564207468697320706f6f6c00600082015250565b6000611f5b601f836117c6565b9150611f6682611f25565b602082019050919050565b60006020820190508181036000830152611f8a81611f4e565b9050919050565b6000611f9c826118a8565b9150611fa7836118a8565b925082821015611fba57611fb9611cc7565b5b828203905092915050565b7f4e6f74206120706f6f6c206d656d626572000000000000000000000000000000600082015250565b6000611ffb6011836117c6565b915061200682611fc5565b602082019050919050565b6000602082019050818103600083015261202a81611fee565b9050919050565b7f4e6f20617661696c61626c652062616c616e6365000000000000000000000000600082015250565b60006120676014836117c6565b915061207282612031565b602082019050919050565b600060208201905081810360008301526120968161205a565b9050919050565b600081905092915050565b50565b60006120b860008361209d565b91506120c3826120a8565b600082019050919050565b60006120d9826120ab565b9150819050919050565b7f5472616e73666572206661696c65640000000000000000000000000000000000600082015250565b6000612119600f836117c6565b9150612124826120e3565b602082019050919050565b600060208201905081810360008301526121488161210c565b9050919050565b7f4e487b7100000000000000000000000000000000000000000000000000000000600052601260045260246000fd5b6000612189826118a8565b9150612194836118a8565b9250826121a4576121a361214f565b5b828204905092915050565b7f4e6f74206120706f6f6c206d656d626572206f7220686520697320746865207060008201527f6f6f6c206d616e61676572000000000000000000000000000000000000000000602082015250565b600061220b602b836117c6565b9150612216826121af565b604082019050919050565b6000602082019050818103600083015261223a816121fe565b9050919050565b7f4e487b7100000000000000000000000000000000000000000000000000000000600052603160045260246000fd5b7f54686520706f6f6c20737461747573206973206e6f742063616e63656c656400600082015250565b60006122a6601f836117c6565b91506122b182612270565b602082019050919050565b600060208201905081810360008301526122d581612299565b9050919050565b7f4e487b7100000000000000000000000000000000000000000000000000000000600052600160045260246000fdfea2646970667358221220315c0f88562ca244d4dfb642d388d5bb6fd9d832ada55e1be107c6b2458d736a64736f6c634300080a0033",
  "immutableReferences": {},
  "source": "// SPDX-License-Identifier: MIT\npragma solidity 0.8.10;\n\nimport \"./PoolMember.sol\";\n\ncontract InsurancePool is PoolMember{\n\n    bool locked; // used for reentrancy checks\n    PoolMember.Member[] members; // Always members[0] is the pool manager\n    uint minNumberOfMembers; // the minimum number of members in a pool - Unit256 as there is no potential packing here\n    uint public premium; // the pool premium in Wei\n    uint maxCoveragePerMember; // the maximum coverage by a pool to a member - in Wei\n    PoolStatus public status; //the pool status\n    uint policyStartDate; // the policy start date since activation - policy validity is one year by defualt\n\n    /* there will be other attributes offchain/frontend such as pool terms and conditions, pool coverage, max number of members, etc.\n       max number of members - could be important for Block Gas Limit DoS - to limit members array size */\n\n    /* ReInsurer reInsurer; we can add the ReInsurer contract - in future - when we manage the re-insurance process:\n       the pool members get themselves covered with the help of reinsurance in case of exceeding pool coverage.\n       And of course, some part of premium/contribution is shared with reinsurers */\n\n    // Escrew account is the pool contract address: address (this);\n    //(address) this.balance has the pool avialable fund\n\n    enum PoolStatus {\n        Initiated,\n        Active,\n        Finished,\n        Canceled\n    }\n\n    modifier onlyInitiatedPool () {\n        require (status == PoolStatus.Initiated,\"The pool status is not initiated\");\n        _;\n    }\n\n    modifier onlyActivePool () {\n        require (status == PoolStatus.Active,\"The pool status is not active\");\n        _;\n    }\n\n    modifier onlyFinishedPool () {\n        require (status == PoolStatus.Finished,\"The pool status is not finished\");\n        _;\n    }\n\n    modifier onlycanceledPool () {\n        require (status == PoolStatus.Canceled,\"The pool status is not canceled\");\n        _;\n    }\n\n    // the pool manager is the first member and it is initiated with the create pool function\n    modifier onlyPoolManager (address _sender) {\n        require (_sender == members[0].memberAddress,\"It is not the pool manager\");\n        _;\n    }\n    \n    // not useful - because we always need to return the member id and modifier doesn't return values\n    /*modifier onlyPoolMember (address _sender)\n    {\n        int poolMemberId = getMemberId(_sender);\n        require (poolMemberId >= 0,\"It is not a pool member\");\n        _;\n    } */\n\n    // to check if there is available fund to process the member claim\n    modifier availableFundInPool (uint _value) {\n        require (getPoolAvailableBalance() >= _value,\"The pool has no enough fund \");\n        _;\n    }\n\n   // protect agianst reentrant calls \n   modifier noReentrancy() \n    { \n        require( !locked, \"Reentrant call.\" );\n        locked = true;\n        _;\n        locked = false;\n    }\n\n    //Register Events\n    event fallbackReceived(address sender, string message);\n\n    //return the current fund at the pool\n    function getPoolTotalBalance() public view returns (uint)\n    {\n        return address (this).balance; \n    }\n\n    function getPoolAddress() public view returns (address)\n    {\n        return address (this); \n    }\n\n    //return the available balance in pool after deducting the members balances that are due and not withdrawed yet. \n    function getPoolAvailableBalance() public view returns (uint)\n    {\n        uint sumBalances = 0; // sum the balances of members that are due and not withdrawed yet. \n        for (uint i = 0; i < members.length; i++)\n            sumBalances += members[i].balance;    \n        return getPoolTotalBalance() - sumBalances;\n    }\n\n    function getMemberIndex(address _memberAddress) private view returns (int poolMemberId)  \n    {\n        poolMemberId = -1;\n        for (uint i = 0; i < members.length; i++){\n            if (members[i].memberAddress == _memberAddress) {\n                poolMemberId = int(i);\n                break;\n            } \n        }\n    }\n\n    // The pool will be activated automatically when reaches its minimum number of members\n    function activatePool () private onlyInitiatedPool()\n    {\n        status = PoolStatus.Active;\n        policyStartDate = block.timestamp;\n    }\n    \n    constructor () {}\n\n    /* implementing PoolMember Interface Functions: */\n\n    function getMemberBalance(address _memberAddress) public view override returns (uint)  //\n    {\n         int poolMemberId = getMemberIndex(_memberAddress);\n         require (poolMemberId >= 0,\"It is not a pool member\");\n         return members[uint(poolMemberId)].balance;\n    }\n\n    function getMemberTotalClaims(address _memberAddress) public view override returns (uint)  // \n    {\n        int poolMemberId = getMemberIndex(_memberAddress);\n        require (poolMemberId >= 0,\"It is not a pool member\");\n        return members[uint(poolMemberId)].totalClaims;\n    }\n\n    function getMemberRemainingCoverage(address _memberAddress) public view override returns (uint) //\n    {\n        int poolMemberId = getMemberIndex(_memberAddress);\n        require (poolMemberId >= 0,\"It is not a pool member\");\n        return maxCoveragePerMember - members[uint(poolMemberId)].totalClaims;\n    }\n\n    //already checked if enough premium paid before creating the InsurancePool instance\n    function createPool(address _memberAddress, uint _minNumberOfMembers, uint _premium, uint _maxCoveragePerMember) external payable override returns (bool)\n    {\n        minNumberOfMembers = _minNumberOfMembers;  // \n        premium = _premium; // _premium in Wei\n        maxCoveragePerMember = _maxCoveragePerMember; // in wei\n\n        //for Gaz Optimization - not using the struct construtor, instead assign variables to values\n        PoolMember.Member memory member;\n        member.memberAddress = payable(_memberAddress);\n        member.totalClaims = 0;\n        member.balance = msg.value - _premium; // to refund extra amount than the premium\n        members.push(member);\n        //members.push(Member(_memberAddress , msg.value - _premium, 0)); // Adding the pool manager\n\n        status = PoolStatus.Initiated;\n        return true;\n    }\n\n    //already checked if enough premium paid before calling the function\n    function joinPool(address _memberAddress) external payable override returns (bool isJoined,bool isPoolActivated)\n    {\n        require (getMemberIndex(_memberAddress) == -1,\"Member already joined this pool\");\n\n        //for Gaz Optimization - not using the struct construtor, instead assign variables to values\n        PoolMember.Member memory member;\n        member.memberAddress = payable(_memberAddress);\n        member.totalClaims = 0;\n        member.balance = msg.value - premium; // to refund extra amount than the premium\n        members.push(member);\n        //members.push(Member(_memberAddress , msg.value - premium, 0));\n        isJoined = true;\n\n        if (members.length == minNumberOfMembers) {\n            activatePool();\n            isPoolActivated = true;\n        }\n    }\n\n    //The pool manager can cancel a pool if it is still in the initiated status - as example, long time the pool not reaches the minimum requirements to be activated\n    function cancelPool (address _memberAddress) external override onlyPoolManager(_memberAddress) onlyInitiatedPool returns (bool)\n    {\n        status = PoolStatus.Canceled;\n        //return already paid premiums to members\n        for (uint i = 0; i < members.length; i++){\n            members[i].balance += premium;\n            //members[i].memberAddress.transfer(premium);\n        }\n        return true;\n    }\n\n    // cancel membership of a pool member befor the pool activation\n    function cancelSubscription (address _memberAddress) external override onlyInitiatedPool() noReentrancy returns (bool)\n    {\n        // Checks-effects-interactions pattern:\n\n        //checks if he is a pool member (checks)\n        int poolMemberId = getMemberIndex (_memberAddress);\n        require (poolMemberId > 0, \"Not a pool member or he is the pool manager\");\n        uint uintPoolMemberId = uint(poolMemberId);\n        address payable _address = members[uintPoolMemberId].memberAddress;\n\n        //Now he is no longer a pool member (effects)\n        members[uintPoolMemberId] = members[members.length - 1];\n        members.pop();\n\n        //we need to transfer back its premium (interactions) \n        _address.transfer(premium);\n        return true;\n    }\n\n    // the pool is finshed once the policy expired after one year since activation (UI/Frontend validation)\n    // Only the pool manager has the right to call this function    \n    function finishPool(address _memberAddress) external override onlyPoolManager(_memberAddress) onlyActivePool returns (bool) \n    {\n        status = PoolStatus.Finished;\n\n        uint poolSurplus = getPoolAvailableBalance();\n        if (poolSurplus > 0) {\n            uint memberShareInSurplus = poolSurplus / members.length; // not correct as balance changed this\n            for (uint i = 0; i < members.length; i++){\n                members[i].balance += memberShareInSurplus;\n                //members[i].memberAddress.transfer(memberShareInSurplus);\n            }\n        }\n        return true;\n    }\n\n    //availableFundInPool(claimAmount) checks if the pool availabe fund covers the requested claim\n    function requestClaim(address _memberAddress, uint _claimAmount) external override onlyActivePool() availableFundInPool(_claimAmount) noReentrancy returns (bool)\n    {\n        //expected _claimAmount in Wei\n         int poolMemberId = getMemberIndex (_memberAddress);\n         require (poolMemberId >=0 ,\"It is not a pool member\");\n         PoolMember.Member storage member = members[uint(poolMemberId)];\n         //check entitlements \n        require (member.totalClaims + _claimAmount <= maxCoveragePerMember,\n        \"The claim can't be processed because the member has exceeded its maximum coverage\");\n\n        member.totalClaims += _claimAmount; // before the actual transfer (Checks-effects-interactions pattern)\n        member.memberAddress.transfer(_claimAmount);\n        return true;\n\n        /* Future use cases (not in this project scope):\n                1- partial reimbursement if the avialable fund is not enought for the requested claim\n                2- partial reimbursement if the claim has exceeded the maxCoveragePerMember\n                3- if pool ran out of fund, reimbursement through the re-insurer\n        */\n    } \n\n    // this function will refund the member any extra amount (when deposit the premium), cancelation cases or when distributing the surplus at policy expiry\n    function withdrawBalance(address _memberAddress) external override noReentrancy returns (bool)//\n    {\n        //Checks-effects-interactions pattern\n\n        //checks if send is a pool member\n        int poolMemberId = getMemberIndex (_memberAddress);\n        require (poolMemberId >= 0,\"Not a pool member\");\n        uint uintPoolMemberId = uint(poolMemberId);\n\n        //checks available balance\n        uint balance = members[uintPoolMemberId].balance;\n        require (balance > 0 , \"No available balance\");\n\n        //effects: set balance to 0\n        members[uintPoolMemberId].balance = 0;\n\n        //Then transfer\n        (bool success,) = _memberAddress.call{value:balance}(\"\");\n        require (success, \"Transfer failed\");\n\n        if (status == PoolStatus.Canceled && getPoolTotalBalance() == 0)\n            selfDestructPool();\n\n        return true;\n    } \n    \n    /* implementing PoolMember Interface Functions has been Completed */\n\n    \n    //clean up the canceled pool? I think Yes for (Gaz Optimization /return gaz),\n    //because the policy is not activated and no important transactions to keep stored on blockchain\n    //We can have the archive of canceled pools offchain if needed\n    function selfDestructPool() private onlycanceledPool \n    {\n        assert(getPoolTotalBalance() == 0); // the pool fund should be already empty\n        selfdestruct(payable(msg.sender)); // we are sure that there is no remaining Ether before the self destruction\n    }\n\n    //fall back function \n    //it is not payable - not accepting to receive plain ether and this will raise exception!\n    fallback() external  {\n        emit fallbackReceived(msg.sender,\"P2P_Insurance Fallback was called\");\n    }\n}\n\n//ordering the modifiers logically in functions\n//re-name modifier require message in more unstandable way\n//Listening for events and updating user interface\n// policy start end end date - finish pool?\n//try to create Library for Refund - independent deployment\n\n//proxy upgrade pattern?\n//Checks-effects-interactions pattern\n//withdrwal pattern\n//factory pattern\n//circuit breaker pttern\n\n//re-entrancy\n//Inter-Contract Execution (Calling functions in external contracts) Inter-Contract Execution, Part 1 and Part 2",
  "sourcePath": "/mnt/c/Users/pc1/projects/blockchain-developer-bootcamp-final-project/contracts/InsurancePool.sol",
  "compiler": {
    "name": "solc",
    "version": "0.8.10+commit.fc410830.Emscripten.clang"
  },
  "schemaVersion": "3.4.2",
  "updatedAt": "2021-12-07T10:14:50.078Z",
  "devdoc": {
    "kind": "dev",
    "methods": {},
    "version": 1
  },
  "userdoc": {
    "kind": "user",
    "methods": {},
    "version": 1
  }
}