{
  "contractName": "InsurancePool",
  "abi": [
    {
      "inputs": [],
      "stateMutability": "nonpayable",
      "type": "constructor"
    },
    {
      "anonymous": false,
      "inputs": [
        {
          "indexed": false,
          "internalType": "address",
          "name": "sender",
          "type": "address"
        },
        {
          "indexed": false,
          "internalType": "string",
          "name": "message",
          "type": "string"
        }
      ],
      "name": "fallbackReceived",
      "type": "event"
    },
    {
      "stateMutability": "nonpayable",
      "type": "fallback"
    },
    {
      "inputs": [],
      "name": "maxCoveragePerMember",
      "outputs": [
        {
          "internalType": "uint256",
          "name": "",
          "type": "uint256"
        }
      ],
      "stateMutability": "view",
      "type": "function"
    },
    {
      "inputs": [
        {
          "internalType": "uint256",
          "name": "",
          "type": "uint256"
        }
      ],
      "name": "members",
      "outputs": [
        {
          "internalType": "address payable",
          "name": "memberAddress",
          "type": "address"
        },
        {
          "internalType": "uint256",
          "name": "balance",
          "type": "uint256"
        },
        {
          "internalType": "uint256",
          "name": "totalClaims",
          "type": "uint256"
        }
      ],
      "stateMutability": "view",
      "type": "function"
    },
    {
      "inputs": [],
      "name": "minNumberOfMembers",
      "outputs": [
        {
          "internalType": "uint256",
          "name": "",
          "type": "uint256"
        }
      ],
      "stateMutability": "view",
      "type": "function"
    },
    {
      "inputs": [],
      "name": "policyStartDate",
      "outputs": [
        {
          "internalType": "uint256",
          "name": "",
          "type": "uint256"
        }
      ],
      "stateMutability": "view",
      "type": "function"
    },
    {
      "inputs": [],
      "name": "premium",
      "outputs": [
        {
          "internalType": "uint256",
          "name": "",
          "type": "uint256"
        }
      ],
      "stateMutability": "view",
      "type": "function"
    },
    {
      "inputs": [],
      "name": "status",
      "outputs": [
        {
          "internalType": "enum InsurancePool.PoolStatus",
          "name": "",
          "type": "uint8"
        }
      ],
      "stateMutability": "view",
      "type": "function"
    },
    {
      "inputs": [],
      "name": "getPoolTotalBalance",
      "outputs": [
        {
          "internalType": "uint256",
          "name": "",
          "type": "uint256"
        }
      ],
      "stateMutability": "view",
      "type": "function"
    },
    {
      "inputs": [],
      "name": "getPoolAddress",
      "outputs": [
        {
          "internalType": "address",
          "name": "",
          "type": "address"
        }
      ],
      "stateMutability": "view",
      "type": "function"
    },
    {
      "inputs": [],
      "name": "getPoolAvailableBalance",
      "outputs": [
        {
          "internalType": "uint256",
          "name": "",
          "type": "uint256"
        }
      ],
      "stateMutability": "view",
      "type": "function"
    },
    {
      "inputs": [],
      "name": "getMembersCount",
      "outputs": [
        {
          "internalType": "uint256",
          "name": "",
          "type": "uint256"
        }
      ],
      "stateMutability": "view",
      "type": "function"
    },
    {
      "inputs": [
        {
          "internalType": "address",
          "name": "_memberAddress",
          "type": "address"
        }
      ],
      "name": "getMemberDetails",
      "outputs": [
        {
          "internalType": "int256",
          "name": "_poolMemberId",
          "type": "int256"
        },
        {
          "internalType": "uint256",
          "name": "_balance",
          "type": "uint256"
        },
        {
          "internalType": "uint256",
          "name": "_totalClaims",
          "type": "uint256"
        },
        {
          "internalType": "uint256",
          "name": "_remainingCoverage",
          "type": "uint256"
        }
      ],
      "stateMutability": "view",
      "type": "function"
    },
    {
      "inputs": [
        {
          "internalType": "address",
          "name": "_memberAddress",
          "type": "address"
        },
        {
          "internalType": "uint256",
          "name": "_minNumberOfMembers",
          "type": "uint256"
        },
        {
          "internalType": "uint256",
          "name": "_premium",
          "type": "uint256"
        },
        {
          "internalType": "uint256",
          "name": "_maxCoveragePerMember",
          "type": "uint256"
        }
      ],
      "name": "createPool",
      "outputs": [
        {
          "internalType": "bool",
          "name": "",
          "type": "bool"
        }
      ],
      "stateMutability": "payable",
      "type": "function"
    },
    {
      "inputs": [
        {
          "internalType": "address",
          "name": "_memberAddress",
          "type": "address"
        }
      ],
      "name": "joinPool",
      "outputs": [
        {
          "internalType": "bool",
          "name": "isJoined",
          "type": "bool"
        },
        {
          "internalType": "bool",
          "name": "isPoolActivated",
          "type": "bool"
        }
      ],
      "stateMutability": "payable",
      "type": "function"
    },
    {
      "inputs": [
        {
          "internalType": "address",
          "name": "_memberAddress",
          "type": "address"
        }
      ],
      "name": "cancelPool",
      "outputs": [
        {
          "internalType": "bool",
          "name": "",
          "type": "bool"
        }
      ],
      "stateMutability": "nonpayable",
      "type": "function"
    },
    {
      "inputs": [
        {
          "internalType": "address",
          "name": "_memberAddress",
          "type": "address"
        }
      ],
      "name": "cancelSubscription",
      "outputs": [
        {
          "internalType": "bool",
          "name": "",
          "type": "bool"
        }
      ],
      "stateMutability": "nonpayable",
      "type": "function"
    },
    {
      "inputs": [
        {
          "internalType": "address",
          "name": "_memberAddress",
          "type": "address"
        }
      ],
      "name": "finishPool",
      "outputs": [
        {
          "internalType": "bool",
          "name": "",
          "type": "bool"
        }
      ],
      "stateMutability": "nonpayable",
      "type": "function"
    },
    {
      "inputs": [
        {
          "internalType": "address",
          "name": "_memberAddress",
          "type": "address"
        },
        {
          "internalType": "uint256",
          "name": "_claimAmount",
          "type": "uint256"
        }
      ],
      "name": "requestClaim",
      "outputs": [
        {
          "internalType": "bool",
          "name": "",
          "type": "bool"
        }
      ],
      "stateMutability": "nonpayable",
      "type": "function"
    },
    {
      "inputs": [
        {
          "internalType": "address",
          "name": "_memberAddress",
          "type": "address"
        }
      ],
      "name": "withdrawBalance",
      "outputs": [
        {
          "internalType": "bool",
          "name": "",
          "type": "bool"
        }
      ],
      "stateMutability": "nonpayable",
      "type": "function"
    }
  ],
  "bytecode": "0x608060405234801561001057600080fd5b506122ec806100206000396000f3fe60806040526004361061010d5760003560e01c806379f3378b11610095578063922d3e4c11610064578063922d3e4c146103fa57806393d81d581461042a578063c5191d1a14610467578063e0a73a9314610492578063f586c6d9146104bd5761010e565b806379f3378b1461032757806383fd09541461035257806388ff87c9146103925780638fab98b4146103cf5761010e565b80631ae0e73d116100dc5780631ae0e73d14610224578063200d2ed21461025557806347cc6313146102805780635daf08ca146102ab578063756af45f146102ea5761010e565b806301e51e971461015457806309772f8f146101915780630b03bf2b146101bc5780630dc07a3e146101f95761010e565b5b34801561011a57600080fd5b507f2402f2b60dce6d6a9da700a348a123aac12db0c50649200b5970ead86df8805c3360405161014a91906117ac565b60405180910390a1005b34801561016057600080fd5b5061017b60048036038101906101769190611841565b6104e8565b604051610188919061189c565b60405180910390f35b34801561019d57600080fd5b506101a661078b565b6040516101b391906118c6565b60405180910390f35b3480156101c857600080fd5b506101e360048036038101906101de91906118e1565b610798565b6040516101f0919061189c565b60405180910390f35b34801561020557600080fd5b5061020e61095c565b60405161021b91906118c6565b60405180910390f35b61023e600480360381019061023991906118e1565b610964565b60405161024c92919061190e565b60405180910390f35b34801561026157600080fd5b5061026a610ae2565b60405161027791906119ae565b60405180910390f35b34801561028c57600080fd5b50610295610af5565b6040516102a291906118c6565b60405180910390f35b3480156102b757600080fd5b506102d260048036038101906102cd91906119c9565b610b6c565b6040516102e193929190611a17565b60405180910390f35b3480156102f657600080fd5b50610311600480360381019061030c91906118e1565b610bc6565b60405161031e919061189c565b60405180910390f35b34801561033357600080fd5b5061033c610df2565b60405161034991906118c6565b60405180910390f35b34801561035e57600080fd5b50610379600480360381019061037491906118e1565b610df8565b6040516103899493929190611a67565b60405180910390f35b34801561039e57600080fd5b506103b960048036038101906103b491906118e1565b610ed7565b6040516103c6919061189c565b60405180910390f35b3480156103db57600080fd5b506103e46110c6565b6040516103f191906118c6565b60405180910390f35b610414600480360381019061040f9190611aac565b6110cc565b604051610421919061189c565b60405180910390f35b34801561043657600080fd5b50610451600480360381019061044c91906118e1565b611204565b60405161045e919061189c565b60405180910390f35b34801561047357600080fd5b5061047c611524565b60405161048991906118c6565b60405180910390f35b34801561049e57600080fd5b506104a761152a565b6040516104b491906118c6565b60405180910390f35b3480156104c957600080fd5b506104d2611530565b6040516104df9190611b13565b60405180910390f35b6000600160038111156104fe576104fd611937565b5b600560009054906101000a900460ff1660038111156105205761051f611937565b5b14610560576040517f08c379a000000000000000000000000000000000000000000000000000000000815260040161055790611b7a565b60405180910390fd5b818061056a610af5565b10156105ab576040517f08c379a00000000000000000000000000000000000000000000000000000000081526004016105a290611be6565b60405180910390fd5b60008054906101000a900460ff16156105f9576040517f08c379a00000000000000000000000000000000000000000000000000000000081526004016105f090611c52565b60405180910390fd5b60016000806101000a81548160ff021916908315150217905550600061061e85611538565b90506000811215610664576040517f08c379a000000000000000000000000000000000000000000000000000000000815260040161065b90611cbe565b60405180910390fd5b60006001828154811061067a57610679611cde565b5b9060005260206000209060030201905060045485826002015461069d9190611d3c565b11156106de576040517f08c379a00000000000000000000000000000000000000000000000000000000081526004016106d590611e2a565b60405180910390fd5b848160020160008282546106f29190611d3c565b925050819055508060000160009054906101000a900473ffffffffffffffffffffffffffffffffffffffff1673ffffffffffffffffffffffffffffffffffffffff166108fc869081150290604051600060405180830381858888f19350505050158015610763573d6000803e3d6000fd5b5060019350505060008060006101000a81548160ff0219169083151502179055505092915050565b6000600180549050905090565b60008160016000815481106107b0576107af611cde565b5b906000526020600020906003020160000160009054906101000a900473ffffffffffffffffffffffffffffffffffffffff1673ffffffffffffffffffffffffffffffffffffffff168173ffffffffffffffffffffffffffffffffffffffff161461084f576040517f08c379a000000000000000000000000000000000000000000000000000000000815260040161084690611e96565b60405180910390fd5b6000600381111561086357610862611937565b5b600560009054906101000a900460ff16600381111561088557610884611937565b5b146108c5576040517f08c379a00000000000000000000000000000000000000000000000000000000081526004016108bc90611f02565b60405180910390fd5b6003600560006101000a81548160ff021916908360038111156108eb576108ea611937565b5b021790555060005b600180549050811015610951576003546001828154811061091757610916611cde565b5b906000526020600020906003020160010160008282546109379190611d3c565b92505081905550808061094990611f22565b9150506108f3565b506001915050919050565b600047905090565b6000807fffffffffffffffffffffffffffffffffffffffffffffffffffffffffffffffff61099184611538565b146109d1576040517f08c379a00000000000000000000000000000000000000000000000000000000081526004016109c890611fb7565b60405180910390fd5b6109d96116b1565b83816000019073ffffffffffffffffffffffffffffffffffffffff16908173ffffffffffffffffffffffffffffffffffffffff1681525050600081604001818152505060035434610a2a9190611fd7565b816020018181525050600181908060018154018082558091505060019003906000526020600020906003020160009091909190915060008201518160000160006101000a81548173ffffffffffffffffffffffffffffffffffffffff021916908373ffffffffffffffffffffffffffffffffffffffff16021790555060208201518160010155604082015181600201555050600192506002546001805490501415610adc57610ad7611607565b600191505b50915091565b600560009054906101000a900460ff1681565b6000806000905060005b600180549050811015610b525760018181548110610b2057610b1f611cde565b5b90600052602060002090600302016001015482610b3d9190611d3c565b91508080610b4a90611f22565b915050610aff565b5080610b5c61095c565b610b669190611fd7565b91505090565b60018181548110610b7c57600080fd5b90600052602060002090600302016000915090508060000160009054906101000a900473ffffffffffffffffffffffffffffffffffffffff16908060010154908060020154905083565b60008060009054906101000a900460ff1615610c17576040517f08c379a0000000000000000000000000000000000000000000000000000000008152600401610c0e90611c52565b60405180910390fd5b60016000806101000a81548160ff0219169083151502179055506000610c3c83611538565b90506000811215610c82576040517f08c379a0000000000000000000000000000000000000000000000000000000008152600401610c7990612057565b60405180910390fd5b6000819050600060018281548110610c9d57610c9c611cde565b5b906000526020600020906003020160010154905060008111610cf4576040517f08c379a0000000000000000000000000000000000000000000000000000000008152600401610ceb906120c3565b60405180910390fd5b600060018381548110610d0a57610d09611cde565b5b90600052602060002090600302016001018190555060008573ffffffffffffffffffffffffffffffffffffffff1682604051610d4590612114565b60006040518083038185875af1925050503d8060008114610d82576040519150601f19603f3d011682016040523d82523d6000602084013e610d87565b606091505b5050905080610dcb576040517f08c379a0000000000000000000000000000000000000000000000000000000008152600401610dc290612175565b60405180910390fd5b600194505050505060008060006101000a81548160ff021916908315150217905550919050565b60025481565b600080600080610e0785611538565b935060008412610ed057600060018581548110610e2757610e26611cde565b5b90600052602060002090600302016040518060600160405290816000820160009054906101000a900473ffffffffffffffffffffffffffffffffffffffff1673ffffffffffffffffffffffffffffffffffffffff1673ffffffffffffffffffffffffffffffffffffffff16815260200160018201548152602001600282015481525050905080602001519350806040015192508060400151600454610ecc9190611fd7565b9150505b9193509193565b6000816001600081548110610eef57610eee611cde565b5b906000526020600020906003020160000160009054906101000a900473ffffffffffffffffffffffffffffffffffffffff1673ffffffffffffffffffffffffffffffffffffffff168173ffffffffffffffffffffffffffffffffffffffff1614610f8e576040517f08c379a0000000000000000000000000000000000000000000000000000000008152600401610f8590611e96565b60405180910390fd5b60016003811115610fa257610fa1611937565b5b600560009054906101000a900460ff166003811115610fc457610fc3611937565b5b14611004576040517f08c379a0000000000000000000000000000000000000000000000000000000008152600401610ffb90611b7a565b60405180910390fd5b6002600560006101000a81548160ff0219169083600381111561102a57611029611937565b5b02179055506000611039610af5565b905060008111156110bb5760006001805490508261105791906121c4565b905060005b6001805490508110156110b857816001828154811061107e5761107d611cde565b5b9060005260206000209060030201600101600082825461109e9190611d3c565b9250508190555080806110b090611f22565b91505061105c565b50505b600192505050919050565b60045481565b60008360028190555082600381905550816004819055506110eb6116b1565b85816000019073ffffffffffffffffffffffffffffffffffffffff16908173ffffffffffffffffffffffffffffffffffffffff16815250506000816040018181525050833461113a9190611fd7565b816020018181525050600181908060018154018082558091505060019003906000526020600020906003020160009091909190915060008201518160000160006101000a81548173ffffffffffffffffffffffffffffffffffffffff021916908373ffffffffffffffffffffffffffffffffffffffff160217905550602082015181600101556040820151816002015550506000600560006101000a81548160ff021916908360038111156111f2576111f1611937565b5b02179055506001915050949350505050565b600080600381111561121957611218611937565b5b600560009054906101000a900460ff16600381111561123b5761123a611937565b5b1461127b576040517f08c379a000000000000000000000000000000000000000000000000000000000815260040161127290611f02565b60405180910390fd5b60008054906101000a900460ff16156112c9576040517f08c379a00000000000000000000000000000000000000000000000000000000081526004016112c090611c52565b60405180910390fd5b60016000806101000a81548160ff02191690831515021790555060006112ee83611538565b905060008113611333576040517f08c379a000000000000000000000000000000000000000000000000000000000815260040161132a90612267565b60405180910390fd5b600081905060006001828154811061134e5761134d611cde565b5b906000526020600020906003020160000160009054906101000a900473ffffffffffffffffffffffffffffffffffffffff16905060018080805490506113949190611fd7565b815481106113a5576113a4611cde565b5b9060005260206000209060030201600183815481106113c7576113c6611cde565b5b90600052602060002090600302016000820160009054906101000a900473ffffffffffffffffffffffffffffffffffffffff168160000160006101000a81548173ffffffffffffffffffffffffffffffffffffffff021916908373ffffffffffffffffffffffffffffffffffffffff1602179055506001820154816001015560028201548160020155905050600180548061146557611464612287565b5b6001900381819060005260206000209060030201600080820160006101000a81549073ffffffffffffffffffffffffffffffffffffffff021916905560018201600090556002820160009055505090558073ffffffffffffffffffffffffffffffffffffffff166108fc6003549081150290604051600060405180830381858888f193505050501580156114fd573d6000803e3d6000fd5b506001935050505060008060006101000a81548160ff021916908315150217905550919050565b60065481565b60035481565b600030905090565b60007fffffffffffffffffffffffffffffffffffffffffffffffffffffffffffffffff905060005b600180549050811015611601578273ffffffffffffffffffffffffffffffffffffffff166001828154811061159857611597611cde565b5b906000526020600020906003020160000160009054906101000a900473ffffffffffffffffffffffffffffffffffffffff1673ffffffffffffffffffffffffffffffffffffffff1614156115ee57809150611601565b80806115f990611f22565b915050611560565b50919050565b6000600381111561161b5761161a611937565b5b600560009054906101000a900460ff16600381111561163d5761163c611937565b5b1461167d576040517f08c379a000000000000000000000000000000000000000000000000000000000815260040161167490611f02565b60405180910390fd5b6001600560006101000a81548160ff021916908360038111156116a3576116a2611937565b5b021790555042600681905550565b6040518060600160405280600073ffffffffffffffffffffffffffffffffffffffff16815260200160008152602001600081525090565b600073ffffffffffffffffffffffffffffffffffffffff82169050919050565b6000611713826116e8565b9050919050565b61172381611708565b82525050565b600082825260208201905092915050565b7f5032505f496e737572616e63652046616c6c6261636b207761732063616c6c6560008201527f6400000000000000000000000000000000000000000000000000000000000000602082015250565b6000611796602183611729565b91506117a18261173a565b604082019050919050565b60006040820190506117c1600083018461171a565b81810360208301526117d281611789565b905092915050565b600080fd5b6117e881611708565b81146117f357600080fd5b50565b600081359050611805816117df565b92915050565b6000819050919050565b61181e8161180b565b811461182957600080fd5b50565b60008135905061183b81611815565b92915050565b60008060408385031215611858576118576117da565b5b6000611866858286016117f6565b92505060206118778582860161182c565b9150509250929050565b60008115159050919050565b61189681611881565b82525050565b60006020820190506118b1600083018461188d565b92915050565b6118c08161180b565b82525050565b60006020820190506118db60008301846118b7565b92915050565b6000602082840312156118f7576118f66117da565b5b6000611905848285016117f6565b91505092915050565b6000604082019050611923600083018561188d565b611930602083018461188d565b9392505050565b7f4e487b7100000000000000000000000000000000000000000000000000000000600052602160045260246000fd5b6004811061197757611976611937565b5b50565b600081905061198882611966565b919050565b60006119988261197a565b9050919050565b6119a88161198d565b82525050565b60006020820190506119c3600083018461199f565b92915050565b6000602082840312156119df576119de6117da565b5b60006119ed8482850161182c565b91505092915050565b6000611a01826116e8565b9050919050565b611a11816119f6565b82525050565b6000606082019050611a2c6000830186611a08565b611a3960208301856118b7565b611a4660408301846118b7565b949350505050565b6000819050919050565b611a6181611a4e565b82525050565b6000608082019050611a7c6000830187611a58565b611a8960208301866118b7565b611a9660408301856118b7565b611aa360608301846118b7565b95945050505050565b60008060008060808587031215611ac657611ac56117da565b5b6000611ad4878288016117f6565b9450506020611ae58782880161182c565b9350506040611af68782880161182c565b9250506060611b078782880161182c565b91505092959194509250565b6000602082019050611b28600083018461171a565b92915050565b7f54686520706f6f6c20737461747573206973206e6f7420616374697665000000600082015250565b6000611b64601d83611729565b9150611b6f82611b2e565b602082019050919050565b60006020820190508181036000830152611b9381611b57565b9050919050565b7f54686520706f6f6c20686173206e6f20656e6f7567682066756e642000000000600082015250565b6000611bd0601c83611729565b9150611bdb82611b9a565b602082019050919050565b60006020820190508181036000830152611bff81611bc3565b9050919050565b7f5265656e7472616e742063616c6c2e0000000000000000000000000000000000600082015250565b6000611c3c600f83611729565b9150611c4782611c06565b602082019050919050565b60006020820190508181036000830152611c6b81611c2f565b9050919050565b7f4974206973206e6f74206120706f6f6c206d656d626572000000000000000000600082015250565b6000611ca8601783611729565b9150611cb382611c72565b602082019050919050565b60006020820190508181036000830152611cd781611c9b565b9050919050565b7f4e487b7100000000000000000000000000000000000000000000000000000000600052603260045260246000fd5b7f4e487b7100000000000000000000000000000000000000000000000000000000600052601160045260246000fd5b6000611d478261180b565b9150611d528361180b565b9250827fffffffffffffffffffffffffffffffffffffffffffffffffffffffffffffffff03821115611d8757611d86611d0d565b5b828201905092915050565b7f54686520636c61696d2063616e27742062652070726f6365737365642062656360008201527f6175736520746865206d656d626572206861732065786365656465642069747360208201527f206d6178696d756d20636f766572616765000000000000000000000000000000604082015250565b6000611e14605183611729565b9150611e1f82611d92565b606082019050919050565b60006020820190508181036000830152611e4381611e07565b9050919050565b7f4974206973206e6f742074686520706f6f6c206d616e61676572000000000000600082015250565b6000611e80601a83611729565b9150611e8b82611e4a565b602082019050919050565b60006020820190508181036000830152611eaf81611e73565b9050919050565b7f54686520706f6f6c20737461747573206973206e6f7420696e69746961746564600082015250565b6000611eec602083611729565b9150611ef782611eb6565b602082019050919050565b60006020820190508181036000830152611f1b81611edf565b9050919050565b6000611f2d8261180b565b91507fffffffffffffffffffffffffffffffffffffffffffffffffffffffffffffffff821415611f6057611f5f611d0d565b5b600182019050919050565b7f4d656d62657220616c7265616479206a6f696e6564207468697320706f6f6c00600082015250565b6000611fa1601f83611729565b9150611fac82611f6b565b602082019050919050565b60006020820190508181036000830152611fd081611f94565b9050919050565b6000611fe28261180b565b9150611fed8361180b565b92508282101561200057611fff611d0d565b5b828203905092915050565b7f4e6f74206120706f6f6c206d656d626572000000000000000000000000000000600082015250565b6000612041601183611729565b915061204c8261200b565b602082019050919050565b6000602082019050818103600083015261207081612034565b9050919050565b7f4e6f20617661696c61626c652062616c616e6365000000000000000000000000600082015250565b60006120ad601483611729565b91506120b882612077565b602082019050919050565b600060208201905081810360008301526120dc816120a0565b9050919050565b600081905092915050565b50565b60006120fe6000836120e3565b9150612109826120ee565b600082019050919050565b600061211f826120f1565b9150819050919050565b7f5472616e73666572206661696c65640000000000000000000000000000000000600082015250565b600061215f600f83611729565b915061216a82612129565b602082019050919050565b6000602082019050818103600083015261218e81612152565b9050919050565b7f4e487b7100000000000000000000000000000000000000000000000000000000600052601260045260246000fd5b60006121cf8261180b565b91506121da8361180b565b9250826121ea576121e9612195565b5b828204905092915050565b7f4e6f74206120706f6f6c206d656d626572206f7220686520697320746865207060008201527f6f6f6c206d616e61676572000000000000000000000000000000000000000000602082015250565b6000612251602b83611729565b915061225c826121f5565b604082019050919050565b6000602082019050818103600083015261228081612244565b9050919050565b7f4e487b7100000000000000000000000000000000000000000000000000000000600052603160045260246000fdfea264697066735822122023386960ab188b125b95879aeb74d4c682a8088b9a12ec0376e8e4b3b9f33d8d64736f6c634300080a0033",
  "immutableReferences": {},
  "source": "// SPDX-License-Identifier: MIT\npragma solidity 0.8.10;\n\nimport \"./PoolMember.sol\";\n\ncontract InsurancePool is PoolMember{\n\n    bool locked; // used for reentrancy checks\n    PoolMember.Member[] public members; // Always members[0] is the pool manager\n    uint public minNumberOfMembers; // the minimum number of members in a pool - Unit256 as there is no potential packing here\n    uint public premium; // the pool premium in Wei\n    uint public maxCoveragePerMember; // the maximum coverage by a pool to a member - in Wei\n    PoolStatus public status; //the pool status\n    uint public policyStartDate; // the policy start date since activation - policy validity is one year by defualt\n\n    /* there will be other attributes offchain/frontend such as pool terms and conditions, pool coverage, max number of members, etc.\n       max number of members - could be important for Block Gas Limit DoS - to limit members array size */\n\n    /* ReInsurer reInsurer; we can add the ReInsurer contract - in future - when we manage the re-insurance process:\n       the pool members get themselves covered with the help of reinsurance in case of exceeding pool coverage.\n       And of course, some part of premium/contribution is shared with reinsurers */\n\n    // Escrew account is the pool contract address: address (this);\n    //(address) this.balance has the pool avialable fund\n\n    enum PoolStatus {\n        Initiated,\n        Active,\n        Finished,\n        Canceled\n    }\n\n    modifier onlyInitiatedPool () {\n        require (status == PoolStatus.Initiated,\"The pool status is not initiated\");\n        _;\n    }\n\n    modifier onlyActivePool () {\n        require (status == PoolStatus.Active,\"The pool status is not active\");\n        _;\n    }\n\n    modifier onlyFinishedPool () {\n        require (status == PoolStatus.Finished,\"The pool status is not finished\");\n        _;\n    }\n\n    modifier onlycanceledPool () {\n        require (status == PoolStatus.Canceled,\"The pool status is not canceled\");\n        _;\n    }\n\n    // the pool manager is the first member and it is initiated with the create pool function\n    modifier onlyPoolManager (address _sender) {\n        require (_sender == members[0].memberAddress,\"It is not the pool manager\");\n        _;\n    }\n    \n    // not useful - because we always need to return the member id and modifier doesn't return values\n    /*modifier onlyPoolMember (address _sender)\n    {\n        int poolMemberId = getMemberId(_sender);\n        require (poolMemberId >= 0,\"It is not a pool member\");\n        _;\n    } */\n\n    // to check if there is available fund to process the member claim\n    modifier availableFundInPool (uint _value) {\n        require (getPoolAvailableBalance() >= _value,\"The pool has no enough fund \");\n        _;\n    }\n\n   // protect agianst reentrant calls \n   modifier noReentrancy() \n    { \n        require( !locked, \"Reentrant call.\" );\n        locked = true;\n        _;\n        locked = false;\n    }\n\n    //Register Events\n    event fallbackReceived(address sender, string message);\n\n    //return the current fund at the pool\n    function getPoolTotalBalance() public view returns (uint)\n    {\n        return address (this).balance; \n    }\n\n    function getPoolAddress() public view returns (address)\n    {\n        return address (this); \n    }\n\n    //return the available balance in pool after deducting the members balances that are due and not withdrawed yet. \n    function getPoolAvailableBalance() public view returns (uint)\n    {\n        uint sumBalances = 0; // sum the balances of members that are due and not withdrawed yet. \n        for (uint i = 0; i < members.length; i++)\n            sumBalances += members[i].balance;    \n        return getPoolTotalBalance() - sumBalances;\n    }\n\n    function getMembersCount() public view returns (uint)  \n    {\n        return members.length;\n    }\n\n    function getMemberIndex(address _memberAddress) private view returns (int poolMemberId)  \n    {\n        poolMemberId = -1;\n        for (uint i = 0; i < members.length; i++){\n            if (members[i].memberAddress == _memberAddress) {\n                poolMemberId = int(i);\n                break;\n            } \n        }\n    }\n\n    // The pool will be activated automatically when reaches its minimum number of members\n    function activatePool () private onlyInitiatedPool()\n    {\n        status = PoolStatus.Active;\n        policyStartDate = block.timestamp;\n    }\n    \n    constructor ()  {}\n\n    /* implementing PoolMember Interface Functions: */\n\n    function getMemberDetails(address _memberAddress) external view override\n    returns (int _poolMemberId , uint _balance, uint _totalClaims, uint _remainingCoverage)\n    {\n         _poolMemberId = getMemberIndex (_memberAddress); //-1 not a member, 0 pool manager, >0 pool member\n         if (_poolMemberId >=0 )\n         {\n            PoolMember.Member memory member = members[uint(_poolMemberId)];\n\n            _balance =  member.balance;\n            _totalClaims = member.totalClaims;\n            _remainingCoverage = maxCoveragePerMember - member.totalClaims;\n         }\n    }\n\n    //already checked if enough premium paid before creating the InsurancePool instance\n    function createPool(address _memberAddress, uint _minNumberOfMembers, uint _premium, uint _maxCoveragePerMember) external payable override returns (bool)\n    {\n        minNumberOfMembers = _minNumberOfMembers;  // \n        premium = _premium; // _premium in Wei\n        maxCoveragePerMember = _maxCoveragePerMember; // in wei\n\n        //for Gaz Optimization - not using the struct construtor, instead assign variables to values\n        PoolMember.Member memory member;\n        member.memberAddress = payable(_memberAddress);\n        member.totalClaims = 0;\n        member.balance = msg.value - _premium; // to refund extra amount than the premium\n        members.push(member);\n        //members.push(Member(_memberAddress , msg.value - _premium, 0)); // Adding the pool manager\n\n        status = PoolStatus.Initiated;\n        return true;\n    }\n\n    //already checked if enough premium paid before calling the function\n    function joinPool(address _memberAddress) external payable override returns (bool isJoined,bool isPoolActivated)\n    {\n        require (getMemberIndex(_memberAddress) == -1,\"Member already joined this pool\");\n\n        //for Gaz Optimization - not using the struct construtor, instead assign variables to values\n        PoolMember.Member memory member;\n        member.memberAddress = payable(_memberAddress);\n        member.totalClaims = 0;\n        member.balance = msg.value - premium; // to refund extra amount than the premium\n        members.push(member);\n        //members.push(Member(_memberAddress , msg.value - premium, 0));\n        isJoined = true;\n\n        if (members.length == minNumberOfMembers) {\n            activatePool();\n            isPoolActivated = true;\n        }\n    }\n\n    //The pool manager can cancel a pool if it is still in the initiated status - as example, long time the pool not reaches the minimum requirements to be activated\n    function cancelPool (address _memberAddress) external override onlyPoolManager(_memberAddress) onlyInitiatedPool returns (bool)\n    {\n        status = PoolStatus.Canceled;\n        //return already paid premiums to members\n        for (uint i = 0; i < members.length; i++){\n            members[i].balance += premium;\n            //members[i].memberAddress.transfer(premium);\n        }\n        return true;\n    }\n\n    // cancel membership of a pool member befor the pool activation\n    function cancelSubscription (address _memberAddress) external override onlyInitiatedPool() noReentrancy returns (bool)\n    {\n        // Checks-effects-interactions pattern:\n\n        //checks if he is a pool member (checks)\n        int poolMemberId = getMemberIndex (_memberAddress);\n        require (poolMemberId > 0, \"Not a pool member or he is the pool manager\");\n        uint uintPoolMemberId = uint(poolMemberId);\n        address payable _address = members[uintPoolMemberId].memberAddress;\n\n        //Now he is no longer a pool member (effects)\n        members[uintPoolMemberId] = members[members.length - 1];\n        members.pop();\n\n        //we need to transfer back its premium (interactions) \n        _address.transfer(premium);\n        return true;\n    }\n\n    // the pool is finshed once the policy expired after one year since activation (UI/Frontend validation)\n    // Only the pool manager has the right to call this function    \n    function finishPool(address _memberAddress) external override onlyPoolManager(_memberAddress) onlyActivePool returns (bool) \n    {\n        status = PoolStatus.Finished;\n\n        uint poolSurplus = getPoolAvailableBalance();\n        if (poolSurplus > 0) {\n            uint memberShareInSurplus = poolSurplus / members.length; // not correct as balance changed this\n            for (uint i = 0; i < members.length; i++){\n                members[i].balance += memberShareInSurplus;\n                //members[i].memberAddress.transfer(memberShareInSurplus);\n            }\n        }\n        return true;\n    }\n\n    //availableFundInPool(claimAmount) checks if the pool availabe fund covers the requested claim\n    function requestClaim(address _memberAddress, uint _claimAmount) external override onlyActivePool() availableFundInPool(_claimAmount) noReentrancy returns (bool)\n    {\n        //expected _claimAmount in Wei\n         int poolMemberId = getMemberIndex (_memberAddress);\n         require (poolMemberId >=0 ,\"It is not a pool member\");\n         PoolMember.Member storage member = members[uint(poolMemberId)];\n         //check entitlements \n        require (member.totalClaims + _claimAmount <= maxCoveragePerMember,\n        \"The claim can't be processed because the member has exceeded its maximum coverage\");\n\n        member.totalClaims += _claimAmount; // before the actual transfer (Checks-effects-interactions pattern)\n        member.memberAddress.transfer(_claimAmount);\n        return true;\n\n        /* Future use cases (not in this project scope):\n                1- partial reimbursement if the avialable fund is not enought for the requested claim\n                2- partial reimbursement if the claim has exceeded the maxCoveragePerMember\n                3- if pool ran out of fund, reimbursement through the re-insurer\n        */\n    } \n\n    // this function will refund the member any extra amount (when deposit the premium), cancelation cases or when distributing the surplus at policy expiry\n    function withdrawBalance(address _memberAddress) external override noReentrancy returns (bool)//\n    {\n        //Checks-effects-interactions pattern\n\n        //checks if send is a pool member\n        int poolMemberId = getMemberIndex (_memberAddress);\n        require (poolMemberId >= 0,\"Not a pool member\");\n        uint uintPoolMemberId = uint(poolMemberId);\n\n        //checks available balance\n        uint balance = members[uintPoolMemberId].balance;\n        require (balance > 0 , \"No available balance\");\n\n        //effects: set balance to 0\n        members[uintPoolMemberId].balance = 0;\n\n        //Then transfer\n        (bool success,) = _memberAddress.call{value:balance}(\"\");\n        require (success, \"Transfer failed\");\n\n        //if (status == PoolStatus.Canceled && getPoolTotalBalance() == 0)\n            //selfDestructPool();\n\n        return true;\n    } \n    \n    /* implementing PoolMember Interface Functions has been Completed */\n\n    \n    //clean up the canceled pool? I think Yes for (Gaz Optimization /return gaz),\n    //because the policy is not activated and no important transactions to keep stored on blockchain\n    //We can have the archive of canceled pools offchain if needed\n    \n    /*function selfDestructPool() private onlycanceledPool \n    {\n        assert(getPoolTotalBalance() == 0); // the pool fund should be already empty\n        selfdestruct(payable(msg.sender)); // we are sure that there is no remaining Ether before the self destruction\n    }*/\n\n    //fall back function \n    //it is not payable - not accepting to receive plain ether and this will raise exception!\n    fallback() external  {\n        emit fallbackReceived(msg.sender,\"P2P_Insurance Fallback was called\");\n    }\n}\n\n//ordering the modifiers logically in functions\n//re-name modifier require message in more unstandable way\n//Listening for events and updating user interface\n// policy start end end date - finish pool?\n//try to create Library for Refund - independent deployment\n\n//proxy upgrade pattern?\n//Checks-effects-interactions pattern\n//withdrwal pattern\n//factory pattern\n//circuit breaker pttern\n\n//re-entrancy\n//Inter-Contract Execution (Calling functions in external contracts) Inter-Contract Execution, Part 1 and Part 2",
  "sourcePath": "/mnt/c/Users/pc1/projects/blockchain-developer-bootcamp-final-project/contracts/InsurancePool.sol",
  "compiler": {
    "name": "solc",
    "version": "0.8.10+commit.fc410830.Emscripten.clang"
  },
  "schemaVersion": "3.4.2",
  "updatedAt": "2021-12-11T09:38:06.515Z",
  "devdoc": {
    "kind": "dev",
    "methods": {},
    "version": 1
  },
  "userdoc": {
    "kind": "user",
    "methods": {},
    "version": 1
  }
}