{
  "contractName": "P2P_Insurance",
  "abi": [
    {
      "inputs": [],
      "stateMutability": "nonpayable",
      "type": "constructor"
    },
    {
      "anonymous": false,
      "inputs": [
        {
          "indexed": false,
          "internalType": "address",
          "name": "sender",
          "type": "address"
        },
        {
          "indexed": false,
          "internalType": "string",
          "name": "message",
          "type": "string"
        }
      ],
      "name": "fallbackReceived",
      "type": "event"
    },
    {
      "stateMutability": "nonpayable",
      "type": "fallback"
    },
    {
      "inputs": [],
      "name": "owner",
      "outputs": [
        {
          "internalType": "address",
          "name": "",
          "type": "address"
        }
      ],
      "stateMutability": "view",
      "type": "function"
    },
    {
      "inputs": [
        {
          "internalType": "address",
          "name": "",
          "type": "address"
        }
      ],
      "name": "pools",
      "outputs": [
        {
          "internalType": "contract InsurancePool",
          "name": "",
          "type": "address"
        }
      ],
      "stateMutability": "view",
      "type": "function"
    },
    {
      "inputs": [
        {
          "internalType": "address",
          "name": "poolAddress",
          "type": "address"
        },
        {
          "internalType": "address",
          "name": "_memberAddress",
          "type": "address"
        }
      ],
      "name": "getMemberBalance",
      "outputs": [
        {
          "internalType": "uint256",
          "name": "",
          "type": "uint256"
        }
      ],
      "stateMutability": "view",
      "type": "function"
    },
    {
      "inputs": [
        {
          "internalType": "address",
          "name": "poolAddress",
          "type": "address"
        },
        {
          "internalType": "address",
          "name": "_memberAddress",
          "type": "address"
        }
      ],
      "name": "getMemberTotalClaims",
      "outputs": [
        {
          "internalType": "uint256",
          "name": "",
          "type": "uint256"
        }
      ],
      "stateMutability": "view",
      "type": "function"
    },
    {
      "inputs": [
        {
          "internalType": "address",
          "name": "poolAddress",
          "type": "address"
        },
        {
          "internalType": "address",
          "name": "_memberAddress",
          "type": "address"
        }
      ],
      "name": "getMemberRemainingCoverage",
      "outputs": [
        {
          "internalType": "uint256",
          "name": "",
          "type": "uint256"
        }
      ],
      "stateMutability": "view",
      "type": "function"
    },
    {
      "inputs": [
        {
          "internalType": "uint256",
          "name": "_minNumberOfMembers",
          "type": "uint256"
        },
        {
          "internalType": "uint256",
          "name": "_premium",
          "type": "uint256"
        },
        {
          "internalType": "uint256",
          "name": "_maxCoveragePerMember",
          "type": "uint256"
        }
      ],
      "name": "createNewPool",
      "outputs": [
        {
          "internalType": "contract InsurancePool",
          "name": "_poolInstance",
          "type": "address"
        }
      ],
      "stateMutability": "payable",
      "type": "function"
    },
    {
      "inputs": [
        {
          "internalType": "address",
          "name": "_poolAddress",
          "type": "address"
        }
      ],
      "name": "joinPool",
      "outputs": [],
      "stateMutability": "payable",
      "type": "function"
    },
    {
      "inputs": [
        {
          "internalType": "address",
          "name": "_poolAddress",
          "type": "address"
        }
      ],
      "name": "cancelPool",
      "outputs": [],
      "stateMutability": "nonpayable",
      "type": "function"
    },
    {
      "inputs": [
        {
          "internalType": "address",
          "name": "_poolAddress",
          "type": "address"
        }
      ],
      "name": "finshPool",
      "outputs": [
        {
          "internalType": "bool",
          "name": "",
          "type": "bool"
        }
      ],
      "stateMutability": "nonpayable",
      "type": "function"
    },
    {
      "inputs": [
        {
          "internalType": "address",
          "name": "_poolAddress",
          "type": "address"
        }
      ],
      "name": "cancelMembershipBeforPoolActivation",
      "outputs": [
        {
          "internalType": "bool",
          "name": "",
          "type": "bool"
        }
      ],
      "stateMutability": "nonpayable",
      "type": "function"
    },
    {
      "inputs": [
        {
          "internalType": "address",
          "name": "_poolAddress",
          "type": "address"
        },
        {
          "internalType": "uint256",
          "name": "_claimAmount",
          "type": "uint256"
        }
      ],
      "name": "requestClaim",
      "outputs": [
        {
          "internalType": "bool",
          "name": "",
          "type": "bool"
        }
      ],
      "stateMutability": "nonpayable",
      "type": "function"
    },
    {
      "inputs": [
        {
          "internalType": "address",
          "name": "_poolAddress",
          "type": "address"
        }
      ],
      "name": "withdrawBalance",
      "outputs": [],
      "stateMutability": "nonpayable",
      "type": "function"
    }
  ],
  "bytecode": "0x60a060405234801561001057600080fd5b503373ffffffffffffffffffffffffffffffffffffffff1660808173ffffffffffffffffffffffffffffffffffffffff16815250506080516139df6100606000396000610c9e01526139df6000f3fe6080604052600436106100ab5760003560e01c8063756af45f11610064578063756af45f1461022b5780638da5cb5b14610254578063a4063dbc1461027f578063b1e3c906146102bc578063d60b9091146102f9578063e5f2a99514610329576100ac565b806301e51e97146100f25780630b03bf2b1461012f5780631ae0e73d146101585780632102dfee146101745780634539d534146101b1578063496e3d77146101ee576100ac565b5b3480156100b857600080fd5b507f2402f2b60dce6d6a9da700a348a123aac12db0c50649200b5970ead86df8805c336040516100e891906110f8565b60405180910390a1005b3480156100fe57600080fd5b506101196004803603810190610114919061118d565b610366565b60405161012691906111e8565b60405180910390f35b34801561013b57600080fd5b5061015660048036038101906101519190611203565b61044c565b005b610172600480360381019061016d9190611203565b610518565b005b34801561018057600080fd5b5061019b60048036038101906101969190611203565b610928565b6040516101a891906111e8565b60405180910390f35b3480156101bd57600080fd5b506101d860048036038101906101d39190611203565b610a0b565b6040516101e591906111e8565b60405180910390f35b3480156101fa57600080fd5b5061021560048036038101906102109190611230565b610aee565b604051610222919061127f565b60405180910390f35b34801561023757600080fd5b50610252600480360381019061024d9190611203565b610bd0565b005b34801561026057600080fd5b50610269610c9c565b604051610276919061129a565b60405180910390f35b34801561028b57600080fd5b506102a660048036038101906102a19190611203565b610cc0565b6040516102b39190611314565b60405180910390f35b3480156102c857600080fd5b506102e360048036038101906102de9190611230565b610cf3565b6040516102f0919061127f565b60405180910390f35b610313600480360381019061030e919061132f565b610dd5565b6040516103209190611314565b60405180910390f35b34801561033557600080fd5b50610350600480360381019061034b9190611230565b610f45565b60405161035d919061127f565b60405180910390f35b60008060008473ffffffffffffffffffffffffffffffffffffffff1673ffffffffffffffffffffffffffffffffffffffff16815260200190815260200160002060009054906101000a900473ffffffffffffffffffffffffffffffffffffffff1673ffffffffffffffffffffffffffffffffffffffff166301e51e9733846040518363ffffffff1660e01b8152600401610401929190611382565b6020604051808303816000875af1158015610420573d6000803e3d6000fd5b505050506040513d601f19601f8201168201806040525081019061044491906113d7565b905092915050565b6000808273ffffffffffffffffffffffffffffffffffffffff1673ffffffffffffffffffffffffffffffffffffffff16815260200190815260200160002060009054906101000a900473ffffffffffffffffffffffffffffffffffffffff1673ffffffffffffffffffffffffffffffffffffffff16630b03bf2b336040518263ffffffff1660e01b81526004016104e3919061129a565b600060405180830381600087803b1580156104fd57600080fd5b505af1158015610511573d6000803e3d6000fd5b5050505050565b806000600381111561052d5761052c611404565b5b6000808373ffffffffffffffffffffffffffffffffffffffff1673ffffffffffffffffffffffffffffffffffffffff16815260200190815260200160002060009054906101000a900473ffffffffffffffffffffffffffffffffffffffff1673ffffffffffffffffffffffffffffffffffffffff1663200d2ed26040518163ffffffff1660e01b8152600401602060405180830381865afa1580156105d6573d6000803e3d6000fd5b505050506040513d601f19601f820116820180604052508101906105fa9190611458565b600381111561060c5761060b611404565b5b148061070857506001600381111561062757610626611404565b5b6000808373ffffffffffffffffffffffffffffffffffffffff1673ffffffffffffffffffffffffffffffffffffffff16815260200190815260200160002060009054906101000a900473ffffffffffffffffffffffffffffffffffffffff1673ffffffffffffffffffffffffffffffffffffffff1663200d2ed26040518163ffffffff1660e01b8152600401602060405180830381865afa1580156106d0573d6000803e3d6000fd5b505050506040513d601f19601f820116820180604052508101906106f49190611458565b600381111561070657610705611404565b5b145b610747576040517f08c379a000000000000000000000000000000000000000000000000000000000815260040161073e906114f7565b60405180910390fd5b6000808373ffffffffffffffffffffffffffffffffffffffff1673ffffffffffffffffffffffffffffffffffffffff16815260200190815260200160002060009054906101000a900473ffffffffffffffffffffffffffffffffffffffff1673ffffffffffffffffffffffffffffffffffffffff1663e0a73a936040518163ffffffff1660e01b8152600401602060405180830381865afa1580156107f0573d6000803e3d6000fd5b505050506040513d601f19601f82011682018060405250810190610814919061152c565b3481811015610858576040517f08c379a000000000000000000000000000000000000000000000000000000000815260040161084f906115cb565b60405180910390fd5b6000808573ffffffffffffffffffffffffffffffffffffffff1673ffffffffffffffffffffffffffffffffffffffff16815260200190815260200160002060009054906101000a900473ffffffffffffffffffffffffffffffffffffffff1673ffffffffffffffffffffffffffffffffffffffff16631ae0e73d34336040518363ffffffff1660e01b81526004016108f0919061129a565b6000604051808303818588803b15801561090957600080fd5b505af115801561091d573d6000803e3d6000fd5b505050505050505050565b60008060008373ffffffffffffffffffffffffffffffffffffffff1673ffffffffffffffffffffffffffffffffffffffff16815260200190815260200160002060009054906101000a900473ffffffffffffffffffffffffffffffffffffffff1673ffffffffffffffffffffffffffffffffffffffff166393d81d58336040518263ffffffff1660e01b81526004016109c1919061129a565b6020604051808303816000875af11580156109e0573d6000803e3d6000fd5b505050506040513d601f19601f82011682018060405250810190610a0491906113d7565b9050919050565b60008060008373ffffffffffffffffffffffffffffffffffffffff1673ffffffffffffffffffffffffffffffffffffffff16815260200190815260200160002060009054906101000a900473ffffffffffffffffffffffffffffffffffffffff1673ffffffffffffffffffffffffffffffffffffffff166388ff87c9336040518263ffffffff1660e01b8152600401610aa4919061129a565b6020604051808303816000875af1158015610ac3573d6000803e3d6000fd5b505050506040513d601f19601f82011682018060405250810190610ae791906113d7565b9050919050565b60008060008473ffffffffffffffffffffffffffffffffffffffff1673ffffffffffffffffffffffffffffffffffffffff16815260200190815260200160002060009054906101000a900473ffffffffffffffffffffffffffffffffffffffff1673ffffffffffffffffffffffffffffffffffffffff1663ca55753a836040518263ffffffff1660e01b8152600401610b87919061129a565b602060405180830381865afa158015610ba4573d6000803e3d6000fd5b505050506040513d601f19601f82011682018060405250810190610bc8919061152c565b905092915050565b6000808273ffffffffffffffffffffffffffffffffffffffff1673ffffffffffffffffffffffffffffffffffffffff16815260200190815260200160002060009054906101000a900473ffffffffffffffffffffffffffffffffffffffff1673ffffffffffffffffffffffffffffffffffffffff1663756af45f336040518263ffffffff1660e01b8152600401610c67919061129a565b600060405180830381600087803b158015610c8157600080fd5b505af1158015610c95573d6000803e3d6000fd5b5050505050565b7f000000000000000000000000000000000000000000000000000000000000000081565b60006020528060005260406000206000915054906101000a900473ffffffffffffffffffffffffffffffffffffffff1681565b60008060008473ffffffffffffffffffffffffffffffffffffffff1673ffffffffffffffffffffffffffffffffffffffff16815260200190815260200160002060009054906101000a900473ffffffffffffffffffffffffffffffffffffffff1673ffffffffffffffffffffffffffffffffffffffff16638dd02fb0836040518263ffffffff1660e01b8152600401610d8c919061129a565b602060405180830381865afa158015610da9573d6000803e3d6000fd5b505050506040513d601f19601f82011682018060405250810190610dcd919061152c565b905092915050565b6000823481811015610e1c576040517f08c379a0000000000000000000000000000000000000000000000000000000008152600401610e13906115cb565b60405180910390fd5b6000349050604051610e2d90611027565b604051809103906000f080158015610e49573d6000803e3d6000fd5b5093508373ffffffffffffffffffffffffffffffffffffffff1663922d3e4c82338a8a8a6040518663ffffffff1660e01b8152600401610e8c94939291906115eb565b6000604051808303818588803b158015610ea557600080fd5b505af1158015610eb9573d6000803e3d6000fd5b5050505050836000808673ffffffffffffffffffffffffffffffffffffffff1673ffffffffffffffffffffffffffffffffffffffff16815260200190815260200160002060006101000a81548173ffffffffffffffffffffffffffffffffffffffff021916908373ffffffffffffffffffffffffffffffffffffffff1602179055505050509392505050565b60008060008473ffffffffffffffffffffffffffffffffffffffff1673ffffffffffffffffffffffffffffffffffffffff16815260200190815260200160002060009054906101000a900473ffffffffffffffffffffffffffffffffffffffff1673ffffffffffffffffffffffffffffffffffffffff166328a2f8c6836040518263ffffffff1660e01b8152600401610fde919061129a565b602060405180830381865afa158015610ffb573d6000803e3d6000fd5b505050506040513d601f19601f8201168201806040525081019061101f919061152c565b905092915050565b6123798061163183390190565b600073ffffffffffffffffffffffffffffffffffffffff82169050919050565b600061105f82611034565b9050919050565b61106f81611054565b82525050565b600082825260208201905092915050565b7f5032505f496e737572616e63652046616c6c6261636b207761732063616c6c6560008201527f6400000000000000000000000000000000000000000000000000000000000000602082015250565b60006110e2602183611075565b91506110ed82611086565b604082019050919050565b600060408201905061110d6000830184611066565b818103602083015261111e816110d5565b905092915050565b600080fd5b61113481611054565b811461113f57600080fd5b50565b6000813590506111518161112b565b92915050565b6000819050919050565b61116a81611157565b811461117557600080fd5b50565b60008135905061118781611161565b92915050565b600080604083850312156111a4576111a3611126565b5b60006111b285828601611142565b92505060206111c385828601611178565b9150509250929050565b60008115159050919050565b6111e2816111cd565b82525050565b60006020820190506111fd60008301846111d9565b92915050565b60006020828403121561121957611218611126565b5b600061122784828501611142565b91505092915050565b6000806040838503121561124757611246611126565b5b600061125585828601611142565b925050602061126685828601611142565b9150509250929050565b61127981611157565b82525050565b60006020820190506112946000830184611270565b92915050565b60006020820190506112af6000830184611066565b92915050565b6000819050919050565b60006112da6112d56112d084611034565b6112b5565b611034565b9050919050565b60006112ec826112bf565b9050919050565b60006112fe826112e1565b9050919050565b61130e816112f3565b82525050565b60006020820190506113296000830184611305565b92915050565b60008060006060848603121561134857611347611126565b5b600061135686828701611178565b935050602061136786828701611178565b925050604061137886828701611178565b9150509250925092565b60006040820190506113976000830185611066565b6113a46020830184611270565b9392505050565b6113b4816111cd565b81146113bf57600080fd5b50565b6000815190506113d1816113ab565b92915050565b6000602082840312156113ed576113ec611126565b5b60006113fb848285016113c2565b91505092915050565b7f4e487b7100000000000000000000000000000000000000000000000000000000600052602160045260246000fd5b6004811061144057600080fd5b50565b60008151905061145281611433565b92915050565b60006020828403121561146e5761146d611126565b5b600061147c84828501611443565b91505092915050565b7f54686520706f6f6c20737461747573206973206569746865722066696e69736860008201527f6564206f722063616e63656c6564000000000000000000000000000000000000602082015250565b60006114e1602e83611075565b91506114ec82611485565b604082019050919050565b60006020820190508181036000830152611510816114d4565b9050919050565b60008151905061152681611161565b92915050565b60006020828403121561154257611541611126565b5b600061155084828501611517565b91505092915050565b7f54686520616d6f756e742070616964206973206c657373207468616e2074686560008201527f20706f6f6c207072656d69756d00000000000000000000000000000000000000602082015250565b60006115b5602d83611075565b91506115c082611559565b604082019050919050565b600060208201905081810360008301526115e4816115a8565b9050919050565b60006080820190506116006000830187611066565b61160d6020830186611270565b61161a6040830185611270565b6116276060830184611270565b9594505050505056fe608060405234801561001057600080fd5b50612359806100206000396000f3fe6080604052600436106100ec5760003560e01c8063756af45f1161008a57806393d81d581161005957806393d81d5814610332578063ca55753a1461036f578063e0a73a93146103ac578063f586c6d9146103d7576100ed565b8063756af45f1461027357806388ff87c91461029c5780638dd02fb0146102d9578063922d3e4c14610316576100ed565b80631ae0e73d116100c65780631ae0e73d146101c4578063200d2ed2146101e057806328a2f8c61461020b57806347cc631314610248576100ed565b806301e51e97146101335780630b03bf2b146101705780630dc07a3e14610199576100ed565b5b3480156100f957600080fd5b507f2402f2b60dce6d6a9da700a348a123aac12db0c50649200b5970ead86df8805c33604051610129919061181e565b60405180910390a1005b34801561013f57600080fd5b5061015a600480360381019061015591906118b3565b610402565b604051610167919061190e565b60405180910390f35b34801561017c57600080fd5b5061019760048036038101906101929190611929565b6106a5565b005b3480156101a557600080fd5b506101ae6108ad565b6040516101bb9190611965565b60405180910390f35b6101de60048036038101906101d99190611929565b6108b5565b005b3480156101ec57600080fd5b506101f5610a26565b60405161020291906119f7565b60405180910390f35b34801561021757600080fd5b50610232600480360381019061022d9190611929565b610a39565b60405161023f9190611965565b60405180910390f35b34801561025457600080fd5b5061025d610ab9565b60405161026a9190611965565b60405180910390f35b34801561027f57600080fd5b5061029a60048036038101906102959190611929565b610b30565b005b3480156102a857600080fd5b506102c360048036038101906102be9190611929565b610daa565b6040516102d0919061190e565b60405180910390f35b3480156102e557600080fd5b5061030060048036038101906102fb9190611929565b610f99565b60405161030d9190611965565b60405180910390f35b610330600480360381019061032b9190611a12565b611026565b005b34801561033e57600080fd5b5061035960048036038101906103549190611929565b611156565b604051610366919061190e565b60405180910390f35b34801561037b57600080fd5b5061039660048036038101906103919190611929565b611476565b6040516103a39190611965565b60405180910390f35b3480156103b857600080fd5b506103c16114f6565b6040516103ce9190611965565b60405180910390f35b3480156103e357600080fd5b506103ec6114fc565b6040516103f99190611a79565b60405180910390f35b60006001600381111561041857610417611980565b5b600560009054906101000a900460ff16600381111561043a57610439611980565b5b1461047a576040517f08c379a000000000000000000000000000000000000000000000000000000000815260040161047190611ae0565b60405180910390fd5b8180610484610ab9565b10156104c5576040517f08c379a00000000000000000000000000000000000000000000000000000000081526004016104bc90611b4c565b60405180910390fd5b60008054906101000a900460ff1615610513576040517f08c379a000000000000000000000000000000000000000000000000000000000815260040161050a90611bb8565b60405180910390fd5b60016000806101000a81548160ff021916908315150217905550600061053885611504565b9050600081121561057e576040517f08c379a000000000000000000000000000000000000000000000000000000000815260040161057590611c24565b60405180910390fd5b60006001828154811061059457610593611c44565b5b906000526020600020906003020190506004548582600201546105b79190611ca2565b11156105f8576040517f08c379a00000000000000000000000000000000000000000000000000000000081526004016105ef90611d90565b60405180910390fd5b8481600201600082825461060c9190611ca2565b925050819055508060000160009054906101000a900473ffffffffffffffffffffffffffffffffffffffff1673ffffffffffffffffffffffffffffffffffffffff166108fc869081150290604051600060405180830381858888f1935050505015801561067d573d6000803e3d6000fd5b5060019350505060008060006101000a81548160ff0219169083151502179055505092915050565b8060016000815481106106bb576106ba611c44565b5b906000526020600020906003020160000160009054906101000a900473ffffffffffffffffffffffffffffffffffffffff1673ffffffffffffffffffffffffffffffffffffffff168173ffffffffffffffffffffffffffffffffffffffff161461075a576040517f08c379a000000000000000000000000000000000000000000000000000000000815260040161075190611dfc565b60405180910390fd5b6000600381111561076e5761076d611980565b5b600560009054906101000a900460ff1660038111156107905761078f611980565b5b146107d0576040517f08c379a00000000000000000000000000000000000000000000000000000000081526004016107c790611e68565b60405180910390fd5b6003600560006101000a81548160ff021916908360038111156107f6576107f5611980565b5b021790555060005b60018054905081101561085c576003546001828154811061082257610821611c44565b5b906000526020600020906003020160010160008282546108429190611ca2565b92505081905550808061085490611e88565b9150506107fe565b508173ffffffffffffffffffffffffffffffffffffffff167f3d8f0efe0ca5f23697984bd83ad21dfe056fe58d2a57df07deca3637272b50256040516108a190611f1d565b60405180910390a25050565b600047905090565b7fffffffffffffffffffffffffffffffffffffffffffffffffffffffffffffffff6108df82611504565b1461091f576040517f08c379a000000000000000000000000000000000000000000000000000000000815260040161091690611f89565b60405180910390fd5b610927611723565b81816000019073ffffffffffffffffffffffffffffffffffffffff16908173ffffffffffffffffffffffffffffffffffffffff16815250506000816040018181525050600354346109789190611fa9565b816020018181525050600181908060018154018082558091505060019003906000526020600020906003020160009091909190915060008201518160000160006101000a81548173ffffffffffffffffffffffffffffffffffffffff021916908373ffffffffffffffffffffffffffffffffffffffff160217905550602082015181600101556040820151816002015550506002546001805490501415610a2257610a216115d3565b5b5050565b600560009054906101000a900460ff1681565b600080610a4583611504565b90506000811215610a8b576040517f08c379a0000000000000000000000000000000000000000000000000000000008152600401610a8290611c24565b60405180910390fd5b60018181548110610a9f57610a9e611c44565b5b906000526020600020906003020160020154915050919050565b6000806000905060005b600180549050811015610b165760018181548110610ae457610ae3611c44565b5b90600052602060002090600302016001015482610b019190611ca2565b91508080610b0e90611e88565b915050610ac3565b5080610b206108ad565b610b2a9190611fa9565b91505090565b60008054906101000a900460ff1615610b7e576040517f08c379a0000000000000000000000000000000000000000000000000000000008152600401610b7590611bb8565b60405180910390fd5b60016000806101000a81548160ff0219169083151502179055506000610ba382611504565b90506000811215610be9576040517f08c379a0000000000000000000000000000000000000000000000000000000008152600401610be090612029565b60405180910390fd5b6000819050600060018281548110610c0457610c03611c44565b5b906000526020600020906003020160010154905060008111610c5b576040517f08c379a0000000000000000000000000000000000000000000000000000000008152600401610c5290612095565b60405180910390fd5b600060018381548110610c7157610c70611c44565b5b90600052602060002090600302016001018190555060008473ffffffffffffffffffffffffffffffffffffffff1682604051610cac906120e6565b60006040518083038185875af1925050503d8060008114610ce9576040519150601f19603f3d011682016040523d82523d6000602084013e610cee565b606091505b5050905080610d32576040517f08c379a0000000000000000000000000000000000000000000000000000000008152600401610d2990612147565b60405180910390fd5b600380811115610d4557610d44611980565b5b600560009054906101000a900460ff166003811115610d6757610d66611980565b5b148015610d7b57506000610d796108ad565b145b15610d8957610d8861167d565b5b5050505060008060006101000a81548160ff02191690831515021790555050565b6000816001600081548110610dc257610dc1611c44565b5b906000526020600020906003020160000160009054906101000a900473ffffffffffffffffffffffffffffffffffffffff1673ffffffffffffffffffffffffffffffffffffffff168173ffffffffffffffffffffffffffffffffffffffff1614610e61576040517f08c379a0000000000000000000000000000000000000000000000000000000008152600401610e5890611dfc565b60405180910390fd5b60016003811115610e7557610e74611980565b5b600560009054906101000a900460ff166003811115610e9757610e96611980565b5b14610ed7576040517f08c379a0000000000000000000000000000000000000000000000000000000008152600401610ece90611ae0565b60405180910390fd5b6002600560006101000a81548160ff02191690836003811115610efd57610efc611980565b5b02179055506000610f0c610ab9565b90506000811115610f8e57600060018054905082610f2a9190612196565b905060005b600180549050811015610f8b578160018281548110610f5157610f50611c44565b5b90600052602060002090600302016001016000828254610f719190611ca2565b925050819055508080610f8390611e88565b915050610f2f565b50505b600192505050919050565b600080610fa583611504565b90506000811215610feb576040517f08c379a0000000000000000000000000000000000000000000000000000000008152600401610fe290611c24565b60405180910390fd5b60018181548110610fff57610ffe611c44565b5b90600052602060002090600302016002015460045461101e9190611fa9565b915050919050565b826002819055508160038190555080600481905550611043611723565b84816000019073ffffffffffffffffffffffffffffffffffffffff16908173ffffffffffffffffffffffffffffffffffffffff1681525050600081604001818152505082346110929190611fa9565b816020018181525050600181908060018154018082558091505060019003906000526020600020906003020160009091909190915060008201518160000160006101000a81548173ffffffffffffffffffffffffffffffffffffffff021916908373ffffffffffffffffffffffffffffffffffffffff160217905550602082015181600101556040820151816002015550506000600560006101000a81548160ff0219169083600381111561114a57611149611980565b5b02179055505050505050565b600080600381111561116b5761116a611980565b5b600560009054906101000a900460ff16600381111561118d5761118c611980565b5b146111cd576040517f08c379a00000000000000000000000000000000000000000000000000000000081526004016111c490611e68565b60405180910390fd5b60008054906101000a900460ff161561121b576040517f08c379a000000000000000000000000000000000000000000000000000000000815260040161121290611bb8565b60405180910390fd5b60016000806101000a81548160ff021916908315150217905550600061124083611504565b905060008113611285576040517f08c379a000000000000000000000000000000000000000000000000000000000815260040161127c90612239565b60405180910390fd5b60008190506000600182815481106112a05761129f611c44565b5b906000526020600020906003020160000160009054906101000a900473ffffffffffffffffffffffffffffffffffffffff16905060018080805490506112e69190611fa9565b815481106112f7576112f6611c44565b5b90600052602060002090600302016001838154811061131957611318611c44565b5b90600052602060002090600302016000820160009054906101000a900473ffffffffffffffffffffffffffffffffffffffff168160000160006101000a81548173ffffffffffffffffffffffffffffffffffffffff021916908373ffffffffffffffffffffffffffffffffffffffff160217905550600182015481600101556002820154816002015590505060018054806113b7576113b6612259565b5b6001900381819060005260206000209060030201600080820160006101000a81549073ffffffffffffffffffffffffffffffffffffffff021916905560018201600090556002820160009055505090558073ffffffffffffffffffffffffffffffffffffffff166108fc6003549081150290604051600060405180830381858888f1935050505015801561144f573d6000803e3d6000fd5b506001935050505060008060006101000a81548160ff021916908315150217905550919050565b60008061148283611504565b905060008112156114c8576040517f08c379a00000000000000000000000000000000000000000000000000000000081526004016114bf90611c24565b60405180910390fd5b600181815481106114dc576114db611c44565b5b906000526020600020906003020160010154915050919050565b60035481565b600030905090565b60007fffffffffffffffffffffffffffffffffffffffffffffffffffffffffffffffff905060005b6001805490508110156115cd578273ffffffffffffffffffffffffffffffffffffffff166001828154811061156457611563611c44565b5b906000526020600020906003020160000160009054906101000a900473ffffffffffffffffffffffffffffffffffffffff1673ffffffffffffffffffffffffffffffffffffffff1614156115ba578091506115cd565b80806115c590611e88565b91505061152c565b50919050565b600060038111156115e7576115e6611980565b5b600560009054906101000a900460ff16600381111561160957611608611980565b5b14611649576040517f08c379a000000000000000000000000000000000000000000000000000000000815260040161164090611e68565b60405180910390fd5b6001600560006101000a81548160ff0219169083600381111561166f5761166e611980565b5b021790555042600681905550565b6003808111156116905761168f611980565b5b600560009054906101000a900460ff1660038111156116b2576116b1611980565b5b146116f2576040517f08c379a00000000000000000000000000000000000000000000000000000000081526004016116e9906122d4565b60405180910390fd5b60006116fc6108ad565b1461170a576117096122f4565b5b3373ffffffffffffffffffffffffffffffffffffffff16ff5b6040518060600160405280600073ffffffffffffffffffffffffffffffffffffffff16815260200160008152602001600081525090565b600073ffffffffffffffffffffffffffffffffffffffff82169050919050565b60006117858261175a565b9050919050565b6117958161177a565b82525050565b600082825260208201905092915050565b7f5032505f496e737572616e63652046616c6c6261636b207761732063616c6c6560008201527f6400000000000000000000000000000000000000000000000000000000000000602082015250565b600061180860218361179b565b9150611813826117ac565b604082019050919050565b6000604082019050611833600083018461178c565b8181036020830152611844816117fb565b905092915050565b600080fd5b61185a8161177a565b811461186557600080fd5b50565b60008135905061187781611851565b92915050565b6000819050919050565b6118908161187d565b811461189b57600080fd5b50565b6000813590506118ad81611887565b92915050565b600080604083850312156118ca576118c961184c565b5b60006118d885828601611868565b92505060206118e98582860161189e565b9150509250929050565b60008115159050919050565b611908816118f3565b82525050565b600060208201905061192360008301846118ff565b92915050565b60006020828403121561193f5761193e61184c565b5b600061194d84828501611868565b91505092915050565b61195f8161187d565b82525050565b600060208201905061197a6000830184611956565b92915050565b7f4e487b7100000000000000000000000000000000000000000000000000000000600052602160045260246000fd5b600481106119c0576119bf611980565b5b50565b60008190506119d1826119af565b919050565b60006119e1826119c3565b9050919050565b6119f1816119d6565b82525050565b6000602082019050611a0c60008301846119e8565b92915050565b60008060008060808587031215611a2c57611a2b61184c565b5b6000611a3a87828801611868565b9450506020611a4b8782880161189e565b9350506040611a5c8782880161189e565b9250506060611a6d8782880161189e565b91505092959194509250565b6000602082019050611a8e600083018461178c565b92915050565b7f54686520706f6f6c20737461747573206973206e6f7420616374697665000000600082015250565b6000611aca601d8361179b565b9150611ad582611a94565b602082019050919050565b60006020820190508181036000830152611af981611abd565b9050919050565b7f54686520706f6f6c20686173206e6f20656e6f7567682066756e642000000000600082015250565b6000611b36601c8361179b565b9150611b4182611b00565b602082019050919050565b60006020820190508181036000830152611b6581611b29565b9050919050565b7f5265656e7472616e742063616c6c2e0000000000000000000000000000000000600082015250565b6000611ba2600f8361179b565b9150611bad82611b6c565b602082019050919050565b60006020820190508181036000830152611bd181611b95565b9050919050565b7f4974206973206e6f74206120706f6f6c206d656d626572000000000000000000600082015250565b6000611c0e60178361179b565b9150611c1982611bd8565b602082019050919050565b60006020820190508181036000830152611c3d81611c01565b9050919050565b7f4e487b7100000000000000000000000000000000000000000000000000000000600052603260045260246000fd5b7f4e487b7100000000000000000000000000000000000000000000000000000000600052601160045260246000fd5b6000611cad8261187d565b9150611cb88361187d565b9250827fffffffffffffffffffffffffffffffffffffffffffffffffffffffffffffffff03821115611ced57611cec611c73565b5b828201905092915050565b7f54686520636c61696d2063616e27742062652070726f6365737365642062656360008201527f6175736520746865206d656d626572206861732065786365656465642069747360208201527f206d6178696d756d20636f766572616765000000000000000000000000000000604082015250565b6000611d7a60518361179b565b9150611d8582611cf8565b606082019050919050565b60006020820190508181036000830152611da981611d6d565b9050919050565b7f4974206973206e6f742074686520706f6f6c206d616e61676572000000000000600082015250565b6000611de6601a8361179b565b9150611df182611db0565b602082019050919050565b60006020820190508181036000830152611e1581611dd9565b9050919050565b7f54686520706f6f6c20737461747573206973206e6f7420696e69746961746564600082015250565b6000611e5260208361179b565b9150611e5d82611e1c565b602082019050919050565b60006020820190508181036000830152611e8181611e45565b9050919050565b6000611e938261187d565b91507fffffffffffffffffffffffffffffffffffffffffffffffffffffffffffffffff821415611ec657611ec5611c73565b5b600182019050919050565b7f54686520706f6f6c2069732073756365737366756c6c792063616e63656c6564600082015250565b6000611f0760208361179b565b9150611f1282611ed1565b602082019050919050565b60006020820190508181036000830152611f3681611efa565b9050919050565b7f4d656d62657220616c7265616479206a6f696e6564207468697320706f6f6c00600082015250565b6000611f73601f8361179b565b9150611f7e82611f3d565b602082019050919050565b60006020820190508181036000830152611fa281611f66565b9050919050565b6000611fb48261187d565b9150611fbf8361187d565b925082821015611fd257611fd1611c73565b5b828203905092915050565b7f4e6f74206120706f6f6c206d656d626572000000000000000000000000000000600082015250565b600061201360118361179b565b915061201e82611fdd565b602082019050919050565b6000602082019050818103600083015261204281612006565b9050919050565b7f4e6f20617661696c61626c652062616c616e6365000000000000000000000000600082015250565b600061207f60148361179b565b915061208a82612049565b602082019050919050565b600060208201905081810360008301526120ae81612072565b9050919050565b600081905092915050565b50565b60006120d06000836120b5565b91506120db826120c0565b600082019050919050565b60006120f1826120c3565b9150819050919050565b7f5472616e73666572206661696c65640000000000000000000000000000000000600082015250565b6000612131600f8361179b565b915061213c826120fb565b602082019050919050565b6000602082019050818103600083015261216081612124565b9050919050565b7f4e487b7100000000000000000000000000000000000000000000000000000000600052601260045260246000fd5b60006121a18261187d565b91506121ac8361187d565b9250826121bc576121bb612167565b5b828204905092915050565b7f4e6f74206120706f6f6c206d656d626572206f7220686520697320746865207060008201527f6f6f6c206d616e61676572000000000000000000000000000000000000000000602082015250565b6000612223602b8361179b565b915061222e826121c7565b604082019050919050565b6000602082019050818103600083015261225281612216565b9050919050565b7f4e487b7100000000000000000000000000000000000000000000000000000000600052603160045260246000fd5b7f54686520706f6f6c20737461747573206973206e6f742063616e63656c656400600082015250565b60006122be601f8361179b565b91506122c982612288565b602082019050919050565b600060208201905081810360008301526122ed816122b1565b9050919050565b7f4e487b7100000000000000000000000000000000000000000000000000000000600052600160045260246000fdfea2646970667358221220603737b7fb1451c7a86141ab64a62ae72c9c881748b22de93b8debbae586550d64736f6c634300080a0033a2646970667358221220e2eb08fcf79681388c5d6e738161576917f74c99043916c9359dcb8b688fa65c64736f6c634300080a0033",
  "immutableReferences": {
    "854": [
      {
        "length": 32,
        "start": 3230
      }
    ]
  },
  "source": "// SPDX-License-Identifier: MIT\npragma solidity 0.8.10;\n\nimport \"./InsurancePool.sol\";\n\n/** \n - Implements p2p insurance through creating insurance pools\n - I am using the factory design pattern: P2P_Insurance (the factory) that creates objects/smart contracts (InsurancePool)\n - Using wei as the payment unit (eth unit at the frontend level)\n - how to transfer to Wei in frontend :example: contracts['CrowdFunder'].contract.contribute({value: web3.toWei(12, 'ether')});\n */\n\ncontract P2P_Insurance {\n    \n    address public immutable owner; //owner = platform\n    mapping(address => InsurancePool) public pools; // The pool address is the bridge between frontend and backend\n    \n    modifier onlyOwner(){\n        require (msg.sender == owner,\"It is not the contract owner\");\n        _;\n    }\n\n    modifier enoughPremiumPaid (uint _premium, uint _value) {\n        require (_value >= _premium,\"The amount paid is less than the pool premium\");\n        _;\n    }\n\n    modifier notFinishedOrCanceledPool (address _poolAddress) {\n        require (pools[_poolAddress].status() == InsurancePool.PoolStatus.Initiated || pools[_poolAddress].status() == InsurancePool.PoolStatus.Active,\n        \"The pool status is either finished or canceled\");\n        _;\n    }\n\n    //Register Events\n    event fallbackReceived(address sender, string message);\n\n\n    constructor () \n    {\n        owner = msg.sender;\n    }\n\n    function getMemberBalance(address poolAddress, address _memberAddress) public view returns (uint)\n    {\n        return pools[poolAddress].getMemberBalance(_memberAddress); \n    }\n    function getMemberTotalClaims(address poolAddress, address _memberAddress) public view returns(uint) \n    {\n        return pools[poolAddress].getMemberTotalClaims(_memberAddress);\n    }\n    function getMemberRemainingCoverage(address poolAddress, address _memberAddress) public view returns (uint)\n    {\n        return pools[poolAddress].getMemberRemainingCoverage(_memberAddress);\n    }\n\n    //Anyone can create a new pool that is open for other members to join'.\n    // each pool has a unique contract address as an escrew account for that specific pool.\n    // payment unit in Wei\n    //returns the pool address for the frontend\n    function createNewPool(uint _minNumberOfMembers, uint _premium, uint _maxCoveragePerMember) public payable enoughPremiumPaid(_premium, msg.value) returns (InsurancePool _poolInstance)\n    {\n        uint _value = msg.value;\n        // create a new pool instance\n        _poolInstance = new InsurancePool();\n        //_poolAddress = address(pool);\n        // create a new pool and transfer the premim to the pool contract\n        _poolInstance.createPool {value: _value}(msg.sender,_minNumberOfMembers,_premium,_maxCoveragePerMember);\n        pools[address(_poolInstance)] = _poolInstance;\n    } \n\n    // User can join an address and pay the premium, as a result he becomes a pool member\n    function joinPool(address _poolAddress) public payable notFinishedOrCanceledPool(_poolAddress) enoughPremiumPaid(pools[_poolAddress].premium(), msg.value)\n    {\n        pools[_poolAddress].joinPool{value: msg.value}(msg.sender);\n    }\n\n    //The pool manager can cancel a pool if it is still in the initiated status - as example, for long time the pool not reaches the minimum requirements to be activated\n    function cancelPool (address _poolAddress) public\n    {\n        pools[_poolAddress].cancelPool(msg.sender);\n    }\n\n    // the pool is finshed once the policy expired after one year since activation (UI/Frontend validation)\n    // Only the pool manager has the right to call this function\n    function finshPool (address _poolAddress) public returns (bool)\n    {\n        return pools[_poolAddress].finishPool(msg.sender);\n        //do we need to empty the pool? I think No, because we need to have the pool history onchain for transparency\n        //In future, we can offer to renew the pool once policy is expired\n    }\n\n    // member can cancel his subscription in a specific pool as long as the pool is not activated. The pool will refund the premium to his balance\n    function cancelMembershipBeforPoolActivation (address _poolAddress) public returns (bool)\n    {\n        return pools[_poolAddress].cancelSubscription(msg.sender);\n    }\n\n    /* There should be an eligibility process in place to validate the claims' reqests, \n       but this will not be developed in the current project.\n\n        checks for claims could be managed later through hybrid ways :\n            1-  Mainly, building a consensys voting mechansim, where the pool members vote to reimburse a teammate\n            2-  offchain integration with trusted external data sources\n            3-  Connecting to offchain/onchain oracles, such as delayed flights,etc.\n\n        At this project (POC), we consider the claim request is eligible and approved by majority of pool members\n    */ \n    function requestClaim(address _poolAddress, uint _claimAmount) public returns (bool)\n    {\n        return pools[_poolAddress].requestClaim(msg.sender, _claimAmount); \n    } \n\n    // member can withdraw his avialable balance (in case of cancelation, refund , etc.)\n    function withdrawBalance(address _poolAddress) public //\n    {\n        pools[_poolAddress].withdrawBalance(msg.sender);\n    }\n\n    //fall back function \n    //it is not payable - not accepting to receive plain ether and this will raise an exception !    \n    fallback() external  {\n        emit fallbackReceived(msg.sender,\"P2P_Insurance Fallback was called\");\n    }\n}\n",
  "sourcePath": "/mnt/c/Users/pc1/projects/blockchain-developer-bootcamp-final-project/contracts/P2P_Insurance.sol",
  "compiler": {
    "name": "solc",
    "version": "0.8.10+commit.fc410830.Emscripten.clang"
  },
  "schemaVersion": "3.4.2",
  "updatedAt": "2021-12-05T19:24:35.741Z",
  "devdoc": {
    "kind": "dev",
    "methods": {},
    "version": 1
  },
  "userdoc": {
    "kind": "user",
    "methods": {},
    "notice": "- Implements p2p insurance through creating insurance pools - I am using the factory design pattern: P2P_Insurance (the factory) that creates objects/smart contracts (InsurancePool) - Using wei as the payment unit (eth unit at the frontend level) - how to transfer to Wei in frontend :example: contracts['CrowdFunder'].contract.contribute({value: web3.toWei(12, 'ether')});",
    "version": 1
  }
}