{
  "contractName": "P2P_Insurance",
  "abi": [
    {
      "inputs": [],
      "stateMutability": "nonpayable",
      "type": "constructor"
    },
    {
      "anonymous": false,
      "inputs": [
        {
          "indexed": true,
          "internalType": "address",
          "name": "_memberAddress",
          "type": "address"
        },
        {
          "indexed": false,
          "internalType": "string",
          "name": "_message",
          "type": "string"
        }
      ],
      "name": "balanceWithdrawed",
      "type": "event"
    },
    {
      "anonymous": false,
      "inputs": [
        {
          "indexed": true,
          "internalType": "address",
          "name": "_memberAddress",
          "type": "address"
        },
        {
          "indexed": false,
          "internalType": "string",
          "name": "_message",
          "type": "string"
        }
      ],
      "name": "claimRequested",
      "type": "event"
    },
    {
      "anonymous": false,
      "inputs": [
        {
          "indexed": false,
          "internalType": "address",
          "name": "sender",
          "type": "address"
        },
        {
          "indexed": false,
          "internalType": "string",
          "name": "message",
          "type": "string"
        }
      ],
      "name": "fallbackReceived",
      "type": "event"
    },
    {
      "anonymous": false,
      "inputs": [
        {
          "indexed": true,
          "internalType": "address",
          "name": "_memberAddress",
          "type": "address"
        },
        {
          "indexed": false,
          "internalType": "string",
          "name": "_message",
          "type": "string"
        }
      ],
      "name": "memberJoined",
      "type": "event"
    },
    {
      "anonymous": false,
      "inputs": [
        {
          "indexed": true,
          "internalType": "address",
          "name": "_memberAddress",
          "type": "address"
        },
        {
          "indexed": false,
          "internalType": "string",
          "name": "_message",
          "type": "string"
        }
      ],
      "name": "memberUnsubscibed",
      "type": "event"
    },
    {
      "anonymous": false,
      "inputs": [
        {
          "indexed": true,
          "internalType": "uint256",
          "name": "_poolId",
          "type": "uint256"
        },
        {
          "indexed": false,
          "internalType": "string",
          "name": "_message",
          "type": "string"
        }
      ],
      "name": "poolActivated",
      "type": "event"
    },
    {
      "anonymous": false,
      "inputs": [
        {
          "indexed": true,
          "internalType": "address",
          "name": "_memberAddress",
          "type": "address"
        },
        {
          "indexed": false,
          "internalType": "string",
          "name": "_message",
          "type": "string"
        }
      ],
      "name": "poolCanceled",
      "type": "event"
    },
    {
      "anonymous": false,
      "inputs": [
        {
          "indexed": true,
          "internalType": "address",
          "name": "_memberAddress",
          "type": "address"
        },
        {
          "indexed": false,
          "internalType": "string",
          "name": "_message",
          "type": "string"
        }
      ],
      "name": "poolCreated",
      "type": "event"
    },
    {
      "anonymous": false,
      "inputs": [
        {
          "indexed": true,
          "internalType": "address",
          "name": "_memberAddress",
          "type": "address"
        },
        {
          "indexed": false,
          "internalType": "string",
          "name": "_message",
          "type": "string"
        }
      ],
      "name": "poolFinished",
      "type": "event"
    },
    {
      "stateMutability": "nonpayable",
      "type": "fallback"
    },
    {
      "inputs": [],
      "name": "owner",
      "outputs": [
        {
          "internalType": "address",
          "name": "",
          "type": "address"
        }
      ],
      "stateMutability": "view",
      "type": "function"
    },
    {
      "inputs": [],
      "name": "poolCount",
      "outputs": [
        {
          "internalType": "uint256",
          "name": "",
          "type": "uint256"
        }
      ],
      "stateMutability": "view",
      "type": "function"
    },
    {
      "inputs": [],
      "name": "getPools",
      "outputs": [
        {
          "internalType": "contract InsurancePool[]",
          "name": "",
          "type": "address[]"
        }
      ],
      "stateMutability": "view",
      "type": "function"
    },
    {
      "inputs": [
        {
          "internalType": "uint256",
          "name": "_poolId",
          "type": "uint256"
        }
      ],
      "name": "getPoolDetails",
      "outputs": [
        {
          "internalType": "address",
          "name": "_poolAddress",
          "type": "address"
        },
        {
          "internalType": "uint256",
          "name": "_minMembers",
          "type": "uint256"
        },
        {
          "internalType": "uint256",
          "name": "_premium",
          "type": "uint256"
        },
        {
          "internalType": "uint256",
          "name": "_maxCoverage",
          "type": "uint256"
        },
        {
          "internalType": "uint256",
          "name": "_status",
          "type": "uint256"
        },
        {
          "internalType": "uint256",
          "name": "_startDate",
          "type": "uint256"
        },
        {
          "internalType": "uint256",
          "name": "_poolBalance",
          "type": "uint256"
        },
        {
          "internalType": "uint256",
          "name": "_poolFund",
          "type": "uint256"
        },
        {
          "internalType": "uint256",
          "name": "_memberCount",
          "type": "uint256"
        }
      ],
      "stateMutability": "view",
      "type": "function"
    },
    {
      "inputs": [
        {
          "internalType": "uint256",
          "name": "_poolId",
          "type": "uint256"
        },
        {
          "internalType": "address",
          "name": "_memberAddress",
          "type": "address"
        }
      ],
      "name": "getMemberDetails",
      "outputs": [
        {
          "internalType": "int256",
          "name": "_poolMemberId",
          "type": "int256"
        },
        {
          "internalType": "uint256",
          "name": "_balance",
          "type": "uint256"
        },
        {
          "internalType": "uint256",
          "name": "_totalClaims",
          "type": "uint256"
        },
        {
          "internalType": "uint256",
          "name": "_remainingCoverage",
          "type": "uint256"
        }
      ],
      "stateMutability": "view",
      "type": "function"
    },
    {
      "inputs": [
        {
          "internalType": "uint256",
          "name": "_minNumberOfMembers",
          "type": "uint256"
        },
        {
          "internalType": "uint256",
          "name": "_premium",
          "type": "uint256"
        },
        {
          "internalType": "uint256",
          "name": "_maxCoveragePerMember",
          "type": "uint256"
        }
      ],
      "name": "createNewPool",
      "outputs": [],
      "stateMutability": "payable",
      "type": "function"
    },
    {
      "inputs": [
        {
          "internalType": "uint256",
          "name": "_poolId",
          "type": "uint256"
        }
      ],
      "name": "joinPool",
      "outputs": [],
      "stateMutability": "payable",
      "type": "function"
    },
    {
      "inputs": [
        {
          "internalType": "uint256",
          "name": "_poolId",
          "type": "uint256"
        }
      ],
      "name": "cancelPool",
      "outputs": [],
      "stateMutability": "nonpayable",
      "type": "function"
    },
    {
      "inputs": [
        {
          "internalType": "uint256",
          "name": "_poolId",
          "type": "uint256"
        }
      ],
      "name": "finshPool",
      "outputs": [],
      "stateMutability": "nonpayable",
      "type": "function"
    },
    {
      "inputs": [
        {
          "internalType": "uint256",
          "name": "_poolId",
          "type": "uint256"
        }
      ],
      "name": "cancelMembershipBeforPoolActivation",
      "outputs": [],
      "stateMutability": "nonpayable",
      "type": "function"
    },
    {
      "inputs": [
        {
          "internalType": "uint256",
          "name": "_poolId",
          "type": "uint256"
        },
        {
          "internalType": "uint256",
          "name": "_claimAmount",
          "type": "uint256"
        }
      ],
      "name": "requestClaim",
      "outputs": [],
      "stateMutability": "nonpayable",
      "type": "function"
    },
    {
      "inputs": [
        {
          "internalType": "uint256",
          "name": "_poolId",
          "type": "uint256"
        }
      ],
      "name": "withdrawBalance",
      "outputs": [],
      "stateMutability": "nonpayable",
      "type": "function"
    }
  ],
  "bytecode": "0x60a06040526000805534801561001457600080fd5b503373ffffffffffffffffffffffffffffffffffffffff1660808173ffffffffffffffffffffffffffffffffffffffff16815250506080516147406100646000396000610ac801526147406000f3fe6080604052600436106100ab5760003560e01c8063b8764c3911610064578063b8764c39146101f6578063d31903771461023b578063d60b909114610264578063da1d383714610280578063da76d5cd146102a9578063f525cb68146102d2576100ac565b806334e7a19f146100f257806346a168901461010e578063673a2a1f14610137578063692fea0414610162578063827c7889146101a25780638da5cb5b146101cb576100ac565b5b3480156100b857600080fd5b507f2402f2b60dce6d6a9da700a348a123aac12db0c50649200b5970ead86df8805c336040516100e89190611729565b60405180910390a1005b61010c60048036038101906101079190611792565b6102fd565b005b34801561011a57600080fd5b50610135600480360381019061013091906117bf565b61073c565b005b34801561014357600080fd5b5061014c610854565b604051610159919061190d565b60405180910390f35b34801561016e57600080fd5b506101896004803603810190610184919061195b565b6108e2565b60405161019994939291906119c3565b60405180910390f35b3480156101ae57600080fd5b506101c960048036038101906101c49190611792565b6109b1565b005b3480156101d757600080fd5b506101e0610ac6565b6040516101ed9190611a08565b60405180910390f35b34801561020257600080fd5b5061021d60048036038101906102189190611792565b610aea565b60405161023299989796959493929190611a23565b60405180910390f35b34801561024757600080fd5b50610262600480360381019061025d9190611792565b61113e565b005b61027e60048036038101906102799190611ab0565b611253565b005b34801561028c57600080fd5b506102a760048036038101906102a29190611792565b611428565b005b3480156102b557600080fd5b506102d060048036038101906102cb9190611792565b61153d565b005b3480156102de57600080fd5b506102e7611652565b6040516102f49190611b03565b60405180910390f35b806000600381111561031257610311611b1e565b5b6001828154811061032657610325611b4d565b5b9060005260206000200160009054906101000a900473ffffffffffffffffffffffffffffffffffffffff1673ffffffffffffffffffffffffffffffffffffffff1663200d2ed26040518163ffffffff1660e01b8152600401602060405180830381865afa15801561039b573d6000803e3d6000fd5b505050506040513d601f19601f820116820180604052508101906103bf9190611ba1565b60038111156103d1576103d0611b1e565b5b14806104ad5750600160038111156103ec576103eb611b1e565b5b60018281548110610400576103ff611b4d565b5b9060005260206000200160009054906101000a900473ffffffffffffffffffffffffffffffffffffffff1673ffffffffffffffffffffffffffffffffffffffff1663200d2ed26040518163ffffffff1660e01b8152600401602060405180830381865afa158015610475573d6000803e3d6000fd5b505050506040513d601f19601f820116820180604052508101906104999190611ba1565b60038111156104ab576104aa611b1e565b5b145b6104ec576040517f08c379a00000000000000000000000000000000000000000000000000000000081526004016104e390611c40565b60405180910390fd5b60018281548110610500576104ff611b4d565b5b9060005260206000200160009054906101000a900473ffffffffffffffffffffffffffffffffffffffff1673ffffffffffffffffffffffffffffffffffffffff1663e0a73a936040518163ffffffff1660e01b8152600401602060405180830381865afa158015610575573d6000803e3d6000fd5b505050506040513d601f19601f820116820180604052508101906105999190611c75565b34818110156105dd576040517f08c379a00000000000000000000000000000000000000000000000000000000081526004016105d490611d14565b60405180910390fd5b6000339050600080600187815481106105f9576105f8611b4d565b5b9060005260206000200160009054906101000a900473ffffffffffffffffffffffffffffffffffffffff1673ffffffffffffffffffffffffffffffffffffffff16631ae0e73d34856040518363ffffffff1660e01b815260040161065d9190611a08565b604080518083038185885af115801561067a573d6000803e3d6000fd5b50505050506040513d601f19601f8201168201806040525081019061069f9190611d6c565b9150915081156106f6578273ffffffffffffffffffffffffffffffffffffffff167f4a625b2512d1a4aeea70b22874a9dcf0282ad161add40ade3741d889a32f3e616040516106ed90611e1e565b60405180910390a25b801561073357867f29e136fc8b732ea6b179532a84a68848f6f14d6f0c0dce8922db98c2739d198460405161072a90611eb0565b60405180910390a25b50505050505050565b60003390506001838154811061075557610754611b4d565b5b9060005260206000200160009054906101000a900473ffffffffffffffffffffffffffffffffffffffff1673ffffffffffffffffffffffffffffffffffffffff166301e51e9782846040518363ffffffff1660e01b81526004016107ba929190611ed0565b6020604051808303816000875af11580156107d9573d6000803e3d6000fd5b505050506040513d601f19601f820116820180604052508101906107fd9190611ef9565b1561084f578073ffffffffffffffffffffffffffffffffffffffff167fd0440465579bd0f4fc1f5f5d5ce76014aadefb03b0541b240d20bb476816033c60405161084690611f98565b60405180910390a25b505050565b606060018054806020026020016040519081016040528092919081815260200182805480156108d857602002820191906000526020600020905b8160009054906101000a900473ffffffffffffffffffffffffffffffffffffffff1673ffffffffffffffffffffffffffffffffffffffff168152602001906001019080831161088e575b5050505050905090565b600080600080600186815481106108fc576108fb611b4d565b5b9060005260206000200160009054906101000a900473ffffffffffffffffffffffffffffffffffffffff1673ffffffffffffffffffffffffffffffffffffffff166383fd0954866040518263ffffffff1660e01b815260040161095f9190611a08565b608060405180830381865afa15801561097c573d6000803e3d6000fd5b505050506040513d601f19601f820116820180604052508101906109a09190611fe4565b935093509350935092959194509250565b6000339050600182815481106109ca576109c9611b4d565b5b9060005260206000200160009054906101000a900473ffffffffffffffffffffffffffffffffffffffff1673ffffffffffffffffffffffffffffffffffffffff16630b03bf2b826040518263ffffffff1660e01b8152600401610a2d9190611a08565b6020604051808303816000875af1158015610a4c573d6000803e3d6000fd5b505050506040513d601f19601f82011682018060405250810190610a709190611ef9565b15610ac2578073ffffffffffffffffffffffffffffffffffffffff167f3d8f0efe0ca5f23697984bd83ad21dfe056fe58d2a57df07deca3637272b5025604051610ab9906120bd565b60405180910390a25b5050565b7f000000000000000000000000000000000000000000000000000000000000000081565b600080600080600080600080600060018a81548110610b0c57610b0b611b4d565b5b9060005260206000200160009054906101000a900473ffffffffffffffffffffffffffffffffffffffff1673ffffffffffffffffffffffffffffffffffffffff1663f586c6d96040518163ffffffff1660e01b8152600401602060405180830381865afa158015610b81573d6000803e3d6000fd5b505050506040513d601f19601f82011682018060405250810190610ba591906120f2565b985060018a81548110610bbb57610bba611b4d565b5b9060005260206000200160009054906101000a900473ffffffffffffffffffffffffffffffffffffffff1673ffffffffffffffffffffffffffffffffffffffff166379f3378b6040518163ffffffff1660e01b8152600401602060405180830381865afa158015610c30573d6000803e3d6000fd5b505050506040513d601f19601f82011682018060405250810190610c549190611c75565b975060018a81548110610c6a57610c69611b4d565b5b9060005260206000200160009054906101000a900473ffffffffffffffffffffffffffffffffffffffff1673ffffffffffffffffffffffffffffffffffffffff1663e0a73a936040518163ffffffff1660e01b8152600401602060405180830381865afa158015610cdf573d6000803e3d6000fd5b505050506040513d601f19601f82011682018060405250810190610d039190611c75565b965060018a81548110610d1957610d18611b4d565b5b9060005260206000200160009054906101000a900473ffffffffffffffffffffffffffffffffffffffff1673ffffffffffffffffffffffffffffffffffffffff16638fab98b46040518163ffffffff1660e01b8152600401602060405180830381865afa158015610d8e573d6000803e3d6000fd5b505050506040513d601f19601f82011682018060405250810190610db29190611c75565b955060018a81548110610dc857610dc7611b4d565b5b9060005260206000200160009054906101000a900473ffffffffffffffffffffffffffffffffffffffff1673ffffffffffffffffffffffffffffffffffffffff1663200d2ed26040518163ffffffff1660e01b8152600401602060405180830381865afa158015610e3d573d6000803e3d6000fd5b505050506040513d601f19601f82011682018060405250810190610e619190611ba1565b6003811115610e7357610e72611b1e565b5b945060018a81548110610e8957610e88611b4d565b5b9060005260206000200160009054906101000a900473ffffffffffffffffffffffffffffffffffffffff1673ffffffffffffffffffffffffffffffffffffffff1663c5191d1a6040518163ffffffff1660e01b8152600401602060405180830381865afa158015610efe573d6000803e3d6000fd5b505050506040513d601f19601f82011682018060405250810190610f229190611c75565b935060018a81548110610f3857610f37611b4d565b5b9060005260206000200160009054906101000a900473ffffffffffffffffffffffffffffffffffffffff1673ffffffffffffffffffffffffffffffffffffffff16630dc07a3e6040518163ffffffff1660e01b8152600401602060405180830381865afa158015610fad573d6000803e3d6000fd5b505050506040513d601f19601f82011682018060405250810190610fd19190611c75565b925060018a81548110610fe757610fe6611b4d565b5b9060005260206000200160009054906101000a900473ffffffffffffffffffffffffffffffffffffffff1673ffffffffffffffffffffffffffffffffffffffff166347cc63136040518163ffffffff1660e01b8152600401602060405180830381865afa15801561105c573d6000803e3d6000fd5b505050506040513d601f19601f820116820180604052508101906110809190611c75565b915060018a8154811061109657611095611b4d565b5b9060005260206000200160009054906101000a900473ffffffffffffffffffffffffffffffffffffffff1673ffffffffffffffffffffffffffffffffffffffff166309772f8f6040518163ffffffff1660e01b8152600401602060405180830381865afa15801561110b573d6000803e3d6000fd5b505050506040513d601f19601f8201168201806040525081019061112f9190611c75565b90509193959799909294969850565b60003390506001828154811061115757611156611b4d565b5b9060005260206000200160009054906101000a900473ffffffffffffffffffffffffffffffffffffffff1673ffffffffffffffffffffffffffffffffffffffff166393d81d58826040518263ffffffff1660e01b81526004016111ba9190611a08565b6020604051808303816000875af11580156111d9573d6000803e3d6000fd5b505050506040513d601f19601f820116820180604052508101906111fd9190611ef9565b1561124f578073ffffffffffffffffffffffffffffffffffffffff167fb450f87c0068c78ace429ed1c8955a2afda1a632f902da1d31682585be4221e360405161124690612191565b60405180910390a25b5050565b813481811015611298576040517f08c379a000000000000000000000000000000000000000000000000000000000815260040161128f90611d14565b60405180910390fd5b6000349050600033905060006040516112b090611658565b604051809103906000f0801580156112cc573d6000803e3d6000fd5b5090508073ffffffffffffffffffffffffffffffffffffffff1663922d3e4c84848b8b8b6040518663ffffffff1660e01b815260040161130f94939291906121b1565b60206040518083038185885af115801561132d573d6000803e3d6000fd5b50505050506040513d601f19601f820116820180604052508101906113529190611ef9565b1561141e576001819080600181540180825580915050600190039060005260206000200160009091909190916101000a81548173ffffffffffffffffffffffffffffffffffffffff021916908373ffffffffffffffffffffffffffffffffffffffff1602179055506000808154809291906113cc90612225565b91905055508173ffffffffffffffffffffffffffffffffffffffff167ffa4a59b8aa09b742bb36a87fe8a648e4baebc604d2ecf6e67a78cd9bffc208b4604051611415906122ba565b60405180910390a25b5050505050505050565b60003390506001828154811061144157611440611b4d565b5b9060005260206000200160009054906101000a900473ffffffffffffffffffffffffffffffffffffffff1673ffffffffffffffffffffffffffffffffffffffff166388ff87c9826040518263ffffffff1660e01b81526004016114a49190611a08565b6020604051808303816000875af11580156114c3573d6000803e3d6000fd5b505050506040513d601f19601f820116820180604052508101906114e79190611ef9565b15611539578073ffffffffffffffffffffffffffffffffffffffff167f0efd4a0b4adef22fa97cb606c28a501074f708da44fc2b5f315169ce7815bd9c6040516115309061234c565b60405180910390a25b5050565b60003390506001828154811061155657611555611b4d565b5b9060005260206000200160009054906101000a900473ffffffffffffffffffffffffffffffffffffffff1673ffffffffffffffffffffffffffffffffffffffff1663756af45f826040518263ffffffff1660e01b81526004016115b99190611a08565b6020604051808303816000875af11580156115d8573d6000803e3d6000fd5b505050506040513d601f19601f820116820180604052508101906115fc9190611ef9565b1561164e578073ffffffffffffffffffffffffffffffffffffffff167f122765aa23905334d2ed13f19b1a6bb226496ab19466a882970600fa4eb93662604051611645906123de565b60405180910390a25b5050565b60005481565b61230c806123ff83390190565b600073ffffffffffffffffffffffffffffffffffffffff82169050919050565b600061169082611665565b9050919050565b6116a081611685565b82525050565b600082825260208201905092915050565b7f5032505f496e737572616e63652046616c6c6261636b207761732063616c6c6560008201527f6400000000000000000000000000000000000000000000000000000000000000602082015250565b60006117136021836116a6565b915061171e826116b7565b604082019050919050565b600060408201905061173e6000830184611697565b818103602083015261174f81611706565b905092915050565b600080fd5b6000819050919050565b61176f8161175c565b811461177a57600080fd5b50565b60008135905061178c81611766565b92915050565b6000602082840312156117a8576117a7611757565b5b60006117b68482850161177d565b91505092915050565b600080604083850312156117d6576117d5611757565b5b60006117e48582860161177d565b92505060206117f58582860161177d565b9150509250929050565b600081519050919050565b600082825260208201905092915050565b6000819050602082019050919050565b6000819050919050565b600061185061184b61184684611665565b61182b565b611665565b9050919050565b600061186282611835565b9050919050565b600061187482611857565b9050919050565b61188481611869565b82525050565b6000611896838361187b565b60208301905092915050565b6000602082019050919050565b60006118ba826117ff565b6118c4818561180a565b93506118cf8361181b565b8060005b838110156119005781516118e7888261188a565b97506118f2836118a2565b9250506001810190506118d3565b5085935050505092915050565b6000602082019050818103600083015261192781846118af565b905092915050565b61193881611685565b811461194357600080fd5b50565b6000813590506119558161192f565b92915050565b6000806040838503121561197257611971611757565b5b60006119808582860161177d565b925050602061199185828601611946565b9150509250929050565b6000819050919050565b6119ae8161199b565b82525050565b6119bd8161175c565b82525050565b60006080820190506119d860008301876119a5565b6119e560208301866119b4565b6119f260408301856119b4565b6119ff60608301846119b4565b95945050505050565b6000602082019050611a1d6000830184611697565b92915050565b600061012082019050611a39600083018c611697565b611a46602083018b6119b4565b611a53604083018a6119b4565b611a6060608301896119b4565b611a6d60808301886119b4565b611a7a60a08301876119b4565b611a8760c08301866119b4565b611a9460e08301856119b4565b611aa26101008301846119b4565b9a9950505050505050505050565b600080600060608486031215611ac957611ac8611757565b5b6000611ad78682870161177d565b9350506020611ae88682870161177d565b9250506040611af98682870161177d565b9150509250925092565b6000602082019050611b1860008301846119b4565b92915050565b7f4e487b7100000000000000000000000000000000000000000000000000000000600052602160045260246000fd5b7f4e487b7100000000000000000000000000000000000000000000000000000000600052603260045260246000fd5b60048110611b8957600080fd5b50565b600081519050611b9b81611b7c565b92915050565b600060208284031215611bb757611bb6611757565b5b6000611bc584828501611b8c565b91505092915050565b7f54686520706f6f6c20737461747573206973206569746865722066696e69736860008201527f6564206f722063616e63656c6564000000000000000000000000000000000000602082015250565b6000611c2a602e836116a6565b9150611c3582611bce565b604082019050919050565b60006020820190508181036000830152611c5981611c1d565b9050919050565b600081519050611c6f81611766565b92915050565b600060208284031215611c8b57611c8a611757565b5b6000611c9984828501611c60565b91505092915050565b7f54686520616d6f756e742070616964206973206c657373207468616e2074686560008201527f20706f6f6c207072656d69756d00000000000000000000000000000000000000602082015250565b6000611cfe602d836116a6565b9150611d0982611ca2565b604082019050919050565b60006020820190508181036000830152611d2d81611cf1565b9050919050565b60008115159050919050565b611d4981611d34565b8114611d5457600080fd5b50565b600081519050611d6681611d40565b92915050565b60008060408385031215611d8357611d82611757565b5b6000611d9185828601611d57565b9250506020611da285828601611d57565b9150509250929050565b7f546865206d656d62657220686173206a6f696e65642074686520706f6f6c207360008201527f756365737366756c6c7921000000000000000000000000000000000000000000602082015250565b6000611e08602b836116a6565b9150611e1382611dac565b604082019050919050565b60006020820190508181036000830152611e3781611dfb565b9050919050565b7f54686520706f6f6c2069732073756365737366756c6c7920616374697661746560008201527f6421000000000000000000000000000000000000000000000000000000000000602082015250565b6000611e9a6022836116a6565b9150611ea582611e3e565b604082019050919050565b60006020820190508181036000830152611ec981611e8d565b9050919050565b6000604082019050611ee56000830185611697565b611ef260208301846119b4565b9392505050565b600060208284031215611f0f57611f0e611757565b5b6000611f1d84828501611d57565b91505092915050565b7f546865207265717565737420636c61696d206861732070726f6365737365642060008201527f73756365737366756c6c79210000000000000000000000000000000000000000602082015250565b6000611f82602c836116a6565b9150611f8d82611f26565b604082019050919050565b60006020820190508181036000830152611fb181611f75565b9050919050565b611fc18161199b565b8114611fcc57600080fd5b50565b600081519050611fde81611fb8565b92915050565b60008060008060808587031215611ffe57611ffd611757565b5b600061200c87828801611fcf565b945050602061201d87828801611c60565b935050604061202e87828801611c60565b925050606061203f87828801611c60565b91505092959194509250565b7f54686520706f6f6c2069732073756365737366756c6c792063616e63656c656460008201527f2100000000000000000000000000000000000000000000000000000000000000602082015250565b60006120a76021836116a6565b91506120b28261204b565b604082019050919050565b600060208201905081810360008301526120d68161209a565b9050919050565b6000815190506120ec8161192f565b92915050565b60006020828403121561210857612107611757565b5b6000612116848285016120dd565b91505092915050565b7f546865206d656d6265722068617320756e7375627363696265642066726f6d2060008201527f74686520706f6f6c2073756365737366756c6c79210000000000000000000000602082015250565b600061217b6035836116a6565b91506121868261211f565b604082019050919050565b600060208201905081810360008301526121aa8161216e565b9050919050565b60006080820190506121c66000830187611697565b6121d360208301866119b4565b6121e060408301856119b4565b6121ed60608301846119b4565b95945050505050565b7f4e487b7100000000000000000000000000000000000000000000000000000000600052601160045260246000fd5b60006122308261175c565b91507fffffffffffffffffffffffffffffffffffffffffffffffffffffffffffffffff821415612263576122626121f6565b5b600182019050919050565b7f54686520706f6f6c2069732073756365737366756c6c79206372656174656421600082015250565b60006122a46020836116a6565b91506122af8261226e565b602082019050919050565b600060208201905081810360008301526122d381612297565b9050919050565b7f54686520706f6f6c2069732073756365737366756c6c792066696e697368656460008201527f2100000000000000000000000000000000000000000000000000000000000000602082015250565b60006123366021836116a6565b9150612341826122da565b604082019050919050565b6000602082019050818103600083015261236581612329565b9050919050565b7f5468652062616c616e6365207769746864726177616c206861732070726f636560008201527f737365642073756365737366756c6c7921000000000000000000000000000000602082015250565b60006123c86031836116a6565b91506123d38261236c565b604082019050919050565b600060208201905081810360008301526123f7816123bb565b905091905056fe608060405234801561001057600080fd5b506122ec806100206000396000f3fe60806040526004361061010d5760003560e01c806379f3378b11610095578063922d3e4c11610064578063922d3e4c146103fa57806393d81d581461042a578063c5191d1a14610467578063e0a73a9314610492578063f586c6d9146104bd5761010e565b806379f3378b1461032757806383fd09541461035257806388ff87c9146103925780638fab98b4146103cf5761010e565b80631ae0e73d116100dc5780631ae0e73d14610224578063200d2ed21461025557806347cc6313146102805780635daf08ca146102ab578063756af45f146102ea5761010e565b806301e51e971461015457806309772f8f146101915780630b03bf2b146101bc5780630dc07a3e146101f95761010e565b5b34801561011a57600080fd5b507f2402f2b60dce6d6a9da700a348a123aac12db0c50649200b5970ead86df8805c3360405161014a91906117ac565b60405180910390a1005b34801561016057600080fd5b5061017b60048036038101906101769190611841565b6104e8565b604051610188919061189c565b60405180910390f35b34801561019d57600080fd5b506101a661078b565b6040516101b391906118c6565b60405180910390f35b3480156101c857600080fd5b506101e360048036038101906101de91906118e1565b610798565b6040516101f0919061189c565b60405180910390f35b34801561020557600080fd5b5061020e61095c565b60405161021b91906118c6565b60405180910390f35b61023e600480360381019061023991906118e1565b610964565b60405161024c92919061190e565b60405180910390f35b34801561026157600080fd5b5061026a610ae2565b60405161027791906119ae565b60405180910390f35b34801561028c57600080fd5b50610295610af5565b6040516102a291906118c6565b60405180910390f35b3480156102b757600080fd5b506102d260048036038101906102cd91906119c9565b610b6c565b6040516102e193929190611a17565b60405180910390f35b3480156102f657600080fd5b50610311600480360381019061030c91906118e1565b610bc6565b60405161031e919061189c565b60405180910390f35b34801561033357600080fd5b5061033c610df2565b60405161034991906118c6565b60405180910390f35b34801561035e57600080fd5b50610379600480360381019061037491906118e1565b610df8565b6040516103899493929190611a67565b60405180910390f35b34801561039e57600080fd5b506103b960048036038101906103b491906118e1565b610ed7565b6040516103c6919061189c565b60405180910390f35b3480156103db57600080fd5b506103e46110c6565b6040516103f191906118c6565b60405180910390f35b610414600480360381019061040f9190611aac565b6110cc565b604051610421919061189c565b60405180910390f35b34801561043657600080fd5b50610451600480360381019061044c91906118e1565b611204565b60405161045e919061189c565b60405180910390f35b34801561047357600080fd5b5061047c611524565b60405161048991906118c6565b60405180910390f35b34801561049e57600080fd5b506104a761152a565b6040516104b491906118c6565b60405180910390f35b3480156104c957600080fd5b506104d2611530565b6040516104df9190611b13565b60405180910390f35b6000600160038111156104fe576104fd611937565b5b600560009054906101000a900460ff1660038111156105205761051f611937565b5b14610560576040517f08c379a000000000000000000000000000000000000000000000000000000000815260040161055790611b7a565b60405180910390fd5b818061056a610af5565b10156105ab576040517f08c379a00000000000000000000000000000000000000000000000000000000081526004016105a290611be6565b60405180910390fd5b60008054906101000a900460ff16156105f9576040517f08c379a00000000000000000000000000000000000000000000000000000000081526004016105f090611c52565b60405180910390fd5b60016000806101000a81548160ff021916908315150217905550600061061e85611538565b90506000811215610664576040517f08c379a000000000000000000000000000000000000000000000000000000000815260040161065b90611cbe565b60405180910390fd5b60006001828154811061067a57610679611cde565b5b9060005260206000209060030201905060045485826002015461069d9190611d3c565b11156106de576040517f08c379a00000000000000000000000000000000000000000000000000000000081526004016106d590611e2a565b60405180910390fd5b848160020160008282546106f29190611d3c565b925050819055508060000160009054906101000a900473ffffffffffffffffffffffffffffffffffffffff1673ffffffffffffffffffffffffffffffffffffffff166108fc869081150290604051600060405180830381858888f19350505050158015610763573d6000803e3d6000fd5b5060019350505060008060006101000a81548160ff0219169083151502179055505092915050565b6000600180549050905090565b60008160016000815481106107b0576107af611cde565b5b906000526020600020906003020160000160009054906101000a900473ffffffffffffffffffffffffffffffffffffffff1673ffffffffffffffffffffffffffffffffffffffff168173ffffffffffffffffffffffffffffffffffffffff161461084f576040517f08c379a000000000000000000000000000000000000000000000000000000000815260040161084690611e96565b60405180910390fd5b6000600381111561086357610862611937565b5b600560009054906101000a900460ff16600381111561088557610884611937565b5b146108c5576040517f08c379a00000000000000000000000000000000000000000000000000000000081526004016108bc90611f02565b60405180910390fd5b6003600560006101000a81548160ff021916908360038111156108eb576108ea611937565b5b021790555060005b600180549050811015610951576003546001828154811061091757610916611cde565b5b906000526020600020906003020160010160008282546109379190611d3c565b92505081905550808061094990611f22565b9150506108f3565b506001915050919050565b600047905090565b6000807fffffffffffffffffffffffffffffffffffffffffffffffffffffffffffffffff61099184611538565b146109d1576040517f08c379a00000000000000000000000000000000000000000000000000000000081526004016109c890611fb7565b60405180910390fd5b6109d96116b1565b83816000019073ffffffffffffffffffffffffffffffffffffffff16908173ffffffffffffffffffffffffffffffffffffffff1681525050600081604001818152505060035434610a2a9190611fd7565b816020018181525050600181908060018154018082558091505060019003906000526020600020906003020160009091909190915060008201518160000160006101000a81548173ffffffffffffffffffffffffffffffffffffffff021916908373ffffffffffffffffffffffffffffffffffffffff16021790555060208201518160010155604082015181600201555050600192506002546001805490501415610adc57610ad7611607565b600191505b50915091565b600560009054906101000a900460ff1681565b6000806000905060005b600180549050811015610b525760018181548110610b2057610b1f611cde565b5b90600052602060002090600302016001015482610b3d9190611d3c565b91508080610b4a90611f22565b915050610aff565b5080610b5c61095c565b610b669190611fd7565b91505090565b60018181548110610b7c57600080fd5b90600052602060002090600302016000915090508060000160009054906101000a900473ffffffffffffffffffffffffffffffffffffffff16908060010154908060020154905083565b60008060009054906101000a900460ff1615610c17576040517f08c379a0000000000000000000000000000000000000000000000000000000008152600401610c0e90611c52565b60405180910390fd5b60016000806101000a81548160ff0219169083151502179055506000610c3c83611538565b90506000811215610c82576040517f08c379a0000000000000000000000000000000000000000000000000000000008152600401610c7990612057565b60405180910390fd5b6000819050600060018281548110610c9d57610c9c611cde565b5b906000526020600020906003020160010154905060008111610cf4576040517f08c379a0000000000000000000000000000000000000000000000000000000008152600401610ceb906120c3565b60405180910390fd5b600060018381548110610d0a57610d09611cde565b5b90600052602060002090600302016001018190555060008573ffffffffffffffffffffffffffffffffffffffff1682604051610d4590612114565b60006040518083038185875af1925050503d8060008114610d82576040519150601f19603f3d011682016040523d82523d6000602084013e610d87565b606091505b5050905080610dcb576040517f08c379a0000000000000000000000000000000000000000000000000000000008152600401610dc290612175565b60405180910390fd5b600194505050505060008060006101000a81548160ff021916908315150217905550919050565b60025481565b600080600080610e0785611538565b935060008412610ed057600060018581548110610e2757610e26611cde565b5b90600052602060002090600302016040518060600160405290816000820160009054906101000a900473ffffffffffffffffffffffffffffffffffffffff1673ffffffffffffffffffffffffffffffffffffffff1673ffffffffffffffffffffffffffffffffffffffff16815260200160018201548152602001600282015481525050905080602001519350806040015192508060400151600454610ecc9190611fd7565b9150505b9193509193565b6000816001600081548110610eef57610eee611cde565b5b906000526020600020906003020160000160009054906101000a900473ffffffffffffffffffffffffffffffffffffffff1673ffffffffffffffffffffffffffffffffffffffff168173ffffffffffffffffffffffffffffffffffffffff1614610f8e576040517f08c379a0000000000000000000000000000000000000000000000000000000008152600401610f8590611e96565b60405180910390fd5b60016003811115610fa257610fa1611937565b5b600560009054906101000a900460ff166003811115610fc457610fc3611937565b5b14611004576040517f08c379a0000000000000000000000000000000000000000000000000000000008152600401610ffb90611b7a565b60405180910390fd5b6002600560006101000a81548160ff0219169083600381111561102a57611029611937565b5b02179055506000611039610af5565b905060008111156110bb5760006001805490508261105791906121c4565b905060005b6001805490508110156110b857816001828154811061107e5761107d611cde565b5b9060005260206000209060030201600101600082825461109e9190611d3c565b9250508190555080806110b090611f22565b91505061105c565b50505b600192505050919050565b60045481565b60008360028190555082600381905550816004819055506110eb6116b1565b85816000019073ffffffffffffffffffffffffffffffffffffffff16908173ffffffffffffffffffffffffffffffffffffffff16815250506000816040018181525050833461113a9190611fd7565b816020018181525050600181908060018154018082558091505060019003906000526020600020906003020160009091909190915060008201518160000160006101000a81548173ffffffffffffffffffffffffffffffffffffffff021916908373ffffffffffffffffffffffffffffffffffffffff160217905550602082015181600101556040820151816002015550506000600560006101000a81548160ff021916908360038111156111f2576111f1611937565b5b02179055506001915050949350505050565b600080600381111561121957611218611937565b5b600560009054906101000a900460ff16600381111561123b5761123a611937565b5b1461127b576040517f08c379a000000000000000000000000000000000000000000000000000000000815260040161127290611f02565b60405180910390fd5b60008054906101000a900460ff16156112c9576040517f08c379a00000000000000000000000000000000000000000000000000000000081526004016112c090611c52565b60405180910390fd5b60016000806101000a81548160ff02191690831515021790555060006112ee83611538565b905060008113611333576040517f08c379a000000000000000000000000000000000000000000000000000000000815260040161132a90612267565b60405180910390fd5b600081905060006001828154811061134e5761134d611cde565b5b906000526020600020906003020160000160009054906101000a900473ffffffffffffffffffffffffffffffffffffffff16905060018080805490506113949190611fd7565b815481106113a5576113a4611cde565b5b9060005260206000209060030201600183815481106113c7576113c6611cde565b5b90600052602060002090600302016000820160009054906101000a900473ffffffffffffffffffffffffffffffffffffffff168160000160006101000a81548173ffffffffffffffffffffffffffffffffffffffff021916908373ffffffffffffffffffffffffffffffffffffffff1602179055506001820154816001015560028201548160020155905050600180548061146557611464612287565b5b6001900381819060005260206000209060030201600080820160006101000a81549073ffffffffffffffffffffffffffffffffffffffff021916905560018201600090556002820160009055505090558073ffffffffffffffffffffffffffffffffffffffff166108fc6003549081150290604051600060405180830381858888f193505050501580156114fd573d6000803e3d6000fd5b506001935050505060008060006101000a81548160ff021916908315150217905550919050565b60065481565b60035481565b600030905090565b60007fffffffffffffffffffffffffffffffffffffffffffffffffffffffffffffffff905060005b600180549050811015611601578273ffffffffffffffffffffffffffffffffffffffff166001828154811061159857611597611cde565b5b906000526020600020906003020160000160009054906101000a900473ffffffffffffffffffffffffffffffffffffffff1673ffffffffffffffffffffffffffffffffffffffff1614156115ee57809150611601565b80806115f990611f22565b915050611560565b50919050565b6000600381111561161b5761161a611937565b5b600560009054906101000a900460ff16600381111561163d5761163c611937565b5b1461167d576040517f08c379a000000000000000000000000000000000000000000000000000000000815260040161167490611f02565b60405180910390fd5b6001600560006101000a81548160ff021916908360038111156116a3576116a2611937565b5b021790555042600681905550565b6040518060600160405280600073ffffffffffffffffffffffffffffffffffffffff16815260200160008152602001600081525090565b600073ffffffffffffffffffffffffffffffffffffffff82169050919050565b6000611713826116e8565b9050919050565b61172381611708565b82525050565b600082825260208201905092915050565b7f5032505f496e737572616e63652046616c6c6261636b207761732063616c6c6560008201527f6400000000000000000000000000000000000000000000000000000000000000602082015250565b6000611796602183611729565b91506117a18261173a565b604082019050919050565b60006040820190506117c1600083018461171a565b81810360208301526117d281611789565b905092915050565b600080fd5b6117e881611708565b81146117f357600080fd5b50565b600081359050611805816117df565b92915050565b6000819050919050565b61181e8161180b565b811461182957600080fd5b50565b60008135905061183b81611815565b92915050565b60008060408385031215611858576118576117da565b5b6000611866858286016117f6565b92505060206118778582860161182c565b9150509250929050565b60008115159050919050565b61189681611881565b82525050565b60006020820190506118b1600083018461188d565b92915050565b6118c08161180b565b82525050565b60006020820190506118db60008301846118b7565b92915050565b6000602082840312156118f7576118f66117da565b5b6000611905848285016117f6565b91505092915050565b6000604082019050611923600083018561188d565b611930602083018461188d565b9392505050565b7f4e487b7100000000000000000000000000000000000000000000000000000000600052602160045260246000fd5b6004811061197757611976611937565b5b50565b600081905061198882611966565b919050565b60006119988261197a565b9050919050565b6119a88161198d565b82525050565b60006020820190506119c3600083018461199f565b92915050565b6000602082840312156119df576119de6117da565b5b60006119ed8482850161182c565b91505092915050565b6000611a01826116e8565b9050919050565b611a11816119f6565b82525050565b6000606082019050611a2c6000830186611a08565b611a3960208301856118b7565b611a4660408301846118b7565b949350505050565b6000819050919050565b611a6181611a4e565b82525050565b6000608082019050611a7c6000830187611a58565b611a8960208301866118b7565b611a9660408301856118b7565b611aa360608301846118b7565b95945050505050565b60008060008060808587031215611ac657611ac56117da565b5b6000611ad4878288016117f6565b9450506020611ae58782880161182c565b9350506040611af68782880161182c565b9250506060611b078782880161182c565b91505092959194509250565b6000602082019050611b28600083018461171a565b92915050565b7f54686520706f6f6c20737461747573206973206e6f7420616374697665000000600082015250565b6000611b64601d83611729565b9150611b6f82611b2e565b602082019050919050565b60006020820190508181036000830152611b9381611b57565b9050919050565b7f54686520706f6f6c20686173206e6f20656e6f7567682066756e642000000000600082015250565b6000611bd0601c83611729565b9150611bdb82611b9a565b602082019050919050565b60006020820190508181036000830152611bff81611bc3565b9050919050565b7f5265656e7472616e742063616c6c2e0000000000000000000000000000000000600082015250565b6000611c3c600f83611729565b9150611c4782611c06565b602082019050919050565b60006020820190508181036000830152611c6b81611c2f565b9050919050565b7f4974206973206e6f74206120706f6f6c206d656d626572000000000000000000600082015250565b6000611ca8601783611729565b9150611cb382611c72565b602082019050919050565b60006020820190508181036000830152611cd781611c9b565b9050919050565b7f4e487b7100000000000000000000000000000000000000000000000000000000600052603260045260246000fd5b7f4e487b7100000000000000000000000000000000000000000000000000000000600052601160045260246000fd5b6000611d478261180b565b9150611d528361180b565b9250827fffffffffffffffffffffffffffffffffffffffffffffffffffffffffffffffff03821115611d8757611d86611d0d565b5b828201905092915050565b7f54686520636c61696d2063616e27742062652070726f6365737365642062656360008201527f6175736520746865206d656d626572206861732065786365656465642069747360208201527f206d6178696d756d20636f766572616765000000000000000000000000000000604082015250565b6000611e14605183611729565b9150611e1f82611d92565b606082019050919050565b60006020820190508181036000830152611e4381611e07565b9050919050565b7f4974206973206e6f742074686520706f6f6c206d616e61676572000000000000600082015250565b6000611e80601a83611729565b9150611e8b82611e4a565b602082019050919050565b60006020820190508181036000830152611eaf81611e73565b9050919050565b7f54686520706f6f6c20737461747573206973206e6f7420696e69746961746564600082015250565b6000611eec602083611729565b9150611ef782611eb6565b602082019050919050565b60006020820190508181036000830152611f1b81611edf565b9050919050565b6000611f2d8261180b565b91507fffffffffffffffffffffffffffffffffffffffffffffffffffffffffffffffff821415611f6057611f5f611d0d565b5b600182019050919050565b7f4d656d62657220616c7265616479206a6f696e6564207468697320706f6f6c00600082015250565b6000611fa1601f83611729565b9150611fac82611f6b565b602082019050919050565b60006020820190508181036000830152611fd081611f94565b9050919050565b6000611fe28261180b565b9150611fed8361180b565b92508282101561200057611fff611d0d565b5b828203905092915050565b7f4e6f74206120706f6f6c206d656d626572000000000000000000000000000000600082015250565b6000612041601183611729565b915061204c8261200b565b602082019050919050565b6000602082019050818103600083015261207081612034565b9050919050565b7f4e6f20617661696c61626c652062616c616e6365000000000000000000000000600082015250565b60006120ad601483611729565b91506120b882612077565b602082019050919050565b600060208201905081810360008301526120dc816120a0565b9050919050565b600081905092915050565b50565b60006120fe6000836120e3565b9150612109826120ee565b600082019050919050565b600061211f826120f1565b9150819050919050565b7f5472616e73666572206661696c65640000000000000000000000000000000000600082015250565b600061215f600f83611729565b915061216a82612129565b602082019050919050565b6000602082019050818103600083015261218e81612152565b9050919050565b7f4e487b7100000000000000000000000000000000000000000000000000000000600052601260045260246000fd5b60006121cf8261180b565b91506121da8361180b565b9250826121ea576121e9612195565b5b828204905092915050565b7f4e6f74206120706f6f6c206d656d626572206f7220686520697320746865207060008201527f6f6f6c206d616e61676572000000000000000000000000000000000000000000602082015250565b6000612251602b83611729565b915061225c826121f5565b604082019050919050565b6000602082019050818103600083015261228081612244565b9050919050565b7f4e487b7100000000000000000000000000000000000000000000000000000000600052603160045260246000fdfea2646970667358221220f4d234a85b270c3119cc79af39b51af3a278a858b26bbdb5fbf1ff3837a87b9a64736f6c634300080a0033a26469706673582212200294c07675af25d5161e7049dd1f29f5a12d18f10d3555c1d176440361411aa364736f6c634300080a0033",
  "immutableReferences": {
    "804": [
      {
        "length": 32,
        "start": 2760
      }
    ]
  },
  "source": "// SPDX-License-Identifier: MIT\npragma solidity 0.8.10;\n\nimport \"./InsurancePool.sol\";\n\n// @title P2P insurance through creating insurance pools\n// @author Houmam Homsi\n// @notice using the factory design pattern: P2P_Insurance (the factory) that creates objects/smart contracts(InsurancePool)\n// @dev Using wei as the payment unit (eth unit at the frontend level)\n// @custom: This is an MVP contract.\ncontract P2P_Insurance {\n    \n    address public immutable owner; //owner = platform\n    uint public poolCount =0;\n    InsurancePool[] pools;\n    //mapping(address => InsurancePool) public pools; // The pool address is the bridge between frontend and backend\n\n    function getPools() public view returns (InsurancePool[] memory)\n    {\n        return pools;\n    }\n    \n    modifier onlyOwner(){\n        require (msg.sender == owner,\"It is not the contract owner\");\n        _;\n    }\n\n    modifier enoughPremiumPaid (uint _premium, uint _value) {\n        require (_value >= _premium,\"The amount paid is less than the pool premium\");\n        _;\n    }\n\n    modifier notFinishedOrCanceledPool (uint _poolId) {\n        require (pools[_poolId].status() == InsurancePool.PoolStatus.Initiated || pools[_poolId].status() == InsurancePool.PoolStatus.Active,\n        \"The pool status is either finished or canceled\");\n        _;\n    }\n\n    //Register Events\n    event poolCreated (address indexed _memberAddress, string _message);\n    event memberJoined (address indexed _memberAddress, string _message);\n    event poolActivated (uint indexed _poolId, string _message);\n    event poolFinished (address indexed _memberAddress, string _message);\n    event poolCanceled (address indexed _memberAddress, string _message);\n    event memberUnsubscibed (address indexed _memberAddress, string _message);\n    event claimRequested (address indexed _memberAddress, string _message);\n    event balanceWithdrawed (address indexed _memberAddress, string _message);\n\n    event fallbackReceived(address sender, string message);\n\n    constructor () \n    {\n        owner = msg.sender;\n    }\n\n    function getPoolDetails(uint _poolId) public view \n    returns (address _poolAddress,uint _minMembers,uint _premium,uint _maxCoverage,uint _status,uint _startDate,uint _poolBalance, uint _poolFund,uint _memberCount)\n    {\n        _poolAddress = pools[_poolId].getPoolAddress();\n        _minMembers = pools[_poolId].minNumberOfMembers();\n        _premium = pools[_poolId].premium();\n        _maxCoverage = pools[_poolId].maxCoveragePerMember();\n        _status = uint(pools[_poolId].status());\n        _startDate = pools[_poolId].policyStartDate();\n        _poolBalance = pools[_poolId].getPoolTotalBalance();\n        _poolFund = pools[_poolId].getPoolAvailableBalance();\n        _memberCount = pools[_poolId].getMembersCount();              \n    }\n\n    function getMemberDetails(uint _poolId, address _memberAddress) public view \n    returns (int _poolMemberId , uint _balance, uint _totalClaims, uint _remainingCoverage )\n    {\n        return pools[_poolId].getMemberDetails(_memberAddress);\n    }\n\n    //Anyone can create a new pool that is open for other members to join'.\n    // each pool has a unique contract address as an escrew account for that specific pool.\n    function createNewPool(uint _minNumberOfMembers, uint _premium, uint _maxCoveragePerMember) public payable enoughPremiumPaid(_premium, msg.value)\n    {\n        uint _value = msg.value;\n        address _memberAddress = msg.sender;\n\n        // create a new pool instance\n        InsurancePool pool = new InsurancePool();\n        // create a new pool and transfer the premim to the pool contract\n        if (pool.createPool {value: _value}(_memberAddress,_minNumberOfMembers,_premium,_maxCoveragePerMember))\n        {\n            pools.push(pool);\n            poolCount ++;\n            emit poolCreated (_memberAddress, \"The pool is sucessfully created!\");\n        }\n    } \n\n    // User can join an address and pay the premium, as a result he becomes a pool member\n    function joinPool(uint _poolId) public payable notFinishedOrCanceledPool(_poolId) enoughPremiumPaid(pools[_poolId].premium(), msg.value)\n    {\n        address _memberAddress = msg.sender;\n        (bool isJoined , bool isPoolActivated)  = pools[_poolId].joinPool{value: msg.value}(_memberAddress);\n        if (isJoined)\n            emit memberJoined (_memberAddress, \"The member has joined the pool sucessfully!\");\n        if (isPoolActivated)\n            emit poolActivated (_poolId, \"The pool is sucessfully activated!\");\n    }\n\n    //Only the pool manager can cancel a pool if it is still in the initiated status - as example, for long time the pool not reaches the minimum requirements to be activated\n    function cancelPool (uint _poolId) public\n    {\n        address _memberAddress = msg.sender;\n        if (pools[_poolId].cancelPool(_memberAddress))\n            emit poolCanceled (_memberAddress, \"The pool is sucessfully canceled!\");\n    }\n\n    // the pool is finshed once the policy expired after one year since activation (UI/Frontend validation)\n    // Only the pool manager has the right to call this function\n    function finshPool (uint _poolId) public\n    {\n        address _memberAddress = msg.sender;\n        if( pools[_poolId].finishPool(_memberAddress))\n            emit poolFinished (_memberAddress, \"The pool is sucessfully finished!\");\n        //do we need to empty the pool? I think No, because we need to have the pool history onchain for transparency\n        //In future, we can offer to renew the pool once policy is expired\n    }\n\n    // member can cancel his subscription in a specific pool as long as the pool is not activated. \n    //The pool will refund the premium to his balance\n    function cancelMembershipBeforPoolActivation (uint _poolId) public\n    {\n        address _memberAddress = msg.sender;\n        if (pools[_poolId].cancelSubscription(_memberAddress))\n            emit memberUnsubscibed (_memberAddress, \"The member has unsubscibed from the pool sucessfully!\");\n    }\n\n    /* There should be an eligibility process in place to validate the claims' reqests, \n       but this will not be developed in the current project.\n       At this project(MVP), we consider the claim request is eligible and approved by majority of pool members\n    */ \n    function requestClaim(uint _poolId, uint _claimAmount) public\n    {\n        address _memberAddress = msg.sender;\n        if (pools[_poolId].requestClaim(_memberAddress, _claimAmount))\n            emit claimRequested (_memberAddress, \"The request claim has processed sucessfully!\");\n    } \n\n    // member can withdraw his avialable balance (in case of cancelation, refund , etc.)\n    function withdrawBalance(uint _poolId) public\n    {\n        address _memberAddress = msg.sender;\n        if (pools[_poolId].withdrawBalance(_memberAddress))\n            emit balanceWithdrawed (_memberAddress, \"The balance withdrawal has processed sucessfully!\");\n    }\n\n    //fall back function \n    //it is not payable - not accepting to receive plain ether and this will raise an exception!    \n    fallback() external  {\n        emit fallbackReceived(msg.sender,\"P2P_Insurance Fallback was called\");\n    }\n}\n",
  "sourcePath": "/mnt/c/Users/pc1/projects/blockchain-developer-bootcamp-final-project/contracts/P2P_Insurance.sol",
  "compiler": {
    "name": "solc",
    "version": "0.8.10+commit.fc410830.Emscripten.clang"
  },
  "schemaVersion": "3.4.2",
  "updatedAt": "2021-12-13T23:21:15.047Z",
  "devdoc": {
    "kind": "dev",
    "methods": {},
    "version": 1
  },
  "userdoc": {
    "kind": "user",
    "methods": {},
    "version": 1
  }
}