{
  "contractName": "P2P_Insurance",
  "abi": [
    {
      "inputs": [],
      "stateMutability": "nonpayable",
      "type": "constructor"
    },
    {
      "anonymous": false,
      "inputs": [
        {
          "indexed": true,
          "internalType": "address",
          "name": "_memberAddress",
          "type": "address"
        },
        {
          "indexed": false,
          "internalType": "string",
          "name": "_message",
          "type": "string"
        }
      ],
      "name": "balanceWithdrawed",
      "type": "event"
    },
    {
      "anonymous": false,
      "inputs": [
        {
          "indexed": true,
          "internalType": "address",
          "name": "_memberAddress",
          "type": "address"
        },
        {
          "indexed": false,
          "internalType": "string",
          "name": "_message",
          "type": "string"
        }
      ],
      "name": "claimRequested",
      "type": "event"
    },
    {
      "anonymous": false,
      "inputs": [
        {
          "indexed": false,
          "internalType": "address",
          "name": "sender",
          "type": "address"
        },
        {
          "indexed": false,
          "internalType": "string",
          "name": "message",
          "type": "string"
        }
      ],
      "name": "fallbackReceived",
      "type": "event"
    },
    {
      "anonymous": false,
      "inputs": [
        {
          "indexed": true,
          "internalType": "address",
          "name": "_memberAddress",
          "type": "address"
        },
        {
          "indexed": false,
          "internalType": "string",
          "name": "_message",
          "type": "string"
        }
      ],
      "name": "memberJoined",
      "type": "event"
    },
    {
      "anonymous": false,
      "inputs": [
        {
          "indexed": true,
          "internalType": "address",
          "name": "_memberAddress",
          "type": "address"
        },
        {
          "indexed": false,
          "internalType": "string",
          "name": "_message",
          "type": "string"
        }
      ],
      "name": "memberUnsubscibed",
      "type": "event"
    },
    {
      "anonymous": false,
      "inputs": [
        {
          "indexed": true,
          "internalType": "uint256",
          "name": "_poolId",
          "type": "uint256"
        },
        {
          "indexed": false,
          "internalType": "string",
          "name": "_message",
          "type": "string"
        }
      ],
      "name": "poolActivated",
      "type": "event"
    },
    {
      "anonymous": false,
      "inputs": [
        {
          "indexed": true,
          "internalType": "address",
          "name": "_memberAddress",
          "type": "address"
        },
        {
          "indexed": false,
          "internalType": "string",
          "name": "_message",
          "type": "string"
        }
      ],
      "name": "poolCanceled",
      "type": "event"
    },
    {
      "anonymous": false,
      "inputs": [
        {
          "indexed": true,
          "internalType": "address",
          "name": "_memberAddress",
          "type": "address"
        },
        {
          "indexed": false,
          "internalType": "string",
          "name": "_message",
          "type": "string"
        }
      ],
      "name": "poolCreated",
      "type": "event"
    },
    {
      "anonymous": false,
      "inputs": [
        {
          "indexed": true,
          "internalType": "address",
          "name": "_memberAddress",
          "type": "address"
        },
        {
          "indexed": false,
          "internalType": "string",
          "name": "_message",
          "type": "string"
        }
      ],
      "name": "poolFinished",
      "type": "event"
    },
    {
      "stateMutability": "nonpayable",
      "type": "fallback"
    },
    {
      "inputs": [],
      "name": "owner",
      "outputs": [
        {
          "internalType": "address",
          "name": "",
          "type": "address"
        }
      ],
      "stateMutability": "view",
      "type": "function",
      "constant": true
    },
    {
      "inputs": [],
      "name": "poolCount",
      "outputs": [
        {
          "internalType": "uint256",
          "name": "",
          "type": "uint256"
        }
      ],
      "stateMutability": "view",
      "type": "function",
      "constant": true
    },
    {
      "inputs": [],
      "name": "getPools",
      "outputs": [
        {
          "internalType": "contract InsurancePool[]",
          "name": "",
          "type": "address[]"
        }
      ],
      "stateMutability": "view",
      "type": "function",
      "constant": true
    },
    {
      "inputs": [
        {
          "internalType": "uint256",
          "name": "_poolId",
          "type": "uint256"
        }
      ],
      "name": "getPoolDetails",
      "outputs": [
        {
          "internalType": "address",
          "name": "_poolAddress",
          "type": "address"
        },
        {
          "internalType": "uint256",
          "name": "_minMembers",
          "type": "uint256"
        },
        {
          "internalType": "uint256",
          "name": "_premium",
          "type": "uint256"
        },
        {
          "internalType": "uint256",
          "name": "_maxCoverage",
          "type": "uint256"
        },
        {
          "internalType": "uint256",
          "name": "_status",
          "type": "uint256"
        },
        {
          "internalType": "uint256",
          "name": "_startDate",
          "type": "uint256"
        },
        {
          "internalType": "uint256",
          "name": "_poolFund",
          "type": "uint256"
        },
        {
          "internalType": "uint256",
          "name": "_memberCount",
          "type": "uint256"
        }
      ],
      "stateMutability": "view",
      "type": "function",
      "constant": true
    },
    {
      "inputs": [
        {
          "internalType": "uint256",
          "name": "_poolId",
          "type": "uint256"
        },
        {
          "internalType": "address",
          "name": "_memberAddress",
          "type": "address"
        }
      ],
      "name": "getMemberDetails",
      "outputs": [
        {
          "internalType": "int256",
          "name": "_poolMemberId",
          "type": "int256"
        },
        {
          "internalType": "uint256",
          "name": "_balance",
          "type": "uint256"
        },
        {
          "internalType": "uint256",
          "name": "_totalClaims",
          "type": "uint256"
        },
        {
          "internalType": "uint256",
          "name": "_remainingCoverage",
          "type": "uint256"
        }
      ],
      "stateMutability": "view",
      "type": "function",
      "constant": true
    },
    {
      "inputs": [
        {
          "internalType": "uint256",
          "name": "_minNumberOfMembers",
          "type": "uint256"
        },
        {
          "internalType": "uint256",
          "name": "_premium",
          "type": "uint256"
        },
        {
          "internalType": "uint256",
          "name": "_maxCoveragePerMember",
          "type": "uint256"
        }
      ],
      "name": "createNewPool",
      "outputs": [],
      "stateMutability": "payable",
      "type": "function",
      "payable": true
    },
    {
      "inputs": [
        {
          "internalType": "uint256",
          "name": "_poolId",
          "type": "uint256"
        }
      ],
      "name": "joinPool",
      "outputs": [],
      "stateMutability": "payable",
      "type": "function",
      "payable": true
    },
    {
      "inputs": [
        {
          "internalType": "uint256",
          "name": "_poolId",
          "type": "uint256"
        }
      ],
      "name": "cancelPool",
      "outputs": [],
      "stateMutability": "nonpayable",
      "type": "function"
    },
    {
      "inputs": [
        {
          "internalType": "uint256",
          "name": "_poolId",
          "type": "uint256"
        }
      ],
      "name": "finshPool",
      "outputs": [],
      "stateMutability": "nonpayable",
      "type": "function"
    },
    {
      "inputs": [
        {
          "internalType": "uint256",
          "name": "_poolId",
          "type": "uint256"
        }
      ],
      "name": "cancelMembershipBeforPoolActivation",
      "outputs": [],
      "stateMutability": "nonpayable",
      "type": "function"
    },
    {
      "inputs": [
        {
          "internalType": "uint256",
          "name": "_poolId",
          "type": "uint256"
        },
        {
          "internalType": "uint256",
          "name": "_claimAmount",
          "type": "uint256"
        }
      ],
      "name": "requestClaim",
      "outputs": [],
      "stateMutability": "nonpayable",
      "type": "function"
    },
    {
      "inputs": [
        {
          "internalType": "uint256",
          "name": "_poolId",
          "type": "uint256"
        }
      ],
      "name": "withdrawBalance",
      "outputs": [],
      "stateMutability": "nonpayable",
      "type": "function"
    }
  ],
  "bytecode": "0x60a06040526000805534801561001457600080fd5b503373ffffffffffffffffffffffffffffffffffffffff1660808173ffffffffffffffffffffffffffffffffffffffff16815250506080516148156100646000396000610ac701526148156000f3fe6080604052600436106100ab5760003560e01c8063b8764c3911610064578063b8764c39146101f6578063d31903771461023a578063d60b909114610263578063da1d38371461027f578063da76d5cd146102a8578063f525cb68146102d1576100ac565b806334e7a19f146100f257806346a168901461010e578063673a2a1f14610137578063692fea0414610162578063827c7889146101a25780638da5cb5b146101cb576100ac565b5b3480156100b857600080fd5b507f2402f2b60dce6d6a9da700a348a123aac12db0c50649200b5970ead86df8805c336040516100e89190611675565b60405180910390a1005b61010c600480360381019061010791906116de565b6102fc565b005b34801561011a57600080fd5b506101356004803603810190610130919061170b565b61073b565b005b34801561014357600080fd5b5061014c610853565b6040516101599190611859565b60405180910390f35b34801561016e57600080fd5b50610189600480360381019061018491906118a7565b6108e1565b604051610199949392919061190f565b60405180910390f35b3480156101ae57600080fd5b506101c960048036038101906101c491906116de565b6109b0565b005b3480156101d757600080fd5b506101e0610ac5565b6040516101ed9190611954565b60405180910390f35b34801561020257600080fd5b5061021d600480360381019061021891906116de565b610ae9565b60405161023198979695949392919061196f565b60405180910390f35b34801561024657600080fd5b50610261600480360381019061025c91906116de565b61108a565b005b61027d600480360381019061027891906119ed565b61119f565b005b34801561028b57600080fd5b506102a660048036038101906102a191906116de565b611374565b005b3480156102b457600080fd5b506102cf60048036038101906102ca91906116de565b611489565b005b3480156102dd57600080fd5b506102e661159e565b6040516102f39190611a40565b60405180910390f35b806000600381111561031157610310611a5b565b5b6001828154811061032557610324611a8a565b5b9060005260206000200160009054906101000a900473ffffffffffffffffffffffffffffffffffffffff1673ffffffffffffffffffffffffffffffffffffffff1663200d2ed26040518163ffffffff1660e01b8152600401602060405180830381865afa15801561039a573d6000803e3d6000fd5b505050506040513d601f19601f820116820180604052508101906103be9190611ade565b60038111156103d0576103cf611a5b565b5b14806104ac5750600160038111156103eb576103ea611a5b565b5b600182815481106103ff576103fe611a8a565b5b9060005260206000200160009054906101000a900473ffffffffffffffffffffffffffffffffffffffff1673ffffffffffffffffffffffffffffffffffffffff1663200d2ed26040518163ffffffff1660e01b8152600401602060405180830381865afa158015610474573d6000803e3d6000fd5b505050506040513d601f19601f820116820180604052508101906104989190611ade565b60038111156104aa576104a9611a5b565b5b145b6104eb576040517f08c379a00000000000000000000000000000000000000000000000000000000081526004016104e290611b7d565b60405180910390fd5b600182815481106104ff576104fe611a8a565b5b9060005260206000200160009054906101000a900473ffffffffffffffffffffffffffffffffffffffff1673ffffffffffffffffffffffffffffffffffffffff1663e0a73a936040518163ffffffff1660e01b8152600401602060405180830381865afa158015610574573d6000803e3d6000fd5b505050506040513d601f19601f820116820180604052508101906105989190611bb2565b34818110156105dc576040517f08c379a00000000000000000000000000000000000000000000000000000000081526004016105d390611c51565b60405180910390fd5b6000339050600080600187815481106105f8576105f7611a8a565b5b9060005260206000200160009054906101000a900473ffffffffffffffffffffffffffffffffffffffff1673ffffffffffffffffffffffffffffffffffffffff16631ae0e73d34856040518363ffffffff1660e01b815260040161065c9190611954565b604080518083038185885af1158015610679573d6000803e3d6000fd5b50505050506040513d601f19601f8201168201806040525081019061069e9190611ca9565b9150915081156106f5578273ffffffffffffffffffffffffffffffffffffffff167f4a625b2512d1a4aeea70b22874a9dcf0282ad161add40ade3741d889a32f3e616040516106ec90611d5b565b60405180910390a25b801561073257867f29e136fc8b732ea6b179532a84a68848f6f14d6f0c0dce8922db98c2739d198460405161072990611ded565b60405180910390a25b50505050505050565b60003390506001838154811061075457610753611a8a565b5b9060005260206000200160009054906101000a900473ffffffffffffffffffffffffffffffffffffffff1673ffffffffffffffffffffffffffffffffffffffff166301e51e9782846040518363ffffffff1660e01b81526004016107b9929190611e0d565b6020604051808303816000875af11580156107d8573d6000803e3d6000fd5b505050506040513d601f19601f820116820180604052508101906107fc9190611e36565b1561084e578073ffffffffffffffffffffffffffffffffffffffff167fd0440465579bd0f4fc1f5f5d5ce76014aadefb03b0541b240d20bb476816033c60405161084590611ed5565b60405180910390a25b505050565b606060018054806020026020016040519081016040528092919081815260200182805480156108d757602002820191906000526020600020905b8160009054906101000a900473ffffffffffffffffffffffffffffffffffffffff1673ffffffffffffffffffffffffffffffffffffffff168152602001906001019080831161088d575b5050505050905090565b600080600080600186815481106108fb576108fa611a8a565b5b9060005260206000200160009054906101000a900473ffffffffffffffffffffffffffffffffffffffff1673ffffffffffffffffffffffffffffffffffffffff166383fd0954866040518263ffffffff1660e01b815260040161095e9190611954565b608060405180830381865afa15801561097b573d6000803e3d6000fd5b505050506040513d601f19601f8201168201806040525081019061099f9190611f21565b935093509350935092959194509250565b6000339050600182815481106109c9576109c8611a8a565b5b9060005260206000200160009054906101000a900473ffffffffffffffffffffffffffffffffffffffff1673ffffffffffffffffffffffffffffffffffffffff16630b03bf2b826040518263ffffffff1660e01b8152600401610a2c9190611954565b6020604051808303816000875af1158015610a4b573d6000803e3d6000fd5b505050506040513d601f19601f82011682018060405250810190610a6f9190611e36565b15610ac1578073ffffffffffffffffffffffffffffffffffffffff167f3d8f0efe0ca5f23697984bd83ad21dfe056fe58d2a57df07deca3637272b5025604051610ab890611ffa565b60405180910390a25b5050565b7f000000000000000000000000000000000000000000000000000000000000000081565b60008060008060008060008060018981548110610b0957610b08611a8a565b5b9060005260206000200160009054906101000a900473ffffffffffffffffffffffffffffffffffffffff1673ffffffffffffffffffffffffffffffffffffffff1663f586c6d96040518163ffffffff1660e01b8152600401602060405180830381865afa158015610b7e573d6000803e3d6000fd5b505050506040513d601f19601f82011682018060405250810190610ba2919061202f565b975060018981548110610bb857610bb7611a8a565b5b9060005260206000200160009054906101000a900473ffffffffffffffffffffffffffffffffffffffff1673ffffffffffffffffffffffffffffffffffffffff166379f3378b6040518163ffffffff1660e01b8152600401602060405180830381865afa158015610c2d573d6000803e3d6000fd5b505050506040513d601f19601f82011682018060405250810190610c519190611bb2565b965060018981548110610c6757610c66611a8a565b5b9060005260206000200160009054906101000a900473ffffffffffffffffffffffffffffffffffffffff1673ffffffffffffffffffffffffffffffffffffffff1663e0a73a936040518163ffffffff1660e01b8152600401602060405180830381865afa158015610cdc573d6000803e3d6000fd5b505050506040513d601f19601f82011682018060405250810190610d009190611bb2565b955060018981548110610d1657610d15611a8a565b5b9060005260206000200160009054906101000a900473ffffffffffffffffffffffffffffffffffffffff1673ffffffffffffffffffffffffffffffffffffffff16638fab98b46040518163ffffffff1660e01b8152600401602060405180830381865afa158015610d8b573d6000803e3d6000fd5b505050506040513d601f19601f82011682018060405250810190610daf9190611bb2565b945060018981548110610dc557610dc4611a8a565b5b9060005260206000200160009054906101000a900473ffffffffffffffffffffffffffffffffffffffff1673ffffffffffffffffffffffffffffffffffffffff1663200d2ed26040518163ffffffff1660e01b8152600401602060405180830381865afa158015610e3a573d6000803e3d6000fd5b505050506040513d601f19601f82011682018060405250810190610e5e9190611ade565b6003811115610e7057610e6f611a5b565b5b935060018981548110610e8657610e85611a8a565b5b9060005260206000200160009054906101000a900473ffffffffffffffffffffffffffffffffffffffff1673ffffffffffffffffffffffffffffffffffffffff1663c5191d1a6040518163ffffffff1660e01b8152600401602060405180830381865afa158015610efb573d6000803e3d6000fd5b505050506040513d601f19601f82011682018060405250810190610f1f9190611bb2565b925060018981548110610f3557610f34611a8a565b5b9060005260206000200160009054906101000a900473ffffffffffffffffffffffffffffffffffffffff1673ffffffffffffffffffffffffffffffffffffffff166347cc63136040518163ffffffff1660e01b8152600401602060405180830381865afa158015610faa573d6000803e3d6000fd5b505050506040513d601f19601f82011682018060405250810190610fce9190611bb2565b915060018981548110610fe457610fe3611a8a565b5b9060005260206000200160009054906101000a900473ffffffffffffffffffffffffffffffffffffffff1673ffffffffffffffffffffffffffffffffffffffff166309772f8f6040518163ffffffff1660e01b8152600401602060405180830381865afa158015611059573d6000803e3d6000fd5b505050506040513d601f19601f8201168201806040525081019061107d9190611bb2565b9050919395975091939597565b6000339050600182815481106110a3576110a2611a8a565b5b9060005260206000200160009054906101000a900473ffffffffffffffffffffffffffffffffffffffff1673ffffffffffffffffffffffffffffffffffffffff166393d81d58826040518263ffffffff1660e01b81526004016111069190611954565b6020604051808303816000875af1158015611125573d6000803e3d6000fd5b505050506040513d601f19601f820116820180604052508101906111499190611e36565b1561119b578073ffffffffffffffffffffffffffffffffffffffff167fb450f87c0068c78ace429ed1c8955a2afda1a632f902da1d31682585be4221e3604051611192906120ce565b60405180910390a25b5050565b8134818110156111e4576040517f08c379a00000000000000000000000000000000000000000000000000000000081526004016111db90611c51565b60405180910390fd5b6000349050600033905060006040516111fc906115a4565b604051809103906000f080158015611218573d6000803e3d6000fd5b5090508073ffffffffffffffffffffffffffffffffffffffff1663922d3e4c84848b8b8b6040518663ffffffff1660e01b815260040161125b94939291906120ee565b60206040518083038185885af1158015611279573d6000803e3d6000fd5b50505050506040513d601f19601f8201168201806040525081019061129e9190611e36565b1561136a576001819080600181540180825580915050600190039060005260206000200160009091909190916101000a81548173ffffffffffffffffffffffffffffffffffffffff021916908373ffffffffffffffffffffffffffffffffffffffff16021790555060008081548092919061131890612162565b91905055508173ffffffffffffffffffffffffffffffffffffffff167ffa4a59b8aa09b742bb36a87fe8a648e4baebc604d2ecf6e67a78cd9bffc208b4604051611361906121f7565b60405180910390a25b5050505050505050565b60003390506001828154811061138d5761138c611a8a565b5b9060005260206000200160009054906101000a900473ffffffffffffffffffffffffffffffffffffffff1673ffffffffffffffffffffffffffffffffffffffff166388ff87c9826040518263ffffffff1660e01b81526004016113f09190611954565b6020604051808303816000875af115801561140f573d6000803e3d6000fd5b505050506040513d601f19601f820116820180604052508101906114339190611e36565b15611485578073ffffffffffffffffffffffffffffffffffffffff167f0efd4a0b4adef22fa97cb606c28a501074f708da44fc2b5f315169ce7815bd9c60405161147c90612289565b60405180910390a25b5050565b6000339050600182815481106114a2576114a1611a8a565b5b9060005260206000200160009054906101000a900473ffffffffffffffffffffffffffffffffffffffff1673ffffffffffffffffffffffffffffffffffffffff1663756af45f826040518263ffffffff1660e01b81526004016115059190611954565b6020604051808303816000875af1158015611524573d6000803e3d6000fd5b505050506040513d601f19601f820116820180604052508101906115489190611e36565b1561159a578073ffffffffffffffffffffffffffffffffffffffff167f122765aa23905334d2ed13f19b1a6bb226496ab19466a882970600fa4eb936626040516115919061231b565b60405180910390a25b5050565b60005481565b6124a48061233c83390190565b600073ffffffffffffffffffffffffffffffffffffffff82169050919050565b60006115dc826115b1565b9050919050565b6115ec816115d1565b82525050565b600082825260208201905092915050565b7f5032505f496e737572616e63652046616c6c6261636b207761732063616c6c6560008201527f6400000000000000000000000000000000000000000000000000000000000000602082015250565b600061165f6021836115f2565b915061166a82611603565b604082019050919050565b600060408201905061168a60008301846115e3565b818103602083015261169b81611652565b905092915050565b600080fd5b6000819050919050565b6116bb816116a8565b81146116c657600080fd5b50565b6000813590506116d8816116b2565b92915050565b6000602082840312156116f4576116f36116a3565b5b6000611702848285016116c9565b91505092915050565b60008060408385031215611722576117216116a3565b5b6000611730858286016116c9565b9250506020611741858286016116c9565b9150509250929050565b600081519050919050565b600082825260208201905092915050565b6000819050602082019050919050565b6000819050919050565b600061179c611797611792846115b1565b611777565b6115b1565b9050919050565b60006117ae82611781565b9050919050565b60006117c0826117a3565b9050919050565b6117d0816117b5565b82525050565b60006117e283836117c7565b60208301905092915050565b6000602082019050919050565b60006118068261174b565b6118108185611756565b935061181b83611767565b8060005b8381101561184c57815161183388826117d6565b975061183e836117ee565b92505060018101905061181f565b5085935050505092915050565b6000602082019050818103600083015261187381846117fb565b905092915050565b611884816115d1565b811461188f57600080fd5b50565b6000813590506118a18161187b565b92915050565b600080604083850312156118be576118bd6116a3565b5b60006118cc858286016116c9565b92505060206118dd85828601611892565b9150509250929050565b6000819050919050565b6118fa816118e7565b82525050565b611909816116a8565b82525050565b600060808201905061192460008301876118f1565b6119316020830186611900565b61193e6040830185611900565b61194b6060830184611900565b95945050505050565b600060208201905061196960008301846115e3565b92915050565b600061010082019050611985600083018b6115e3565b611992602083018a611900565b61199f6040830189611900565b6119ac6060830188611900565b6119b96080830187611900565b6119c660a0830186611900565b6119d360c0830185611900565b6119e060e0830184611900565b9998505050505050505050565b600080600060608486031215611a0657611a056116a3565b5b6000611a14868287016116c9565b9350506020611a25868287016116c9565b9250506040611a36868287016116c9565b9150509250925092565b6000602082019050611a556000830184611900565b92915050565b7f4e487b7100000000000000000000000000000000000000000000000000000000600052602160045260246000fd5b7f4e487b7100000000000000000000000000000000000000000000000000000000600052603260045260246000fd5b60048110611ac657600080fd5b50565b600081519050611ad881611ab9565b92915050565b600060208284031215611af457611af36116a3565b5b6000611b0284828501611ac9565b91505092915050565b7f54686520706f6f6c20737461747573206973206569746865722066696e69736860008201527f6564206f722063616e63656c6564000000000000000000000000000000000000602082015250565b6000611b67602e836115f2565b9150611b7282611b0b565b604082019050919050565b60006020820190508181036000830152611b9681611b5a565b9050919050565b600081519050611bac816116b2565b92915050565b600060208284031215611bc857611bc76116a3565b5b6000611bd684828501611b9d565b91505092915050565b7f54686520616d6f756e742070616964206973206c657373207468616e2074686560008201527f20706f6f6c207072656d69756d00000000000000000000000000000000000000602082015250565b6000611c3b602d836115f2565b9150611c4682611bdf565b604082019050919050565b60006020820190508181036000830152611c6a81611c2e565b9050919050565b60008115159050919050565b611c8681611c71565b8114611c9157600080fd5b50565b600081519050611ca381611c7d565b92915050565b60008060408385031215611cc057611cbf6116a3565b5b6000611cce85828601611c94565b9250506020611cdf85828601611c94565b9150509250929050565b7f546865206d656d62657220686173206a6f696e65642074686520706f6f6c207360008201527f756365737366756c6c7921000000000000000000000000000000000000000000602082015250565b6000611d45602b836115f2565b9150611d5082611ce9565b604082019050919050565b60006020820190508181036000830152611d7481611d38565b9050919050565b7f54686520706f6f6c2069732073756365737366756c6c7920616374697661746560008201527f6421000000000000000000000000000000000000000000000000000000000000602082015250565b6000611dd76022836115f2565b9150611de282611d7b565b604082019050919050565b60006020820190508181036000830152611e0681611dca565b9050919050565b6000604082019050611e2260008301856115e3565b611e2f6020830184611900565b9392505050565b600060208284031215611e4c57611e4b6116a3565b5b6000611e5a84828501611c94565b91505092915050565b7f546865207265717565737420636c61696d206861732070726f6365737365642060008201527f73756365737366756c6c79210000000000000000000000000000000000000000602082015250565b6000611ebf602c836115f2565b9150611eca82611e63565b604082019050919050565b60006020820190508181036000830152611eee81611eb2565b9050919050565b611efe816118e7565b8114611f0957600080fd5b50565b600081519050611f1b81611ef5565b92915050565b60008060008060808587031215611f3b57611f3a6116a3565b5b6000611f4987828801611f0c565b9450506020611f5a87828801611b9d565b9350506040611f6b87828801611b9d565b9250506060611f7c87828801611b9d565b91505092959194509250565b7f54686520706f6f6c2069732073756365737366756c6c792063616e63656c656460008201527f2100000000000000000000000000000000000000000000000000000000000000602082015250565b6000611fe46021836115f2565b9150611fef82611f88565b604082019050919050565b6000602082019050818103600083015261201381611fd7565b9050919050565b6000815190506120298161187b565b92915050565b600060208284031215612045576120446116a3565b5b60006120538482850161201a565b91505092915050565b7f546865206d656d6265722068617320756e7375627363696265642066726f6d2060008201527f74686520706f6f6c2073756365737366756c6c79210000000000000000000000602082015250565b60006120b86035836115f2565b91506120c38261205c565b604082019050919050565b600060208201905081810360008301526120e7816120ab565b9050919050565b600060808201905061210360008301876115e3565b6121106020830186611900565b61211d6040830185611900565b61212a6060830184611900565b95945050505050565b7f4e487b7100000000000000000000000000000000000000000000000000000000600052601160045260246000fd5b600061216d826116a8565b91507fffffffffffffffffffffffffffffffffffffffffffffffffffffffffffffffff8214156121a05761219f612133565b5b600182019050919050565b7f54686520706f6f6c2069732073756365737366756c6c79206372656174656421600082015250565b60006121e16020836115f2565b91506121ec826121ab565b602082019050919050565b60006020820190508181036000830152612210816121d4565b9050919050565b7f54686520706f6f6c2069732073756365737366756c6c792066696e697368656460008201527f2100000000000000000000000000000000000000000000000000000000000000602082015250565b60006122736021836115f2565b915061227e82612217565b604082019050919050565b600060208201905081810360008301526122a281612266565b9050919050565b7f5468652062616c616e6365207769746864726177616c206861732070726f636560008201527f737365642073756365737366756c6c7921000000000000000000000000000000602082015250565b60006123056031836115f2565b9150612310826122a9565b604082019050919050565b60006020820190508181036000830152612334816122f8565b905091905056fe608060405234801561001057600080fd5b50612484806100206000396000f3fe60806040526004361061010d5760003560e01c806379f3378b11610095578063922d3e4c11610064578063922d3e4c146103fa57806393d81d581461042a578063c5191d1a14610467578063e0a73a9314610492578063f586c6d9146104bd5761010e565b806379f3378b1461032757806383fd09541461035257806388ff87c9146103925780638fab98b4146103cf5761010e565b80631ae0e73d116100dc5780631ae0e73d14610224578063200d2ed21461025557806347cc6313146102805780635daf08ca146102ab578063756af45f146102ea5761010e565b806301e51e971461015457806309772f8f146101915780630b03bf2b146101bc5780630dc07a3e146101f95761010e565b5b34801561011a57600080fd5b507f2402f2b60dce6d6a9da700a348a123aac12db0c50649200b5970ead86df8805c3360405161014a91906118a9565b60405180910390a1005b34801561016057600080fd5b5061017b6004803603810190610176919061193e565b6104e8565b6040516101889190611999565b60405180910390f35b34801561019d57600080fd5b506101a661078b565b6040516101b391906119c3565b60405180910390f35b3480156101c857600080fd5b506101e360048036038101906101de91906119de565b610798565b6040516101f09190611999565b60405180910390f35b34801561020557600080fd5b5061020e61095c565b60405161021b91906119c3565b60405180910390f35b61023e600480360381019061023991906119de565b610964565b60405161024c929190611a0b565b60405180910390f35b34801561026157600080fd5b5061026a610ae2565b6040516102779190611aab565b60405180910390f35b34801561028c57600080fd5b50610295610af5565b6040516102a291906119c3565b60405180910390f35b3480156102b757600080fd5b506102d260048036038101906102cd9190611ac6565b610b6c565b6040516102e193929190611b14565b60405180910390f35b3480156102f657600080fd5b50610311600480360381019061030c91906119de565b610bc6565b60405161031e9190611999565b60405180910390f35b34801561033357600080fd5b5061033c610e49565b60405161034991906119c3565b60405180910390f35b34801561035e57600080fd5b50610379600480360381019061037491906119de565b610e4f565b6040516103899493929190611b64565b60405180910390f35b34801561039e57600080fd5b506103b960048036038101906103b491906119de565b610f2e565b6040516103c69190611999565b60405180910390f35b3480156103db57600080fd5b506103e461111d565b6040516103f191906119c3565b60405180910390f35b610414600480360381019061040f9190611ba9565b611123565b6040516104219190611999565b60405180910390f35b34801561043657600080fd5b50610451600480360381019061044c91906119de565b61125b565b60405161045e9190611999565b60405180910390f35b34801561047357600080fd5b5061047c61157b565b60405161048991906119c3565b60405180910390f35b34801561049e57600080fd5b506104a7611581565b6040516104b491906119c3565b60405180910390f35b3480156104c957600080fd5b506104d2611587565b6040516104df9190611c10565b60405180910390f35b6000600160038111156104fe576104fd611a34565b5b600560009054906101000a900460ff1660038111156105205761051f611a34565b5b14610560576040517f08c379a000000000000000000000000000000000000000000000000000000000815260040161055790611c77565b60405180910390fd5b818061056a610af5565b10156105ab576040517f08c379a00000000000000000000000000000000000000000000000000000000081526004016105a290611ce3565b60405180910390fd5b60008054906101000a900460ff16156105f9576040517f08c379a00000000000000000000000000000000000000000000000000000000081526004016105f090611d4f565b60405180910390fd5b60016000806101000a81548160ff021916908315150217905550600061061e8561158f565b90506000811215610664576040517f08c379a000000000000000000000000000000000000000000000000000000000815260040161065b90611dbb565b60405180910390fd5b60006001828154811061067a57610679611ddb565b5b9060005260206000209060030201905060045485826002015461069d9190611e39565b11156106de576040517f08c379a00000000000000000000000000000000000000000000000000000000081526004016106d590611f27565b60405180910390fd5b848160020160008282546106f29190611e39565b925050819055508060000160009054906101000a900473ffffffffffffffffffffffffffffffffffffffff1673ffffffffffffffffffffffffffffffffffffffff166108fc869081150290604051600060405180830381858888f19350505050158015610763573d6000803e3d6000fd5b5060019350505060008060006101000a81548160ff0219169083151502179055505092915050565b6000600180549050905090565b60008160016000815481106107b0576107af611ddb565b5b906000526020600020906003020160000160009054906101000a900473ffffffffffffffffffffffffffffffffffffffff1673ffffffffffffffffffffffffffffffffffffffff168173ffffffffffffffffffffffffffffffffffffffff161461084f576040517f08c379a000000000000000000000000000000000000000000000000000000000815260040161084690611f93565b60405180910390fd5b6000600381111561086357610862611a34565b5b600560009054906101000a900460ff16600381111561088557610884611a34565b5b146108c5576040517f08c379a00000000000000000000000000000000000000000000000000000000081526004016108bc90611fff565b60405180910390fd5b6003600560006101000a81548160ff021916908360038111156108eb576108ea611a34565b5b021790555060005b600180549050811015610951576003546001828154811061091757610916611ddb565b5b906000526020600020906003020160010160008282546109379190611e39565b9250508190555080806109499061201f565b9150506108f3565b506001915050919050565b600047905090565b6000807fffffffffffffffffffffffffffffffffffffffffffffffffffffffffffffffff6109918461158f565b146109d1576040517f08c379a00000000000000000000000000000000000000000000000000000000081526004016109c8906120b4565b60405180910390fd5b6109d96117ae565b83816000019073ffffffffffffffffffffffffffffffffffffffff16908173ffffffffffffffffffffffffffffffffffffffff1681525050600081604001818152505060035434610a2a91906120d4565b816020018181525050600181908060018154018082558091505060019003906000526020600020906003020160009091909190915060008201518160000160006101000a81548173ffffffffffffffffffffffffffffffffffffffff021916908373ffffffffffffffffffffffffffffffffffffffff16021790555060208201518160010155604082015181600201555050600192506002546001805490501415610adc57610ad761165e565b600191505b50915091565b600560009054906101000a900460ff1681565b6000806000905060005b600180549050811015610b525760018181548110610b2057610b1f611ddb565b5b90600052602060002090600302016001015482610b3d9190611e39565b91508080610b4a9061201f565b915050610aff565b5080610b5c61095c565b610b6691906120d4565b91505090565b60018181548110610b7c57600080fd5b90600052602060002090600302016000915090508060000160009054906101000a900473ffffffffffffffffffffffffffffffffffffffff16908060010154908060020154905083565b60008060009054906101000a900460ff1615610c17576040517f08c379a0000000000000000000000000000000000000000000000000000000008152600401610c0e90611d4f565b60405180910390fd5b60016000806101000a81548160ff0219169083151502179055506000610c3c8361158f565b90506000811215610c82576040517f08c379a0000000000000000000000000000000000000000000000000000000008152600401610c7990612154565b60405180910390fd5b6000819050600060018281548110610c9d57610c9c611ddb565b5b906000526020600020906003020160010154905060008111610cf4576040517f08c379a0000000000000000000000000000000000000000000000000000000008152600401610ceb906121c0565b60405180910390fd5b600060018381548110610d0a57610d09611ddb565b5b90600052602060002090600302016001018190555060008573ffffffffffffffffffffffffffffffffffffffff1682604051610d4590612211565b60006040518083038185875af1925050503d8060008114610d82576040519150601f19603f3d011682016040523d82523d6000602084013e610d87565b606091505b5050905080610dcb576040517f08c379a0000000000000000000000000000000000000000000000000000000008152600401610dc290612272565b60405180910390fd5b600380811115610dde57610ddd611a34565b5b600560009054906101000a900460ff166003811115610e0057610dff611a34565b5b148015610e1457506000610e1261095c565b145b15610e2257610e21611708565b5b600194505050505060008060006101000a81548160ff021916908315150217905550919050565b60025481565b600080600080610e5e8561158f565b935060008412610f2757600060018581548110610e7e57610e7d611ddb565b5b90600052602060002090600302016040518060600160405290816000820160009054906101000a900473ffffffffffffffffffffffffffffffffffffffff1673ffffffffffffffffffffffffffffffffffffffff1673ffffffffffffffffffffffffffffffffffffffff16815260200160018201548152602001600282015481525050905080602001519350806040015192508060400151600454610f2391906120d4565b9150505b9193509193565b6000816001600081548110610f4657610f45611ddb565b5b906000526020600020906003020160000160009054906101000a900473ffffffffffffffffffffffffffffffffffffffff1673ffffffffffffffffffffffffffffffffffffffff168173ffffffffffffffffffffffffffffffffffffffff1614610fe5576040517f08c379a0000000000000000000000000000000000000000000000000000000008152600401610fdc90611f93565b60405180910390fd5b60016003811115610ff957610ff8611a34565b5b600560009054906101000a900460ff16600381111561101b5761101a611a34565b5b1461105b576040517f08c379a000000000000000000000000000000000000000000000000000000000815260040161105290611c77565b60405180910390fd5b6002600560006101000a81548160ff0219169083600381111561108157611080611a34565b5b02179055506000611090610af5565b90506000811115611112576000600180549050826110ae91906122c1565b905060005b60018054905081101561110f5781600182815481106110d5576110d4611ddb565b5b906000526020600020906003020160010160008282546110f59190611e39565b9250508190555080806111079061201f565b9150506110b3565b50505b600192505050919050565b60045481565b60008360028190555082600381905550816004819055506111426117ae565b85816000019073ffffffffffffffffffffffffffffffffffffffff16908173ffffffffffffffffffffffffffffffffffffffff16815250506000816040018181525050833461119191906120d4565b816020018181525050600181908060018154018082558091505060019003906000526020600020906003020160009091909190915060008201518160000160006101000a81548173ffffffffffffffffffffffffffffffffffffffff021916908373ffffffffffffffffffffffffffffffffffffffff160217905550602082015181600101556040820151816002015550506000600560006101000a81548160ff0219169083600381111561124957611248611a34565b5b02179055506001915050949350505050565b60008060038111156112705761126f611a34565b5b600560009054906101000a900460ff16600381111561129257611291611a34565b5b146112d2576040517f08c379a00000000000000000000000000000000000000000000000000000000081526004016112c990611fff565b60405180910390fd5b60008054906101000a900460ff1615611320576040517f08c379a000000000000000000000000000000000000000000000000000000000815260040161131790611d4f565b60405180910390fd5b60016000806101000a81548160ff02191690831515021790555060006113458361158f565b90506000811361138a576040517f08c379a000000000000000000000000000000000000000000000000000000000815260040161138190612364565b60405180910390fd5b60008190506000600182815481106113a5576113a4611ddb565b5b906000526020600020906003020160000160009054906101000a900473ffffffffffffffffffffffffffffffffffffffff16905060018080805490506113eb91906120d4565b815481106113fc576113fb611ddb565b5b90600052602060002090600302016001838154811061141e5761141d611ddb565b5b90600052602060002090600302016000820160009054906101000a900473ffffffffffffffffffffffffffffffffffffffff168160000160006101000a81548173ffffffffffffffffffffffffffffffffffffffff021916908373ffffffffffffffffffffffffffffffffffffffff160217905550600182015481600101556002820154816002015590505060018054806114bc576114bb612384565b5b6001900381819060005260206000209060030201600080820160006101000a81549073ffffffffffffffffffffffffffffffffffffffff021916905560018201600090556002820160009055505090558073ffffffffffffffffffffffffffffffffffffffff166108fc6003549081150290604051600060405180830381858888f19350505050158015611554573d6000803e3d6000fd5b506001935050505060008060006101000a81548160ff021916908315150217905550919050565b60065481565b60035481565b600030905090565b60007fffffffffffffffffffffffffffffffffffffffffffffffffffffffffffffffff905060005b600180549050811015611658578273ffffffffffffffffffffffffffffffffffffffff16600182815481106115ef576115ee611ddb565b5b906000526020600020906003020160000160009054906101000a900473ffffffffffffffffffffffffffffffffffffffff1673ffffffffffffffffffffffffffffffffffffffff16141561164557809150611658565b80806116509061201f565b9150506115b7565b50919050565b6000600381111561167257611671611a34565b5b600560009054906101000a900460ff16600381111561169457611693611a34565b5b146116d4576040517f08c379a00000000000000000000000000000000000000000000000000000000081526004016116cb90611fff565b60405180910390fd5b6001600560006101000a81548160ff021916908360038111156116fa576116f9611a34565b5b021790555042600681905550565b60038081111561171b5761171a611a34565b5b600560009054906101000a900460ff16600381111561173d5761173c611a34565b5b1461177d576040517f08c379a0000000000000000000000000000000000000000000000000000000008152600401611774906123ff565b60405180910390fd5b600061178761095c565b146117955761179461241f565b5b3373ffffffffffffffffffffffffffffffffffffffff16ff5b6040518060600160405280600073ffffffffffffffffffffffffffffffffffffffff16815260200160008152602001600081525090565b600073ffffffffffffffffffffffffffffffffffffffff82169050919050565b6000611810826117e5565b9050919050565b61182081611805565b82525050565b600082825260208201905092915050565b7f5032505f496e737572616e63652046616c6c6261636b207761732063616c6c6560008201527f6400000000000000000000000000000000000000000000000000000000000000602082015250565b6000611893602183611826565b915061189e82611837565b604082019050919050565b60006040820190506118be6000830184611817565b81810360208301526118cf81611886565b905092915050565b600080fd5b6118e581611805565b81146118f057600080fd5b50565b600081359050611902816118dc565b92915050565b6000819050919050565b61191b81611908565b811461192657600080fd5b50565b60008135905061193881611912565b92915050565b60008060408385031215611955576119546118d7565b5b6000611963858286016118f3565b925050602061197485828601611929565b9150509250929050565b60008115159050919050565b6119938161197e565b82525050565b60006020820190506119ae600083018461198a565b92915050565b6119bd81611908565b82525050565b60006020820190506119d860008301846119b4565b92915050565b6000602082840312156119f4576119f36118d7565b5b6000611a02848285016118f3565b91505092915050565b6000604082019050611a20600083018561198a565b611a2d602083018461198a565b9392505050565b7f4e487b7100000000000000000000000000000000000000000000000000000000600052602160045260246000fd5b60048110611a7457611a73611a34565b5b50565b6000819050611a8582611a63565b919050565b6000611a9582611a77565b9050919050565b611aa581611a8a565b82525050565b6000602082019050611ac06000830184611a9c565b92915050565b600060208284031215611adc57611adb6118d7565b5b6000611aea84828501611929565b91505092915050565b6000611afe826117e5565b9050919050565b611b0e81611af3565b82525050565b6000606082019050611b296000830186611b05565b611b3660208301856119b4565b611b4360408301846119b4565b949350505050565b6000819050919050565b611b5e81611b4b565b82525050565b6000608082019050611b796000830187611b55565b611b8660208301866119b4565b611b9360408301856119b4565b611ba060608301846119b4565b95945050505050565b60008060008060808587031215611bc357611bc26118d7565b5b6000611bd1878288016118f3565b9450506020611be287828801611929565b9350506040611bf387828801611929565b9250506060611c0487828801611929565b91505092959194509250565b6000602082019050611c256000830184611817565b92915050565b7f54686520706f6f6c20737461747573206973206e6f7420616374697665000000600082015250565b6000611c61601d83611826565b9150611c6c82611c2b565b602082019050919050565b60006020820190508181036000830152611c9081611c54565b9050919050565b7f54686520706f6f6c20686173206e6f20656e6f7567682066756e642000000000600082015250565b6000611ccd601c83611826565b9150611cd882611c97565b602082019050919050565b60006020820190508181036000830152611cfc81611cc0565b9050919050565b7f5265656e7472616e742063616c6c2e0000000000000000000000000000000000600082015250565b6000611d39600f83611826565b9150611d4482611d03565b602082019050919050565b60006020820190508181036000830152611d6881611d2c565b9050919050565b7f4974206973206e6f74206120706f6f6c206d656d626572000000000000000000600082015250565b6000611da5601783611826565b9150611db082611d6f565b602082019050919050565b60006020820190508181036000830152611dd481611d98565b9050919050565b7f4e487b7100000000000000000000000000000000000000000000000000000000600052603260045260246000fd5b7f4e487b7100000000000000000000000000000000000000000000000000000000600052601160045260246000fd5b6000611e4482611908565b9150611e4f83611908565b9250827fffffffffffffffffffffffffffffffffffffffffffffffffffffffffffffffff03821115611e8457611e83611e0a565b5b828201905092915050565b7f54686520636c61696d2063616e27742062652070726f6365737365642062656360008201527f6175736520746865206d656d626572206861732065786365656465642069747360208201527f206d6178696d756d20636f766572616765000000000000000000000000000000604082015250565b6000611f11605183611826565b9150611f1c82611e8f565b606082019050919050565b60006020820190508181036000830152611f4081611f04565b9050919050565b7f4974206973206e6f742074686520706f6f6c206d616e61676572000000000000600082015250565b6000611f7d601a83611826565b9150611f8882611f47565b602082019050919050565b60006020820190508181036000830152611fac81611f70565b9050919050565b7f54686520706f6f6c20737461747573206973206e6f7420696e69746961746564600082015250565b6000611fe9602083611826565b9150611ff482611fb3565b602082019050919050565b6000602082019050818103600083015261201881611fdc565b9050919050565b600061202a82611908565b91507fffffffffffffffffffffffffffffffffffffffffffffffffffffffffffffffff82141561205d5761205c611e0a565b5b600182019050919050565b7f4d656d62657220616c7265616479206a6f696e6564207468697320706f6f6c00600082015250565b600061209e601f83611826565b91506120a982612068565b602082019050919050565b600060208201905081810360008301526120cd81612091565b9050919050565b60006120df82611908565b91506120ea83611908565b9250828210156120fd576120fc611e0a565b5b828203905092915050565b7f4e6f74206120706f6f6c206d656d626572000000000000000000000000000000600082015250565b600061213e601183611826565b915061214982612108565b602082019050919050565b6000602082019050818103600083015261216d81612131565b9050919050565b7f4e6f20617661696c61626c652062616c616e6365000000000000000000000000600082015250565b60006121aa601483611826565b91506121b582612174565b602082019050919050565b600060208201905081810360008301526121d98161219d565b9050919050565b600081905092915050565b50565b60006121fb6000836121e0565b9150612206826121eb565b600082019050919050565b600061221c826121ee565b9150819050919050565b7f5472616e73666572206661696c65640000000000000000000000000000000000600082015250565b600061225c600f83611826565b915061226782612226565b602082019050919050565b6000602082019050818103600083015261228b8161224f565b9050919050565b7f4e487b7100000000000000000000000000000000000000000000000000000000600052601260045260246000fd5b60006122cc82611908565b91506122d783611908565b9250826122e7576122e6612292565b5b828204905092915050565b7f4e6f74206120706f6f6c206d656d626572206f7220686520697320746865207060008201527f6f6f6c206d616e61676572000000000000000000000000000000000000000000602082015250565b600061234e602b83611826565b9150612359826122f2565b604082019050919050565b6000602082019050818103600083015261237d81612341565b9050919050565b7f4e487b7100000000000000000000000000000000000000000000000000000000600052603160045260246000fd5b7f54686520706f6f6c20737461747573206973206e6f742063616e63656c656400600082015250565b60006123e9601f83611826565b91506123f4826123b3565b602082019050919050565b60006020820190508181036000830152612418816123dc565b9050919050565b7f4e487b7100000000000000000000000000000000000000000000000000000000600052600160045260246000fdfea2646970667358221220d0c96fea08aa8f6103a07f793d4b73e277768a75fcaeec6f7281a65edbde5b2964736f6c634300080a0033a2646970667358221220663e254e5b09c389cb6a3e8bd542120a66b1a4af5e414754c97f1e8c33ad311964736f6c634300080a0033",
  "immutableReferences": {
    "839": [
      {
        "length": 32,
        "start": 2759
      }
    ]
  },
  "source": "// SPDX-License-Identifier: MIT\npragma solidity 0.8.10;\n\nimport \"./InsurancePool.sol\";\n\n/** \n - Implements p2p insurance through creating insurance pools\n - I am using the factory design pattern: P2P_Insurance (the factory) that creates objects/smart contracts (InsurancePool)\n - Using wei as the payment unit (eth unit at the frontend level)\n - how to transfer to Wei in frontend :example: contracts['CrowdFunder'].contract.contribute({value: web3.toWei(12, 'ether')});\n */\n\ncontract P2P_Insurance {\n    \n    address public immutable owner; //owner = platform\n    uint public poolCount =0;\n    InsurancePool[] pools;\n    //mapping(address => InsurancePool) public pools; // The pool address is the bridge between frontend and backend\n\n    function getPools() public view returns (InsurancePool[] memory)\n    {\n        return pools;\n    }\n    \n    modifier onlyOwner(){\n        require (msg.sender == owner,\"It is not the contract owner\");\n        _;\n    }\n\n    modifier enoughPremiumPaid (uint _premium, uint _value) {\n        require (_value >= _premium,\"The amount paid is less than the pool premium\");\n        _;\n    }\n\n    modifier notFinishedOrCanceledPool (uint _poolId) {\n        require (pools[_poolId].status() == InsurancePool.PoolStatus.Initiated || pools[_poolId].status() == InsurancePool.PoolStatus.Active,\n        \"The pool status is either finished or canceled\");\n        _;\n    }\n\n    //Register Events\n    event poolCreated (address indexed _memberAddress, string _message);\n    event memberJoined (address indexed _memberAddress, string _message);\n    event poolActivated (uint indexed _poolId, string _message);\n    event poolFinished (address indexed _memberAddress, string _message);\n    event poolCanceled (address indexed _memberAddress, string _message);\n    event memberUnsubscibed (address indexed _memberAddress, string _message);\n    event claimRequested (address indexed _memberAddress, string _message);\n    event balanceWithdrawed (address indexed _memberAddress, string _message);\n\n    event fallbackReceived(address sender, string message);\n\n    constructor () \n    {\n        owner = msg.sender;\n    }\n\n    function getPoolDetails(uint _poolId) public view \n    returns (address _poolAddress,uint _minMembers,uint _premium,uint _maxCoverage,uint _status,uint _startDate,uint _poolFund,uint _memberCount)\n    {\n        _poolAddress = pools[_poolId].getPoolAddress();\n        _minMembers = pools[_poolId].minNumberOfMembers();\n        _premium = pools[_poolId].premium();\n        _maxCoverage = pools[_poolId].maxCoveragePerMember();\n        _status = uint(pools[_poolId].status());\n        _startDate = pools[_poolId].policyStartDate();\n        _poolFund = pools[_poolId].getPoolAvailableBalance();\n        _memberCount = pools[_poolId].getMembersCount();              \n    }\n\n    function getMemberDetails(uint _poolId, address _memberAddress) public view \n    returns (int _poolMemberId , uint _balance, uint _totalClaims, uint _remainingCoverage )\n    {\n        return pools[_poolId].getMemberDetails(_memberAddress);\n    }\n\n    //Anyone can create a new pool that is open for other members to join'.\n    // each pool has a unique contract address as an escrew account for that specific pool.\n    // payment unit in Wei\n    //returns the pool address for the frontend\n    function createNewPool(uint _minNumberOfMembers, uint _premium, uint _maxCoveragePerMember) public payable enoughPremiumPaid(_premium, msg.value)\n    {\n        uint _value = msg.value;\n        address _memberAddress = msg.sender;\n\n        // create a new pool instance\n        InsurancePool pool = new InsurancePool();\n        // create a new pool and transfer the premim to the pool contract\n        if (pool.createPool {value: _value}(_memberAddress,_minNumberOfMembers,_premium,_maxCoveragePerMember))\n        {\n            pools.push(pool);\n            poolCount ++;\n            emit poolCreated (_memberAddress, \"The pool is sucessfully created!\");\n        }\n    } \n\n    // User can join an address and pay the premium, as a result he becomes a pool member\n    function joinPool(uint _poolId) public payable notFinishedOrCanceledPool(_poolId) enoughPremiumPaid(pools[_poolId].premium(), msg.value)\n    {\n        address _memberAddress = msg.sender;\n        (bool isJoined , bool isPoolActivated)  = pools[_poolId].joinPool{value: msg.value}(_memberAddress);\n        if (isJoined)\n            emit memberJoined (_memberAddress, \"The member has joined the pool sucessfully!\");\n        if (isPoolActivated)\n            emit poolActivated (_poolId, \"The pool is sucessfully activated!\");\n    }\n\n    //The pool manager can cancel a pool if it is still in the initiated status - as example, for long time the pool not reaches the minimum requirements to be activated\n    function cancelPool (uint _poolId) public\n    {\n        address _memberAddress = msg.sender;\n        if (pools[_poolId].cancelPool(_memberAddress))\n            emit poolCanceled (_memberAddress, \"The pool is sucessfully canceled!\");\n    }\n\n    // the pool is finshed once the policy expired after one year since activation (UI/Frontend validation)\n    // Only the pool manager has the right to call this function\n    function finshPool (uint _poolId) public\n    {\n        address _memberAddress = msg.sender;\n        if( pools[_poolId].finishPool(_memberAddress))\n            emit poolFinished (_memberAddress, \"The pool is sucessfully finished!\");\n        //do we need to empty the pool? I think No, because we need to have the pool history onchain for transparency\n        //In future, we can offer to renew the pool once policy is expired\n    }\n\n    // member can cancel his subscription in a specific pool as long as the pool is not activated. The pool will refund the premium to his balance\n    function cancelMembershipBeforPoolActivation (uint _poolId) public\n    {\n        address _memberAddress = msg.sender;\n        if (pools[_poolId].cancelSubscription(_memberAddress))\n            emit memberUnsubscibed (_memberAddress, \"The member has unsubscibed from the pool sucessfully!\");\n    }\n\n    /* There should be an eligibility process in place to validate the claims' reqests, \n       but this will not be developed in the current project.\n\n        checks for claims could be managed later through hybrid ways :\n            1-  Mainly, building a consensys voting mechansim, where the pool members vote to reimburse a teammate\n            2-  offchain integration with trusted external data sources\n            3-  Connecting to offchain/onchain oracles, such as delayed flights,etc.\n\n        At this project (POC), we consider the claim request is eligible and approved by majority of pool members\n    */ \n    function requestClaim(uint _poolId, uint _claimAmount) public\n    {\n        address _memberAddress = msg.sender;\n        if (pools[_poolId].requestClaim(_memberAddress, _claimAmount))\n            emit claimRequested (_memberAddress, \"The request claim has processed sucessfully!\");\n    } \n\n    // member can withdraw his avialable balance (in case of cancelation, refund , etc.)\n    function withdrawBalance(uint _poolId) public\n    {\n        address _memberAddress = msg.sender;\n        if (pools[_poolId].withdrawBalance(_memberAddress))\n            emit balanceWithdrawed (_memberAddress, \"The balance withdrawal has processed sucessfully!\");\n    }\n\n    //fall back function \n    //it is not payable - not accepting to receive plain ether and this will raise an exception!    \n    fallback() external  {\n        emit fallbackReceived(msg.sender,\"P2P_Insurance Fallback was called\");\n    }\n}\n",
  "sourcePath": "/mnt/c/Users/pc1/projects/blockchain-developer-bootcamp-final-project/contracts/P2P_Insurance.sol",
  "compiler": {
    "name": "solc",
    "version": "0.8.10+commit.fc410830.Emscripten.clang"
  },
  "schemaVersion": "3.4.2",
  "updatedAt": "2021-12-09T20:23:40.870Z",
  "networkType": "ethereum",
  "devdoc": {
    "kind": "dev",
    "methods": {},
    "version": 1
  },
  "userdoc": {
    "kind": "user",
    "methods": {},
    "notice": "- Implements p2p insurance through creating insurance pools - I am using the factory design pattern: P2P_Insurance (the factory) that creates objects/smart contracts (InsurancePool) - Using wei as the payment unit (eth unit at the frontend level) - how to transfer to Wei in frontend :example: contracts['CrowdFunder'].contract.contribute({value: web3.toWei(12, 'ether')});",
    "version": 1
  }
}