{
  "contractName": "P2P_Insurance",
  "abi": [
    {
      "inputs": [],
      "stateMutability": "nonpayable",
      "type": "constructor"
    },
    {
      "anonymous": false,
      "inputs": [
        {
          "indexed": true,
          "internalType": "address",
          "name": "_memberAddress",
          "type": "address"
        },
        {
          "indexed": false,
          "internalType": "string",
          "name": "_message",
          "type": "string"
        }
      ],
      "name": "balanceWithdrawed",
      "type": "event"
    },
    {
      "anonymous": false,
      "inputs": [
        {
          "indexed": true,
          "internalType": "address",
          "name": "_memberAddress",
          "type": "address"
        },
        {
          "indexed": false,
          "internalType": "string",
          "name": "_message",
          "type": "string"
        }
      ],
      "name": "claimRequested",
      "type": "event"
    },
    {
      "anonymous": false,
      "inputs": [
        {
          "indexed": false,
          "internalType": "address",
          "name": "sender",
          "type": "address"
        },
        {
          "indexed": false,
          "internalType": "string",
          "name": "message",
          "type": "string"
        }
      ],
      "name": "fallbackReceived",
      "type": "event"
    },
    {
      "anonymous": false,
      "inputs": [
        {
          "indexed": true,
          "internalType": "address",
          "name": "_memberAddress",
          "type": "address"
        },
        {
          "indexed": false,
          "internalType": "string",
          "name": "_message",
          "type": "string"
        }
      ],
      "name": "memberJoined",
      "type": "event"
    },
    {
      "anonymous": false,
      "inputs": [
        {
          "indexed": true,
          "internalType": "address",
          "name": "_memberAddress",
          "type": "address"
        },
        {
          "indexed": false,
          "internalType": "string",
          "name": "_message",
          "type": "string"
        }
      ],
      "name": "memberUnsubscibed",
      "type": "event"
    },
    {
      "anonymous": false,
      "inputs": [
        {
          "indexed": true,
          "internalType": "uint256",
          "name": "_poolId",
          "type": "uint256"
        },
        {
          "indexed": false,
          "internalType": "string",
          "name": "_message",
          "type": "string"
        }
      ],
      "name": "poolActivated",
      "type": "event"
    },
    {
      "anonymous": false,
      "inputs": [
        {
          "indexed": true,
          "internalType": "address",
          "name": "_memberAddress",
          "type": "address"
        },
        {
          "indexed": false,
          "internalType": "string",
          "name": "_message",
          "type": "string"
        }
      ],
      "name": "poolCanceled",
      "type": "event"
    },
    {
      "anonymous": false,
      "inputs": [
        {
          "indexed": true,
          "internalType": "address",
          "name": "_memberAddress",
          "type": "address"
        },
        {
          "indexed": false,
          "internalType": "string",
          "name": "_message",
          "type": "string"
        }
      ],
      "name": "poolCreated",
      "type": "event"
    },
    {
      "anonymous": false,
      "inputs": [
        {
          "indexed": true,
          "internalType": "address",
          "name": "_memberAddress",
          "type": "address"
        },
        {
          "indexed": false,
          "internalType": "string",
          "name": "_message",
          "type": "string"
        }
      ],
      "name": "poolFinished",
      "type": "event"
    },
    {
      "stateMutability": "nonpayable",
      "type": "fallback"
    },
    {
      "inputs": [],
      "name": "owner",
      "outputs": [
        {
          "internalType": "address",
          "name": "",
          "type": "address"
        }
      ],
      "stateMutability": "view",
      "type": "function",
      "constant": true
    },
    {
      "inputs": [],
      "name": "poolCount",
      "outputs": [
        {
          "internalType": "uint256",
          "name": "",
          "type": "uint256"
        }
      ],
      "stateMutability": "view",
      "type": "function",
      "constant": true
    },
    {
      "inputs": [],
      "name": "getPools",
      "outputs": [
        {
          "internalType": "contract InsurancePool[]",
          "name": "",
          "type": "address[]"
        }
      ],
      "stateMutability": "view",
      "type": "function",
      "constant": true
    },
    {
      "inputs": [],
      "name": "getPoolCount",
      "outputs": [
        {
          "internalType": "uint256",
          "name": "",
          "type": "uint256"
        }
      ],
      "stateMutability": "view",
      "type": "function",
      "constant": true
    },
    {
      "inputs": [
        {
          "internalType": "uint256",
          "name": "_poolId",
          "type": "uint256"
        },
        {
          "internalType": "address",
          "name": "_memberAddress",
          "type": "address"
        }
      ],
      "name": "getMemberBalance",
      "outputs": [
        {
          "internalType": "uint256",
          "name": "",
          "type": "uint256"
        }
      ],
      "stateMutability": "view",
      "type": "function",
      "constant": true
    },
    {
      "inputs": [
        {
          "internalType": "uint256",
          "name": "_poolId",
          "type": "uint256"
        },
        {
          "internalType": "address",
          "name": "_memberAddress",
          "type": "address"
        }
      ],
      "name": "getMemberTotalClaims",
      "outputs": [
        {
          "internalType": "uint256",
          "name": "",
          "type": "uint256"
        }
      ],
      "stateMutability": "view",
      "type": "function",
      "constant": true
    },
    {
      "inputs": [
        {
          "internalType": "uint256",
          "name": "_poolId",
          "type": "uint256"
        },
        {
          "internalType": "address",
          "name": "_memberAddress",
          "type": "address"
        }
      ],
      "name": "getMemberRemainingCoverage",
      "outputs": [
        {
          "internalType": "uint256",
          "name": "",
          "type": "uint256"
        }
      ],
      "stateMutability": "view",
      "type": "function",
      "constant": true
    },
    {
      "inputs": [
        {
          "internalType": "uint256",
          "name": "_minNumberOfMembers",
          "type": "uint256"
        },
        {
          "internalType": "uint256",
          "name": "_premium",
          "type": "uint256"
        },
        {
          "internalType": "uint256",
          "name": "_maxCoveragePerMember",
          "type": "uint256"
        }
      ],
      "name": "createNewPool",
      "outputs": [
        {
          "internalType": "bool",
          "name": "isCreated",
          "type": "bool"
        },
        {
          "internalType": "address",
          "name": "_poolAddress",
          "type": "address"
        }
      ],
      "stateMutability": "payable",
      "type": "function",
      "payable": true
    },
    {
      "inputs": [
        {
          "internalType": "uint256",
          "name": "_poolId",
          "type": "uint256"
        }
      ],
      "name": "joinPool",
      "outputs": [
        {
          "internalType": "bool",
          "name": "isJoined",
          "type": "bool"
        },
        {
          "internalType": "bool",
          "name": "isPoolActivated",
          "type": "bool"
        }
      ],
      "stateMutability": "payable",
      "type": "function",
      "payable": true
    },
    {
      "inputs": [
        {
          "internalType": "uint256",
          "name": "_poolId",
          "type": "uint256"
        }
      ],
      "name": "cancelPool",
      "outputs": [
        {
          "internalType": "bool",
          "name": "isCanceled",
          "type": "bool"
        }
      ],
      "stateMutability": "nonpayable",
      "type": "function"
    },
    {
      "inputs": [
        {
          "internalType": "uint256",
          "name": "_poolId",
          "type": "uint256"
        }
      ],
      "name": "finshPool",
      "outputs": [
        {
          "internalType": "bool",
          "name": "isFinished",
          "type": "bool"
        }
      ],
      "stateMutability": "nonpayable",
      "type": "function"
    },
    {
      "inputs": [
        {
          "internalType": "uint256",
          "name": "_poolId",
          "type": "uint256"
        }
      ],
      "name": "cancelMembershipBeforPoolActivation",
      "outputs": [
        {
          "internalType": "bool",
          "name": "isCanceled",
          "type": "bool"
        }
      ],
      "stateMutability": "nonpayable",
      "type": "function"
    },
    {
      "inputs": [
        {
          "internalType": "uint256",
          "name": "_poolId",
          "type": "uint256"
        },
        {
          "internalType": "uint256",
          "name": "_claimAmount",
          "type": "uint256"
        }
      ],
      "name": "requestClaim",
      "outputs": [
        {
          "internalType": "bool",
          "name": "isClaimed",
          "type": "bool"
        }
      ],
      "stateMutability": "nonpayable",
      "type": "function"
    },
    {
      "inputs": [
        {
          "internalType": "uint256",
          "name": "_poolId",
          "type": "uint256"
        }
      ],
      "name": "withdrawBalance",
      "outputs": [
        {
          "internalType": "bool",
          "name": "isWithdrawed",
          "type": "bool"
        }
      ],
      "stateMutability": "nonpayable",
      "type": "function"
    }
  ],
  "bytecode": "0x60a06040526000805534801561001457600080fd5b503373ffffffffffffffffffffffffffffffffffffffff1660808173ffffffffffffffffffffffffffffffffffffffff168152505060805161429b6100646000396000610bd7015261429b6000f3fe6080604052600436106100e15760003560e01c8063907fbff51161007f578063d60b909111610059578063d60b909114610348578063da1d383714610379578063da76d5cd146103b6578063f525cb68146103f3576100e2565b8063907fbff5146102915780639551b76c146102ce578063d31903771461030b576100e2565b8063827c7889116100bb578063827c7889146101c15780638d700d2b146101fe5780638da5cb5b1461023b5780638eec5d7014610266576100e2565b806334e7a19f1461012857806346a1689014610159578063673a2a1f14610196576100e2565b5b3480156100ee57600080fd5b507f2402f2b60dce6d6a9da700a348a123aac12db0c50649200b5970ead86df8805c3360405161011e9190611373565b60405180910390a1005b610142600480360381019061013d91906113dc565b61041e565b604051610150929190611424565b60405180910390f35b34801561016557600080fd5b50610180600480360381019061017b919061144d565b61085a565b60405161018d919061148d565b60405180910390f35b3480156101a257600080fd5b506101ab610971565b6040516101b891906115b6565b60405180910390f35b3480156101cd57600080fd5b506101e860048036038101906101e391906113dc565b6109ff565b6040516101f5919061148d565b60405180910390f35b34801561020a57600080fd5b5061022560048036038101906102209190611604565b610b13565b6040516102329190611653565b60405180910390f35b34801561024757600080fd5b50610250610bd5565b60405161025d919061166e565b60405180910390f35b34801561027257600080fd5b5061027b610bf9565b6040516102889190611653565b60405180910390f35b34801561029d57600080fd5b506102b860048036038101906102b39190611604565b610c02565b6040516102c59190611653565b60405180910390f35b3480156102da57600080fd5b506102f560048036038101906102f09190611604565b610cc4565b6040516103029190611653565b60405180910390f35b34801561031757600080fd5b50610332600480360381019061032d91906113dc565b610d86565b60405161033f919061148d565b60405180910390f35b610362600480360381019061035d9190611689565b610e9a565b6040516103709291906116dc565b60405180910390f35b34801561038557600080fd5b506103a0600480360381019061039b91906113dc565b611074565b6040516103ad919061148d565b60405180910390f35b3480156103c257600080fd5b506103dd60048036038101906103d891906113dc565b611188565b6040516103ea919061148d565b60405180910390f35b3480156103ff57600080fd5b5061040861129c565b6040516104159190611653565b60405180910390f35b600080826000600381111561043657610435611705565b5b6001828154811061044a57610449611734565b5b9060005260206000200160009054906101000a900473ffffffffffffffffffffffffffffffffffffffff1673ffffffffffffffffffffffffffffffffffffffff1663200d2ed26040518163ffffffff1660e01b8152600401602060405180830381865afa1580156104bf573d6000803e3d6000fd5b505050506040513d601f19601f820116820180604052508101906104e39190611788565b60038111156104f5576104f4611705565b5b14806105d15750600160038111156105105761050f611705565b5b6001828154811061052457610523611734565b5b9060005260206000200160009054906101000a900473ffffffffffffffffffffffffffffffffffffffff1673ffffffffffffffffffffffffffffffffffffffff1663200d2ed26040518163ffffffff1660e01b8152600401602060405180830381865afa158015610599573d6000803e3d6000fd5b505050506040513d601f19601f820116820180604052508101906105bd9190611788565b60038111156105cf576105ce611705565b5b145b610610576040517f08c379a000000000000000000000000000000000000000000000000000000000815260040161060790611827565b60405180910390fd5b6001848154811061062457610623611734565b5b9060005260206000200160009054906101000a900473ffffffffffffffffffffffffffffffffffffffff1673ffffffffffffffffffffffffffffffffffffffff1663e0a73a936040518163ffffffff1660e01b8152600401602060405180830381865afa158015610699573d6000803e3d6000fd5b505050506040513d601f19601f820116820180604052508101906106bd919061185c565b3481811015610701576040517f08c379a00000000000000000000000000000000000000000000000000000000081526004016106f8906118fb565b60405180910390fd5b60003390506001878154811061071a57610719611734565b5b9060005260206000200160009054906101000a900473ffffffffffffffffffffffffffffffffffffffff1673ffffffffffffffffffffffffffffffffffffffff16631ae0e73d34836040518363ffffffff1660e01b815260040161077e919061166e565b604080518083038185885af115801561079b573d6000803e3d6000fd5b50505050506040513d601f19601f820116820180604052508101906107c09190611947565b80965081975050508073ffffffffffffffffffffffffffffffffffffffff167f4a625b2512d1a4aeea70b22874a9dcf0282ad161add40ade3741d889a32f3e6160405161080c906119f9565b60405180910390a2841561085157867f29e136fc8b732ea6b179532a84a68848f6f14d6f0c0dce8922db98c2739d198460405161084890611a8b565b60405180910390a25b50505050915091565b6000803390506001848154811061087457610873611734565b5b9060005260206000200160009054906101000a900473ffffffffffffffffffffffffffffffffffffffff1673ffffffffffffffffffffffffffffffffffffffff166301e51e9782856040518363ffffffff1660e01b81526004016108d9929190611aab565b6020604051808303816000875af11580156108f8573d6000803e3d6000fd5b505050506040513d601f19601f8201168201806040525081019061091c9190611ad4565b91508073ffffffffffffffffffffffffffffffffffffffff167fd0440465579bd0f4fc1f5f5d5ce76014aadefb03b0541b240d20bb476816033c60405161096290611b73565b60405180910390a25092915050565b606060018054806020026020016040519081016040528092919081815260200182805480156109f557602002820191906000526020600020905b8160009054906101000a900473ffffffffffffffffffffffffffffffffffffffff1673ffffffffffffffffffffffffffffffffffffffff16815260200190600101908083116109ab575b5050505050905090565b60008033905060018381548110610a1957610a18611734565b5b9060005260206000200160009054906101000a900473ffffffffffffffffffffffffffffffffffffffff1673ffffffffffffffffffffffffffffffffffffffff16630b03bf2b826040518263ffffffff1660e01b8152600401610a7c919061166e565b6020604051808303816000875af1158015610a9b573d6000803e3d6000fd5b505050506040513d601f19601f82011682018060405250810190610abf9190611ad4565b91508073ffffffffffffffffffffffffffffffffffffffff167f3d8f0efe0ca5f23697984bd83ad21dfe056fe58d2a57df07deca3637272b5025604051610b0590611c05565b60405180910390a250919050565b600060018381548110610b2957610b28611734565b5b9060005260206000200160009054906101000a900473ffffffffffffffffffffffffffffffffffffffff1673ffffffffffffffffffffffffffffffffffffffff16638dd02fb0836040518263ffffffff1660e01b8152600401610b8c919061166e565b602060405180830381865afa158015610ba9573d6000803e3d6000fd5b505050506040513d601f19601f82011682018060405250810190610bcd919061185c565b905092915050565b7f000000000000000000000000000000000000000000000000000000000000000081565b60008054905090565b600060018381548110610c1857610c17611734565b5b9060005260206000200160009054906101000a900473ffffffffffffffffffffffffffffffffffffffff1673ffffffffffffffffffffffffffffffffffffffff166328a2f8c6836040518263ffffffff1660e01b8152600401610c7b919061166e565b602060405180830381865afa158015610c98573d6000803e3d6000fd5b505050506040513d601f19601f82011682018060405250810190610cbc919061185c565b905092915050565b600060018381548110610cda57610cd9611734565b5b9060005260206000200160009054906101000a900473ffffffffffffffffffffffffffffffffffffffff1673ffffffffffffffffffffffffffffffffffffffff1663ca55753a836040518263ffffffff1660e01b8152600401610d3d919061166e565b602060405180830381865afa158015610d5a573d6000803e3d6000fd5b505050506040513d601f19601f82011682018060405250810190610d7e919061185c565b905092915050565b60008033905060018381548110610da057610d9f611734565b5b9060005260206000200160009054906101000a900473ffffffffffffffffffffffffffffffffffffffff1673ffffffffffffffffffffffffffffffffffffffff166393d81d58826040518263ffffffff1660e01b8152600401610e03919061166e565b6020604051808303816000875af1158015610e22573d6000803e3d6000fd5b505050506040513d601f19601f82011682018060405250810190610e469190611ad4565b91508073ffffffffffffffffffffffffffffffffffffffff167fb450f87c0068c78ace429ed1c8955a2afda1a632f902da1d31682585be4221e3604051610e8c90611c97565b60405180910390a250919050565b600080833481811015610ee2576040517f08c379a0000000000000000000000000000000000000000000000000000000008152600401610ed9906118fb565b60405180910390fd5b600034905060003390506000604051610efa906112a2565b604051809103906000f080158015610f16573d6000803e3d6000fd5b5090508095508073ffffffffffffffffffffffffffffffffffffffff1663922d3e4c84848d8d8d6040518663ffffffff1660e01b8152600401610f5c9493929190611cb7565b60206040518083038185885af1158015610f7a573d6000803e3d6000fd5b50505050506040513d601f19601f82011682018060405250810190610f9f9190611ad4565b96506001819080600181540180825580915050600190039060005260206000200160009091909190916101000a81548173ffffffffffffffffffffffffffffffffffffffff021916908373ffffffffffffffffffffffffffffffffffffffff16021790555060008081548092919061101690611d2b565b91905055508173ffffffffffffffffffffffffffffffffffffffff167ffa4a59b8aa09b742bb36a87fe8a648e4baebc604d2ecf6e67a78cd9bffc208b460405161105f90611dc0565b60405180910390a25050505050935093915050565b6000803390506001838154811061108e5761108d611734565b5b9060005260206000200160009054906101000a900473ffffffffffffffffffffffffffffffffffffffff1673ffffffffffffffffffffffffffffffffffffffff166388ff87c9826040518263ffffffff1660e01b81526004016110f1919061166e565b6020604051808303816000875af1158015611110573d6000803e3d6000fd5b505050506040513d601f19601f820116820180604052508101906111349190611ad4565b91508073ffffffffffffffffffffffffffffffffffffffff167f0efd4a0b4adef22fa97cb606c28a501074f708da44fc2b5f315169ce7815bd9c60405161117a90611e52565b60405180910390a250919050565b600080339050600183815481106111a2576111a1611734565b5b9060005260206000200160009054906101000a900473ffffffffffffffffffffffffffffffffffffffff1673ffffffffffffffffffffffffffffffffffffffff1663756af45f826040518263ffffffff1660e01b8152600401611205919061166e565b6020604051808303816000875af1158015611224573d6000803e3d6000fd5b505050506040513d601f19601f820116820180604052508101906112489190611ad4565b91508073ffffffffffffffffffffffffffffffffffffffff167f122765aa23905334d2ed13f19b1a6bb226496ab19466a882970600fa4eb9366260405161128e90611ee4565b60405180910390a250919050565b60005481565b61236180611f0583390190565b600073ffffffffffffffffffffffffffffffffffffffff82169050919050565b60006112da826112af565b9050919050565b6112ea816112cf565b82525050565b600082825260208201905092915050565b7f5032505f496e737572616e63652046616c6c6261636b207761732063616c6c6560008201527f6400000000000000000000000000000000000000000000000000000000000000602082015250565b600061135d6021836112f0565b915061136882611301565b604082019050919050565b600060408201905061138860008301846112e1565b818103602083015261139981611350565b905092915050565b600080fd5b6000819050919050565b6113b9816113a6565b81146113c457600080fd5b50565b6000813590506113d6816113b0565b92915050565b6000602082840312156113f2576113f16113a1565b5b6000611400848285016113c7565b91505092915050565b60008115159050919050565b61141e81611409565b82525050565b60006040820190506114396000830185611415565b6114466020830184611415565b9392505050565b60008060408385031215611464576114636113a1565b5b6000611472858286016113c7565b9250506020611483858286016113c7565b9150509250929050565b60006020820190506114a26000830184611415565b92915050565b600081519050919050565b600082825260208201905092915050565b6000819050602082019050919050565b6000819050919050565b60006114f96114f46114ef846112af565b6114d4565b6112af565b9050919050565b600061150b826114de565b9050919050565b600061151d82611500565b9050919050565b61152d81611512565b82525050565b600061153f8383611524565b60208301905092915050565b6000602082019050919050565b6000611563826114a8565b61156d81856114b3565b9350611578836114c4565b8060005b838110156115a95781516115908882611533565b975061159b8361154b565b92505060018101905061157c565b5085935050505092915050565b600060208201905081810360008301526115d08184611558565b905092915050565b6115e1816112cf565b81146115ec57600080fd5b50565b6000813590506115fe816115d8565b92915050565b6000806040838503121561161b5761161a6113a1565b5b6000611629858286016113c7565b925050602061163a858286016115ef565b9150509250929050565b61164d816113a6565b82525050565b60006020820190506116686000830184611644565b92915050565b600060208201905061168360008301846112e1565b92915050565b6000806000606084860312156116a2576116a16113a1565b5b60006116b0868287016113c7565b93505060206116c1868287016113c7565b92505060406116d2868287016113c7565b9150509250925092565b60006040820190506116f16000830185611415565b6116fe60208301846112e1565b9392505050565b7f4e487b7100000000000000000000000000000000000000000000000000000000600052602160045260246000fd5b7f4e487b7100000000000000000000000000000000000000000000000000000000600052603260045260246000fd5b6004811061177057600080fd5b50565b60008151905061178281611763565b92915050565b60006020828403121561179e5761179d6113a1565b5b60006117ac84828501611773565b91505092915050565b7f54686520706f6f6c20737461747573206973206569746865722066696e69736860008201527f6564206f722063616e63656c6564000000000000000000000000000000000000602082015250565b6000611811602e836112f0565b915061181c826117b5565b604082019050919050565b6000602082019050818103600083015261184081611804565b9050919050565b600081519050611856816113b0565b92915050565b600060208284031215611872576118716113a1565b5b600061188084828501611847565b91505092915050565b7f54686520616d6f756e742070616964206973206c657373207468616e2074686560008201527f20706f6f6c207072656d69756d00000000000000000000000000000000000000602082015250565b60006118e5602d836112f0565b91506118f082611889565b604082019050919050565b60006020820190508181036000830152611914816118d8565b9050919050565b61192481611409565b811461192f57600080fd5b50565b6000815190506119418161191b565b92915050565b6000806040838503121561195e5761195d6113a1565b5b600061196c85828601611932565b925050602061197d85828601611932565b9150509250929050565b7f546865206d656d62657220686173206a6f696e65642074686520706f6f6c207360008201527f756365737366756c6c7921000000000000000000000000000000000000000000602082015250565b60006119e3602b836112f0565b91506119ee82611987565b604082019050919050565b60006020820190508181036000830152611a12816119d6565b9050919050565b7f54686520706f6f6c2069732073756365737366756c6c7920616374697661746560008201527f6421000000000000000000000000000000000000000000000000000000000000602082015250565b6000611a756022836112f0565b9150611a8082611a19565b604082019050919050565b60006020820190508181036000830152611aa481611a68565b9050919050565b6000604082019050611ac060008301856112e1565b611acd6020830184611644565b9392505050565b600060208284031215611aea57611ae96113a1565b5b6000611af884828501611932565b91505092915050565b7f546865207265717565737420636c61696d206861732070726f6365737365642060008201527f73756365737366756c6c79210000000000000000000000000000000000000000602082015250565b6000611b5d602c836112f0565b9150611b6882611b01565b604082019050919050565b60006020820190508181036000830152611b8c81611b50565b9050919050565b7f54686520706f6f6c2069732073756365737366756c6c792063616e63656c656460008201527f2100000000000000000000000000000000000000000000000000000000000000602082015250565b6000611bef6021836112f0565b9150611bfa82611b93565b604082019050919050565b60006020820190508181036000830152611c1e81611be2565b9050919050565b7f546865206d656d6265722068617320756e7375627363696265642066726f6d2060008201527f74686520706f6f6c2073756365737366756c6c79210000000000000000000000602082015250565b6000611c816035836112f0565b9150611c8c82611c25565b604082019050919050565b60006020820190508181036000830152611cb081611c74565b9050919050565b6000608082019050611ccc60008301876112e1565b611cd96020830186611644565b611ce66040830185611644565b611cf36060830184611644565b95945050505050565b7f4e487b7100000000000000000000000000000000000000000000000000000000600052601160045260246000fd5b6000611d36826113a6565b91507fffffffffffffffffffffffffffffffffffffffffffffffffffffffffffffffff821415611d6957611d68611cfc565b5b600182019050919050565b7f54686520706f6f6c2069732073756365737366756c6c79206372656174656421600082015250565b6000611daa6020836112f0565b9150611db582611d74565b602082019050919050565b60006020820190508181036000830152611dd981611d9d565b9050919050565b7f54686520706f6f6c2069732073756365737366756c6c792066696e697368656460008201527f2100000000000000000000000000000000000000000000000000000000000000602082015250565b6000611e3c6021836112f0565b9150611e4782611de0565b604082019050919050565b60006020820190508181036000830152611e6b81611e2f565b9050919050565b7f5468652062616c616e6365207769746864726177616c206861732070726f636560008201527f737365642073756365737366756c6c7921000000000000000000000000000000602082015250565b6000611ece6031836112f0565b9150611ed982611e72565b604082019050919050565b60006020820190508181036000830152611efd81611ec1565b905091905056fe608060405234801561001057600080fd5b50612341806100206000396000f3fe6080604052600436106100ec5760003560e01c8063756af45f1161008a57806393d81d581161005957806393d81d5814610383578063ca55753a146103c0578063e0a73a93146103fd578063f586c6d914610428576100ed565b8063756af45f1461029c57806388ff87c9146102d95780638dd02fb014610316578063922d3e4c14610353576100ed565b80631ae0e73d116100c65780631ae0e73d146101d8578063200d2ed21461020957806328a2f8c61461023457806347cc631314610271576100ed565b806301e51e97146101335780630b03bf2b146101705780630dc07a3e146101ad576100ed565b5b3480156100f957600080fd5b507f2402f2b60dce6d6a9da700a348a123aac12db0c50649200b5970ead86df8805c336040516101299190611849565b60405180910390a1005b34801561013f57600080fd5b5061015a600480360381019061015591906118de565b610453565b6040516101679190611939565b60405180910390f35b34801561017c57600080fd5b5061019760048036038101906101929190611954565b6106f6565b6040516101a49190611939565b60405180910390f35b3480156101b957600080fd5b506101c26108ba565b6040516101cf9190611990565b60405180910390f35b6101f260048036038101906101ed9190611954565b6108c2565b6040516102009291906119ab565b60405180910390f35b34801561021557600080fd5b5061021e610a40565b60405161022b9190611a4b565b60405180910390f35b34801561024057600080fd5b5061025b60048036038101906102569190611954565b610a53565b6040516102689190611990565b60405180910390f35b34801561027d57600080fd5b50610286610ad3565b6040516102939190611990565b60405180910390f35b3480156102a857600080fd5b506102c360048036038101906102be9190611954565b610b4a565b6040516102d09190611939565b60405180910390f35b3480156102e557600080fd5b5061030060048036038101906102fb9190611954565b610dcd565b60405161030d9190611939565b60405180910390f35b34801561032257600080fd5b5061033d60048036038101906103389190611954565b610fbc565b60405161034a9190611990565b60405180910390f35b61036d60048036038101906103689190611a66565b611049565b60405161037a9190611939565b60405180910390f35b34801561038f57600080fd5b506103aa60048036038101906103a59190611954565b611181565b6040516103b79190611939565b60405180910390f35b3480156103cc57600080fd5b506103e760048036038101906103e29190611954565b6114a1565b6040516103f49190611990565b60405180910390f35b34801561040957600080fd5b50610412611521565b60405161041f9190611990565b60405180910390f35b34801561043457600080fd5b5061043d611527565b60405161044a9190611acd565b60405180910390f35b600060016003811115610469576104686119d4565b5b600560009054906101000a900460ff16600381111561048b5761048a6119d4565b5b146104cb576040517f08c379a00000000000000000000000000000000000000000000000000000000081526004016104c290611b34565b60405180910390fd5b81806104d5610ad3565b1015610516576040517f08c379a000000000000000000000000000000000000000000000000000000000815260040161050d90611ba0565b60405180910390fd5b60008054906101000a900460ff1615610564576040517f08c379a000000000000000000000000000000000000000000000000000000000815260040161055b90611c0c565b60405180910390fd5b60016000806101000a81548160ff02191690831515021790555060006105898561152f565b905060008112156105cf576040517f08c379a00000000000000000000000000000000000000000000000000000000081526004016105c690611c78565b60405180910390fd5b6000600182815481106105e5576105e4611c98565b5b906000526020600020906003020190506004548582600201546106089190611cf6565b1115610649576040517f08c379a000000000000000000000000000000000000000000000000000000000815260040161064090611de4565b60405180910390fd5b8481600201600082825461065d9190611cf6565b925050819055508060000160009054906101000a900473ffffffffffffffffffffffffffffffffffffffff1673ffffffffffffffffffffffffffffffffffffffff166108fc869081150290604051600060405180830381858888f193505050501580156106ce573d6000803e3d6000fd5b5060019350505060008060006101000a81548160ff0219169083151502179055505092915050565b600081600160008154811061070e5761070d611c98565b5b906000526020600020906003020160000160009054906101000a900473ffffffffffffffffffffffffffffffffffffffff1673ffffffffffffffffffffffffffffffffffffffff168173ffffffffffffffffffffffffffffffffffffffff16146107ad576040517f08c379a00000000000000000000000000000000000000000000000000000000081526004016107a490611e50565b60405180910390fd5b600060038111156107c1576107c06119d4565b5b600560009054906101000a900460ff1660038111156107e3576107e26119d4565b5b14610823576040517f08c379a000000000000000000000000000000000000000000000000000000000815260040161081a90611ebc565b60405180910390fd5b6003600560006101000a81548160ff02191690836003811115610849576108486119d4565b5b021790555060005b6001805490508110156108af576003546001828154811061087557610874611c98565b5b906000526020600020906003020160010160008282546108959190611cf6565b9250508190555080806108a790611edc565b915050610851565b506001915050919050565b600047905090565b6000807fffffffffffffffffffffffffffffffffffffffffffffffffffffffffffffffff6108ef8461152f565b1461092f576040517f08c379a000000000000000000000000000000000000000000000000000000000815260040161092690611f71565b60405180910390fd5b61093761174e565b83816000019073ffffffffffffffffffffffffffffffffffffffff16908173ffffffffffffffffffffffffffffffffffffffff16815250506000816040018181525050600354346109889190611f91565b816020018181525050600181908060018154018082558091505060019003906000526020600020906003020160009091909190915060008201518160000160006101000a81548173ffffffffffffffffffffffffffffffffffffffff021916908373ffffffffffffffffffffffffffffffffffffffff16021790555060208201518160010155604082015181600201555050600192506002546001805490501415610a3a57610a356115fe565b600191505b50915091565b600560009054906101000a900460ff1681565b600080610a5f8361152f565b90506000811215610aa5576040517f08c379a0000000000000000000000000000000000000000000000000000000008152600401610a9c90611c78565b60405180910390fd5b60018181548110610ab957610ab8611c98565b5b906000526020600020906003020160020154915050919050565b6000806000905060005b600180549050811015610b305760018181548110610afe57610afd611c98565b5b90600052602060002090600302016001015482610b1b9190611cf6565b91508080610b2890611edc565b915050610add565b5080610b3a6108ba565b610b449190611f91565b91505090565b60008060009054906101000a900460ff1615610b9b576040517f08c379a0000000000000000000000000000000000000000000000000000000008152600401610b9290611c0c565b60405180910390fd5b60016000806101000a81548160ff0219169083151502179055506000610bc08361152f565b90506000811215610c06576040517f08c379a0000000000000000000000000000000000000000000000000000000008152600401610bfd90612011565b60405180910390fd5b6000819050600060018281548110610c2157610c20611c98565b5b906000526020600020906003020160010154905060008111610c78576040517f08c379a0000000000000000000000000000000000000000000000000000000008152600401610c6f9061207d565b60405180910390fd5b600060018381548110610c8e57610c8d611c98565b5b90600052602060002090600302016001018190555060008573ffffffffffffffffffffffffffffffffffffffff1682604051610cc9906120ce565b60006040518083038185875af1925050503d8060008114610d06576040519150601f19603f3d011682016040523d82523d6000602084013e610d0b565b606091505b5050905080610d4f576040517f08c379a0000000000000000000000000000000000000000000000000000000008152600401610d469061212f565b60405180910390fd5b600380811115610d6257610d616119d4565b5b600560009054906101000a900460ff166003811115610d8457610d836119d4565b5b148015610d9857506000610d966108ba565b145b15610da657610da56116a8565b5b600194505050505060008060006101000a81548160ff021916908315150217905550919050565b6000816001600081548110610de557610de4611c98565b5b906000526020600020906003020160000160009054906101000a900473ffffffffffffffffffffffffffffffffffffffff1673ffffffffffffffffffffffffffffffffffffffff168173ffffffffffffffffffffffffffffffffffffffff1614610e84576040517f08c379a0000000000000000000000000000000000000000000000000000000008152600401610e7b90611e50565b60405180910390fd5b60016003811115610e9857610e976119d4565b5b600560009054906101000a900460ff166003811115610eba57610eb96119d4565b5b14610efa576040517f08c379a0000000000000000000000000000000000000000000000000000000008152600401610ef190611b34565b60405180910390fd5b6002600560006101000a81548160ff02191690836003811115610f2057610f1f6119d4565b5b02179055506000610f2f610ad3565b90506000811115610fb157600060018054905082610f4d919061217e565b905060005b600180549050811015610fae578160018281548110610f7457610f73611c98565b5b90600052602060002090600302016001016000828254610f949190611cf6565b925050819055508080610fa690611edc565b915050610f52565b50505b600192505050919050565b600080610fc88361152f565b9050600081121561100e576040517f08c379a000000000000000000000000000000000000000000000000000000000815260040161100590611c78565b60405180910390fd5b6001818154811061102257611021611c98565b5b9060005260206000209060030201600201546004546110419190611f91565b915050919050565b600083600281905550826003819055508160048190555061106861174e565b85816000019073ffffffffffffffffffffffffffffffffffffffff16908173ffffffffffffffffffffffffffffffffffffffff1681525050600081604001818152505083346110b79190611f91565b816020018181525050600181908060018154018082558091505060019003906000526020600020906003020160009091909190915060008201518160000160006101000a81548173ffffffffffffffffffffffffffffffffffffffff021916908373ffffffffffffffffffffffffffffffffffffffff160217905550602082015181600101556040820151816002015550506000600560006101000a81548160ff0219169083600381111561116f5761116e6119d4565b5b02179055506001915050949350505050565b6000806003811115611196576111956119d4565b5b600560009054906101000a900460ff1660038111156111b8576111b76119d4565b5b146111f8576040517f08c379a00000000000000000000000000000000000000000000000000000000081526004016111ef90611ebc565b60405180910390fd5b60008054906101000a900460ff1615611246576040517f08c379a000000000000000000000000000000000000000000000000000000000815260040161123d90611c0c565b60405180910390fd5b60016000806101000a81548160ff021916908315150217905550600061126b8361152f565b9050600081136112b0576040517f08c379a00000000000000000000000000000000000000000000000000000000081526004016112a790612221565b60405180910390fd5b60008190506000600182815481106112cb576112ca611c98565b5b906000526020600020906003020160000160009054906101000a900473ffffffffffffffffffffffffffffffffffffffff16905060018080805490506113119190611f91565b8154811061132257611321611c98565b5b90600052602060002090600302016001838154811061134457611343611c98565b5b90600052602060002090600302016000820160009054906101000a900473ffffffffffffffffffffffffffffffffffffffff168160000160006101000a81548173ffffffffffffffffffffffffffffffffffffffff021916908373ffffffffffffffffffffffffffffffffffffffff160217905550600182015481600101556002820154816002015590505060018054806113e2576113e1612241565b5b6001900381819060005260206000209060030201600080820160006101000a81549073ffffffffffffffffffffffffffffffffffffffff021916905560018201600090556002820160009055505090558073ffffffffffffffffffffffffffffffffffffffff166108fc6003549081150290604051600060405180830381858888f1935050505015801561147a573d6000803e3d6000fd5b506001935050505060008060006101000a81548160ff021916908315150217905550919050565b6000806114ad8361152f565b905060008112156114f3576040517f08c379a00000000000000000000000000000000000000000000000000000000081526004016114ea90611c78565b60405180910390fd5b6001818154811061150757611506611c98565b5b906000526020600020906003020160010154915050919050565b60035481565b600030905090565b60007fffffffffffffffffffffffffffffffffffffffffffffffffffffffffffffffff905060005b6001805490508110156115f8578273ffffffffffffffffffffffffffffffffffffffff166001828154811061158f5761158e611c98565b5b906000526020600020906003020160000160009054906101000a900473ffffffffffffffffffffffffffffffffffffffff1673ffffffffffffffffffffffffffffffffffffffff1614156115e5578091506115f8565b80806115f090611edc565b915050611557565b50919050565b60006003811115611612576116116119d4565b5b600560009054906101000a900460ff166003811115611634576116336119d4565b5b14611674576040517f08c379a000000000000000000000000000000000000000000000000000000000815260040161166b90611ebc565b60405180910390fd5b6001600560006101000a81548160ff0219169083600381111561169a576116996119d4565b5b021790555042600681905550565b6003808111156116bb576116ba6119d4565b5b600560009054906101000a900460ff1660038111156116dd576116dc6119d4565b5b1461171d576040517f08c379a0000000000000000000000000000000000000000000000000000000008152600401611714906122bc565b60405180910390fd5b60006117276108ba565b14611735576117346122dc565b5b3373ffffffffffffffffffffffffffffffffffffffff16ff5b6040518060600160405280600073ffffffffffffffffffffffffffffffffffffffff16815260200160008152602001600081525090565b600073ffffffffffffffffffffffffffffffffffffffff82169050919050565b60006117b082611785565b9050919050565b6117c0816117a5565b82525050565b600082825260208201905092915050565b7f5032505f496e737572616e63652046616c6c6261636b207761732063616c6c6560008201527f6400000000000000000000000000000000000000000000000000000000000000602082015250565b60006118336021836117c6565b915061183e826117d7565b604082019050919050565b600060408201905061185e60008301846117b7565b818103602083015261186f81611826565b905092915050565b600080fd5b611885816117a5565b811461189057600080fd5b50565b6000813590506118a28161187c565b92915050565b6000819050919050565b6118bb816118a8565b81146118c657600080fd5b50565b6000813590506118d8816118b2565b92915050565b600080604083850312156118f5576118f4611877565b5b600061190385828601611893565b9250506020611914858286016118c9565b9150509250929050565b60008115159050919050565b6119338161191e565b82525050565b600060208201905061194e600083018461192a565b92915050565b60006020828403121561196a57611969611877565b5b600061197884828501611893565b91505092915050565b61198a816118a8565b82525050565b60006020820190506119a56000830184611981565b92915050565b60006040820190506119c0600083018561192a565b6119cd602083018461192a565b9392505050565b7f4e487b7100000000000000000000000000000000000000000000000000000000600052602160045260246000fd5b60048110611a1457611a136119d4565b5b50565b6000819050611a2582611a03565b919050565b6000611a3582611a17565b9050919050565b611a4581611a2a565b82525050565b6000602082019050611a606000830184611a3c565b92915050565b60008060008060808587031215611a8057611a7f611877565b5b6000611a8e87828801611893565b9450506020611a9f878288016118c9565b9350506040611ab0878288016118c9565b9250506060611ac1878288016118c9565b91505092959194509250565b6000602082019050611ae260008301846117b7565b92915050565b7f54686520706f6f6c20737461747573206973206e6f7420616374697665000000600082015250565b6000611b1e601d836117c6565b9150611b2982611ae8565b602082019050919050565b60006020820190508181036000830152611b4d81611b11565b9050919050565b7f54686520706f6f6c20686173206e6f20656e6f7567682066756e642000000000600082015250565b6000611b8a601c836117c6565b9150611b9582611b54565b602082019050919050565b60006020820190508181036000830152611bb981611b7d565b9050919050565b7f5265656e7472616e742063616c6c2e0000000000000000000000000000000000600082015250565b6000611bf6600f836117c6565b9150611c0182611bc0565b602082019050919050565b60006020820190508181036000830152611c2581611be9565b9050919050565b7f4974206973206e6f74206120706f6f6c206d656d626572000000000000000000600082015250565b6000611c626017836117c6565b9150611c6d82611c2c565b602082019050919050565b60006020820190508181036000830152611c9181611c55565b9050919050565b7f4e487b7100000000000000000000000000000000000000000000000000000000600052603260045260246000fd5b7f4e487b7100000000000000000000000000000000000000000000000000000000600052601160045260246000fd5b6000611d01826118a8565b9150611d0c836118a8565b9250827fffffffffffffffffffffffffffffffffffffffffffffffffffffffffffffffff03821115611d4157611d40611cc7565b5b828201905092915050565b7f54686520636c61696d2063616e27742062652070726f6365737365642062656360008201527f6175736520746865206d656d626572206861732065786365656465642069747360208201527f206d6178696d756d20636f766572616765000000000000000000000000000000604082015250565b6000611dce6051836117c6565b9150611dd982611d4c565b606082019050919050565b60006020820190508181036000830152611dfd81611dc1565b9050919050565b7f4974206973206e6f742074686520706f6f6c206d616e61676572000000000000600082015250565b6000611e3a601a836117c6565b9150611e4582611e04565b602082019050919050565b60006020820190508181036000830152611e6981611e2d565b9050919050565b7f54686520706f6f6c20737461747573206973206e6f7420696e69746961746564600082015250565b6000611ea66020836117c6565b9150611eb182611e70565b602082019050919050565b60006020820190508181036000830152611ed581611e99565b9050919050565b6000611ee7826118a8565b91507fffffffffffffffffffffffffffffffffffffffffffffffffffffffffffffffff821415611f1a57611f19611cc7565b5b600182019050919050565b7f4d656d62657220616c7265616479206a6f696e6564207468697320706f6f6c00600082015250565b6000611f5b601f836117c6565b9150611f6682611f25565b602082019050919050565b60006020820190508181036000830152611f8a81611f4e565b9050919050565b6000611f9c826118a8565b9150611fa7836118a8565b925082821015611fba57611fb9611cc7565b5b828203905092915050565b7f4e6f74206120706f6f6c206d656d626572000000000000000000000000000000600082015250565b6000611ffb6011836117c6565b915061200682611fc5565b602082019050919050565b6000602082019050818103600083015261202a81611fee565b9050919050565b7f4e6f20617661696c61626c652062616c616e6365000000000000000000000000600082015250565b60006120676014836117c6565b915061207282612031565b602082019050919050565b600060208201905081810360008301526120968161205a565b9050919050565b600081905092915050565b50565b60006120b860008361209d565b91506120c3826120a8565b600082019050919050565b60006120d9826120ab565b9150819050919050565b7f5472616e73666572206661696c65640000000000000000000000000000000000600082015250565b6000612119600f836117c6565b9150612124826120e3565b602082019050919050565b600060208201905081810360008301526121488161210c565b9050919050565b7f4e487b7100000000000000000000000000000000000000000000000000000000600052601260045260246000fd5b6000612189826118a8565b9150612194836118a8565b9250826121a4576121a361214f565b5b828204905092915050565b7f4e6f74206120706f6f6c206d656d626572206f7220686520697320746865207060008201527f6f6f6c206d616e61676572000000000000000000000000000000000000000000602082015250565b600061220b602b836117c6565b9150612216826121af565b604082019050919050565b6000602082019050818103600083015261223a816121fe565b9050919050565b7f4e487b7100000000000000000000000000000000000000000000000000000000600052603160045260246000fd5b7f54686520706f6f6c20737461747573206973206e6f742063616e63656c656400600082015250565b60006122a6601f836117c6565b91506122b182612270565b602082019050919050565b600060208201905081810360008301526122d581612299565b9050919050565b7f4e487b7100000000000000000000000000000000000000000000000000000000600052600160045260246000fdfea2646970667358221220315c0f88562ca244d4dfb642d388d5bb6fd9d832ada55e1be107c6b2458d736a64736f6c634300080a0033a2646970667358221220acdc836b616d14a30b785e91016da3e0df5c717ed692c28422c27ad4bec8de0064736f6c634300080a0033",
  "immutableReferences": {
    "834": [
      {
        "length": 32,
        "start": 3031
      }
    ]
  },
  "source": "// SPDX-License-Identifier: MIT\npragma solidity 0.8.10;\n\nimport \"./InsurancePool.sol\";\n\n/** \n - Implements p2p insurance through creating insurance pools\n - I am using the factory design pattern: P2P_Insurance (the factory) that creates objects/smart contracts (InsurancePool)\n - Using wei as the payment unit (eth unit at the frontend level)\n - how to transfer to Wei in frontend :example: contracts['CrowdFunder'].contract.contribute({value: web3.toWei(12, 'ether')});\n */\n\ncontract P2P_Insurance {\n    \n    address public immutable owner; //owner = platform\n    uint public poolCount =0;\n    InsurancePool[] pools;\n    //mapping(address => InsurancePool) public pools; // The pool address is the bridge between frontend and backend\n\n    function getPools() public view returns (InsurancePool[] memory)\n    {\n        return pools;\n    }\n\n    function getPoolCount() public view returns (uint)\n    {\n        return poolCount;\n    }\n    \n    modifier onlyOwner(){\n        require (msg.sender == owner,\"It is not the contract owner\");\n        _;\n    }\n\n    modifier enoughPremiumPaid (uint _premium, uint _value) {\n        require (_value >= _premium,\"The amount paid is less than the pool premium\");\n        _;\n    }\n\n    modifier notFinishedOrCanceledPool (uint _poolId) {\n        require (pools[_poolId].status() == InsurancePool.PoolStatus.Initiated || pools[_poolId].status() == InsurancePool.PoolStatus.Active,\n        \"The pool status is either finished or canceled\");\n        _;\n    }\n\n    //Register Events\n    event poolCreated (address indexed _memberAddress, string _message);\n    event memberJoined (address indexed _memberAddress, string _message);\n    event poolActivated (uint indexed _poolId, string _message);\n    event poolFinished (address indexed _memberAddress, string _message);\n    event poolCanceled (address indexed _memberAddress, string _message);\n    event memberUnsubscibed (address indexed _memberAddress, string _message);\n    event claimRequested (address indexed _memberAddress, string _message);\n    event balanceWithdrawed (address indexed _memberAddress, string _message);\n\n    event fallbackReceived(address sender, string message);\n\n    constructor () \n    {\n        owner = msg.sender;\n    }\n\n    function getMemberBalance(uint _poolId, address _memberAddress) public view returns (uint)\n    {\n        return pools[_poolId].getMemberBalance(_memberAddress); \n    }\n    function getMemberTotalClaims(uint _poolId, address _memberAddress) public view returns(uint) \n    {\n        return pools[_poolId].getMemberTotalClaims(_memberAddress);\n    }\n    function getMemberRemainingCoverage(uint _poolId, address _memberAddress) public view returns (uint)\n    {\n        return pools[_poolId].getMemberRemainingCoverage(_memberAddress);\n    }\n\n    //Anyone can create a new pool that is open for other members to join'.\n    // each pool has a unique contract address as an escrew account for that specific pool.\n    // payment unit in Wei\n    //returns the pool address for the frontend\n    function createNewPool(uint _minNumberOfMembers, uint _premium, uint _maxCoveragePerMember) public payable enoughPremiumPaid(_premium, msg.value) returns (bool isCreated, address _poolAddress)\n    {\n        uint _value = msg.value;\n        address _memberAddress = msg.sender;\n\n        // create a new pool instance\n        InsurancePool pool = new InsurancePool();\n        _poolAddress = address(pool);\n        // create a new pool and transfer the premim to the pool contract\n        isCreated = pool.createPool {value: _value}(_memberAddress,_minNumberOfMembers,_premium,_maxCoveragePerMember);\n        pools.push(pool);\n        poolCount ++;\n        emit poolCreated (_memberAddress, \"The pool is sucessfully created!\");\n    } \n\n    // User can join an address and pay the premium, as a result he becomes a pool member\n    function joinPool(uint _poolId) public payable notFinishedOrCanceledPool(_poolId) enoughPremiumPaid(pools[_poolId].premium(), msg.value) returns (bool isJoined, bool isPoolActivated)\n    {\n        address _memberAddress = msg.sender;\n        (isJoined , isPoolActivated)  = pools[_poolId].joinPool{value: msg.value}(_memberAddress);\n        emit memberJoined (_memberAddress, \"The member has joined the pool sucessfully!\");\n        if (isPoolActivated)\n            emit poolActivated (_poolId, \"The pool is sucessfully activated!\");\n    }\n\n    //The pool manager can cancel a pool if it is still in the initiated status - as example, for long time the pool not reaches the minimum requirements to be activated\n    function cancelPool (uint _poolId) public returns (bool isCanceled)\n    {\n        address _memberAddress = msg.sender;\n        isCanceled = pools[_poolId].cancelPool(_memberAddress);\n        emit poolCanceled (_memberAddress, \"The pool is sucessfully canceled!\");\n    }\n\n    // the pool is finshed once the policy expired after one year since activation (UI/Frontend validation)\n    // Only the pool manager has the right to call this function\n    function finshPool (uint _poolId) public returns (bool isFinished)\n    {\n        address _memberAddress = msg.sender;\n        isFinished = pools[_poolId].finishPool(_memberAddress);\n        emit poolFinished (_memberAddress, \"The pool is sucessfully finished!\");\n        //do we need to empty the pool? I think No, because we need to have the pool history onchain for transparency\n        //In future, we can offer to renew the pool once policy is expired\n    }\n\n    // member can cancel his subscription in a specific pool as long as the pool is not activated. The pool will refund the premium to his balance\n    function cancelMembershipBeforPoolActivation (uint _poolId) public returns (bool isCanceled)\n    {\n        address _memberAddress = msg.sender;\n        isCanceled = pools[_poolId].cancelSubscription(_memberAddress);\n        emit memberUnsubscibed (_memberAddress, \"The member has unsubscibed from the pool sucessfully!\");\n    }\n\n    /* There should be an eligibility process in place to validate the claims' reqests, \n       but this will not be developed in the current project.\n\n        checks for claims could be managed later through hybrid ways :\n            1-  Mainly, building a consensys voting mechansim, where the pool members vote to reimburse a teammate\n            2-  offchain integration with trusted external data sources\n            3-  Connecting to offchain/onchain oracles, such as delayed flights,etc.\n\n        At this project (POC), we consider the claim request is eligible and approved by majority of pool members\n    */ \n    function requestClaim(uint _poolId, uint _claimAmount) public returns (bool isClaimed)\n    {\n        address _memberAddress = msg.sender;\n        isClaimed =  pools[_poolId].requestClaim(_memberAddress, _claimAmount); \n        emit claimRequested (_memberAddress, \"The request claim has processed sucessfully!\");\n    } \n\n    // member can withdraw his avialable balance (in case of cancelation, refund , etc.)\n    function withdrawBalance(uint _poolId) public returns (bool isWithdrawed)//\n    {\n        address _memberAddress = msg.sender;\n        isWithdrawed = pools[_poolId].withdrawBalance(_memberAddress);\n        emit balanceWithdrawed (_memberAddress, \"The balance withdrawal has processed sucessfully!\");\n    }\n\n    //fall back function \n    //it is not payable - not accepting to receive plain ether and this will raise an exception!    \n    fallback() external  {\n        emit fallbackReceived(msg.sender,\"P2P_Insurance Fallback was called\");\n    }\n}\n",
  "sourcePath": "/mnt/c/Users/pc1/projects/blockchain-developer-bootcamp-final-project/contracts/P2P_Insurance.sol",
  "compiler": {
    "name": "solc",
    "version": "0.8.10+commit.fc410830.Emscripten.clang"
  },
  "schemaVersion": "3.4.2",
  "updatedAt": "2021-12-07T13:32:19.735Z",
  "networkType": "ethereum",
  "devdoc": {
    "kind": "dev",
    "methods": {},
    "version": 1
  },
  "userdoc": {
    "kind": "user",
    "methods": {},
    "notice": "- Implements p2p insurance through creating insurance pools - I am using the factory design pattern: P2P_Insurance (the factory) that creates objects/smart contracts (InsurancePool) - Using wei as the payment unit (eth unit at the frontend level) - how to transfer to Wei in frontend :example: contracts['CrowdFunder'].contract.contribute({value: web3.toWei(12, 'ether')});",
    "version": 1
  }
}