{
  "contractName": "P2P_Insurance",
  "abi": [
    {
      "inputs": [],
      "stateMutability": "nonpayable",
      "type": "constructor"
    },
    {
      "anonymous": false,
      "inputs": [
        {
          "indexed": false,
          "internalType": "address",
          "name": "sender",
          "type": "address"
        },
        {
          "indexed": false,
          "internalType": "string",
          "name": "message",
          "type": "string"
        }
      ],
      "name": "fallbackReceived",
      "type": "event"
    },
    {
      "stateMutability": "nonpayable",
      "type": "fallback"
    },
    {
      "inputs": [
        {
          "internalType": "address",
          "name": "",
          "type": "address"
        }
      ],
      "name": "pools",
      "outputs": [
        {
          "internalType": "contract InsurancePool",
          "name": "",
          "type": "address"
        }
      ],
      "stateMutability": "view",
      "type": "function",
      "constant": true
    },
    {
      "inputs": [
        {
          "internalType": "address",
          "name": "poolAddress",
          "type": "address"
        },
        {
          "internalType": "address",
          "name": "_memberAddress",
          "type": "address"
        }
      ],
      "name": "getMemberBalance",
      "outputs": [
        {
          "internalType": "uint256",
          "name": "",
          "type": "uint256"
        }
      ],
      "stateMutability": "view",
      "type": "function",
      "constant": true
    },
    {
      "inputs": [
        {
          "internalType": "address",
          "name": "poolAddress",
          "type": "address"
        },
        {
          "internalType": "address",
          "name": "_memberAddress",
          "type": "address"
        }
      ],
      "name": "getMemberTotalClaims",
      "outputs": [
        {
          "internalType": "uint256",
          "name": "",
          "type": "uint256"
        }
      ],
      "stateMutability": "view",
      "type": "function",
      "constant": true
    },
    {
      "inputs": [
        {
          "internalType": "address",
          "name": "poolAddress",
          "type": "address"
        },
        {
          "internalType": "address",
          "name": "_memberAddress",
          "type": "address"
        }
      ],
      "name": "getMemberRemainingCoverage",
      "outputs": [
        {
          "internalType": "uint256",
          "name": "",
          "type": "uint256"
        }
      ],
      "stateMutability": "view",
      "type": "function",
      "constant": true
    },
    {
      "inputs": [
        {
          "internalType": "uint256",
          "name": "_minNumberOfMembers",
          "type": "uint256"
        },
        {
          "internalType": "uint256",
          "name": "_premium",
          "type": "uint256"
        },
        {
          "internalType": "uint256",
          "name": "_maxCoveragePerMember",
          "type": "uint256"
        }
      ],
      "name": "createNewPool",
      "outputs": [
        {
          "internalType": "address",
          "name": "_poolAddress",
          "type": "address"
        }
      ],
      "stateMutability": "payable",
      "type": "function",
      "payable": true
    },
    {
      "inputs": [
        {
          "internalType": "address",
          "name": "_poolAddress",
          "type": "address"
        }
      ],
      "name": "joinPool",
      "outputs": [],
      "stateMutability": "payable",
      "type": "function",
      "payable": true
    },
    {
      "inputs": [
        {
          "internalType": "address",
          "name": "_poolAddress",
          "type": "address"
        }
      ],
      "name": "cancelPool",
      "outputs": [],
      "stateMutability": "nonpayable",
      "type": "function"
    },
    {
      "inputs": [
        {
          "internalType": "address",
          "name": "_poolAddress",
          "type": "address"
        }
      ],
      "name": "finshPool",
      "outputs": [
        {
          "internalType": "bool",
          "name": "",
          "type": "bool"
        }
      ],
      "stateMutability": "nonpayable",
      "type": "function"
    },
    {
      "inputs": [
        {
          "internalType": "address",
          "name": "_poolAddress",
          "type": "address"
        }
      ],
      "name": "cancelMembershipBeforPoolActivation",
      "outputs": [
        {
          "internalType": "bool",
          "name": "",
          "type": "bool"
        }
      ],
      "stateMutability": "nonpayable",
      "type": "function"
    },
    {
      "inputs": [
        {
          "internalType": "address",
          "name": "_poolAddress",
          "type": "address"
        },
        {
          "internalType": "uint256",
          "name": "_claimAmount",
          "type": "uint256"
        }
      ],
      "name": "requestClaim",
      "outputs": [
        {
          "internalType": "bool",
          "name": "",
          "type": "bool"
        }
      ],
      "stateMutability": "nonpayable",
      "type": "function"
    },
    {
      "inputs": [
        {
          "internalType": "address",
          "name": "_poolAddress",
          "type": "address"
        }
      ],
      "name": "withdrawBalance",
      "outputs": [],
      "stateMutability": "nonpayable",
      "type": "function"
    }
  ],
  "bytecode": "0x60a060405234801561001057600080fd5b503373ffffffffffffffffffffffffffffffffffffffff1660808173ffffffffffffffffffffffffffffffffffffffff1660601b8152505060805160601c61399f6100636000396000505061399f6000f3fe6080604052600436106100a05760003560e01c8063496e3d7711610064578063496e3d77146101e3578063756af45f14610220578063a4063dbc14610249578063b1e3c90614610286578063d60b9091146102c3578063e5f2a995146102f3576100a1565b806301e51e97146100e75780630b03bf2b146101245780631ae0e73d1461014d5780632102dfee146101695780634539d534146101a6576100a1565b5b3480156100ad57600080fd5b507f2402f2b60dce6d6a9da700a348a123aac12db0c50649200b5970ead86df8805c336040516100dd9190611317565b60405180910390a1005b3480156100f357600080fd5b5061010e6004803603810190610109919061113d565b610330565b60405161011b91906113b3565b60405180910390f35b34801561013057600080fd5b5061014b600480360381019061014691906110d0565b610425565b005b610167600480360381019061016291906110d0565b6104f1565b005b34801561017557600080fd5b50610190600480360381019061018b91906110d0565b61092e565b60405161019d91906113b3565b60405180910390f35b3480156101b257600080fd5b506101cd60048036038101906101c891906110d0565b610a20565b6040516101da91906113b3565b60405180910390f35b3480156101ef57600080fd5b5061020a600480360381019061020591906110fd565b610b12565b6040516102179190611429565b60405180910390f35b34801561022c57600080fd5b50610247600480360381019061024291906110d0565b610c03565b005b34801561025557600080fd5b50610270600480360381019061026b91906110d0565b610ccf565b60405161027d91906113ce565b60405180910390f35b34801561029257600080fd5b506102ad60048036038101906102a891906110fd565b610d02565b6040516102ba9190611429565b60405180910390f35b6102dd60048036038101906102d89190611204565b610df3565b6040516102ea91906112fc565b60405180910390f35b3480156102ff57600080fd5b5061031a600480360381019061031591906110fd565b610f69565b6040516103279190611429565b60405180910390f35b60008060008473ffffffffffffffffffffffffffffffffffffffff1673ffffffffffffffffffffffffffffffffffffffff16815260200190815260200160002060009054906101000a900473ffffffffffffffffffffffffffffffffffffffff1673ffffffffffffffffffffffffffffffffffffffff166301e51e9733846040518363ffffffff1660e01b81526004016103cb929190611345565b602060405180830381600087803b1580156103e557600080fd5b505af11580156103f9573d6000803e3d6000fd5b505050506040513d601f19601f8201168201806040525081019061041d919061117d565b905092915050565b6000808273ffffffffffffffffffffffffffffffffffffffff1673ffffffffffffffffffffffffffffffffffffffff16815260200190815260200160002060009054906101000a900473ffffffffffffffffffffffffffffffffffffffff1673ffffffffffffffffffffffffffffffffffffffff16630b03bf2b336040518263ffffffff1660e01b81526004016104bc91906112fc565b600060405180830381600087803b1580156104d657600080fd5b505af11580156104ea573d6000803e3d6000fd5b5050505050565b8060006003811115610506576105056114d3565b5b6000808373ffffffffffffffffffffffffffffffffffffffff1673ffffffffffffffffffffffffffffffffffffffff16815260200190815260200160002060009054906101000a900473ffffffffffffffffffffffffffffffffffffffff1673ffffffffffffffffffffffffffffffffffffffff1663200d2ed26040518163ffffffff1660e01b815260040160206040518083038186803b1580156105aa57600080fd5b505afa1580156105be573d6000803e3d6000fd5b505050506040513d601f19601f820116820180604052508101906105e291906111aa565b60038111156105f4576105f36114d3565b5b14806106ff57506001600381111561060f5761060e6114d3565b5b6000808373ffffffffffffffffffffffffffffffffffffffff1673ffffffffffffffffffffffffffffffffffffffff16815260200190815260200160002060009054906101000a900473ffffffffffffffffffffffffffffffffffffffff1673ffffffffffffffffffffffffffffffffffffffff1663200d2ed26040518163ffffffff1660e01b815260040160206040518083038186803b1580156106b357600080fd5b505afa1580156106c7573d6000803e3d6000fd5b505050506040513d601f19601f820116820180604052508101906106eb91906111aa565b60038111156106fd576106fc6114d3565b5b145b61073e576040517f08c379a0000000000000000000000000000000000000000000000000000000008152600401610735906113e9565b60405180910390fd5b6000808373ffffffffffffffffffffffffffffffffffffffff1673ffffffffffffffffffffffffffffffffffffffff16815260200190815260200160002060009054906101000a900473ffffffffffffffffffffffffffffffffffffffff1673ffffffffffffffffffffffffffffffffffffffff1663e0a73a936040518163ffffffff1660e01b815260040160206040518083038186803b1580156107e257600080fd5b505afa1580156107f6573d6000803e3d6000fd5b505050506040513d601f19601f8201168201806040525081019061081a91906111d7565b348181101561085e576040517f08c379a000000000000000000000000000000000000000000000000000000000815260040161085590611409565b60405180910390fd5b6000808573ffffffffffffffffffffffffffffffffffffffff1673ffffffffffffffffffffffffffffffffffffffff16815260200190815260200160002060009054906101000a900473ffffffffffffffffffffffffffffffffffffffff1673ffffffffffffffffffffffffffffffffffffffff16631ae0e73d34336040518363ffffffff1660e01b81526004016108f691906112fc565b6000604051808303818588803b15801561090f57600080fd5b505af1158015610923573d6000803e3d6000fd5b505050505050505050565b60008060008373ffffffffffffffffffffffffffffffffffffffff1673ffffffffffffffffffffffffffffffffffffffff16815260200190815260200160002060009054906101000a900473ffffffffffffffffffffffffffffffffffffffff1673ffffffffffffffffffffffffffffffffffffffff166393d81d58336040518263ffffffff1660e01b81526004016109c791906112fc565b602060405180830381600087803b1580156109e157600080fd5b505af11580156109f5573d6000803e3d6000fd5b505050506040513d601f19601f82011682018060405250810190610a19919061117d565b9050919050565b60008060008373ffffffffffffffffffffffffffffffffffffffff1673ffffffffffffffffffffffffffffffffffffffff16815260200190815260200160002060009054906101000a900473ffffffffffffffffffffffffffffffffffffffff1673ffffffffffffffffffffffffffffffffffffffff166388ff87c9336040518263ffffffff1660e01b8152600401610ab991906112fc565b602060405180830381600087803b158015610ad357600080fd5b505af1158015610ae7573d6000803e3d6000fd5b505050506040513d601f19601f82011682018060405250810190610b0b919061117d565b9050919050565b60008060008473ffffffffffffffffffffffffffffffffffffffff1673ffffffffffffffffffffffffffffffffffffffff16815260200190815260200160002060009054906101000a900473ffffffffffffffffffffffffffffffffffffffff1673ffffffffffffffffffffffffffffffffffffffff1663ca55753a836040518263ffffffff1660e01b8152600401610bab91906112fc565b60206040518083038186803b158015610bc357600080fd5b505afa158015610bd7573d6000803e3d6000fd5b505050506040513d601f19601f82011682018060405250810190610bfb91906111d7565b905092915050565b6000808273ffffffffffffffffffffffffffffffffffffffff1673ffffffffffffffffffffffffffffffffffffffff16815260200190815260200160002060009054906101000a900473ffffffffffffffffffffffffffffffffffffffff1673ffffffffffffffffffffffffffffffffffffffff1663756af45f336040518263ffffffff1660e01b8152600401610c9a91906112fc565b600060405180830381600087803b158015610cb457600080fd5b505af1158015610cc8573d6000803e3d6000fd5b5050505050565b60006020528060005260406000206000915054906101000a900473ffffffffffffffffffffffffffffffffffffffff1681565b60008060008473ffffffffffffffffffffffffffffffffffffffff1673ffffffffffffffffffffffffffffffffffffffff16815260200190815260200160002060009054906101000a900473ffffffffffffffffffffffffffffffffffffffff1673ffffffffffffffffffffffffffffffffffffffff16638dd02fb0836040518263ffffffff1660e01b8152600401610d9b91906112fc565b60206040518083038186803b158015610db357600080fd5b505afa158015610dc7573d6000803e3d6000fd5b505050506040513d601f19601f82011682018060405250810190610deb91906111d7565b905092915050565b6000823481811015610e3a576040517f08c379a0000000000000000000000000000000000000000000000000000000008152600401610e3190611409565b60405180910390fd5b60003490506000604051610e4d9061105a565b604051809103906000f080158015610e69573d6000803e3d6000fd5b5090508094508073ffffffffffffffffffffffffffffffffffffffff1663922d3e4c83338b8b8b6040518663ffffffff1660e01b8152600401610eaf949392919061136e565b6000604051808303818588803b158015610ec857600080fd5b505af1158015610edc573d6000803e3d6000fd5b5050505050806000808773ffffffffffffffffffffffffffffffffffffffff1673ffffffffffffffffffffffffffffffffffffffff16815260200190815260200160002060006101000a81548173ffffffffffffffffffffffffffffffffffffffff021916908373ffffffffffffffffffffffffffffffffffffffff160217905550505050509392505050565b60008060008473ffffffffffffffffffffffffffffffffffffffff1673ffffffffffffffffffffffffffffffffffffffff16815260200190815260200160002060009054906101000a900473ffffffffffffffffffffffffffffffffffffffff1673ffffffffffffffffffffffffffffffffffffffff166328a2f8c6836040518263ffffffff1660e01b815260040161100291906112fc565b60206040518083038186803b15801561101a57600080fd5b505afa15801561102e573d6000803e3d6000fd5b505050506040513d601f19601f8201168201806040525081019061105291906111d7565b905092915050565b6123208061164a83390190565b600081359050611076816115f4565b92915050565b60008151905061108b8161160b565b92915050565b6000815190506110a081611622565b92915050565b6000813590506110b581611632565b92915050565b6000815190506110ca81611632565b92915050565b6000602082840312156110e6576110e5611502565b5b60006110f484828501611067565b91505092915050565b6000806040838503121561111457611113611502565b5b600061112285828601611067565b925050602061113385828601611067565b9150509250929050565b6000806040838503121561115457611153611502565b5b600061116285828601611067565b9250506020611173858286016110a6565b9150509250929050565b60006020828403121561119357611192611502565b5b60006111a18482850161107c565b91505092915050565b6000602082840312156111c0576111bf611502565b5b60006111ce84828501611091565b91505092915050565b6000602082840312156111ed576111ec611502565b5b60006111fb848285016110bb565b91505092915050565b60008060006060848603121561121d5761121c611502565b5b600061122b868287016110a6565b935050602061123c868287016110a6565b925050604061124d868287016110a6565b9150509250925092565b61126081611455565b82525050565b61126f81611467565b82525050565b61127e8161149d565b82525050565b6000611291602e83611444565b915061129c82611507565b604082019050919050565b60006112b4602183611444565b91506112bf82611556565b604082019050919050565b60006112d7602d83611444565b91506112e2826115a5565b604082019050919050565b6112f681611493565b82525050565b60006020820190506113116000830184611257565b92915050565b600060408201905061132c6000830184611257565b818103602083015261133d816112a7565b905092915050565b600060408201905061135a6000830185611257565b61136760208301846112ed565b9392505050565b60006080820190506113836000830187611257565b61139060208301866112ed565b61139d60408301856112ed565b6113aa60608301846112ed565b95945050505050565b60006020820190506113c86000830184611266565b92915050565b60006020820190506113e36000830184611275565b92915050565b6000602082019050818103600083015261140281611284565b9050919050565b60006020820190508181036000830152611422816112ca565b9050919050565b600060208201905061143e60008301846112ed565b92915050565b600082825260208201905092915050565b600061146082611473565b9050919050565b60008115159050919050565b600073ffffffffffffffffffffffffffffffffffffffff82169050919050565b6000819050919050565b60006114a8826114af565b9050919050565b60006114ba826114c1565b9050919050565b60006114cc82611473565b9050919050565b7f4e487b7100000000000000000000000000000000000000000000000000000000600052602160045260246000fd5b600080fd5b7f54686520706f6f6c20737461747573206973206569746865722066696e69736860008201527f6564206f722063616e63656c6564000000000000000000000000000000000000602082015250565b7f5032505f496e737572616e63652046616c6c6261636b207761732063616c6c6560008201527f6400000000000000000000000000000000000000000000000000000000000000602082015250565b7f54686520616d6f756e742070616964206973206c657373207468616e2074686560008201527f20706f6f6c207072656d69756d00000000000000000000000000000000000000602082015250565b6115fd81611455565b811461160857600080fd5b50565b61161481611467565b811461161f57600080fd5b50565b6004811061162f57600080fd5b50565b61163b81611493565b811461164657600080fd5b5056fe608060405234801561001057600080fd5b50612300806100206000396000f3fe6080604052600436106100e15760003560e01c8063756af45f1161007f578063922d3e4c11610059578063922d3e4c1461030b57806393d81d5814610327578063ca55753a14610364578063e0a73a93146103a1576100e2565b8063756af45f1461026857806388ff87c9146102915780638dd02fb0146102ce576100e2565b80631ae0e73d116100bb5780631ae0e73d146101b9578063200d2ed2146101d557806328a2f8c61461020057806347cc63131461023d576100e2565b806301e51e97146101285780630b03bf2b146101655780630dc07a3e1461018e576100e2565b5b3480156100ee57600080fd5b507f2402f2b60dce6d6a9da700a348a123aac12db0c50649200b5970ead86df8805c3360405161011e9190611a9b565b60405180910390a1005b34801561013457600080fd5b5061014f600480360381019061014a9190611773565b6103cc565b60405161015c9190611ac9565b60405180910390f35b34801561017157600080fd5b5061018c60048036038101906101879190611746565b61066f565b005b34801561019a57600080fd5b506101a3610877565b6040516101b09190611cbf565b60405180910390f35b6101d360048036038101906101ce9190611746565b61087f565b005b3480156101e157600080fd5b506101ea6109f0565b6040516101f79190611ae4565b60405180910390f35b34801561020c57600080fd5b5061022760048036038101906102229190611746565b610a03565b6040516102349190611cbf565b60405180910390f35b34801561024957600080fd5b50610252610a83565b60405161025f9190611cbf565b60405180910390f35b34801561027457600080fd5b5061028f600480360381019061028a9190611746565b610afa565b005b34801561029d57600080fd5b506102b860048036038101906102b39190611746565b610d74565b6040516102c59190611ac9565b60405180910390f35b3480156102da57600080fd5b506102f560048036038101906102f09190611746565b610f63565b6040516103029190611cbf565b60405180910390f35b610325600480360381019061032091906117b3565b610ff0565b005b34801561033357600080fd5b5061034e60048036038101906103499190611746565b611120565b60405161035b9190611ac9565b60405180910390f35b34801561037057600080fd5b5061038b60048036038101906103869190611746565b611440565b6040516103989190611cbf565b60405180910390f35b3480156103ad57600080fd5b506103b66114c0565b6040516103c39190611cbf565b60405180910390f35b6000600160038111156103e2576103e1611ef4565b5b600560009054906101000a900460ff16600381111561040457610403611ef4565b5b14610444576040517f08c379a000000000000000000000000000000000000000000000000000000000815260040161043b90611bff565b60405180910390fd5b818061044e610a83565b101561048f576040517f08c379a000000000000000000000000000000000000000000000000000000000815260040161048690611c1f565b60405180910390fd5b60008054906101000a900460ff16156104dd576040517f08c379a00000000000000000000000000000000000000000000000000000000081526004016104d490611b7f565b60405180910390fd5b60016000806101000a81548160ff0219169083151502179055506000610502856114c6565b90506000811215610548576040517f08c379a000000000000000000000000000000000000000000000000000000000815260040161053f90611c7f565b60405180910390fd5b60006001828154811061055e5761055d611f52565b5b906000526020600020906003020190506004548582600201546105819190611cf6565b11156105c2576040517f08c379a00000000000000000000000000000000000000000000000000000000081526004016105b990611b9f565b60405180910390fd5b848160020160008282546105d69190611cf6565b925050819055508060000160009054906101000a900473ffffffffffffffffffffffffffffffffffffffff1673ffffffffffffffffffffffffffffffffffffffff166108fc869081150290604051600060405180830381858888f19350505050158015610647573d6000803e3d6000fd5b5060019350505060008060006101000a81548160ff0219169083151502179055505092915050565b80600160008154811061068557610684611f52565b5b906000526020600020906003020160000160009054906101000a900473ffffffffffffffffffffffffffffffffffffffff1673ffffffffffffffffffffffffffffffffffffffff168173ffffffffffffffffffffffffffffffffffffffff1614610724576040517f08c379a000000000000000000000000000000000000000000000000000000000815260040161071b90611c5f565b60405180910390fd5b6000600381111561073857610737611ef4565b5b600560009054906101000a900460ff16600381111561075a57610759611ef4565b5b1461079a576040517f08c379a000000000000000000000000000000000000000000000000000000000815260040161079190611c9f565b60405180910390fd5b6003600560006101000a81548160ff021916908360038111156107c0576107bf611ef4565b5b021790555060005b60018054905081101561082657600354600182815481106107ec576107eb611f52565b5b9060005260206000209060030201600101600082825461080c9190611cf6565b92505081905550808061081e90611e1e565b9150506107c8565b508173ffffffffffffffffffffffffffffffffffffffff167f3d8f0efe0ca5f23697984bd83ad21dfe056fe58d2a57df07deca3637272b502560405161086b90611bdf565b60405180910390a25050565b600047905090565b7fffffffffffffffffffffffffffffffffffffffffffffffffffffffffffffffff6108a9826114c6565b146108e9576040517f08c379a00000000000000000000000000000000000000000000000000000000081526004016108e090611c3f565b60405180910390fd5b6108f16116e5565b81816000019073ffffffffffffffffffffffffffffffffffffffff16908173ffffffffffffffffffffffffffffffffffffffff16815250506000816040018181525050600354346109429190611d7d565b816020018181525050600181908060018154018082558091505060019003906000526020600020906003020160009091909190915060008201518160000160006101000a81548173ffffffffffffffffffffffffffffffffffffffff021916908373ffffffffffffffffffffffffffffffffffffffff1602179055506020820151816001015560408201518160020155505060025460018054905014156109ec576109eb611595565b5b5050565b600560009054906101000a900460ff1681565b600080610a0f836114c6565b90506000811215610a55576040517f08c379a0000000000000000000000000000000000000000000000000000000008152600401610a4c90611c7f565b60405180910390fd5b60018181548110610a6957610a68611f52565b5b906000526020600020906003020160020154915050919050565b6000806000905060005b600180549050811015610ae05760018181548110610aae57610aad611f52565b5b90600052602060002090600302016001015482610acb9190611cf6565b91508080610ad890611e1e565b915050610a8d565b5080610aea610877565b610af49190611d7d565b91505090565b60008054906101000a900460ff1615610b48576040517f08c379a0000000000000000000000000000000000000000000000000000000008152600401610b3f90611b7f565b60405180910390fd5b60016000806101000a81548160ff0219169083151502179055506000610b6d826114c6565b90506000811215610bb3576040517f08c379a0000000000000000000000000000000000000000000000000000000008152600401610baa90611b5f565b60405180910390fd5b6000819050600060018281548110610bce57610bcd611f52565b5b906000526020600020906003020160010154905060008111610c25576040517f08c379a0000000000000000000000000000000000000000000000000000000008152600401610c1c90611b3f565b60405180910390fd5b600060018381548110610c3b57610c3a611f52565b5b90600052602060002090600302016001018190555060008473ffffffffffffffffffffffffffffffffffffffff1682604051610c7690611a86565b60006040518083038185875af1925050503d8060008114610cb3576040519150601f19603f3d011682016040523d82523d6000602084013e610cb8565b606091505b5050905080610cfc576040517f08c379a0000000000000000000000000000000000000000000000000000000008152600401610cf390611b1f565b60405180910390fd5b600380811115610d0f57610d0e611ef4565b5b600560009054906101000a900460ff166003811115610d3157610d30611ef4565b5b148015610d4557506000610d43610877565b145b15610d5357610d5261163f565b5b5050505060008060006101000a81548160ff02191690831515021790555050565b6000816001600081548110610d8c57610d8b611f52565b5b906000526020600020906003020160000160009054906101000a900473ffffffffffffffffffffffffffffffffffffffff1673ffffffffffffffffffffffffffffffffffffffff168173ffffffffffffffffffffffffffffffffffffffff1614610e2b576040517f08c379a0000000000000000000000000000000000000000000000000000000008152600401610e2290611c5f565b60405180910390fd5b60016003811115610e3f57610e3e611ef4565b5b600560009054906101000a900460ff166003811115610e6157610e60611ef4565b5b14610ea1576040517f08c379a0000000000000000000000000000000000000000000000000000000008152600401610e9890611bff565b60405180910390fd5b6002600560006101000a81548160ff02191690836003811115610ec757610ec6611ef4565b5b02179055506000610ed6610a83565b90506000811115610f5857600060018054905082610ef49190611d4c565b905060005b600180549050811015610f55578160018281548110610f1b57610f1a611f52565b5b90600052602060002090600302016001016000828254610f3b9190611cf6565b925050819055508080610f4d90611e1e565b915050610ef9565b50505b600192505050919050565b600080610f6f836114c6565b90506000811215610fb5576040517f08c379a0000000000000000000000000000000000000000000000000000000008152600401610fac90611c7f565b60405180910390fd5b60018181548110610fc957610fc8611f52565b5b906000526020600020906003020160020154600454610fe89190611d7d565b915050919050565b82600281905550816003819055508060048190555061100d6116e5565b84816000019073ffffffffffffffffffffffffffffffffffffffff16908173ffffffffffffffffffffffffffffffffffffffff16815250506000816040018181525050823461105c9190611d7d565b816020018181525050600181908060018154018082558091505060019003906000526020600020906003020160009091909190915060008201518160000160006101000a81548173ffffffffffffffffffffffffffffffffffffffff021916908373ffffffffffffffffffffffffffffffffffffffff160217905550602082015181600101556040820151816002015550506000600560006101000a81548160ff0219169083600381111561111457611113611ef4565b5b02179055505050505050565b600080600381111561113557611134611ef4565b5b600560009054906101000a900460ff16600381111561115757611156611ef4565b5b14611197576040517f08c379a000000000000000000000000000000000000000000000000000000000815260040161118e90611c9f565b60405180910390fd5b60008054906101000a900460ff16156111e5576040517f08c379a00000000000000000000000000000000000000000000000000000000081526004016111dc90611b7f565b60405180910390fd5b60016000806101000a81548160ff021916908315150217905550600061120a836114c6565b90506000811361124f576040517f08c379a000000000000000000000000000000000000000000000000000000000815260040161124690611bbf565b60405180910390fd5b600081905060006001828154811061126a57611269611f52565b5b906000526020600020906003020160000160009054906101000a900473ffffffffffffffffffffffffffffffffffffffff16905060018080805490506112b09190611d7d565b815481106112c1576112c0611f52565b5b9060005260206000209060030201600183815481106112e3576112e2611f52565b5b90600052602060002090600302016000820160009054906101000a900473ffffffffffffffffffffffffffffffffffffffff168160000160006101000a81548173ffffffffffffffffffffffffffffffffffffffff021916908373ffffffffffffffffffffffffffffffffffffffff1602179055506001820154816001015560028201548160020155905050600180548061138157611380611f23565b5b6001900381819060005260206000209060030201600080820160006101000a81549073ffffffffffffffffffffffffffffffffffffffff021916905560018201600090556002820160009055505090558073ffffffffffffffffffffffffffffffffffffffff166108fc6003549081150290604051600060405180830381858888f19350505050158015611419573d6000803e3d6000fd5b506001935050505060008060006101000a81548160ff021916908315150217905550919050565b60008061144c836114c6565b90506000811215611492576040517f08c379a000000000000000000000000000000000000000000000000000000000815260040161148990611c7f565b60405180910390fd5b600181815481106114a6576114a5611f52565b5b906000526020600020906003020160010154915050919050565b60035481565b60007fffffffffffffffffffffffffffffffffffffffffffffffffffffffffffffffff905060005b60018054905081101561158f578273ffffffffffffffffffffffffffffffffffffffff166001828154811061152657611525611f52565b5b906000526020600020906003020160000160009054906101000a900473ffffffffffffffffffffffffffffffffffffffff1673ffffffffffffffffffffffffffffffffffffffff16141561157c5780915061158f565b808061158790611e1e565b9150506114ee565b50919050565b600060038111156115a9576115a8611ef4565b5b600560009054906101000a900460ff1660038111156115cb576115ca611ef4565b5b1461160b576040517f08c379a000000000000000000000000000000000000000000000000000000000815260040161160290611c9f565b60405180910390fd5b6001600560006101000a81548160ff0219169083600381111561163157611630611ef4565b5b021790555042600681905550565b60038081111561165257611651611ef4565b5b600560009054906101000a900460ff16600381111561167457611673611ef4565b5b146116b4576040517f08c379a00000000000000000000000000000000000000000000000000000000081526004016116ab90611aff565b60405180910390fd5b60006116be610877565b146116cc576116cb611e67565b5b3373ffffffffffffffffffffffffffffffffffffffff16ff5b6040518060600160405280600073ffffffffffffffffffffffffffffffffffffffff16815260200160008152602001600081525090565b60008135905061172b8161229c565b92915050565b600081359050611740816122b3565b92915050565b60006020828403121561175c5761175b611f81565b5b600061176a8482850161171c565b91505092915050565b6000806040838503121561178a57611789611f81565b5b60006117988582860161171c565b92505060206117a985828601611731565b9150509250929050565b600080600080608085870312156117cd576117cc611f81565b5b60006117db8782880161171c565b94505060206117ec87828801611731565b93505060406117fd87828801611731565b925050606061180e87828801611731565b91505092959194509250565b61182381611db1565b82525050565b61183281611dc3565b82525050565b61184181611e0c565b82525050565b6000611854601f83611ce5565b915061185f82611f86565b602082019050919050565b6000611877600f83611ce5565b915061188282611faf565b602082019050919050565b600061189a601483611ce5565b91506118a582611fd8565b602082019050919050565b60006118bd601183611ce5565b91506118c882612001565b602082019050919050565b60006118e0600f83611ce5565b91506118eb8261202a565b602082019050919050565b6000611903605183611ce5565b915061190e82612053565b606082019050919050565b6000611926602183611ce5565b9150611931826120c8565b604082019050919050565b6000611949602b83611ce5565b915061195482612117565b604082019050919050565b600061196c602083611ce5565b915061197782612166565b602082019050919050565b600061198f600083611cda565b915061199a8261218f565b600082019050919050565b60006119b2601d83611ce5565b91506119bd82612192565b602082019050919050565b60006119d5601c83611ce5565b91506119e0826121bb565b602082019050919050565b60006119f8601f83611ce5565b9150611a03826121e4565b602082019050919050565b6000611a1b601a83611ce5565b9150611a268261220d565b602082019050919050565b6000611a3e601783611ce5565b9150611a4982612236565b602082019050919050565b6000611a61602083611ce5565b9150611a6c8261225f565b602082019050919050565b611a8081611e02565b82525050565b6000611a9182611982565b9150819050919050565b6000604082019050611ab0600083018461181a565b8181036020830152611ac181611919565b905092915050565b6000602082019050611ade6000830184611829565b92915050565b6000602082019050611af96000830184611838565b92915050565b60006020820190508181036000830152611b1881611847565b9050919050565b60006020820190508181036000830152611b388161186a565b9050919050565b60006020820190508181036000830152611b588161188d565b9050919050565b60006020820190508181036000830152611b78816118b0565b9050919050565b60006020820190508181036000830152611b98816118d3565b9050919050565b60006020820190508181036000830152611bb8816118f6565b9050919050565b60006020820190508181036000830152611bd88161193c565b9050919050565b60006020820190508181036000830152611bf88161195f565b9050919050565b60006020820190508181036000830152611c18816119a5565b9050919050565b60006020820190508181036000830152611c38816119c8565b9050919050565b60006020820190508181036000830152611c58816119eb565b9050919050565b60006020820190508181036000830152611c7881611a0e565b9050919050565b60006020820190508181036000830152611c9881611a31565b9050919050565b60006020820190508181036000830152611cb881611a54565b9050919050565b6000602082019050611cd46000830184611a77565b92915050565b600081905092915050565b600082825260208201905092915050565b6000611d0182611e02565b9150611d0c83611e02565b9250827fffffffffffffffffffffffffffffffffffffffffffffffffffffffffffffffff03821115611d4157611d40611e96565b5b828201905092915050565b6000611d5782611e02565b9150611d6283611e02565b925082611d7257611d71611ec5565b5b828204905092915050565b6000611d8882611e02565b9150611d9383611e02565b925082821015611da657611da5611e96565b5b828203905092915050565b6000611dbc82611de2565b9050919050565b60008115159050919050565b6000819050611ddd82612288565b919050565b600073ffffffffffffffffffffffffffffffffffffffff82169050919050565b6000819050919050565b6000611e1782611dcf565b9050919050565b6000611e2982611e02565b91507fffffffffffffffffffffffffffffffffffffffffffffffffffffffffffffffff821415611e5c57611e5b611e96565b5b600182019050919050565b7f4e487b7100000000000000000000000000000000000000000000000000000000600052600160045260246000fd5b7f4e487b7100000000000000000000000000000000000000000000000000000000600052601160045260246000fd5b7f4e487b7100000000000000000000000000000000000000000000000000000000600052601260045260246000fd5b7f4e487b7100000000000000000000000000000000000000000000000000000000600052602160045260246000fd5b7f4e487b7100000000000000000000000000000000000000000000000000000000600052603160045260246000fd5b7f4e487b7100000000000000000000000000000000000000000000000000000000600052603260045260246000fd5b600080fd5b7f54686520706f6f6c20737461747573206973206e6f742063616e63656c656400600082015250565b7f5472616e73666572206661696c65640000000000000000000000000000000000600082015250565b7f4e6f20617661696c61626c652062616c616e6365000000000000000000000000600082015250565b7f4e6f74206120706f6f6c206d656d626572000000000000000000000000000000600082015250565b7f5265656e7472616e742063616c6c2e0000000000000000000000000000000000600082015250565b7f54686520636c61696d2063616e27742062652070726f6365737365642062656360008201527f6175736520746865206d656d626572206861732065786365656465642069747360208201527f206d6178696d756d20636f766572616765000000000000000000000000000000604082015250565b7f5032505f496e737572616e63652046616c6c6261636b207761732063616c6c6560008201527f6400000000000000000000000000000000000000000000000000000000000000602082015250565b7f4e6f74206120706f6f6c206d656d626572206f7220686520697320746865207060008201527f6f6f6c206d616e61676572000000000000000000000000000000000000000000602082015250565b7f54686520706f6f6c2069732073756365737366756c6c792063616e63656c6564600082015250565b50565b7f54686520706f6f6c20737461747573206973206e6f7420616374697665000000600082015250565b7f54686520706f6f6c20686173206e6f20656e6f7567682066756e642000000000600082015250565b7f4d656d62657220616c7265616479206a6f696e6564207468697320706f6f6c00600082015250565b7f4974206973206e6f742074686520706f6f6c206d616e61676572000000000000600082015250565b7f4974206973206e6f74206120706f6f6c206d656d626572000000000000000000600082015250565b7f54686520706f6f6c20737461747573206973206e6f7420696e69746961746564600082015250565b6004811061229957612298611ef4565b5b50565b6122a581611db1565b81146122b057600080fd5b50565b6122bc81611e02565b81146122c757600080fd5b5056fea2646970667358221220d15050d9f86dc387f8ec3935f5e3092e5cb1f743a7d60f4f5f51c4af209815d664736f6c63430008070033a264697066735822122068366ce3c9c0a160ebdc556a7e2f71208854922762b4d2104bf73c4c5d355bb264736f6c63430008070033",
  "immutableReferences": {},
  "source": "// SPDX-License-Identifier: MIT\npragma solidity 0.8.7;\n\nimport \"./InsurancePool.sol\";\n\n/** \n - Implements p2p insurance through creating insurance pools\n - I am using the factory design pattern: P2P_Insurance (the factory) that creates objects/smart contracts (InsurancePool)\n - Using wei as the payment unit (eth unit at the frontend level)\n - how to transfer to Wei in frontend :example: contracts['CrowdFunder'].contract.contribute({value: web3.toWei(12, 'ether')});\n */\n\ncontract P2P_Insurance {\n    \n    address immutable owner; //owner = platform\n    mapping(address => InsurancePool) public pools; // The pool address is the bridge between frontend and backend\n    \n    modifier onlyOwner(){\n        require (msg.sender == owner,\"It is not the contract owner\");\n        _;\n    }\n\n    modifier enoughPremiumPaid (uint _premium, uint _value) {\n        require (_value >= _premium,\"The amount paid is less than the pool premium\");\n        _;\n    }\n\n    modifier notFinishedOrCanceledPool (address _poolAddress) {\n        require (pools[_poolAddress].status() == InsurancePool.PoolStatus.Initiated || pools[_poolAddress].status() == InsurancePool.PoolStatus.Active,\n        \"The pool status is either finished or canceled\");\n        _;\n    }\n\n    //Register Events\n    event fallbackReceived(address sender, string message);\n\n\n    constructor () \n    {\n        owner = msg.sender;\n    }\n\n    function getMemberBalance(address poolAddress, address _memberAddress) public view returns (uint)\n    {\n        return pools[poolAddress].getMemberBalance(_memberAddress); \n    }\n    function getMemberTotalClaims(address poolAddress, address _memberAddress) public view returns(uint) \n    {\n        return pools[poolAddress].getMemberTotalClaims(_memberAddress);\n    }\n    function getMemberRemainingCoverage(address poolAddress, address _memberAddress) public view returns (uint)\n    {\n        return pools[poolAddress].getMemberRemainingCoverage(_memberAddress);\n    }\n\n    //Anyone can create a new pool that is open for other members to join'.\n    // each pool has a unique contract address as an escrew account for that specific pool.\n    // payment unit in Wei\n    //returns the pool address for the frontend\n    function createNewPool(uint _minNumberOfMembers, uint _premium, uint _maxCoveragePerMember) public payable enoughPremiumPaid(_premium, msg.value) returns (address _poolAddress)\n    {\n        uint _value = msg.value;\n        // create a new pool instance\n        InsurancePool pool = new InsurancePool();\n        _poolAddress = address(pool);\n        // create a new pool and transfer the premim to the pool contract\n        pool.createPool {value: _value}(msg.sender,_minNumberOfMembers,_premium,_maxCoveragePerMember);\n        pools[_poolAddress] = pool;\n    } \n\n    // User can join an address and pay the premium, as a result he becomes a pool member\n    function joinPool(address _poolAddress) public payable notFinishedOrCanceledPool(_poolAddress) enoughPremiumPaid(pools[_poolAddress].premium(), msg.value)\n    {\n        pools[_poolAddress].joinPool{value: msg.value}(msg.sender);\n    }\n\n    //The pool manager can cancel a pool if it is still in the initiated status - as example, for long time the pool not reaches the minimum requirements to be activated\n    function cancelPool (address _poolAddress) public\n    {\n        pools[_poolAddress].cancelPool(msg.sender);\n    }\n\n    // the pool is finshed once the policy expired after one year since activation (UI/Frontend validation)\n    // Only the pool manager has the right to call this function\n    function finshPool (address _poolAddress) public returns (bool)\n    {\n        return pools[_poolAddress].finishPool(msg.sender);\n        //do we need to empty the pool? I think No, because we need to have the pool history onchain for transparency\n        //In future, we can offer to renew the pool once policy is expired\n    }\n\n    // member can cancel his subscription in a specific pool as long as the pool is not activated. The pool will refund the premium to his balance\n    function cancelMembershipBeforPoolActivation (address _poolAddress) public returns (bool)\n    {\n        return pools[_poolAddress].cancelSubscription(msg.sender);\n    }\n\n    /* There should be an eligibility process in place to validate the claims' reqests, \n       but this will not be developed in the current project.\n\n        checks for claims could be managed later through hybrid ways :\n            1-  Mainly, building a consensys voting mechansim, where the pool members vote to reimburse a teammate\n            2-  offchain integration with trusted external data sources\n            3-  Connecting to offchain/onchain oracles, such as delayed flights,etc.\n\n        At this project (POC), we consider the claim request is eligible and approved by majority of pool members\n    */ \n    function requestClaim(address _poolAddress, uint _claimAmount) public returns (bool)\n    {\n        return pools[_poolAddress].requestClaim(msg.sender, _claimAmount); \n    } \n\n    // member can withdraw his avialable balance (in case of cancelation, refund , etc.)\n    function withdrawBalance(address _poolAddress) public //\n    {\n        pools[_poolAddress].withdrawBalance(msg.sender);\n    }\n\n    //fall back function \n    //it is not payable - not accepting to receive plain ether and this will raise an exception !    \n    fallback() external  {\n        emit fallbackReceived(msg.sender,\"P2P_Insurance Fallback was called\");\n    }\n}\n",
  "sourcePath": "/mnt/c/Users/pc1/projects/blockchain-developer-bootcamp-final-project/contracts/P2P_Insurance.sol",
  "compiler": {
    "name": "solc",
    "version": "0.8.7+commit.e28d00a7.Emscripten.clang"
  },
  "schemaVersion": "3.4.2",
  "updatedAt": "2021-12-03T13:59:32.246Z",
  "networkType": "ethereum",
  "devdoc": {
    "kind": "dev",
    "methods": {},
    "version": 1
  },
  "userdoc": {
    "kind": "user",
    "methods": {},
    "notice": "- Implements p2p insurance through creating insurance pools - I am using the factory design pattern: P2P_Insurance (the factory) that creates objects/smart contracts (InsurancePool) - Using wei as the payment unit (eth unit at the frontend level) - how to transfer to Wei in frontend :example: contracts['CrowdFunder'].contract.contribute({value: web3.toWei(12, 'ether')});",
    "version": 1
  }
}